{
  "_format": "hh-sol-artifact-1",
  "contractName": "OrderBook",
  "sourceName": "contracts/OrderBook.sol",
  "abi": [
    {
      "inputs": [
        {
          "internalType": "address",
          "name": "_tokenAAddress",
          "type": "address"
        },
        {
          "internalType": "uint256",
          "name": "_tokenADecimals",
          "type": "uint256"
        },
        {
          "internalType": "address",
          "name": "_tokenBAddress",
          "type": "address"
        },
        {
          "internalType": "uint256",
          "name": "_tokenBDecimals",
          "type": "uint256"
        }
      ],
      "stateMutability": "nonpayable",
      "type": "constructor"
    },
    {
      "inputs": [
        {
          "internalType": "uint96",
          "name": "_price",
          "type": "uint96"
        },
        {
          "internalType": "uint256",
          "name": "size",
          "type": "uint256"
        }
      ],
      "name": "addBuyOrder",
      "outputs": [],
      "stateMutability": "nonpayable",
      "type": "function"
    },
    {
      "inputs": [
        {
          "internalType": "uint96",
          "name": "_price",
          "type": "uint96"
        },
        {
          "internalType": "uint256",
          "name": "size",
          "type": "uint256"
        }
      ],
      "name": "addSellOrder",
      "outputs": [],
      "stateMutability": "nonpayable",
      "type": "function"
    },
    {
      "inputs": [
        {
          "internalType": "uint256",
          "name": "_orderId",
          "type": "uint256"
        }
      ],
      "name": "cancelBuyOrder",
      "outputs": [],
      "stateMutability": "nonpayable",
      "type": "function"
    },
    {
      "inputs": [
        {
          "internalType": "uint256",
          "name": "_orderId",
          "type": "uint256"
        }
      ],
      "name": "cancelSellOrder",
      "outputs": [],
      "stateMutability": "nonpayable",
      "type": "function"
    },
    {
      "inputs": [
        {
          "internalType": "uint256",
          "name": "_orderId",
          "type": "uint256"
        }
      ],
      "name": "claimBuyLimitOrder",
      "outputs": [],
      "stateMutability": "nonpayable",
      "type": "function"
    },
    {
      "inputs": [
        {
          "internalType": "uint256",
          "name": "_orderId",
          "type": "uint256"
        }
      ],
      "name": "claimSellLimitOrder",
      "outputs": [],
      "stateMutability": "nonpayable",
      "type": "function"
    },
    {
      "inputs": [
        {
          "internalType": "uint96[]",
          "name": "c_min_asks",
          "type": "uint96[]"
        },
        {
          "internalType": "uint256",
          "name": "_size",
          "type": "uint256"
        }
      ],
      "name": "placeAndExecuteMarketBuy",
      "outputs": [],
      "stateMutability": "nonpayable",
      "type": "function"
    },
    {
      "inputs": [
        {
          "internalType": "uint96[]",
          "name": "c_max_bids",
          "type": "uint96[]"
        },
        {
          "internalType": "uint256",
          "name": "_size",
          "type": "uint256"
        }
      ],
      "name": "placeAndExecuteMarketSell",
      "outputs": [],
      "stateMutability": "nonpayable",
      "type": "function"
    },
    {
      "inputs": [
        {
          "internalType": "uint256",
          "name": "",
          "type": "uint256"
        }
      ],
      "name": "s_buyPricePoints",
      "outputs": [
        {
          "internalType": "uint256",
          "name": "totalCompletedOrCanceledOrders",
          "type": "uint256"
        },
        {
          "internalType": "uint256",
          "name": "totalOrdersAtPrice",
          "type": "uint256"
        },
        {
          "internalType": "uint256",
          "name": "executableSize",
          "type": "uint256"
        }
      ],
      "stateMutability": "view",
      "type": "function"
    },
    {
      "inputs": [],
      "name": "s_orderIdCounter",
      "outputs": [
        {
          "internalType": "uint256",
          "name": "",
          "type": "uint256"
        }
      ],
      "stateMutability": "view",
      "type": "function"
    },
    {
      "inputs": [
        {
          "internalType": "uint256",
          "name": "",
          "type": "uint256"
        }
      ],
      "name": "s_orders",
      "outputs": [
        {
          "internalType": "address",
          "name": "ownerAddress",
          "type": "address"
        },
        {
          "internalType": "uint96",
          "name": "price",
          "type": "uint96"
        },
        {
          "internalType": "uint256",
          "name": "size",
          "type": "uint256"
        },
        {
          "internalType": "uint256",
          "name": "acceptableRange",
          "type": "uint256"
        }
      ],
      "stateMutability": "view",
      "type": "function"
    },
    {
      "inputs": [
        {
          "internalType": "uint256",
          "name": "",
          "type": "uint256"
        }
      ],
      "name": "s_sellPricePoints",
      "outputs": [
        {
          "internalType": "uint256",
          "name": "totalCompletedOrCanceledOrders",
          "type": "uint256"
        },
        {
          "internalType": "uint256",
          "name": "totalOrdersAtPrice",
          "type": "uint256"
        },
        {
          "internalType": "uint256",
          "name": "executableSize",
          "type": "uint256"
        }
      ],
      "stateMutability": "view",
      "type": "function"
    }
  ],
  "bytecode": "0x6101006040523480156200001257600080fd5b5060405162002baf38038062002baf833981810160405281019062000038919062000167565b838383838373ffffffffffffffffffffffffffffffffffffffff1660808173ffffffffffffffffffffffffffffffffffffffff16815250508173ffffffffffffffffffffffffffffffffffffffff1660a08173ffffffffffffffffffffffffffffffffffffffff16815250508260c081815250508060e081815250505050505050505050620001d9565b600080fd5b600073ffffffffffffffffffffffffffffffffffffffff82169050919050565b6000620000f482620000c7565b9050919050565b6200010681620000e7565b81146200011257600080fd5b50565b6000815190506200012681620000fb565b92915050565b6000819050919050565b62000141816200012c565b81146200014d57600080fd5b50565b600081519050620001618162000136565b92915050565b60008060008060808587031215620001845762000183620000c2565b5b6000620001948782880162000115565b9450506020620001a78782880162000150565b9350506040620001ba8782880162000115565b9250506060620001cd8782880162000150565b91505092959194509250565b60805160a05160c05160e05161292c620002836000396000818161052a01528181610a57015281816111df015281816116130152611c110152600081816108fe01528181610e120152818161171601528181611b170152611da00152600081816104b801528181610a080152818161118d015281816115c40152611bc30152600081816108b101528181610da5015281816116cd01528181611acd0152611d56015261292c6000f3fe608060405234801561001057600080fd5b50600436106100b45760003560e01c8063a6f3c50f11610071578063a6f3c50f14610179578063be5d147f146101ac578063db225c48146101c8578063dfc67a3f146101e4578063e6d29b5114610200578063f2ea2ef614610232576100b4565b806302e0d258146100b95780630e2e2ffe146100d55780631a46e42a1461010757806325df67c7146101235780632bf1360e1461013f5780637e78e05f1461015d575b600080fd5b6100d360048036038101906100ce9190611fd3565b61024e565b005b6100ef60048036038101906100ea9190611fd3565b61069c565b6040516100fe9392919061200f565b60405180910390f35b610121600480360381019061011c9190611fd3565b6106c6565b005b61013d6004803603810190610138919061208a565b6109af565b005b610147610b35565b60405161015491906120ca565b60405180910390f35b61017760048036038101906101729190611fd3565b610b3b565b005b610193600480360381019061018e9190611fd3565b610f3a565b6040516101a39493929190612135565b60405180910390f35b6101c660048036038101906101c19190611fd3565b610fa2565b005b6101e260048036038101906101dd91906121df565b6112c2565b005b6101fe60048036038101906101f991906121df565b6117ca565b005b61021a60048036038101906102159190611fd3565b611cd3565b6040516102299392919061200f565b60405180910390f35b61024c6004803603810190610247919061208a565b611cfd565b005b60008060008381526020019081526020016000209050600073ffffffffffffffffffffffffffffffffffffffff168160000160009054906101000a900473ffffffffffffffffffffffffffffffffffffffff1673ffffffffffffffffffffffffffffffffffffffff16036102f7576040517f08c379a00000000000000000000000000000000000000000000000000000000081526004016102ee9061229c565b60405180910390fd5b8060000160009054906101000a900473ffffffffffffffffffffffffffffffffffffffff1673ffffffffffffffffffffffffffffffffffffffff163373ffffffffffffffffffffffffffffffffffffffff1614610389576040517f08c379a00000000000000000000000000000000000000000000000000000000081526004016103809061232e565b60405180910390fd5b6000600260008360000160149054906101000a90046bffffffffffffffffffffffff166bffffffffffffffffffffffff1681526020019081526020016000209050806000015481600201546103de919061237d565b826002015410610423576040517f08c379a000000000000000000000000000000000000000000000000000000000815260040161041a906123fd565b60405180910390fd5b600082600201548260000154836002015461043e919061237d565b610448919061241d565b905060008360010154821161045d5781610463565b83600101545b905080846001016000828254610479919061241d565b9250508190555080836000016000828254610494919061237d565b92505081905550808360020160008282546104af919061241d565b925050819055507f000000000000000000000000000000000000000000000000000000000000000073ffffffffffffffffffffffffffffffffffffffff1663a9059cbb8560000160009054906101000a900473ffffffffffffffffffffffffffffffffffffffff166105bc6402540be4006105ae60646105a07f0000000000000000000000000000000000000000000000000000000000000000600a6105559190612584565b6105928d60000160149054906101000a90046bffffffffffffffffffffffff166bffffffffffffffffffffffff168b611e5090919063ffffffff16565b611e5090919063ffffffff16565b611e6690919063ffffffff16565b611e6690919063ffffffff16565b6040518363ffffffff1660e01b81526004016105d99291906125cf565b6020604051808303816000875af11580156105f8573d6000803e3d6000fd5b505050506040513d601f19601f8201168201806040525081019061061c9190612630565b50600084600101540361069557600080868152602001908152602001600020600080820160006101000a81549073ffffffffffffffffffffffffffffffffffffffff02191690556000820160146101000a8154906bffffffffffffffffffffffff02191690556001820160009055600282016000905550505b5050505050565b60026020528060005260406000206000915090508060000154908060010154908060020154905083565b60008060008381526020019081526020016000206040518060800160405290816000820160009054906101000a900473ffffffffffffffffffffffffffffffffffffffff1673ffffffffffffffffffffffffffffffffffffffff1673ffffffffffffffffffffffffffffffffffffffff1681526020016000820160149054906101000a90046bffffffffffffffffffffffff166bffffffffffffffffffffffff166bffffffffffffffffffffffff168152602001600182015481526020016002820154815250509050806000015173ffffffffffffffffffffffffffffffffffffffff163373ffffffffffffffffffffffffffffffffffffffff1614610801576040517f08c379a00000000000000000000000000000000000000000000000000000000081526004016107f8906126cf565b60405180910390fd5b80604001516002600083602001516bffffffffffffffffffffffff168152602001908152602001600020600001600082825461083d919061237d565b92505081905550600080838152602001908152602001600020600080820160006101000a81549073ffffffffffffffffffffffffffffffffffffffff02191690556000820160146101000a8154906bffffffffffffffffffffffff02191690556001820160009055600282016000905550507f000000000000000000000000000000000000000000000000000000000000000073ffffffffffffffffffffffffffffffffffffffff1663a9059cbb826000015161094a6402540be40061093c7f0000000000000000000000000000000000000000000000000000000000000000600a6109299190612584565b8760400151611e5090919063ffffffff16565b611e6690919063ffffffff16565b6040518363ffffffff1660e01b81526004016109679291906125cf565b6020604051808303816000875af1158015610986573d6000803e3d6000fd5b505050506040513d601f19601f820116820180604052508101906109aa9190612630565b505050565b600060035490506001816109c3919061237d565b600381905550600060016000856bffffffffffffffffffffffff1681526020019081526020016000209050610a06818585600186610a01919061237d565b611e7c565b7f000000000000000000000000000000000000000000000000000000000000000073ffffffffffffffffffffffffffffffffffffffff166323b872dd3330610acd6402540be400610abf6064610ab17f0000000000000000000000000000000000000000000000000000000000000000600a610a829190612584565b610aa38e6bffffffffffffffffffffffff168e611e5090919063ffffffff16565b611e5090919063ffffffff16565b611e6690919063ffffffff16565b611e6690919063ffffffff16565b6040518463ffffffff1660e01b8152600401610aeb939291906126ef565b6020604051808303816000875af1158015610b0a573d6000803e3d6000fd5b505050506040513d601f19601f82011682018060405250810190610b2e9190612630565b5050505050565b60035481565b60008060008381526020019081526020016000209050600073ffffffffffffffffffffffffffffffffffffffff168160000160009054906101000a900473ffffffffffffffffffffffffffffffffffffffff1673ffffffffffffffffffffffffffffffffffffffff1603610be4576040517f08c379a0000000000000000000000000000000000000000000000000000000008152600401610bdb9061229c565b60405180910390fd5b8060000160009054906101000a900473ffffffffffffffffffffffffffffffffffffffff1673ffffffffffffffffffffffffffffffffffffffff163373ffffffffffffffffffffffffffffffffffffffff1614610c76576040517f08c379a0000000000000000000000000000000000000000000000000000000008152600401610c6d9061232e565b60405180910390fd5b6000600160008360000160149054906101000a90046bffffffffffffffffffffffff166bffffffffffffffffffffffff168152602001908152602001600020905080600001548160020154610ccb919061237d565b826002015410610d10576040517f08c379a0000000000000000000000000000000000000000000000000000000008152600401610d07906123fd565b60405180910390fd5b6000826002015482600001548360020154610d2b919061237d565b610d35919061241d565b9050600083600101548211610d4a5781610d50565b83600101545b905080846001016000828254610d66919061241d565b9250508190555080836000016000828254610d81919061237d565b9250508190555080836002016000828254610d9c919061241d565b925050819055507f000000000000000000000000000000000000000000000000000000000000000073ffffffffffffffffffffffffffffffffffffffff1663a9059cbb8560000160009054906101000a900473ffffffffffffffffffffffffffffffffffffffff16610e5a6402540be400610e4c7f0000000000000000000000000000000000000000000000000000000000000000600a610e3d9190612584565b87611e5090919063ffffffff16565b611e6690919063ffffffff16565b6040518363ffffffff1660e01b8152600401610e779291906125cf565b6020604051808303816000875af1158015610e96573d6000803e3d6000fd5b505050506040513d601f19601f82011682018060405250810190610eba9190612630565b506000846001015403610f3357600080868152602001908152602001600020600080820160006101000a81549073ffffffffffffffffffffffffffffffffffffffff02191690556000820160146101000a8154906bffffffffffffffffffffffff02191690556001820160009055600282016000905550505b5050505050565b60006020528060005260406000206000915090508060000160009054906101000a900473ffffffffffffffffffffffffffffffffffffffff16908060000160149054906101000a90046bffffffffffffffffffffffff16908060010154908060020154905084565b60008060008381526020019081526020016000206040518060800160405290816000820160009054906101000a900473ffffffffffffffffffffffffffffffffffffffff1673ffffffffffffffffffffffffffffffffffffffff1673ffffffffffffffffffffffffffffffffffffffff1681526020016000820160149054906101000a90046bffffffffffffffffffffffff166bffffffffffffffffffffffff166bffffffffffffffffffffffff168152602001600182015481526020016002820154815250509050806000015173ffffffffffffffffffffffffffffffffffffffff163373ffffffffffffffffffffffffffffffffffffffff16146110dd576040517f08c379a00000000000000000000000000000000000000000000000000000000081526004016110d4906126cf565b60405180910390fd5b80604001516001600083602001516bffffffffffffffffffffffff1681526020019081526020016000206000016000828254611119919061237d565b92505081905550600080838152602001908152602001600020600080820160006101000a81549073ffffffffffffffffffffffffffffffffffffffff02191690556000820160146101000a8154906bffffffffffffffffffffffff02191690556001820160009055600282016000905550507f000000000000000000000000000000000000000000000000000000000000000073ffffffffffffffffffffffffffffffffffffffff1663a9059cbb826000015161125d6402540be40061124f60646112417f0000000000000000000000000000000000000000000000000000000000000000600a61120a9190612584565b6112338a602001516bffffffffffffffffffffffff168b60400151611e5090919063ffffffff16565b611e5090919063ffffffff16565b611e6690919063ffffffff16565b611e6690919063ffffffff16565b6040518363ffffffff1660e01b815260040161127a9291906125cf565b6020604051808303816000875af1158015611299573d6000803e3d6000fd5b505050506040513d601f19601f820116820180604052508101906112bd9190612630565b505050565b60008111611305576040517f08c379a00000000000000000000000000000000000000000000000000000000081526004016112fc90612798565b60405180910390fd5b6000808484836bffffffffffffffffffffffff16818110611329576113286127b8565b5b905060200201602081019061133e91906127e7565b6bffffffffffffffffffffffff1690506000600260008381526020019081526020016000206040518060600160405290816000820154815260200160018201548152602001600282015481525050905060008160400151826000015183602001516113a9919061241d565b6113b3919061241d565b90506000805b828710611520576113d38584611e5090919063ffffffff16565b826113de919061237d565b915082846040018181516113f2919061237d565b915081815250508287611405919061241d565b96508281611413919061237d565b905083600260008781526020019081526020016000206000820151816000015560208201518160010155604082015181600201559050506001866114579190612814565b955088889050866bffffffffffffffffffffffff160315611520578888876bffffffffffffffffffffffff16818110611493576114926127b8565b5b90506020020160208101906114a891906127e7565b6bffffffffffffffffffffffff169450600260008681526020019081526020016000206040518060600160405290816000820154815260200160018201548152602001600282015481525050935083604001518460000151856020015161150f919061241d565b611519919061241d565b92506113b9565b600087118015611540575088889050866bffffffffffffffffffffffff16105b156115c2576115588588611e5090919063ffffffff16565b82611563919061237d565b91508684604001818151611577919061237d565b91508181525050868161158a919061237d565b905083600260008781526020019081526020016000206000820151816000015560208201518160010155604082015181600201559050505b7f000000000000000000000000000000000000000000000000000000000000000073ffffffffffffffffffffffffffffffffffffffff166323b872dd33306116696402540be40061165b606461164d7f0000000000000000000000000000000000000000000000000000000000000000600a61163e9190612584565b8b611e5090919063ffffffff16565b611e6690919063ffffffff16565b611e6690919063ffffffff16565b6040518463ffffffff1660e01b8152600401611687939291906126ef565b6020604051808303816000875af11580156116a6573d6000803e3d6000fd5b505050506040513d601f19601f820116820180604052508101906116ca9190612630565b507f000000000000000000000000000000000000000000000000000000000000000073ffffffffffffffffffffffffffffffffffffffff1663a9059cbb3361175e6402540be4006117507f0000000000000000000000000000000000000000000000000000000000000000600a6117419190612584565b87611e5090919063ffffffff16565b611e6690919063ffffffff16565b6040518363ffffffff1660e01b815260040161177b9291906125cf565b6020604051808303816000875af115801561179a573d6000803e3d6000fd5b505050506040513d601f19601f820116820180604052508101906117be9190612630565b50505050505050505050565b6000811161180d576040517f08c379a000000000000000000000000000000000000000000000000000000000815260040161180490612798565b60405180910390fd5b6000808484836bffffffffffffffffffffffff16818110611831576118306127b8565b5b905060200201602081019061184691906127e7565b6bffffffffffffffffffffffff1690506000600160008381526020019081526020016000206040518060600160405290816000820154815260200160018201548152602001600282015481525050905060008160400151826000015183602001516118b1919061241d565b6118bb919061241d565b90506000805b82871115611a29576118dc8584611e5090919063ffffffff16565b826118e7919061237d565b915082846040018181516118fb919061237d565b91508181525050828761190e919061241d565b9650828161191c919061237d565b905083600160008781526020019081526020016000206000820151816000015560208201518160010155604082015181600201559050506001866119609190612814565b955088889050866bffffffffffffffffffffffff160315611a29578888876bffffffffffffffffffffffff1681811061199c5761199b6127b8565b5b90506020020160208101906119b191906127e7565b6bffffffffffffffffffffffff1694506001600086815260200190815260200160002060405180606001604052908160008201548152602001600182015481526020016002820154815250509350836040015184600001518560200151611a18919061241d565b611a22919061241d565b92506118c1565b600087118015611a49575088889050866bffffffffffffffffffffffff16105b15611acb57611a618588611e5090919063ffffffff16565b82611a6c919061237d565b91508684604001818151611a80919061237d565b915081815250508681611a93919061237d565b905083600160008781526020019081526020016000206000820151816000015560208201518160010155604082015181600201559050505b7f000000000000000000000000000000000000000000000000000000000000000073ffffffffffffffffffffffffffffffffffffffff166323b872dd3330611b5f6402540be400611b517f0000000000000000000000000000000000000000000000000000000000000000600a611b429190612584565b88611e5090919063ffffffff16565b611e6690919063ffffffff16565b6040518463ffffffff1660e01b8152600401611b7d939291906126ef565b6020604051808303816000875af1158015611b9c573d6000803e3d6000fd5b505050506040513d601f19601f82011682018060405250810190611bc09190612630565b507f000000000000000000000000000000000000000000000000000000000000000073ffffffffffffffffffffffffffffffffffffffff1663a9059cbb33611c676402540be400611c596064611c4b7f0000000000000000000000000000000000000000000000000000000000000000600a611c3c9190612584565b8a611e5090919063ffffffff16565b611e6690919063ffffffff16565b611e6690919063ffffffff16565b6040518363ffffffff1660e01b8152600401611c849291906125cf565b6020604051808303816000875af1158015611ca3573d6000803e3d6000fd5b505050506040513d601f19601f82011682018060405250810190611cc79190612630565b50505050505050505050565b60016020528060005260406000206000915090508060000154908060010154908060020154905083565b60006003549050600181611d11919061237d565b600381905550600060026000856bffffffffffffffffffffffff1681526020019081526020016000209050611d54818585600186611d4f919061237d565b611e7c565b7f000000000000000000000000000000000000000000000000000000000000000073ffffffffffffffffffffffffffffffffffffffff166323b872dd3330611de86402540be400611dda7f0000000000000000000000000000000000000000000000000000000000000000600a611dcb9190612584565b8a611e5090919063ffffffff16565b611e6690919063ffffffff16565b6040518463ffffffff1660e01b8152600401611e06939291906126ef565b6020604051808303816000875af1158015611e25573d6000803e3d6000fd5b505050506040513d601f19601f82011682018060405250810190611e499190612630565b5050505050565b60008183611e5e9190612854565b905092915050565b60008183611e7491906128c5565b905092915050565b60008460010154905060405180608001604052803373ffffffffffffffffffffffffffffffffffffffff168152602001856bffffffffffffffffffffffff1681526020018481526020018281525060008084815260200190815260200160002060008201518160000160006101000a81548173ffffffffffffffffffffffffffffffffffffffff021916908373ffffffffffffffffffffffffffffffffffffffff16021790555060208201518160000160146101000a8154816bffffffffffffffffffffffff02191690836bffffffffffffffffffffffff160217905550604082015181600101556060820151816002015590505082856001016000828254611f85919061237d565b925050819055505050505050565b600080fd5b600080fd5b6000819050919050565b611fb081611f9d565b8114611fbb57600080fd5b50565b600081359050611fcd81611fa7565b92915050565b600060208284031215611fe957611fe8611f93565b5b6000611ff784828501611fbe565b91505092915050565b61200981611f9d565b82525050565b60006060820190506120246000830186612000565b6120316020830185612000565b61203e6040830184612000565b949350505050565b60006bffffffffffffffffffffffff82169050919050565b61206781612046565b811461207257600080fd5b50565b6000813590506120848161205e565b92915050565b600080604083850312156120a1576120a0611f93565b5b60006120af85828601612075565b92505060206120c085828601611fbe565b9150509250929050565b60006020820190506120df6000830184612000565b92915050565b600073ffffffffffffffffffffffffffffffffffffffff82169050919050565b6000612110826120e5565b9050919050565b61212081612105565b82525050565b61212f81612046565b82525050565b600060808201905061214a6000830187612117565b6121576020830186612126565b6121646040830185612000565b6121716060830184612000565b95945050505050565b600080fd5b600080fd5b600080fd5b60008083601f84011261219f5761219e61217a565b5b8235905067ffffffffffffffff8111156121bc576121bb61217f565b5b6020830191508360208202830111156121d8576121d7612184565b5b9250929050565b6000806000604084860312156121f8576121f7611f93565b5b600084013567ffffffffffffffff81111561221657612215611f98565b5b61222286828701612189565b9350935050602061223586828701611fbe565b9150509250925092565b600082825260208201905092915050565b7f4f72646572426f6f6b3a206f7264657220646f65736e27742065786973740000600082015250565b6000612286601e8361223f565b915061229182612250565b602082019050919050565b600060208201905081810360008301526122b581612279565b9050919050565b7f4f72646572426f6f6b3a206f6e6c79206f72646572206f776e65722063616e2060008201527f636c61696d000000000000000000000000000000000000000000000000000000602082015250565b600061231860258361223f565b9150612323826122bc565b604082019050919050565b600060208201905081810360008301526123478161230b565b9050919050565b7f4e487b7100000000000000000000000000000000000000000000000000000000600052601160045260246000fd5b600061238882611f9d565b915061239383611f9d565b92508282019050808211156123ab576123aa61234e565b5b92915050565b7f4f72646572426f6f6b3a206f72646572206e6f742065786563757461626c6500600082015250565b60006123e7601f8361223f565b91506123f2826123b1565b602082019050919050565b60006020820190508181036000830152612416816123da565b9050919050565b600061242882611f9d565b915061243383611f9d565b925082820390508181111561244b5761244a61234e565b5b92915050565b60008160011c9050919050565b6000808291508390505b60018511156124a8578086048111156124845761248361234e565b5b60018516156124935780820291505b80810290506124a185612451565b9450612468565b94509492505050565b6000826124c1576001905061257d565b816124cf576000905061257d565b81600181146124e557600281146124ef5761251e565b600191505061257d565b60ff8411156125015761250061234e565b5b8360020a9150848211156125185761251761234e565b5b5061257d565b5060208310610133831016604e8410600b84101617156125535782820a90508381111561254e5761254d61234e565b5b61257d565b612560848484600161245e565b925090508184048111156125775761257661234e565b5b81810290505b9392505050565b600061258f82611f9d565b915061259a83611f9d565b92506125c77fffffffffffffffffffffffffffffffffffffffffffffffffffffffffffffffff84846124b1565b905092915050565b60006040820190506125e46000830185612117565b6125f16020830184612000565b9392505050565b60008115159050919050565b61260d816125f8565b811461261857600080fd5b50565b60008151905061262a81612604565b92915050565b60006020828403121561264657612645611f93565b5b60006126548482850161261b565b91505092915050565b7f4f72646572426f6f6b3a204f6e6c79206f72646572206f776e65722063616e2060008201527f63616e63656c206f726465720000000000000000000000000000000000000000602082015250565b60006126b9602c8361223f565b91506126c48261265d565b604082019050919050565b600060208201905081810360008301526126e8816126ac565b9050919050565b60006060820190506127046000830186612117565b6127116020830185612117565b61271e6040830184612000565b949350505050565b7f4f72646572426f6f6b3a2073697a65206d75737420626520677265617465722060008201527f7468616e20300000000000000000000000000000000000000000000000000000602082015250565b600061278260268361223f565b915061278d82612726565b604082019050919050565b600060208201905081810360008301526127b181612775565b9050919050565b7f4e487b7100000000000000000000000000000000000000000000000000000000600052603260045260246000fd5b6000602082840312156127fd576127fc611f93565b5b600061280b84828501612075565b91505092915050565b600061281f82612046565b915061282a83612046565b925082820190506bffffffffffffffffffffffff81111561284e5761284d61234e565b5b92915050565b600061285f82611f9d565b915061286a83611f9d565b925082820261287881611f9d565b9150828204841483151761288f5761288e61234e565b5b5092915050565b7f4e487b7100000000000000000000000000000000000000000000000000000000600052601260045260246000fd5b60006128d082611f9d565b91506128db83611f9d565b9250826128eb576128ea612896565b5b82820490509291505056fea2646970667358221220887b5287272bf3f5eca83c5902ebec23d47ecdd9f84489f64f5df179cd940a7e64736f6c63430008110033",
  "linkReferences": {},
  "deployedLinkReferences": {}
}