{
  "_format": "hh-sol-artifact-1",
  "contractName": "OrderBook",
  "sourceName": "contracts/OrderBook.sol",
  "abi": [
    {
      "inputs": [
        {
          "internalType": "address",
          "name": "_tokenAAddress",
          "type": "address"
        },
        {
          "internalType": "uint256",
          "name": "_tokenADecimals",
          "type": "uint256"
        },
        {
          "internalType": "address",
          "name": "_tokenBAddress",
          "type": "address"
        },
        {
          "internalType": "uint256",
          "name": "_tokenBDecimals",
          "type": "uint256"
        }
      ],
      "stateMutability": "nonpayable",
      "type": "constructor"
    },
    {
      "inputs": [
        {
          "internalType": "uint96",
          "name": "_price",
          "type": "uint96"
        },
        {
          "internalType": "uint128",
          "name": "size",
          "type": "uint128"
        }
      ],
      "name": "addBuyOrder",
      "outputs": [],
      "stateMutability": "nonpayable",
      "type": "function"
    },
    {
      "inputs": [
        {
          "internalType": "uint96",
          "name": "_price",
          "type": "uint96"
        },
        {
          "internalType": "uint128",
          "name": "size",
          "type": "uint128"
        }
      ],
      "name": "addSellOrder",
      "outputs": [],
      "stateMutability": "nonpayable",
      "type": "function"
    },
    {
      "inputs": [
        {
          "internalType": "uint256[]",
          "name": "_orderIds",
          "type": "uint256[]"
        },
        {
          "internalType": "bool[]",
          "name": "_isBuy",
          "type": "bool[]"
        }
      ],
      "name": "batchCancelOrders",
      "outputs": [],
      "stateMutability": "nonpayable",
      "type": "function"
    },
    {
      "inputs": [
        {
          "internalType": "uint256",
          "name": "_orderId",
          "type": "uint256"
        }
      ],
      "name": "cancelBuyOrder",
      "outputs": [],
      "stateMutability": "nonpayable",
      "type": "function"
    },
    {
      "inputs": [
        {
          "internalType": "uint256",
          "name": "_orderId",
          "type": "uint256"
        }
      ],
      "name": "cancelSellOrder",
      "outputs": [],
      "stateMutability": "nonpayable",
      "type": "function"
    },
    {
      "inputs": [
        {
          "internalType": "uint256",
          "name": "_orderId",
          "type": "uint256"
        }
      ],
      "name": "claimBuyLimitOrder",
      "outputs": [],
      "stateMutability": "nonpayable",
      "type": "function"
    },
    {
      "inputs": [
        {
          "internalType": "uint256",
          "name": "_orderId",
          "type": "uint256"
        }
      ],
      "name": "claimSellLimitOrder",
      "outputs": [],
      "stateMutability": "nonpayable",
      "type": "function"
    },
    {
      "inputs": [
        {
          "internalType": "uint96[]",
          "name": "c_min_asks",
          "type": "uint96[]"
        },
        {
          "internalType": "uint128",
          "name": "_size",
          "type": "uint128"
        }
      ],
      "name": "placeAndExecuteMarketBuy",
      "outputs": [],
      "stateMutability": "nonpayable",
      "type": "function"
    },
    {
      "inputs": [
        {
          "internalType": "uint96[]",
          "name": "c_max_bids",
          "type": "uint96[]"
        },
        {
          "internalType": "uint128",
          "name": "_size",
          "type": "uint128"
        }
      ],
      "name": "placeAndExecuteMarketSell",
      "outputs": [],
      "stateMutability": "nonpayable",
      "type": "function"
    },
    {
      "inputs": [
        {
          "internalType": "uint96[]",
          "name": "_prices",
          "type": "uint96[]"
        },
        {
          "internalType": "uint128[]",
          "name": "_sizes",
          "type": "uint128[]"
        }
      ],
      "name": "placeMultipleBuyOrders",
      "outputs": [],
      "stateMutability": "nonpayable",
      "type": "function"
    },
    {
      "inputs": [
        {
          "internalType": "uint96[]",
          "name": "_prices",
          "type": "uint96[]"
        },
        {
          "internalType": "uint128[]",
          "name": "_sizes",
          "type": "uint128[]"
        }
      ],
      "name": "placeMultipleSellOrders",
      "outputs": [],
      "stateMutability": "nonpayable",
      "type": "function"
    },
    {
      "inputs": [
        {
          "internalType": "uint256[]",
          "name": "_orderIds",
          "type": "uint256[]"
        },
        {
          "internalType": "bool[]",
          "name": "_isBuy",
          "type": "bool[]"
        },
        {
          "internalType": "uint96[]",
          "name": "_price",
          "type": "uint96[]"
        }
      ],
      "name": "replaceOrders",
      "outputs": [],
      "stateMutability": "nonpayable",
      "type": "function"
    },
    {
      "inputs": [
        {
          "internalType": "uint256",
          "name": "",
          "type": "uint256"
        }
      ],
      "name": "s_buyPricePoints",
      "outputs": [
        {
          "internalType": "uint128",
          "name": "totalCompletedOrCanceledOrders",
          "type": "uint128"
        },
        {
          "internalType": "uint128",
          "name": "totalOrdersAtPrice",
          "type": "uint128"
        },
        {
          "internalType": "uint128",
          "name": "executableSize",
          "type": "uint128"
        }
      ],
      "stateMutability": "view",
      "type": "function"
    },
    {
      "inputs": [],
      "name": "s_orderIdCounter",
      "outputs": [
        {
          "internalType": "uint256",
          "name": "",
          "type": "uint256"
        }
      ],
      "stateMutability": "view",
      "type": "function"
    },
    {
      "inputs": [
        {
          "internalType": "uint256",
          "name": "",
          "type": "uint256"
        }
      ],
      "name": "s_orders",
      "outputs": [
        {
          "internalType": "address",
          "name": "ownerAddress",
          "type": "address"
        },
        {
          "internalType": "uint96",
          "name": "price",
          "type": "uint96"
        },
        {
          "internalType": "uint128",
          "name": "size",
          "type": "uint128"
        },
        {
          "internalType": "uint128",
          "name": "acceptableRange",
          "type": "uint128"
        }
      ],
      "stateMutability": "view",
      "type": "function"
    },
    {
      "inputs": [
        {
          "internalType": "uint256",
          "name": "",
          "type": "uint256"
        }
      ],
      "name": "s_sellPricePoints",
      "outputs": [
        {
          "internalType": "uint128",
          "name": "totalCompletedOrCanceledOrders",
          "type": "uint128"
        },
        {
          "internalType": "uint128",
          "name": "totalOrdersAtPrice",
          "type": "uint128"
        },
        {
          "internalType": "uint128",
          "name": "executableSize",
          "type": "uint128"
        }
      ],
      "stateMutability": "view",
      "type": "function"
    }
  ],
  "bytecode": "0x6101006040523480156200001257600080fd5b5060405162004b7538038062004b75833981810160405281019062000038919062000167565b838383838373ffffffffffffffffffffffffffffffffffffffff1660808173ffffffffffffffffffffffffffffffffffffffff16815250508173ffffffffffffffffffffffffffffffffffffffff1660a08173ffffffffffffffffffffffffffffffffffffffff16815250508260c081815250508060e081815250505050505050505050620001d9565b600080fd5b600073ffffffffffffffffffffffffffffffffffffffff82169050919050565b6000620000f482620000c7565b9050919050565b6200010681620000e7565b81146200011257600080fd5b50565b6000815190506200012681620000fb565b92915050565b6000819050919050565b62000141816200012c565b81146200014d57600080fd5b50565b600081519050620001618162000136565b92915050565b60008060008060808587031215620001845762000183620000c2565b5b6000620001948782880162000115565b9450506020620001a78782880162000150565b9350506040620001ba8782880162000115565b9250506060620001cd8782880162000150565b91505092959194509250565b60805160a05160c05160e0516148f262000283600039600081816107ec0152818161123301528181611dcd015281816120230152612d670152600081816111390152818161162701528181611ed0015281816126ec01526132f501526000818161077a015281816111e501528181611d7e01528181611fdd0152612d1e0152600081816110ef015281816115e001528181611e870152818161267f01526132b101526148f26000f3fe608060405234801561001057600080fd5b50600436106101005760003560e01c80637e78e05f11610097578063e5d0516c11610066578063e5d0516c14610284578063e6d29b51146102a0578063eb2e70c8146102d2578063ece2e87f146102ee57610100565b80637e78e05f146101fd578063a6f3c50f14610219578063b722153f1461024c578063be5d147f1461026857610100565b80632298c350116100d35780632298c3501461018b57806324b291db146101a75780632bf1360e146101c35780634ff57439146101e157610100565b806302e0d258146101055780630e2e2ffe146101215780631778334f146101535780631a46e42a1461016f575b600080fd5b61011f600480360381019061011a9190613784565b61030a565b005b61013b60048036038101906101369190613784565b6109d4565b60405161014a939291906137dc565b60405180910390f35b61016d600480360381019061016891906138a4565b610a52565b005b61018960048036038101906101849190613784565b6112f5565b005b6101a560048036038101906101a091906138a4565b6116e2565b005b6101c160048036038101906101bc9190613948565b611f84565b005b6101cb612100565b6040516101d89190613997565b60405180910390f35b6101fb60048036038101906101f69190613bc4565b612106565b005b61021760048036038101906102129190613784565b61220f565b005b610233600480360381019061022e9190613784565b61288a565b6040516102439493929190613c8c565b60405180910390f35b61026660048036038101906102619190613bc4565b61292a565b005b610282600480360381019061027d9190613784565b612a33565b005b61029e60048036038101906102999190613d7d565b612e49565b005b6102ba60048036038101906102b59190613784565b6131da565b6040516102c9939291906137dc565b60405180910390f35b6102ec60048036038101906102e79190613948565b613258565b005b61030860048036038101906103039190613fef565b6133af565b005b60008060008381526020019081526020016000209050600073ffffffffffffffffffffffffffffffffffffffff168160000160009054906101000a900473ffffffffffffffffffffffffffffffffffffffff1673ffffffffffffffffffffffffffffffffffffffff16036103b3576040517f08c379a00000000000000000000000000000000000000000000000000000000081526004016103aa906140c4565b60405180910390fd5b8060000160009054906101000a900473ffffffffffffffffffffffffffffffffffffffff1673ffffffffffffffffffffffffffffffffffffffff163373ffffffffffffffffffffffffffffffffffffffff1614610445576040517f08c379a000000000000000000000000000000000000000000000000000000000815260040161043c90614156565b60405180910390fd5b6000600260008360000160149054906101000a90046bffffffffffffffffffffffff166bffffffffffffffffffffffff16815260200190815260200160002090508060000160009054906101000a90046fffffffffffffffffffffffffffffffff168160010160009054906101000a90046fffffffffffffffffffffffffffffffff166104d291906141a5565b6fffffffffffffffffffffffffffffffff168260010160109054906101000a90046fffffffffffffffffffffffffffffffff166fffffffffffffffffffffffffffffffff1610610557576040517f08c379a000000000000000000000000000000000000000000000000000000000815260040161054e90614235565b60405180910390fd5b60008260010160109054906101000a90046fffffffffffffffffffffffffffffffff168260000160009054906101000a90046fffffffffffffffffffffffffffffffff168360010160009054906101000a90046fffffffffffffffffffffffffffffffff166105c691906141a5565b6105d09190614255565b905060008360010160009054906101000a90046fffffffffffffffffffffffffffffffff166fffffffffffffffffffffffffffffffff16826fffffffffffffffffffffffffffffffff16116106255781610647565b8360010160009054906101000a90046fffffffffffffffffffffffffffffffff165b9050808460010160008282829054906101000a90046fffffffffffffffffffffffffffffffff166106789190614255565b92506101000a8154816fffffffffffffffffffffffffffffffff02191690836fffffffffffffffffffffffffffffffff160217905550808360000160008282829054906101000a90046fffffffffffffffffffffffffffffffff166106dd91906141a5565b92506101000a8154816fffffffffffffffffffffffffffffffff02191690836fffffffffffffffffffffffffffffffff160217905550808360010160008282829054906101000a90046fffffffffffffffffffffffffffffffff166107429190614255565b92506101000a8154816fffffffffffffffffffffffffffffffff02191690836fffffffffffffffffffffffffffffffff1602179055507f000000000000000000000000000000000000000000000000000000000000000073ffffffffffffffffffffffffffffffffffffffff1663a9059cbb8560000160009054906101000a900473ffffffffffffffffffffffffffffffffffffffff166108906402540be40061088260646108747f0000000000000000000000000000000000000000000000000000000000000000600a61081791906143cc565b6108668d60000160149054906101000a90046bffffffffffffffffffffffff166bffffffffffffffffffffffff168b6fffffffffffffffffffffffffffffffff1661350390919063ffffffff16565b61350390919063ffffffff16565b61351990919063ffffffff16565b61351990919063ffffffff16565b6040518363ffffffff1660e01b81526004016108ad929190614417565b6020604051808303816000875af11580156108cc573d6000803e3d6000fd5b505050506040513d601f19601f820116820180604052508101906108f09190614455565b5060008460010160009054906101000a90046fffffffffffffffffffffffffffffffff166fffffffffffffffffffffffffffffffff16036109cd57600080868152602001908152602001600020600080820160006101000a81549073ffffffffffffffffffffffffffffffffffffffff02191690556000820160146101000a8154906bffffffffffffffffffffffff02191690556001820160006101000a8154906fffffffffffffffffffffffffffffffff02191690556001820160106101000a8154906fffffffffffffffffffffffffffffffff021916905550505b5050505050565b60026020528060005260406000206000915090508060000160009054906101000a90046fffffffffffffffffffffffffffffffff16908060000160109054906101000a90046fffffffffffffffffffffffffffffffff16908060010160009054906101000a90046fffffffffffffffffffffffffffffffff16905083565b6000816fffffffffffffffffffffffffffffffff1611610aa7576040517f08c379a0000000000000000000000000000000000000000000000000000000008152600401610a9e906144f4565b60405180910390fd5b6000808484836bffffffffffffffffffffffff16818110610acb57610aca614514565b5b9050602002016020810190610ae09190614543565b6bffffffffffffffffffffffff1690506000600160008381526020019081526020016000206040518060600160405290816000820160009054906101000a90046fffffffffffffffffffffffffffffffff166fffffffffffffffffffffffffffffffff166fffffffffffffffffffffffffffffffff1681526020016000820160109054906101000a90046fffffffffffffffffffffffffffffffff166fffffffffffffffffffffffffffffffff166fffffffffffffffffffffffffffffffff1681526020016001820160009054906101000a90046fffffffffffffffffffffffffffffffff166fffffffffffffffffffffffffffffffff166fffffffffffffffffffffffffffffffff168152505090506000816040015182600001518360200151610c0b9190614255565b610c159190614255565b90506000805b826fffffffffffffffffffffffffffffffff16876fffffffffffffffffffffffffffffffff161115610f5057610c6c85846fffffffffffffffffffffffffffffffff1661350390919063ffffffff16565b82610c779190614570565b91508284604001818151610c8b91906141a5565b9150906fffffffffffffffffffffffffffffffff1690816fffffffffffffffffffffffffffffffff16815250508287610cc49190614255565b9650826fffffffffffffffffffffffffffffffff1681610ce49190614570565b9050836001600087815260200190815260200160002060008201518160000160006101000a8154816fffffffffffffffffffffffffffffffff02191690836fffffffffffffffffffffffffffffffff16021790555060208201518160000160106101000a8154816fffffffffffffffffffffffffffffffff02191690836fffffffffffffffffffffffffffffffff16021790555060408201518160010160006101000a8154816fffffffffffffffffffffffffffffffff02191690836fffffffffffffffffffffffffffffffff160217905550905050600186610dc791906145a4565b955088889050866bffffffffffffffffffffffff160315610f50578888876bffffffffffffffffffffffff16818110610e0357610e02614514565b5b9050602002016020810190610e189190614543565b6bffffffffffffffffffffffff169450600160008681526020019081526020016000206040518060600160405290816000820160009054906101000a90046fffffffffffffffffffffffffffffffff166fffffffffffffffffffffffffffffffff166fffffffffffffffffffffffffffffffff1681526020016000820160109054906101000a90046fffffffffffffffffffffffffffffffff166fffffffffffffffffffffffffffffffff166fffffffffffffffffffffffffffffffff1681526020016001820160009054906101000a90046fffffffffffffffffffffffffffffffff166fffffffffffffffffffffffffffffffff166fffffffffffffffffffffffffffffffff16815250509350836040015184600001518560200151610f3f9190614255565b610f499190614255565b9250610c1b565b6000876fffffffffffffffffffffffffffffffff16118015610f82575088889050866bffffffffffffffffffffffff16105b156110ed57610fac85886fffffffffffffffffffffffffffffffff1661350390919063ffffffff16565b82610fb79190614570565b91508684604001818151610fcb91906141a5565b9150906fffffffffffffffffffffffffffffffff1690816fffffffffffffffffffffffffffffffff1681525050866fffffffffffffffffffffffffffffffff16816110169190614570565b9050836001600087815260200190815260200160002060008201518160000160006101000a8154816fffffffffffffffffffffffffffffffff02191690836fffffffffffffffffffffffffffffffff16021790555060208201518160000160106101000a8154816fffffffffffffffffffffffffffffffff02191690836fffffffffffffffffffffffffffffffff16021790555060408201518160010160006101000a8154816fffffffffffffffffffffffffffffffff02191690836fffffffffffffffffffffffffffffffff1602179055509050505b7f000000000000000000000000000000000000000000000000000000000000000073ffffffffffffffffffffffffffffffffffffffff166323b872dd33306111816402540be4006111737f0000000000000000000000000000000000000000000000000000000000000000600a61116491906143cc565b8861350390919063ffffffff16565b61351990919063ffffffff16565b6040518463ffffffff1660e01b815260040161119f939291906145e4565b6020604051808303816000875af11580156111be573d6000803e3d6000fd5b505050506040513d601f19601f820116820180604052508101906111e29190614455565b507f000000000000000000000000000000000000000000000000000000000000000073ffffffffffffffffffffffffffffffffffffffff1663a9059cbb336112896402540be40061127b606461126d7f0000000000000000000000000000000000000000000000000000000000000000600a61125e91906143cc565b8a61350390919063ffffffff16565b61351990919063ffffffff16565b61351990919063ffffffff16565b6040518363ffffffff1660e01b81526004016112a6929190614417565b6020604051808303816000875af11580156112c5573d6000803e3d6000fd5b505050506040513d601f19601f820116820180604052508101906112e99190614455565b50505050505050505050565b60008060008381526020019081526020016000206040518060800160405290816000820160009054906101000a900473ffffffffffffffffffffffffffffffffffffffff1673ffffffffffffffffffffffffffffffffffffffff1673ffffffffffffffffffffffffffffffffffffffff1681526020016000820160149054906101000a90046bffffffffffffffffffffffff166bffffffffffffffffffffffff166bffffffffffffffffffffffff1681526020016001820160009054906101000a90046fffffffffffffffffffffffffffffffff166fffffffffffffffffffffffffffffffff166fffffffffffffffffffffffffffffffff1681526020016001820160109054906101000a90046fffffffffffffffffffffffffffffffff166fffffffffffffffffffffffffffffffff166fffffffffffffffffffffffffffffffff16815250509050806000015173ffffffffffffffffffffffffffffffffffffffff163373ffffffffffffffffffffffffffffffffffffffff16146114b0576040517f08c379a00000000000000000000000000000000000000000000000000000000081526004016114a79061468d565b60405180910390fd5b80604001516002600083602001516bffffffffffffffffffffffff16815260200190815260200160002060000160008282829054906101000a90046fffffffffffffffffffffffffffffffff1661150791906141a5565b92506101000a8154816fffffffffffffffffffffffffffffffff02191690836fffffffffffffffffffffffffffffffff160217905550600080838152602001908152602001600020600080820160006101000a81549073ffffffffffffffffffffffffffffffffffffffff02191690556000820160146101000a8154906bffffffffffffffffffffffff02191690556001820160006101000a8154906fffffffffffffffffffffffffffffffff02191690556001820160106101000a8154906fffffffffffffffffffffffffffffffff021916905550507f000000000000000000000000000000000000000000000000000000000000000073ffffffffffffffffffffffffffffffffffffffff1663a9059cbb82600001516402540be4007f0000000000000000000000000000000000000000000000000000000000000000600a61165291906143cc565b85604001516fffffffffffffffffffffffffffffffff1661167391906146ad565b61167d919061471e565b6040518363ffffffff1660e01b815260040161169a929190614417565b6020604051808303816000875af11580156116b9573d6000803e3d6000fd5b505050506040513d601f19601f820116820180604052508101906116dd9190614455565b505050565b6000816fffffffffffffffffffffffffffffffff1611611737576040517f08c379a000000000000000000000000000000000000000000000000000000000815260040161172e906144f4565b60405180910390fd5b6000808484836bffffffffffffffffffffffff1681811061175b5761175a614514565b5b90506020020160208101906117709190614543565b6bffffffffffffffffffffffff1690506000600260008381526020019081526020016000206040518060600160405290816000820160009054906101000a90046fffffffffffffffffffffffffffffffff166fffffffffffffffffffffffffffffffff166fffffffffffffffffffffffffffffffff1681526020016000820160109054906101000a90046fffffffffffffffffffffffffffffffff166fffffffffffffffffffffffffffffffff166fffffffffffffffffffffffffffffffff1681526020016001820160009054906101000a90046fffffffffffffffffffffffffffffffff166fffffffffffffffffffffffffffffffff166fffffffffffffffffffffffffffffffff16815250509050600081604001518260000151836020015161189b9190614255565b6118a59190614255565b90506000805b826fffffffffffffffffffffffffffffffff16876fffffffffffffffffffffffffffffffff1610611bdf576118fb85846fffffffffffffffffffffffffffffffff1661350390919063ffffffff16565b826119069190614570565b9150828460400181815161191a91906141a5565b9150906fffffffffffffffffffffffffffffffff1690816fffffffffffffffffffffffffffffffff168152505082876119539190614255565b9650826fffffffffffffffffffffffffffffffff16816119739190614570565b9050836002600087815260200190815260200160002060008201518160000160006101000a8154816fffffffffffffffffffffffffffffffff02191690836fffffffffffffffffffffffffffffffff16021790555060208201518160000160106101000a8154816fffffffffffffffffffffffffffffffff02191690836fffffffffffffffffffffffffffffffff16021790555060408201518160010160006101000a8154816fffffffffffffffffffffffffffffffff02191690836fffffffffffffffffffffffffffffffff160217905550905050600186611a5691906145a4565b955088889050866bffffffffffffffffffffffff160315611bdf578888876bffffffffffffffffffffffff16818110611a9257611a91614514565b5b9050602002016020810190611aa79190614543565b6bffffffffffffffffffffffff169450600260008681526020019081526020016000206040518060600160405290816000820160009054906101000a90046fffffffffffffffffffffffffffffffff166fffffffffffffffffffffffffffffffff166fffffffffffffffffffffffffffffffff1681526020016000820160109054906101000a90046fffffffffffffffffffffffffffffffff166fffffffffffffffffffffffffffffffff166fffffffffffffffffffffffffffffffff1681526020016001820160009054906101000a90046fffffffffffffffffffffffffffffffff166fffffffffffffffffffffffffffffffff166fffffffffffffffffffffffffffffffff16815250509350836040015184600001518560200151611bce9190614255565b611bd89190614255565b92506118ab565b6000876fffffffffffffffffffffffffffffffff16118015611c11575088889050866bffffffffffffffffffffffff16105b15611d7c57611c3b85886fffffffffffffffffffffffffffffffff1661350390919063ffffffff16565b82611c469190614570565b91508684604001818151611c5a91906141a5565b9150906fffffffffffffffffffffffffffffffff1690816fffffffffffffffffffffffffffffffff1681525050866fffffffffffffffffffffffffffffffff1681611ca59190614570565b9050836002600087815260200190815260200160002060008201518160000160006101000a8154816fffffffffffffffffffffffffffffffff02191690836fffffffffffffffffffffffffffffffff16021790555060208201518160000160106101000a8154816fffffffffffffffffffffffffffffffff02191690836fffffffffffffffffffffffffffffffff16021790555060408201518160010160006101000a8154816fffffffffffffffffffffffffffffffff02191690836fffffffffffffffffffffffffffffffff1602179055509050505b7f000000000000000000000000000000000000000000000000000000000000000073ffffffffffffffffffffffffffffffffffffffff166323b872dd3330611e236402540be400611e156064611e077f0000000000000000000000000000000000000000000000000000000000000000600a611df891906143cc565b8b61350390919063ffffffff16565b61351990919063ffffffff16565b61351990919063ffffffff16565b6040518463ffffffff1660e01b8152600401611e41939291906145e4565b6020604051808303816000875af1158015611e60573d6000803e3d6000fd5b505050506040513d601f19601f82011682018060405250810190611e849190614455565b507f000000000000000000000000000000000000000000000000000000000000000073ffffffffffffffffffffffffffffffffffffffff1663a9059cbb33611f186402540be400611f0a7f0000000000000000000000000000000000000000000000000000000000000000600a611efb91906143cc565b8761350390919063ffffffff16565b61351990919063ffffffff16565b6040518363ffffffff1660e01b8152600401611f35929190614417565b6020604051808303816000875af1158015611f54573d6000803e3d6000fd5b505050506040513d601f19601f82011682018060405250810190611f789190614455565b50505050505050505050565b60006003549050600181611f989190614570565b600381905550600060016000856bffffffffffffffffffffffff1681526020019081526020016000209050611fdb818585600186611fd69190614570565b61352f565b7f000000000000000000000000000000000000000000000000000000000000000073ffffffffffffffffffffffffffffffffffffffff166323b872dd33306402540be40060647f0000000000000000000000000000000000000000000000000000000000000000600a61204e91906143cc565b8a6bffffffffffffffffffffffff168a612068919061474f565b6fffffffffffffffffffffffffffffffff1661208491906146ad565b61208e919061471e565b612098919061471e565b6040518463ffffffff1660e01b81526004016120b6939291906145e4565b6020604051808303816000875af11580156120d5573d6000803e3d6000fd5b505050506040513d601f19601f820116820180604052508101906120f99190614455565b5050505050565b60035481565b805182511461214a576040517f08c379a0000000000000000000000000000000000000000000000000000000008152600401612141906147fe565b60405180910390fd5b60005b825181101561220a573073ffffffffffffffffffffffffffffffffffffffff1663eb2e70c884838151811061218557612184614514565b5b60200260200101518484815181106121a05761219f614514565b5b60200260200101516040518363ffffffff1660e01b81526004016121c592919061481e565b600060405180830381600087803b1580156121df57600080fd5b505af11580156121f3573d6000803e3d6000fd5b50505050808061220290614847565b91505061214d565b505050565b60008060008381526020019081526020016000209050600073ffffffffffffffffffffffffffffffffffffffff168160000160009054906101000a900473ffffffffffffffffffffffffffffffffffffffff1673ffffffffffffffffffffffffffffffffffffffff16036122b8576040517f08c379a00000000000000000000000000000000000000000000000000000000081526004016122af906140c4565b60405180910390fd5b8060000160009054906101000a900473ffffffffffffffffffffffffffffffffffffffff1673ffffffffffffffffffffffffffffffffffffffff163373ffffffffffffffffffffffffffffffffffffffff161461234a576040517f08c379a000000000000000000000000000000000000000000000000000000000815260040161234190614156565b60405180910390fd5b6000600160008360000160149054906101000a90046bffffffffffffffffffffffff166bffffffffffffffffffffffff16815260200190815260200160002090508060000160009054906101000a90046fffffffffffffffffffffffffffffffff168160010160009054906101000a90046fffffffffffffffffffffffffffffffff166123d791906141a5565b6fffffffffffffffffffffffffffffffff168260010160109054906101000a90046fffffffffffffffffffffffffffffffff166fffffffffffffffffffffffffffffffff161061245c576040517f08c379a000000000000000000000000000000000000000000000000000000000815260040161245390614235565b60405180910390fd5b60008260010160109054906101000a90046fffffffffffffffffffffffffffffffff168260000160009054906101000a90046fffffffffffffffffffffffffffffffff168360010160009054906101000a90046fffffffffffffffffffffffffffffffff166124cb91906141a5565b6124d59190614255565b905060008360010160009054906101000a90046fffffffffffffffffffffffffffffffff166fffffffffffffffffffffffffffffffff16826fffffffffffffffffffffffffffffffff161161252a578161254c565b8360010160009054906101000a90046fffffffffffffffffffffffffffffffff165b9050808460010160008282829054906101000a90046fffffffffffffffffffffffffffffffff1661257d9190614255565b92506101000a8154816fffffffffffffffffffffffffffffffff02191690836fffffffffffffffffffffffffffffffff160217905550808360000160008282829054906101000a90046fffffffffffffffffffffffffffffffff166125e291906141a5565b92506101000a8154816fffffffffffffffffffffffffffffffff02191690836fffffffffffffffffffffffffffffffff160217905550808360010160008282829054906101000a90046fffffffffffffffffffffffffffffffff166126479190614255565b92506101000a8154816fffffffffffffffffffffffffffffffff02191690836fffffffffffffffffffffffffffffffff1602179055507f000000000000000000000000000000000000000000000000000000000000000073ffffffffffffffffffffffffffffffffffffffff1663a9059cbb8560000160009054906101000a900473ffffffffffffffffffffffffffffffffffffffff166127466402540be4006127387f0000000000000000000000000000000000000000000000000000000000000000600a61271791906143cc565b876fffffffffffffffffffffffffffffffff1661350390919063ffffffff16565b61351990919063ffffffff16565b6040518363ffffffff1660e01b8152600401612763929190614417565b6020604051808303816000875af1158015612782573d6000803e3d6000fd5b505050506040513d601f19601f820116820180604052508101906127a69190614455565b5060008460010160009054906101000a90046fffffffffffffffffffffffffffffffff166fffffffffffffffffffffffffffffffff160361288357600080868152602001908152602001600020600080820160006101000a81549073ffffffffffffffffffffffffffffffffffffffff02191690556000820160146101000a8154906bffffffffffffffffffffffff02191690556001820160006101000a8154906fffffffffffffffffffffffffffffffff02191690556001820160106101000a8154906fffffffffffffffffffffffffffffffff021916905550505b5050505050565b60006020528060005260406000206000915090508060000160009054906101000a900473ffffffffffffffffffffffffffffffffffffffff16908060000160149054906101000a90046bffffffffffffffffffffffff16908060010160009054906101000a90046fffffffffffffffffffffffffffffffff16908060010160109054906101000a90046fffffffffffffffffffffffffffffffff16905084565b805182511461296e576040517f08c379a0000000000000000000000000000000000000000000000000000000008152600401612965906147fe565b60405180910390fd5b60005b8251811015612a2e573073ffffffffffffffffffffffffffffffffffffffff166324b291db8483815181106129a9576129a8614514565b5b60200260200101518484815181106129c4576129c3614514565b5b60200260200101516040518363ffffffff1660e01b81526004016129e992919061481e565b600060405180830381600087803b158015612a0357600080fd5b505af1158015612a17573d6000803e3d6000fd5b505050508080612a2690614847565b915050612971565b505050565b60008060008381526020019081526020016000206040518060800160405290816000820160009054906101000a900473ffffffffffffffffffffffffffffffffffffffff1673ffffffffffffffffffffffffffffffffffffffff1673ffffffffffffffffffffffffffffffffffffffff1681526020016000820160149054906101000a90046bffffffffffffffffffffffff166bffffffffffffffffffffffff166bffffffffffffffffffffffff1681526020016001820160009054906101000a90046fffffffffffffffffffffffffffffffff166fffffffffffffffffffffffffffffffff166fffffffffffffffffffffffffffffffff1681526020016001820160109054906101000a90046fffffffffffffffffffffffffffffffff166fffffffffffffffffffffffffffffffff166fffffffffffffffffffffffffffffffff16815250509050806000015173ffffffffffffffffffffffffffffffffffffffff163373ffffffffffffffffffffffffffffffffffffffff1614612bee576040517f08c379a0000000000000000000000000000000000000000000000000000000008152600401612be59061468d565b60405180910390fd5b80604001516001600083602001516bffffffffffffffffffffffff16815260200190815260200160002060000160008282829054906101000a90046fffffffffffffffffffffffffffffffff16612c4591906141a5565b92506101000a8154816fffffffffffffffffffffffffffffffff02191690836fffffffffffffffffffffffffffffffff160217905550600080838152602001908152602001600020600080820160006101000a81549073ffffffffffffffffffffffffffffffffffffffff02191690556000820160146101000a8154906bffffffffffffffffffffffff02191690556001820160006101000a8154906fffffffffffffffffffffffffffffffff02191690556001820160106101000a8154906fffffffffffffffffffffffffffffffff021916905550507f000000000000000000000000000000000000000000000000000000000000000073ffffffffffffffffffffffffffffffffffffffff1663a9059cbb82600001516402540be40060647f0000000000000000000000000000000000000000000000000000000000000000600a612d9291906143cc565b86602001516bffffffffffffffffffffffff168760400151612db4919061474f565b6fffffffffffffffffffffffffffffffff16612dd091906146ad565b612dda919061471e565b612de4919061471e565b6040518363ffffffff1660e01b8152600401612e01929190614417565b6020604051808303816000875af1158015612e20573d6000803e3d6000fd5b505050506040513d601f19601f82011682018060405250810190612e449190614455565b505050565b60005b868690508110156131d1576000806000898985818110612e6f57612e6e614514565b5b90506020020135815260200190815260200160002090506000868684818110612e9b57612e9a614514565b5b9050602002016020810190612eb0919061488f565b612f015760026000868686818110612ecb57612eca614514565b5b9050602002016020810190612ee09190614543565b6bffffffffffffffffffffffff168152602001908152602001600020612f4a565b60016000868686818110612f1857612f17614514565b5b9050602002016020810190612f2d9190614543565b6bffffffffffffffffffffffff1681526020019081526020016000205b90506000878785818110612f6157612f60614514565b5b9050602002016020810190612f76919061488f565b612fbc57600260008460000160149054906101000a90046bffffffffffffffffffffffff166bffffffffffffffffffffffff168152602001908152602001600020612ffa565b600160008460000160149054906101000a90046bffffffffffffffffffffffff166bffffffffffffffffffffffff1681526020019081526020016000205b90508260010160009054906101000a90046fffffffffffffffffffffffffffffffff168160000160008282829054906101000a90046fffffffffffffffffffffffffffffffff1661304b91906141a5565b92506101000a8154816fffffffffffffffffffffffffffffffff02191690836fffffffffffffffffffffffffffffffff1602179055508160000160109054906101000a90046fffffffffffffffffffffffffffffffff168360010160106101000a8154816fffffffffffffffffffffffffffffffff02191690836fffffffffffffffffffffffffffffffff1602179055508585858181106130ef576130ee614514565b5b90506020020160208101906131049190614543565b8360000160146101000a8154816bffffffffffffffffffffffff02191690836bffffffffffffffffffffffff1602179055508260010160009054906101000a90046fffffffffffffffffffffffffffffffff168260000160108282829054906101000a90046fffffffffffffffffffffffffffffffff1661318591906141a5565b92506101000a8154816fffffffffffffffffffffffffffffffff02191690836fffffffffffffffffffffffffffffffff16021790555050505080806131c990614847565b915050612e4c565b50505050505050565b60016020528060005260406000206000915090508060000160009054906101000a90046fffffffffffffffffffffffffffffffff16908060000160109054906101000a90046fffffffffffffffffffffffffffffffff16908060010160009054906101000a90046fffffffffffffffffffffffffffffffff16905083565b6000600354905060018161326c9190614570565b600381905550600060026000856bffffffffffffffffffffffff16815260200190815260200160002090506132af8185856001866132aa9190614570565b61352f565b7f000000000000000000000000000000000000000000000000000000000000000073ffffffffffffffffffffffffffffffffffffffff166323b872dd33306402540be4007f0000000000000000000000000000000000000000000000000000000000000000600a61332091906143cc565b886fffffffffffffffffffffffffffffffff1661333d91906146ad565b613347919061471e565b6040518463ffffffff1660e01b8152600401613365939291906145e4565b6020604051808303816000875af1158015613384573d6000803e3d6000fd5b505050506040513d601f19601f820116820180604052508101906133a89190614455565b5050505050565b60005b82518110156134fe578181815181106133ce576133cd614514565b5b602002602001015115613465573073ffffffffffffffffffffffffffffffffffffffff1663be5d147f84838151811061340a57613409614514565b5b60200260200101516040518263ffffffff1660e01b815260040161342e9190613997565b600060405180830381600087803b15801561344857600080fd5b505af115801561345c573d6000803e3d6000fd5b505050506134eb565b3073ffffffffffffffffffffffffffffffffffffffff16631a46e42a84838151811061349457613493614514565b5b60200260200101516040518263ffffffff1660e01b81526004016134b89190613997565b600060405180830381600087803b1580156134d257600080fd5b505af11580156134e6573d6000803e3d6000fd5b505050505b80806134f690614847565b9150506133b2565b505050565b6000818361351191906146ad565b905092915050565b60008183613527919061471e565b905092915050565b60008460000160109054906101000a90046fffffffffffffffffffffffffffffffff16905060405180608001604052803373ffffffffffffffffffffffffffffffffffffffff168152602001856bffffffffffffffffffffffff168152602001846fffffffffffffffffffffffffffffffff168152602001826fffffffffffffffffffffffffffffffff1681525060008084815260200190815260200160002060008201518160000160006101000a81548173ffffffffffffffffffffffffffffffffffffffff021916908373ffffffffffffffffffffffffffffffffffffffff16021790555060208201518160000160146101000a8154816bffffffffffffffffffffffff02191690836bffffffffffffffffffffffff16021790555060408201518160010160006101000a8154816fffffffffffffffffffffffffffffffff02191690836fffffffffffffffffffffffffffffffff16021790555060608201518160010160106101000a8154816fffffffffffffffffffffffffffffffff02191690836fffffffffffffffffffffffffffffffff160217905550905050828560000160108282829054906101000a90046fffffffffffffffffffffffffffffffff166136fd91906141a5565b92506101000a8154816fffffffffffffffffffffffffffffffff02191690836fffffffffffffffffffffffffffffffff1602179055505050505050565b6000604051905090565b600080fd5b600080fd5b6000819050919050565b6137618161374e565b811461376c57600080fd5b50565b60008135905061377e81613758565b92915050565b60006020828403121561379a57613799613744565b5b60006137a88482850161376f565b91505092915050565b60006fffffffffffffffffffffffffffffffff82169050919050565b6137d6816137b1565b82525050565b60006060820190506137f160008301866137cd565b6137fe60208301856137cd565b61380b60408301846137cd565b949350505050565b600080fd5b600080fd5b600080fd5b60008083601f84011261383857613837613813565b5b8235905067ffffffffffffffff81111561385557613854613818565b5b6020830191508360208202830111156138715761387061381d565b5b9250929050565b613881816137b1565b811461388c57600080fd5b50565b60008135905061389e81613878565b92915050565b6000806000604084860312156138bd576138bc613744565b5b600084013567ffffffffffffffff8111156138db576138da613749565b5b6138e786828701613822565b935093505060206138fa8682870161388f565b9150509250925092565b60006bffffffffffffffffffffffff82169050919050565b61392581613904565b811461393057600080fd5b50565b6000813590506139428161391c565b92915050565b6000806040838503121561395f5761395e613744565b5b600061396d85828601613933565b925050602061397e8582860161388f565b9150509250929050565b6139918161374e565b82525050565b60006020820190506139ac6000830184613988565b92915050565b6000601f19601f8301169050919050565b7f4e487b7100000000000000000000000000000000000000000000000000000000600052604160045260246000fd5b6139fb826139b2565b810181811067ffffffffffffffff82111715613a1a57613a196139c3565b5b80604052505050565b6000613a2d61373a565b9050613a3982826139f2565b919050565b600067ffffffffffffffff821115613a5957613a586139c3565b5b602082029050602081019050919050565b6000613a7d613a7884613a3e565b613a23565b90508083825260208201905060208402830185811115613aa057613a9f61381d565b5b835b81811015613ac95780613ab58882613933565b845260208401935050602081019050613aa2565b5050509392505050565b600082601f830112613ae857613ae7613813565b5b8135613af8848260208601613a6a565b91505092915050565b600067ffffffffffffffff821115613b1c57613b1b6139c3565b5b602082029050602081019050919050565b6000613b40613b3b84613b01565b613a23565b90508083825260208201905060208402830185811115613b6357613b6261381d565b5b835b81811015613b8c5780613b78888261388f565b845260208401935050602081019050613b65565b5050509392505050565b600082601f830112613bab57613baa613813565b5b8135613bbb848260208601613b2d565b91505092915050565b60008060408385031215613bdb57613bda613744565b5b600083013567ffffffffffffffff811115613bf957613bf8613749565b5b613c0585828601613ad3565b925050602083013567ffffffffffffffff811115613c2657613c25613749565b5b613c3285828601613b96565b9150509250929050565b600073ffffffffffffffffffffffffffffffffffffffff82169050919050565b6000613c6782613c3c565b9050919050565b613c7781613c5c565b82525050565b613c8681613904565b82525050565b6000608082019050613ca16000830187613c6e565b613cae6020830186613c7d565b613cbb60408301856137cd565b613cc860608301846137cd565b95945050505050565b60008083601f840112613ce757613ce6613813565b5b8235905067ffffffffffffffff811115613d0457613d03613818565b5b602083019150836020820283011115613d2057613d1f61381d565b5b9250929050565b60008083601f840112613d3d57613d3c613813565b5b8235905067ffffffffffffffff811115613d5a57613d59613818565b5b602083019150836020820283011115613d7657613d7561381d565b5b9250929050565b60008060008060008060608789031215613d9a57613d99613744565b5b600087013567ffffffffffffffff811115613db857613db7613749565b5b613dc489828a01613cd1565b9650965050602087013567ffffffffffffffff811115613de757613de6613749565b5b613df389828a01613d27565b9450945050604087013567ffffffffffffffff811115613e1657613e15613749565b5b613e2289828a01613822565b92509250509295509295509295565b600067ffffffffffffffff821115613e4c57613e4b6139c3565b5b602082029050602081019050919050565b6000613e70613e6b84613e31565b613a23565b90508083825260208201905060208402830185811115613e9357613e9261381d565b5b835b81811015613ebc5780613ea8888261376f565b845260208401935050602081019050613e95565b5050509392505050565b600082601f830112613edb57613eda613813565b5b8135613eeb848260208601613e5d565b91505092915050565b600067ffffffffffffffff821115613f0f57613f0e6139c3565b5b602082029050602081019050919050565b60008115159050919050565b613f3581613f20565b8114613f4057600080fd5b50565b600081359050613f5281613f2c565b92915050565b6000613f6b613f6684613ef4565b613a23565b90508083825260208201905060208402830185811115613f8e57613f8d61381d565b5b835b81811015613fb75780613fa38882613f43565b845260208401935050602081019050613f90565b5050509392505050565b600082601f830112613fd657613fd5613813565b5b8135613fe6848260208601613f58565b91505092915050565b6000806040838503121561400657614005613744565b5b600083013567ffffffffffffffff81111561402457614023613749565b5b61403085828601613ec6565b925050602083013567ffffffffffffffff81111561405157614050613749565b5b61405d85828601613fc1565b9150509250929050565b600082825260208201905092915050565b7f4f72646572426f6f6b3a206f7264657220646f65736e27742065786973740000600082015250565b60006140ae601e83614067565b91506140b982614078565b602082019050919050565b600060208201905081810360008301526140dd816140a1565b9050919050565b7f4f72646572426f6f6b3a206f6e6c79206f72646572206f776e65722063616e2060008201527f636c61696d000000000000000000000000000000000000000000000000000000602082015250565b6000614140602583614067565b915061414b826140e4565b604082019050919050565b6000602082019050818103600083015261416f81614133565b9050919050565b7f4e487b7100000000000000000000000000000000000000000000000000000000600052601160045260246000fd5b60006141b0826137b1565b91506141bb836137b1565b925082820190506fffffffffffffffffffffffffffffffff8111156141e3576141e2614176565b5b92915050565b7f4f72646572426f6f6b3a206f72646572206e6f742065786563757461626c6500600082015250565b600061421f601f83614067565b915061422a826141e9565b602082019050919050565b6000602082019050818103600083015261424e81614212565b9050919050565b6000614260826137b1565b915061426b836137b1565b925082820390506fffffffffffffffffffffffffffffffff81111561429357614292614176565b5b92915050565b60008160011c9050919050565b6000808291508390505b60018511156142f0578086048111156142cc576142cb614176565b5b60018516156142db5780820291505b80810290506142e985614299565b94506142b0565b94509492505050565b60008261430957600190506143c5565b8161431757600090506143c5565b816001811461432d576002811461433757614366565b60019150506143c5565b60ff84111561434957614348614176565b5b8360020a9150848211156143605761435f614176565b5b506143c5565b5060208310610133831016604e8410600b841016171561439b5782820a90508381111561439657614395614176565b5b6143c5565b6143a884848460016142a6565b925090508184048111156143bf576143be614176565b5b81810290505b9392505050565b60006143d78261374e565b91506143e28361374e565b925061440f7fffffffffffffffffffffffffffffffffffffffffffffffffffffffffffffffff84846142f9565b905092915050565b600060408201905061442c6000830185613c6e565b6144396020830184613988565b9392505050565b60008151905061444f81613f2c565b92915050565b60006020828403121561446b5761446a613744565b5b600061447984828501614440565b91505092915050565b7f4f72646572426f6f6b3a2073697a65206d75737420626520677265617465722060008201527f7468616e20300000000000000000000000000000000000000000000000000000602082015250565b60006144de602683614067565b91506144e982614482565b604082019050919050565b6000602082019050818103600083015261450d816144d1565b9050919050565b7f4e487b7100000000000000000000000000000000000000000000000000000000600052603260045260246000fd5b60006020828403121561455957614558613744565b5b600061456784828501613933565b91505092915050565b600061457b8261374e565b91506145868361374e565b925082820190508082111561459e5761459d614176565b5b92915050565b60006145af82613904565b91506145ba83613904565b925082820190506bffffffffffffffffffffffff8111156145de576145dd614176565b5b92915050565b60006060820190506145f96000830186613c6e565b6146066020830185613c6e565b6146136040830184613988565b949350505050565b7f4f72646572426f6f6b3a204f6e6c79206f72646572206f776e65722063616e2060008201527f63616e63656c206f726465720000000000000000000000000000000000000000602082015250565b6000614677602c83614067565b91506146828261461b565b604082019050919050565b600060208201905081810360008301526146a68161466a565b9050919050565b60006146b88261374e565b91506146c38361374e565b92508282026146d18161374e565b915082820484148315176146e8576146e7614176565b5b5092915050565b7f4e487b7100000000000000000000000000000000000000000000000000000000600052601260045260246000fd5b60006147298261374e565b91506147348361374e565b925082614744576147436146ef565b5b828204905092915050565b600061475a826137b1565b9150614765836137b1565b9250828202614773816137b1565b915080821461478557614784614176565b5b5092915050565b7f4f72646572426f6f6b3a2050726963657320616e642073697a6573206172726160008201527f79206c656e677468206d757374206d6174636800000000000000000000000000602082015250565b60006147e8603383614067565b91506147f38261478c565b604082019050919050565b60006020820190508181036000830152614817816147db565b9050919050565b60006040820190506148336000830185613c7d565b61484060208301846137cd565b9392505050565b60006148528261374e565b91507fffffffffffffffffffffffffffffffffffffffffffffffffffffffffffffffff820361488457614883614176565b5b600182019050919050565b6000602082840312156148a5576148a4613744565b5b60006148b384828501613f43565b9150509291505056fea2646970667358221220423773c28f8f8f7facd70aa1ad697fa04524b67ddf095d5147029f08da8a447764736f6c63430008110033",
  "linkReferences": {},
  "deployedLinkReferences": {}
}