{
  "_format": "hh-sol-artifact-1",
  "contractName": "OrderBook",
  "sourceName": "contracts/OrderBook.sol",
  "abi": [
    {
      "inputs": [
        {
          "internalType": "address",
          "name": "_tokenAAddress",
          "type": "address"
        },
        {
          "internalType": "uint256",
          "name": "_tokenADecimals",
          "type": "uint256"
        },
        {
          "internalType": "address",
          "name": "_tokenBAddress",
          "type": "address"
        },
        {
          "internalType": "uint256",
          "name": "_tokenBDecimals",
          "type": "uint256"
        }
      ],
      "stateMutability": "nonpayable",
      "type": "constructor"
    },
    {
      "anonymous": false,
      "inputs": [
        {
          "indexed": false,
          "internalType": "uint256",
          "name": "orderId",
          "type": "uint256"
        },
        {
          "indexed": false,
          "internalType": "address",
          "name": "owner",
          "type": "address"
        },
        {
          "indexed": false,
          "internalType": "uint96",
          "name": "price",
          "type": "uint96"
        },
        {
          "indexed": false,
          "internalType": "uint128",
          "name": "size",
          "type": "uint128"
        },
        {
          "indexed": false,
          "internalType": "uint128",
          "name": "acceptableRange",
          "type": "uint128"
        },
        {
          "indexed": false,
          "internalType": "bool",
          "name": "isBuy",
          "type": "bool"
        }
      ],
      "name": "OrderCreated",
      "type": "event"
    },
    {
      "anonymous": false,
      "inputs": [
        {
          "indexed": false,
          "internalType": "uint256",
          "name": "orderId",
          "type": "uint256"
        },
        {
          "indexed": false,
          "internalType": "address",
          "name": "owner",
          "type": "address"
        },
        {
          "indexed": false,
          "internalType": "uint96",
          "name": "price",
          "type": "uint96"
        },
        {
          "indexed": false,
          "internalType": "uint128",
          "name": "size",
          "type": "uint128"
        },
        {
          "indexed": false,
          "internalType": "uint128",
          "name": "acceptableRange",
          "type": "uint128"
        },
        {
          "indexed": false,
          "internalType": "bool",
          "name": "isBuy",
          "type": "bool"
        }
      ],
      "name": "OrderUpdated",
      "type": "event"
    },
    {
      "anonymous": false,
      "inputs": [
        {
          "indexed": false,
          "internalType": "uint256[]",
          "name": "orderId",
          "type": "uint256[]"
        }
      ],
      "name": "OrdersCompletedOrCanceled",
      "type": "event"
    },
    {
      "inputs": [
        {
          "internalType": "uint96",
          "name": "_price",
          "type": "uint96"
        },
        {
          "internalType": "uint128",
          "name": "size",
          "type": "uint128"
        }
      ],
      "name": "addBuyOrder",
      "outputs": [],
      "stateMutability": "nonpayable",
      "type": "function"
    },
    {
      "inputs": [
        {
          "internalType": "uint96",
          "name": "_price",
          "type": "uint96"
        },
        {
          "internalType": "uint128",
          "name": "size",
          "type": "uint128"
        }
      ],
      "name": "addSellOrder",
      "outputs": [],
      "stateMutability": "nonpayable",
      "type": "function"
    },
    {
      "inputs": [
        {
          "internalType": "uint256[]",
          "name": "_orderIds",
          "type": "uint256[]"
        },
        {
          "internalType": "bool[]",
          "name": "_isBuy",
          "type": "bool[]"
        }
      ],
      "name": "batchCancelOrders",
      "outputs": [],
      "stateMutability": "nonpayable",
      "type": "function"
    },
    {
      "inputs": [
        {
          "internalType": "uint256",
          "name": "_orderId",
          "type": "uint256"
        }
      ],
      "name": "claimBuyLimitOrder",
      "outputs": [],
      "stateMutability": "nonpayable",
      "type": "function"
    },
    {
      "inputs": [
        {
          "internalType": "uint256",
          "name": "_orderId",
          "type": "uint256"
        }
      ],
      "name": "claimSellLimitOrder",
      "outputs": [],
      "stateMutability": "nonpayable",
      "type": "function"
    },
    {
      "inputs": [
        {
          "internalType": "uint96[]",
          "name": "c_min_asks",
          "type": "uint96[]"
        },
        {
          "internalType": "uint128",
          "name": "_size",
          "type": "uint128"
        }
      ],
      "name": "placeAndExecuteMarketBuy",
      "outputs": [],
      "stateMutability": "nonpayable",
      "type": "function"
    },
    {
      "inputs": [
        {
          "internalType": "uint96[]",
          "name": "c_max_bids",
          "type": "uint96[]"
        },
        {
          "internalType": "uint128",
          "name": "_size",
          "type": "uint128"
        }
      ],
      "name": "placeAndExecuteMarketSell",
      "outputs": [],
      "stateMutability": "nonpayable",
      "type": "function"
    },
    {
      "inputs": [
        {
          "internalType": "uint96[]",
          "name": "_prices",
          "type": "uint96[]"
        },
        {
          "internalType": "uint128[]",
          "name": "_sizes",
          "type": "uint128[]"
        }
      ],
      "name": "placeMultipleBuyOrders",
      "outputs": [],
      "stateMutability": "nonpayable",
      "type": "function"
    },
    {
      "inputs": [
        {
          "internalType": "uint96[]",
          "name": "_prices",
          "type": "uint96[]"
        },
        {
          "internalType": "uint128[]",
          "name": "_sizes",
          "type": "uint128[]"
        }
      ],
      "name": "placeMultipleSellOrders",
      "outputs": [],
      "stateMutability": "nonpayable",
      "type": "function"
    },
    {
      "inputs": [
        {
          "internalType": "uint256[]",
          "name": "_orderIds",
          "type": "uint256[]"
        },
        {
          "internalType": "uint96[]",
          "name": "_price",
          "type": "uint96[]"
        }
      ],
      "name": "replaceOrders",
      "outputs": [],
      "stateMutability": "nonpayable",
      "type": "function"
    },
    {
      "inputs": [
        {
          "internalType": "uint256",
          "name": "",
          "type": "uint256"
        }
      ],
      "name": "s_buyPricePoints",
      "outputs": [
        {
          "internalType": "uint128",
          "name": "totalCompletedOrCanceledOrders",
          "type": "uint128"
        },
        {
          "internalType": "uint128",
          "name": "totalOrdersAtPrice",
          "type": "uint128"
        },
        {
          "internalType": "uint128",
          "name": "executableSize",
          "type": "uint128"
        }
      ],
      "stateMutability": "view",
      "type": "function"
    },
    {
      "inputs": [],
      "name": "s_orderIdCounter",
      "outputs": [
        {
          "internalType": "uint256",
          "name": "",
          "type": "uint256"
        }
      ],
      "stateMutability": "view",
      "type": "function"
    },
    {
      "inputs": [
        {
          "internalType": "uint256",
          "name": "",
          "type": "uint256"
        }
      ],
      "name": "s_orders",
      "outputs": [
        {
          "internalType": "address",
          "name": "ownerAddress",
          "type": "address"
        },
        {
          "internalType": "uint96",
          "name": "price",
          "type": "uint96"
        },
        {
          "internalType": "uint128",
          "name": "size",
          "type": "uint128"
        },
        {
          "internalType": "uint128",
          "name": "acceptableRange",
          "type": "uint128"
        },
        {
          "internalType": "bool",
          "name": "isBuy",
          "type": "bool"
        }
      ],
      "stateMutability": "view",
      "type": "function"
    },
    {
      "inputs": [
        {
          "internalType": "uint256",
          "name": "",
          "type": "uint256"
        }
      ],
      "name": "s_sellPricePoints",
      "outputs": [
        {
          "internalType": "uint128",
          "name": "totalCompletedOrCanceledOrders",
          "type": "uint128"
        },
        {
          "internalType": "uint128",
          "name": "totalOrdersAtPrice",
          "type": "uint128"
        },
        {
          "internalType": "uint128",
          "name": "executableSize",
          "type": "uint128"
        }
      ],
      "stateMutability": "view",
      "type": "function"
    }
  ],
  "bytecode": "0x6101006040523480156200001257600080fd5b5060405162004fc538038062004fc5833981810160405281019062000038919062000167565b838383838373ffffffffffffffffffffffffffffffffffffffff1660808173ffffffffffffffffffffffffffffffffffffffff16815250508173ffffffffffffffffffffffffffffffffffffffff1660a08173ffffffffffffffffffffffffffffffffffffffff16815250508260c081815250508060e081815250505050505050505050620001d9565b600080fd5b600073ffffffffffffffffffffffffffffffffffffffff82169050919050565b6000620000f482620000c7565b9050919050565b6200010681620000e7565b81146200011257600080fd5b50565b6000815190506200012681620000fb565b92915050565b6000819050919050565b62000141816200012c565b81146200014d57600080fd5b50565b600081519050620001618162000136565b92915050565b60008060008060808587031215620001845762000183620000c2565b5b6000620001948782880162000115565b9450506020620001a78782880162000150565b9350506040620001ba8782880162000115565b9250506060620001cd8782880162000150565b91505092959194509250565b60805160a05160c05160e051614d42620002836000396000818161079f015281816111fa015281816119a701528181611c03015261389601526000818161110001528181611aaa015281816127d601528181612c65015261343401526000818161072d015281816111ac0152818161195801528181611bbd015261384d0152600081816110b601528181611a610152818161276901528181612c2101526133ed0152614d426000f3fe608060405234801561001057600080fd5b50600436106100ea5760003560e01c8063557276431161008c578063b722153f11610066578063b722153f14610237578063e6d29b5114610253578063eb2e70c814610285578063ece2e87f146102a1576100ea565b806355727643146101cb5780637e78e05f146101e7578063a6f3c50f14610203576100ea565b80632298c350116100c85780632298c3501461015957806324b291db146101755780632bf1360e146101915780634ff57439146101af576100ea565b806302e0d258146100ef5780630e2e2ffe1461010b5780631778334f1461013d575b600080fd5b610109600480360381019061010491906139c2565b6102bd565b005b610125600480360381019061012091906139c2565b61099b565b60405161013493929190613a1a565b60405180910390f35b61015760048036038101906101529190613ae2565b610a19565b005b610173600480360381019061016e9190613ae2565b6112bc565b005b61018f600480360381019061018a9190613b86565b611b5e565b005b610199611d23565b6040516101a69190613bd5565b60405180910390f35b6101c960048036038101906101c49190613e02565b611d29565b005b6101e560048036038101906101e09190613ed0565b611e32565b005b61020160048036038101906101fc91906139c2565b6122f9565b005b61021d600480360381019061021891906139c2565b612988565b60405161022e959493929190613fbc565b60405180910390f35b610251600480360381019061024c9190613e02565b612a3b565b005b61026d600480360381019061026891906139c2565b612b44565b60405161027c93929190613a1a565b60405180910390f35b61029f600480360381019061029a9190613b86565b612bc2565b005b6102bb60048036038101906102b691906141c1565b612d62565b005b60008060008381526020019081526020016000209050600073ffffffffffffffffffffffffffffffffffffffff168160000160009054906101000a900473ffffffffffffffffffffffffffffffffffffffff1673ffffffffffffffffffffffffffffffffffffffff1603610366576040517f08c379a000000000000000000000000000000000000000000000000000000000815260040161035d90614296565b60405180910390fd5b8060000160009054906101000a900473ffffffffffffffffffffffffffffffffffffffff1673ffffffffffffffffffffffffffffffffffffffff163373ffffffffffffffffffffffffffffffffffffffff16146103f8576040517f08c379a00000000000000000000000000000000000000000000000000000000081526004016103ef90614328565b60405180910390fd5b6000600260008360000160149054906101000a90046bffffffffffffffffffffffff166bffffffffffffffffffffffff16815260200190815260200160002090508060000160009054906101000a90046fffffffffffffffffffffffffffffffff168160010160009054906101000a90046fffffffffffffffffffffffffffffffff166104859190614377565b6fffffffffffffffffffffffffffffffff168260010160109054906101000a90046fffffffffffffffffffffffffffffffff166fffffffffffffffffffffffffffffffff161061050a576040517f08c379a000000000000000000000000000000000000000000000000000000000815260040161050190614407565b60405180910390fd5b60008260010160109054906101000a90046fffffffffffffffffffffffffffffffff168260000160009054906101000a90046fffffffffffffffffffffffffffffffff168360010160009054906101000a90046fffffffffffffffffffffffffffffffff166105799190614377565b6105839190614427565b905060008360010160009054906101000a90046fffffffffffffffffffffffffffffffff166fffffffffffffffffffffffffffffffff16826fffffffffffffffffffffffffffffffff16116105d857816105fa565b8360010160009054906101000a90046fffffffffffffffffffffffffffffffff165b9050808460010160008282829054906101000a90046fffffffffffffffffffffffffffffffff1661062b9190614427565b92506101000a8154816fffffffffffffffffffffffffffffffff02191690836fffffffffffffffffffffffffffffffff160217905550808360000160008282829054906101000a90046fffffffffffffffffffffffffffffffff166106909190614377565b92506101000a8154816fffffffffffffffffffffffffffffffff02191690836fffffffffffffffffffffffffffffffff160217905550808360010160008282829054906101000a90046fffffffffffffffffffffffffffffffff166106f59190614427565b92506101000a8154816fffffffffffffffffffffffffffffffff02191690836fffffffffffffffffffffffffffffffff1602179055507f000000000000000000000000000000000000000000000000000000000000000073ffffffffffffffffffffffffffffffffffffffff1663a9059cbb8560000160009054906101000a900473ffffffffffffffffffffffffffffffffffffffff166108436402540be40061083560646108277f0000000000000000000000000000000000000000000000000000000000000000600a6107ca919061459e565b6108198d60000160149054906101000a90046bffffffffffffffffffffffff166bffffffffffffffffffffffff168b6fffffffffffffffffffffffffffffffff16612e2890919063ffffffff16565b612e2890919063ffffffff16565b612e3e90919063ffffffff16565b612e3e90919063ffffffff16565b6040518363ffffffff1660e01b81526004016108609291906145e9565b6020604051808303816000875af115801561087f573d6000803e3d6000fd5b505050506040513d601f19601f820116820180604052508101906108a39190614627565b5060008460010160009054906101000a90046fffffffffffffffffffffffffffffffff166fffffffffffffffffffffffffffffffff160361099457600080868152602001908152602001600020600080820160006101000a81549073ffffffffffffffffffffffffffffffffffffffff02191690556000820160146101000a8154906bffffffffffffffffffffffff02191690556001820160006101000a8154906fffffffffffffffffffffffffffffffff02191690556001820160106101000a8154906fffffffffffffffffffffffffffffffff02191690556002820160006101000a81549060ff021916905550505b5050505050565b60026020528060005260406000206000915090508060000160009054906101000a90046fffffffffffffffffffffffffffffffff16908060000160109054906101000a90046fffffffffffffffffffffffffffffffff16908060010160009054906101000a90046fffffffffffffffffffffffffffffffff16905083565b6000816fffffffffffffffffffffffffffffffff1611610a6e576040517f08c379a0000000000000000000000000000000000000000000000000000000008152600401610a65906146c6565b60405180910390fd5b6000808484836bffffffffffffffffffffffff16818110610a9257610a916146e6565b5b9050602002016020810190610aa79190614715565b6bffffffffffffffffffffffff1690506000600160008381526020019081526020016000206040518060600160405290816000820160009054906101000a90046fffffffffffffffffffffffffffffffff166fffffffffffffffffffffffffffffffff166fffffffffffffffffffffffffffffffff1681526020016000820160109054906101000a90046fffffffffffffffffffffffffffffffff166fffffffffffffffffffffffffffffffff166fffffffffffffffffffffffffffffffff1681526020016001820160009054906101000a90046fffffffffffffffffffffffffffffffff166fffffffffffffffffffffffffffffffff166fffffffffffffffffffffffffffffffff168152505090506000816040015182600001518360200151610bd29190614427565b610bdc9190614427565b90506000805b826fffffffffffffffffffffffffffffffff16876fffffffffffffffffffffffffffffffff161115610f1757610c3385846fffffffffffffffffffffffffffffffff16612e2890919063ffffffff16565b82610c3e9190614742565b91508284604001818151610c529190614377565b9150906fffffffffffffffffffffffffffffffff1690816fffffffffffffffffffffffffffffffff16815250508287610c8b9190614427565b9650826fffffffffffffffffffffffffffffffff1681610cab9190614742565b9050836001600087815260200190815260200160002060008201518160000160006101000a8154816fffffffffffffffffffffffffffffffff02191690836fffffffffffffffffffffffffffffffff16021790555060208201518160000160106101000a8154816fffffffffffffffffffffffffffffffff02191690836fffffffffffffffffffffffffffffffff16021790555060408201518160010160006101000a8154816fffffffffffffffffffffffffffffffff02191690836fffffffffffffffffffffffffffffffff160217905550905050600186610d8e9190614776565b955088889050866bffffffffffffffffffffffff160315610f17578888876bffffffffffffffffffffffff16818110610dca57610dc96146e6565b5b9050602002016020810190610ddf9190614715565b6bffffffffffffffffffffffff169450600160008681526020019081526020016000206040518060600160405290816000820160009054906101000a90046fffffffffffffffffffffffffffffffff166fffffffffffffffffffffffffffffffff166fffffffffffffffffffffffffffffffff1681526020016000820160109054906101000a90046fffffffffffffffffffffffffffffffff166fffffffffffffffffffffffffffffffff166fffffffffffffffffffffffffffffffff1681526020016001820160009054906101000a90046fffffffffffffffffffffffffffffffff166fffffffffffffffffffffffffffffffff166fffffffffffffffffffffffffffffffff16815250509350836040015184600001518560200151610f069190614427565b610f109190614427565b9250610be2565b6000876fffffffffffffffffffffffffffffffff16118015610f49575088889050866bffffffffffffffffffffffff16105b156110b457610f7385886fffffffffffffffffffffffffffffffff16612e2890919063ffffffff16565b82610f7e9190614742565b91508684604001818151610f929190614377565b9150906fffffffffffffffffffffffffffffffff1690816fffffffffffffffffffffffffffffffff1681525050866fffffffffffffffffffffffffffffffff1681610fdd9190614742565b9050836001600087815260200190815260200160002060008201518160000160006101000a8154816fffffffffffffffffffffffffffffffff02191690836fffffffffffffffffffffffffffffffff16021790555060208201518160000160106101000a8154816fffffffffffffffffffffffffffffffff02191690836fffffffffffffffffffffffffffffffff16021790555060408201518160010160006101000a8154816fffffffffffffffffffffffffffffffff02191690836fffffffffffffffffffffffffffffffff1602179055509050505b7f000000000000000000000000000000000000000000000000000000000000000073ffffffffffffffffffffffffffffffffffffffff166323b872dd33306111486402540be40061113a7f0000000000000000000000000000000000000000000000000000000000000000600a61112b919061459e565b88612e2890919063ffffffff16565b612e3e90919063ffffffff16565b6040518463ffffffff1660e01b8152600401611166939291906147b6565b6020604051808303816000875af1158015611185573d6000803e3d6000fd5b505050506040513d601f19601f820116820180604052508101906111a99190614627565b507f000000000000000000000000000000000000000000000000000000000000000073ffffffffffffffffffffffffffffffffffffffff1663a9059cbb336112506402540be40061124260646112347f0000000000000000000000000000000000000000000000000000000000000000600a611225919061459e565b8a612e2890919063ffffffff16565b612e3e90919063ffffffff16565b612e3e90919063ffffffff16565b6040518363ffffffff1660e01b815260040161126d9291906145e9565b6020604051808303816000875af115801561128c573d6000803e3d6000fd5b505050506040513d601f19601f820116820180604052508101906112b09190614627565b50505050505050505050565b6000816fffffffffffffffffffffffffffffffff1611611311576040517f08c379a0000000000000000000000000000000000000000000000000000000008152600401611308906146c6565b60405180910390fd5b6000808484836bffffffffffffffffffffffff16818110611335576113346146e6565b5b905060200201602081019061134a9190614715565b6bffffffffffffffffffffffff1690506000600260008381526020019081526020016000206040518060600160405290816000820160009054906101000a90046fffffffffffffffffffffffffffffffff166fffffffffffffffffffffffffffffffff166fffffffffffffffffffffffffffffffff1681526020016000820160109054906101000a90046fffffffffffffffffffffffffffffffff166fffffffffffffffffffffffffffffffff166fffffffffffffffffffffffffffffffff1681526020016001820160009054906101000a90046fffffffffffffffffffffffffffffffff166fffffffffffffffffffffffffffffffff166fffffffffffffffffffffffffffffffff1681525050905060008160400151826000015183602001516114759190614427565b61147f9190614427565b90506000805b826fffffffffffffffffffffffffffffffff16876fffffffffffffffffffffffffffffffff16106117b9576114d585846fffffffffffffffffffffffffffffffff16612e2890919063ffffffff16565b826114e09190614742565b915082846040018181516114f49190614377565b9150906fffffffffffffffffffffffffffffffff1690816fffffffffffffffffffffffffffffffff1681525050828761152d9190614427565b9650826fffffffffffffffffffffffffffffffff168161154d9190614742565b9050836002600087815260200190815260200160002060008201518160000160006101000a8154816fffffffffffffffffffffffffffffffff02191690836fffffffffffffffffffffffffffffffff16021790555060208201518160000160106101000a8154816fffffffffffffffffffffffffffffffff02191690836fffffffffffffffffffffffffffffffff16021790555060408201518160010160006101000a8154816fffffffffffffffffffffffffffffffff02191690836fffffffffffffffffffffffffffffffff1602179055509050506001866116309190614776565b955088889050866bffffffffffffffffffffffff1603156117b9578888876bffffffffffffffffffffffff1681811061166c5761166b6146e6565b5b90506020020160208101906116819190614715565b6bffffffffffffffffffffffff169450600260008681526020019081526020016000206040518060600160405290816000820160009054906101000a90046fffffffffffffffffffffffffffffffff166fffffffffffffffffffffffffffffffff166fffffffffffffffffffffffffffffffff1681526020016000820160109054906101000a90046fffffffffffffffffffffffffffffffff166fffffffffffffffffffffffffffffffff166fffffffffffffffffffffffffffffffff1681526020016001820160009054906101000a90046fffffffffffffffffffffffffffffffff166fffffffffffffffffffffffffffffffff166fffffffffffffffffffffffffffffffff168152505093508360400151846000015185602001516117a89190614427565b6117b29190614427565b9250611485565b6000876fffffffffffffffffffffffffffffffff161180156117eb575088889050866bffffffffffffffffffffffff16105b156119565761181585886fffffffffffffffffffffffffffffffff16612e2890919063ffffffff16565b826118209190614742565b915086846040018181516118349190614377565b9150906fffffffffffffffffffffffffffffffff1690816fffffffffffffffffffffffffffffffff1681525050866fffffffffffffffffffffffffffffffff168161187f9190614742565b9050836002600087815260200190815260200160002060008201518160000160006101000a8154816fffffffffffffffffffffffffffffffff02191690836fffffffffffffffffffffffffffffffff16021790555060208201518160000160106101000a8154816fffffffffffffffffffffffffffffffff02191690836fffffffffffffffffffffffffffffffff16021790555060408201518160010160006101000a8154816fffffffffffffffffffffffffffffffff02191690836fffffffffffffffffffffffffffffffff1602179055509050505b7f000000000000000000000000000000000000000000000000000000000000000073ffffffffffffffffffffffffffffffffffffffff166323b872dd33306119fd6402540be4006119ef60646119e17f0000000000000000000000000000000000000000000000000000000000000000600a6119d2919061459e565b8b612e2890919063ffffffff16565b612e3e90919063ffffffff16565b612e3e90919063ffffffff16565b6040518463ffffffff1660e01b8152600401611a1b939291906147b6565b6020604051808303816000875af1158015611a3a573d6000803e3d6000fd5b505050506040513d601f19601f82011682018060405250810190611a5e9190614627565b507f000000000000000000000000000000000000000000000000000000000000000073ffffffffffffffffffffffffffffffffffffffff1663a9059cbb33611af26402540be400611ae47f0000000000000000000000000000000000000000000000000000000000000000600a611ad5919061459e565b87612e2890919063ffffffff16565b612e3e90919063ffffffff16565b6040518363ffffffff1660e01b8152600401611b0f9291906145e9565b6020604051808303816000875af1158015611b2e573d6000803e3d6000fd5b505050506040513d601f19601f82011682018060405250810190611b529190614627565b50505050505050505050565b60006003549050600181611b729190614742565b600381905550600060016000856bffffffffffffffffffffffff16815260200190815260200160002090506000611bb9828686600187611bb29190614742565b6001612e54565b90507f000000000000000000000000000000000000000000000000000000000000000073ffffffffffffffffffffffffffffffffffffffff166323b872dd33306402540be40060647f0000000000000000000000000000000000000000000000000000000000000000600a611c2e919061459e565b8b6bffffffffffffffffffffffff168b611c4891906147ed565b6fffffffffffffffffffffffffffffffff16611c64919061482a565b611c6e919061489b565b611c78919061489b565b6040518463ffffffff1660e01b8152600401611c96939291906147b6565b6020604051808303816000875af1158015611cb5573d6000803e3d6000fd5b505050506040513d601f19601f82011682018060405250810190611cd99190614627565b507f3bb89cbf97283fda44cd1b331bd60e5b8bbd1a72c4ae6acafc9b85da0a8ef64f83338787856001604051611d14969594939291906148cc565b60405180910390a15050505050565b60035481565b8051825114611d6d576040517f08c379a0000000000000000000000000000000000000000000000000000000008152600401611d649061499f565b60405180910390fd5b60005b8251811015611e2d573073ffffffffffffffffffffffffffffffffffffffff1663eb2e70c8848381518110611da857611da76146e6565b5b6020026020010151848481518110611dc357611dc26146e6565b5b60200260200101516040518363ffffffff1660e01b8152600401611de89291906149bf565b600060405180830381600087803b158015611e0257600080fd5b505af1158015611e16573d6000803e3d6000fd5b505050508080611e25906149e8565b915050611d70565b505050565b60005b848490508110156122f2576000806000878785818110611e5857611e576146e6565b5b90506020020135815260200190815260200160002090508060000160009054906101000a900473ffffffffffffffffffffffffffffffffffffffff1673ffffffffffffffffffffffffffffffffffffffff163373ffffffffffffffffffffffffffffffffffffffff1614611f01576040517f08c379a0000000000000000000000000000000000000000000000000000000008152600401611ef890614aa2565b60405180910390fd5b60008160020160009054906101000a900460ff16611f665760026000868686818110611f3057611f2f6146e6565b5b9050602002016020810190611f459190614715565b6bffffffffffffffffffffffff168152602001908152602001600020611faf565b60016000868686818110611f7d57611f7c6146e6565b5b9050602002016020810190611f929190614715565b6bffffffffffffffffffffffff1681526020019081526020016000205b905060008260020160009054906101000a900460ff1661200b57600260008460000160149054906101000a90046bffffffffffffffffffffffff166bffffffffffffffffffffffff168152602001908152602001600020612049565b600160008460000160149054906101000a90046bffffffffffffffffffffffff166bffffffffffffffffffffffff1681526020019081526020016000205b90508260010160009054906101000a90046fffffffffffffffffffffffffffffffff168160000160008282829054906101000a90046fffffffffffffffffffffffffffffffff1661209a9190614377565b92506101000a8154816fffffffffffffffffffffffffffffffff02191690836fffffffffffffffffffffffffffffffff1602179055508160000160109054906101000a90046fffffffffffffffffffffffffffffffff168360010160106101000a8154816fffffffffffffffffffffffffffffffff02191690836fffffffffffffffffffffffffffffffff16021790555085858581811061213e5761213d6146e6565b5b90506020020160208101906121539190614715565b8360000160146101000a8154816bffffffffffffffffffffffff02191690836bffffffffffffffffffffffff1602179055508260010160009054906101000a90046fffffffffffffffffffffffffffffffff168260000160108282829054906101000a90046fffffffffffffffffffffffffffffffff166121d49190614377565b92506101000a8154816fffffffffffffffffffffffffffffffff02191690836fffffffffffffffffffffffffffffffff1602179055507f88c56b5b4ebebb79641522127475a6a394fe9f7f9da5279fcdead7a28d298cab88888681811061223e5761223d6146e6565b5b9050602002013533888888818110612259576122586146e6565b5b905060200201602081019061226e9190614715565b8660010160009054906101000a90046fffffffffffffffffffffffffffffffff168760010160109054906101000a90046fffffffffffffffffffffffffffffffff168860020160009054906101000a900460ff166040516122d4969594939291906148cc565b60405180910390a150505080806122ea906149e8565b915050611e35565b5050505050565b60008060008381526020019081526020016000209050600073ffffffffffffffffffffffffffffffffffffffff168160000160009054906101000a900473ffffffffffffffffffffffffffffffffffffffff1673ffffffffffffffffffffffffffffffffffffffff16036123a2576040517f08c379a000000000000000000000000000000000000000000000000000000000815260040161239990614296565b60405180910390fd5b8060000160009054906101000a900473ffffffffffffffffffffffffffffffffffffffff1673ffffffffffffffffffffffffffffffffffffffff163373ffffffffffffffffffffffffffffffffffffffff1614612434576040517f08c379a000000000000000000000000000000000000000000000000000000000815260040161242b90614328565b60405180910390fd5b6000600160008360000160149054906101000a90046bffffffffffffffffffffffff166bffffffffffffffffffffffff16815260200190815260200160002090508060000160009054906101000a90046fffffffffffffffffffffffffffffffff168160010160009054906101000a90046fffffffffffffffffffffffffffffffff166124c19190614377565b6fffffffffffffffffffffffffffffffff168260010160109054906101000a90046fffffffffffffffffffffffffffffffff166fffffffffffffffffffffffffffffffff1610612546576040517f08c379a000000000000000000000000000000000000000000000000000000000815260040161253d90614407565b60405180910390fd5b60008260010160109054906101000a90046fffffffffffffffffffffffffffffffff168260000160009054906101000a90046fffffffffffffffffffffffffffffffff168360010160009054906101000a90046fffffffffffffffffffffffffffffffff166125b59190614377565b6125bf9190614427565b905060008360010160009054906101000a90046fffffffffffffffffffffffffffffffff166fffffffffffffffffffffffffffffffff16826fffffffffffffffffffffffffffffffff16116126145781612636565b8360010160009054906101000a90046fffffffffffffffffffffffffffffffff165b9050808460010160008282829054906101000a90046fffffffffffffffffffffffffffffffff166126679190614427565b92506101000a8154816fffffffffffffffffffffffffffffffff02191690836fffffffffffffffffffffffffffffffff160217905550808360000160008282829054906101000a90046fffffffffffffffffffffffffffffffff166126cc9190614377565b92506101000a8154816fffffffffffffffffffffffffffffffff02191690836fffffffffffffffffffffffffffffffff160217905550808360010160008282829054906101000a90046fffffffffffffffffffffffffffffffff166127319190614427565b92506101000a8154816fffffffffffffffffffffffffffffffff02191690836fffffffffffffffffffffffffffffffff1602179055507f000000000000000000000000000000000000000000000000000000000000000073ffffffffffffffffffffffffffffffffffffffff1663a9059cbb8560000160009054906101000a900473ffffffffffffffffffffffffffffffffffffffff166128306402540be4006128227f0000000000000000000000000000000000000000000000000000000000000000600a612801919061459e565b876fffffffffffffffffffffffffffffffff16612e2890919063ffffffff16565b612e3e90919063ffffffff16565b6040518363ffffffff1660e01b815260040161284d9291906145e9565b6020604051808303816000875af115801561286c573d6000803e3d6000fd5b505050506040513d601f19601f820116820180604052508101906128909190614627565b5060008460010160009054906101000a90046fffffffffffffffffffffffffffffffff166fffffffffffffffffffffffffffffffff160361298157600080868152602001908152602001600020600080820160006101000a81549073ffffffffffffffffffffffffffffffffffffffff02191690556000820160146101000a8154906bffffffffffffffffffffffff02191690556001820160006101000a8154906fffffffffffffffffffffffffffffffff02191690556001820160106101000a8154906fffffffffffffffffffffffffffffffff02191690556002820160006101000a81549060ff021916905550505b5050505050565b60006020528060005260406000206000915090508060000160009054906101000a900473ffffffffffffffffffffffffffffffffffffffff16908060000160149054906101000a90046bffffffffffffffffffffffff16908060010160009054906101000a90046fffffffffffffffffffffffffffffffff16908060010160109054906101000a90046fffffffffffffffffffffffffffffffff16908060020160009054906101000a900460ff16905085565b8051825114612a7f576040517f08c379a0000000000000000000000000000000000000000000000000000000008152600401612a769061499f565b60405180910390fd5b60005b8251811015612b3f573073ffffffffffffffffffffffffffffffffffffffff166324b291db848381518110612aba57612ab96146e6565b5b6020026020010151848481518110612ad557612ad46146e6565b5b60200260200101516040518363ffffffff1660e01b8152600401612afa9291906149bf565b600060405180830381600087803b158015612b1457600080fd5b505af1158015612b28573d6000803e3d6000fd5b505050508080612b37906149e8565b915050612a82565b505050565b60016020528060005260406000206000915090508060000160009054906101000a90046fffffffffffffffffffffffffffffffff16908060000160109054906101000a90046fffffffffffffffffffffffffffffffff16908060010160009054906101000a90046fffffffffffffffffffffffffffffffff16905083565b60006003549050600181612bd69190614742565b600381905550600060026000856bffffffffffffffffffffffff16815260200190815260200160002090506000612c1d828686600187612c169190614742565b6000612e54565b90507f000000000000000000000000000000000000000000000000000000000000000073ffffffffffffffffffffffffffffffffffffffff166323b872dd33306402540be4007f0000000000000000000000000000000000000000000000000000000000000000600a612c90919061459e565b896fffffffffffffffffffffffffffffffff16612cad919061482a565b612cb7919061489b565b6040518463ffffffff1660e01b8152600401612cd5939291906147b6565b6020604051808303816000875af1158015612cf4573d6000803e3d6000fd5b505050506040513d601f19601f82011682018060405250810190612d189190614627565b507f3bb89cbf97283fda44cd1b331bd60e5b8bbd1a72c4ae6acafc9b85da0a8ef64f83338787856000604051612d53969594939291906148cc565b60405180910390a15050505050565b60005b8251811015612dec57818181518110612d8157612d806146e6565b5b6020026020010151612db557612db0838281518110612da357612da26146e6565b5b602002602001015161308e565b612dd9565b612dd8838281518110612dcb57612dca6146e6565b5b60200260200101516134ef565b5b8080612de4906149e8565b915050612d65565b507f4e7423f2dd63c2961bad2d15176d3d5baf5955e9b2ef13e0bdb7b6b27c21ffef82604051612e1c9190614b80565b60405180910390a15050565b60008183612e36919061482a565b905092915050565b60008183612e4c919061489b565b905092915050565b6000808660000160109054906101000a90046fffffffffffffffffffffffffffffffff1690506040518060a001604052803373ffffffffffffffffffffffffffffffffffffffff168152602001876bffffffffffffffffffffffff168152602001866fffffffffffffffffffffffffffffffff168152602001826fffffffffffffffffffffffffffffffff16815260200184151581525060008086815260200190815260200160002060008201518160000160006101000a81548173ffffffffffffffffffffffffffffffffffffffff021916908373ffffffffffffffffffffffffffffffffffffffff16021790555060208201518160000160146101000a8154816bffffffffffffffffffffffff02191690836bffffffffffffffffffffffff16021790555060408201518160010160006101000a8154816fffffffffffffffffffffffffffffffff02191690836fffffffffffffffffffffffffffffffff16021790555060608201518160010160106101000a8154816fffffffffffffffffffffffffffffffff02191690836fffffffffffffffffffffffffffffffff16021790555060808201518160020160006101000a81548160ff021916908315150217905550905050848760000160108282829054906101000a90046fffffffffffffffffffffffffffffffff1661304b9190614377565b92506101000a8154816fffffffffffffffffffffffffffffffff02191690836fffffffffffffffffffffffffffffffff1602179055508091505095945050505050565b60008060008381526020019081526020016000206040518060a00160405290816000820160009054906101000a900473ffffffffffffffffffffffffffffffffffffffff1673ffffffffffffffffffffffffffffffffffffffff1673ffffffffffffffffffffffffffffffffffffffff1681526020016000820160149054906101000a90046bffffffffffffffffffffffff166bffffffffffffffffffffffff166bffffffffffffffffffffffff1681526020016001820160009054906101000a90046fffffffffffffffffffffffffffffffff166fffffffffffffffffffffffffffffffff166fffffffffffffffffffffffffffffffff1681526020016001820160109054906101000a90046fffffffffffffffffffffffffffffffff166fffffffffffffffffffffffffffffffff166fffffffffffffffffffffffffffffffff1681526020016002820160009054906101000a900460ff1615151515815250509050806080015115613237576040517f08c379a000000000000000000000000000000000000000000000000000000000815260040161322e90614bee565b60405180910390fd5b806000015173ffffffffffffffffffffffffffffffffffffffff163373ffffffffffffffffffffffffffffffffffffffff16146132a9576040517f08c379a00000000000000000000000000000000000000000000000000000000081526004016132a090614c80565b60405180910390fd5b80604001516002600083602001516bffffffffffffffffffffffff16815260200190815260200160002060000160008282829054906101000a90046fffffffffffffffffffffffffffffffff166133009190614377565b92506101000a8154816fffffffffffffffffffffffffffffffff02191690836fffffffffffffffffffffffffffffffff160217905550600080838152602001908152602001600020600080820160006101000a81549073ffffffffffffffffffffffffffffffffffffffff02191690556000820160146101000a8154906bffffffffffffffffffffffff02191690556001820160006101000a8154906fffffffffffffffffffffffffffffffff02191690556001820160106101000a8154906fffffffffffffffffffffffffffffffff02191690556002820160006101000a81549060ff021916905550507f000000000000000000000000000000000000000000000000000000000000000073ffffffffffffffffffffffffffffffffffffffff1663a9059cbb82600001516402540be4007f0000000000000000000000000000000000000000000000000000000000000000600a61345f919061459e565b85604001516fffffffffffffffffffffffffffffffff16613480919061482a565b61348a919061489b565b6040518363ffffffff1660e01b81526004016134a79291906145e9565b6020604051808303816000875af11580156134c6573d6000803e3d6000fd5b505050506040513d601f19601f820116820180604052508101906134ea9190614627565b505050565b60008060008381526020019081526020016000206040518060a00160405290816000820160009054906101000a900473ffffffffffffffffffffffffffffffffffffffff1673ffffffffffffffffffffffffffffffffffffffff1673ffffffffffffffffffffffffffffffffffffffff1681526020016000820160149054906101000a90046bffffffffffffffffffffffff166bffffffffffffffffffffffff166bffffffffffffffffffffffff1681526020016001820160009054906101000a90046fffffffffffffffffffffffffffffffff166fffffffffffffffffffffffffffffffff166fffffffffffffffffffffffffffffffff1681526020016001820160109054906101000a90046fffffffffffffffffffffffffffffffff166fffffffffffffffffffffffffffffffff166fffffffffffffffffffffffffffffffff1681526020016002820160009054906101000a900460ff16151515158152505090508060800151613697576040517f08c379a000000000000000000000000000000000000000000000000000000000815260040161368e90614cec565b60405180910390fd5b806000015173ffffffffffffffffffffffffffffffffffffffff163373ffffffffffffffffffffffffffffffffffffffff1614613709576040517f08c379a000000000000000000000000000000000000000000000000000000000815260040161370090614c80565b60405180910390fd5b80604001516001600083602001516bffffffffffffffffffffffff16815260200190815260200160002060000160008282829054906101000a90046fffffffffffffffffffffffffffffffff166137609190614377565b92506101000a8154816fffffffffffffffffffffffffffffffff02191690836fffffffffffffffffffffffffffffffff160217905550600080838152602001908152602001600020600080820160006101000a81549073ffffffffffffffffffffffffffffffffffffffff02191690556000820160146101000a8154906bffffffffffffffffffffffff02191690556001820160006101000a8154906fffffffffffffffffffffffffffffffff02191690556001820160106101000a8154906fffffffffffffffffffffffffffffffff02191690556002820160006101000a81549060ff021916905550507f000000000000000000000000000000000000000000000000000000000000000073ffffffffffffffffffffffffffffffffffffffff1663a9059cbb82600001516402540be40060647f0000000000000000000000000000000000000000000000000000000000000000600a6138c1919061459e565b86602001516bffffffffffffffffffffffff1687604001516138e391906147ed565b6fffffffffffffffffffffffffffffffff166138ff919061482a565b613909919061489b565b613913919061489b565b6040518363ffffffff1660e01b81526004016139309291906145e9565b6020604051808303816000875af115801561394f573d6000803e3d6000fd5b505050506040513d601f19601f820116820180604052508101906139739190614627565b505050565b6000604051905090565b600080fd5b600080fd5b6000819050919050565b61399f8161398c565b81146139aa57600080fd5b50565b6000813590506139bc81613996565b92915050565b6000602082840312156139d8576139d7613982565b5b60006139e6848285016139ad565b91505092915050565b60006fffffffffffffffffffffffffffffffff82169050919050565b613a14816139ef565b82525050565b6000606082019050613a2f6000830186613a0b565b613a3c6020830185613a0b565b613a496040830184613a0b565b949350505050565b600080fd5b600080fd5b600080fd5b60008083601f840112613a7657613a75613a51565b5b8235905067ffffffffffffffff811115613a9357613a92613a56565b5b602083019150836020820283011115613aaf57613aae613a5b565b5b9250929050565b613abf816139ef565b8114613aca57600080fd5b50565b600081359050613adc81613ab6565b92915050565b600080600060408486031215613afb57613afa613982565b5b600084013567ffffffffffffffff811115613b1957613b18613987565b5b613b2586828701613a60565b93509350506020613b3886828701613acd565b9150509250925092565b60006bffffffffffffffffffffffff82169050919050565b613b6381613b42565b8114613b6e57600080fd5b50565b600081359050613b8081613b5a565b92915050565b60008060408385031215613b9d57613b9c613982565b5b6000613bab85828601613b71565b9250506020613bbc85828601613acd565b9150509250929050565b613bcf8161398c565b82525050565b6000602082019050613bea6000830184613bc6565b92915050565b6000601f19601f8301169050919050565b7f4e487b7100000000000000000000000000000000000000000000000000000000600052604160045260246000fd5b613c3982613bf0565b810181811067ffffffffffffffff82111715613c5857613c57613c01565b5b80604052505050565b6000613c6b613978565b9050613c778282613c30565b919050565b600067ffffffffffffffff821115613c9757613c96613c01565b5b602082029050602081019050919050565b6000613cbb613cb684613c7c565b613c61565b90508083825260208201905060208402830185811115613cde57613cdd613a5b565b5b835b81811015613d075780613cf38882613b71565b845260208401935050602081019050613ce0565b5050509392505050565b600082601f830112613d2657613d25613a51565b5b8135613d36848260208601613ca8565b91505092915050565b600067ffffffffffffffff821115613d5a57613d59613c01565b5b602082029050602081019050919050565b6000613d7e613d7984613d3f565b613c61565b90508083825260208201905060208402830185811115613da157613da0613a5b565b5b835b81811015613dca5780613db68882613acd565b845260208401935050602081019050613da3565b5050509392505050565b600082601f830112613de957613de8613a51565b5b8135613df9848260208601613d6b565b91505092915050565b60008060408385031215613e1957613e18613982565b5b600083013567ffffffffffffffff811115613e3757613e36613987565b5b613e4385828601613d11565b925050602083013567ffffffffffffffff811115613e6457613e63613987565b5b613e7085828601613dd4565b9150509250929050565b60008083601f840112613e9057613e8f613a51565b5b8235905067ffffffffffffffff811115613ead57613eac613a56565b5b602083019150836020820283011115613ec957613ec8613a5b565b5b9250929050565b60008060008060408587031215613eea57613ee9613982565b5b600085013567ffffffffffffffff811115613f0857613f07613987565b5b613f1487828801613e7a565b9450945050602085013567ffffffffffffffff811115613f3757613f36613987565b5b613f4387828801613a60565b925092505092959194509250565b600073ffffffffffffffffffffffffffffffffffffffff82169050919050565b6000613f7c82613f51565b9050919050565b613f8c81613f71565b82525050565b613f9b81613b42565b82525050565b60008115159050919050565b613fb681613fa1565b82525050565b600060a082019050613fd16000830188613f83565b613fde6020830187613f92565b613feb6040830186613a0b565b613ff86060830185613a0b565b6140056080830184613fad565b9695505050505050565b600067ffffffffffffffff82111561402a57614029613c01565b5b602082029050602081019050919050565b600061404e6140498461400f565b613c61565b9050808382526020820190506020840283018581111561407157614070613a5b565b5b835b8181101561409a578061408688826139ad565b845260208401935050602081019050614073565b5050509392505050565b600082601f8301126140b9576140b8613a51565b5b81356140c984826020860161403b565b91505092915050565b600067ffffffffffffffff8211156140ed576140ec613c01565b5b602082029050602081019050919050565b61410781613fa1565b811461411257600080fd5b50565b600081359050614124816140fe565b92915050565b600061413d614138846140d2565b613c61565b905080838252602082019050602084028301858111156141605761415f613a5b565b5b835b8181101561418957806141758882614115565b845260208401935050602081019050614162565b5050509392505050565b600082601f8301126141a8576141a7613a51565b5b81356141b884826020860161412a565b91505092915050565b600080604083850312156141d8576141d7613982565b5b600083013567ffffffffffffffff8111156141f6576141f5613987565b5b614202858286016140a4565b925050602083013567ffffffffffffffff81111561422357614222613987565b5b61422f85828601614193565b9150509250929050565b600082825260208201905092915050565b7f4f72646572426f6f6b3a206f7264657220646f65736e27742065786973740000600082015250565b6000614280601e83614239565b915061428b8261424a565b602082019050919050565b600060208201905081810360008301526142af81614273565b9050919050565b7f4f72646572426f6f6b3a206f6e6c79206f72646572206f776e65722063616e2060008201527f636c61696d000000000000000000000000000000000000000000000000000000602082015250565b6000614312602583614239565b915061431d826142b6565b604082019050919050565b6000602082019050818103600083015261434181614305565b9050919050565b7f4e487b7100000000000000000000000000000000000000000000000000000000600052601160045260246000fd5b6000614382826139ef565b915061438d836139ef565b925082820190506fffffffffffffffffffffffffffffffff8111156143b5576143b4614348565b5b92915050565b7f4f72646572426f6f6b3a206f72646572206e6f742065786563757461626c6500600082015250565b60006143f1601f83614239565b91506143fc826143bb565b602082019050919050565b60006020820190508181036000830152614420816143e4565b9050919050565b6000614432826139ef565b915061443d836139ef565b925082820390506fffffffffffffffffffffffffffffffff81111561446557614464614348565b5b92915050565b60008160011c9050919050565b6000808291508390505b60018511156144c25780860481111561449e5761449d614348565b5b60018516156144ad5780820291505b80810290506144bb8561446b565b9450614482565b94509492505050565b6000826144db5760019050614597565b816144e95760009050614597565b81600181146144ff576002811461450957614538565b6001915050614597565b60ff84111561451b5761451a614348565b5b8360020a91508482111561453257614531614348565b5b50614597565b5060208310610133831016604e8410600b841016171561456d5782820a90508381111561456857614567614348565b5b614597565b61457a8484846001614478565b9250905081840481111561459157614590614348565b5b81810290505b9392505050565b60006145a98261398c565b91506145b48361398c565b92506145e17fffffffffffffffffffffffffffffffffffffffffffffffffffffffffffffffff84846144cb565b905092915050565b60006040820190506145fe6000830185613f83565b61460b6020830184613bc6565b9392505050565b600081519050614621816140fe565b92915050565b60006020828403121561463d5761463c613982565b5b600061464b84828501614612565b91505092915050565b7f4f72646572426f6f6b3a2073697a65206d75737420626520677265617465722060008201527f7468616e20300000000000000000000000000000000000000000000000000000602082015250565b60006146b0602683614239565b91506146bb82614654565b604082019050919050565b600060208201905081810360008301526146df816146a3565b9050919050565b7f4e487b7100000000000000000000000000000000000000000000000000000000600052603260045260246000fd5b60006020828403121561472b5761472a613982565b5b600061473984828501613b71565b91505092915050565b600061474d8261398c565b91506147588361398c565b92508282019050808211156147705761476f614348565b5b92915050565b600061478182613b42565b915061478c83613b42565b925082820190506bffffffffffffffffffffffff8111156147b0576147af614348565b5b92915050565b60006060820190506147cb6000830186613f83565b6147d86020830185613f83565b6147e56040830184613bc6565b949350505050565b60006147f8826139ef565b9150614803836139ef565b9250828202614811816139ef565b915080821461482357614822614348565b5b5092915050565b60006148358261398c565b91506148408361398c565b925082820261484e8161398c565b9150828204841483151761486557614864614348565b5b5092915050565b7f4e487b7100000000000000000000000000000000000000000000000000000000600052601260045260246000fd5b60006148a68261398c565b91506148b18361398c565b9250826148c1576148c061486c565b5b828204905092915050565b600060c0820190506148e16000830189613bc6565b6148ee6020830188613f83565b6148fb6040830187613f92565b6149086060830186613a0b565b6149156080830185613a0b565b61492260a0830184613fad565b979650505050505050565b7f4f72646572426f6f6b3a2050726963657320616e642073697a6573206172726160008201527f79206c656e677468206d757374206d6174636800000000000000000000000000602082015250565b6000614989603383614239565b91506149948261492d565b604082019050919050565b600060208201905081810360008301526149b88161497c565b9050919050565b60006040820190506149d46000830185613f92565b6149e16020830184613a0b565b9392505050565b60006149f38261398c565b91507fffffffffffffffffffffffffffffffffffffffffffffffffffffffffffffffff8203614a2557614a24614348565b5b600182019050919050565b7f4f72646572426f6f6b3a204f6e6c79206f72646572206f776e65722063616e2060008201527f757064617465206f726465720000000000000000000000000000000000000000602082015250565b6000614a8c602c83614239565b9150614a9782614a30565b604082019050919050565b60006020820190508181036000830152614abb81614a7f565b9050919050565b600081519050919050565b600082825260208201905092915050565b6000819050602082019050919050565b614af78161398c565b82525050565b6000614b098383614aee565b60208301905092915050565b6000602082019050919050565b6000614b2d82614ac2565b614b378185614acd565b9350614b4283614ade565b8060005b83811015614b73578151614b5a8882614afd565b9750614b6583614b15565b925050600181019050614b46565b5085935050505092915050565b60006020820190508181036000830152614b9a8184614b22565b905092915050565b7f4f72646572426f6f6b3a2043616e63656c6c696e6720627579206f7264657200600082015250565b6000614bd8601f83614239565b9150614be382614ba2565b602082019050919050565b60006020820190508181036000830152614c0781614bcb565b9050919050565b7f4f72646572426f6f6b3a204f6e6c79206f72646572206f776e65722063616e2060008201527f63616e63656c206f726465720000000000000000000000000000000000000000602082015250565b6000614c6a602c83614239565b9150614c7582614c0e565b604082019050919050565b60006020820190508181036000830152614c9981614c5d565b9050919050565b7f4f72646572426f6f6b3a2043616e63656c6c696e672073656c6c206f72646572600082015250565b6000614cd6602083614239565b9150614ce182614ca0565b602082019050919050565b60006020820190508181036000830152614d0581614cc9565b905091905056fea2646970667358221220677a68f4a38483865367930895ea36ad4cf0de983305d6e81534082dcb151cc564736f6c63430008110033",
  "linkReferences": {},
  "deployedLinkReferences": {}
}