{"contracts/OrderBook.sol":{"OrderBook":{"abi":[{"inputs":[{"internalType":"address","name":"_tokenAAddress","type":"address"},{"internalType":"uint256","name":"_tokenADecimals","type":"uint256"},{"internalType":"address","name":"_tokenBAddress","type":"address"},{"internalType":"uint256","name":"_tokenBDecimals","type":"uint256"}],"stateMutability":"nonpayable","type":"constructor"},{"anonymous":false,"inputs":[{"indexed":false,"internalType":"uint256","name":"orderId","type":"uint256"},{"indexed":false,"internalType":"address","name":"owner","type":"address"},{"indexed":false,"internalType":"bool","name":"isBuy","type":"bool"}],"name":"OrderCompletedOrCanceled","type":"event"},{"anonymous":false,"inputs":[{"indexed":false,"internalType":"uint256","name":"orderId","type":"uint256"},{"indexed":false,"internalType":"address","name":"owner","type":"address"},{"indexed":false,"internalType":"uint96","name":"price","type":"uint96"},{"indexed":false,"internalType":"uint128","name":"size","type":"uint128"},{"indexed":false,"internalType":"uint128","name":"acceptableRange","type":"uint128"},{"indexed":false,"internalType":"bool","name":"isBuy","type":"bool"}],"name":"OrderCreated","type":"event"},{"anonymous":false,"inputs":[{"indexed":false,"internalType":"uint256","name":"orderId","type":"uint256"},{"indexed":false,"internalType":"address","name":"owner","type":"address"},{"indexed":false,"internalType":"uint96","name":"price","type":"uint96"},{"indexed":false,"internalType":"uint128","name":"size","type":"uint128"},{"indexed":false,"internalType":"uint128","name":"acceptableRange","type":"uint128"},{"indexed":false,"internalType":"bool","name":"isBuy","type":"bool"}],"name":"OrderUpdated","type":"event"},{"inputs":[{"internalType":"uint96","name":"_price","type":"uint96"},{"internalType":"uint128","name":"size","type":"uint128"}],"name":"addBuyOrder","outputs":[],"stateMutability":"nonpayable","type":"function"},{"inputs":[{"internalType":"uint96","name":"_price","type":"uint96"},{"internalType":"uint128","name":"size","type":"uint128"}],"name":"addSellOrder","outputs":[],"stateMutability":"nonpayable","type":"function"},{"inputs":[{"internalType":"uint256[]","name":"_orderIds","type":"uint256[]"},{"internalType":"bool[]","name":"_isBuy","type":"bool[]"}],"name":"batchCancelOrders","outputs":[],"stateMutability":"nonpayable","type":"function"},{"inputs":[{"internalType":"uint256","name":"_orderId","type":"uint256"}],"name":"cancelBuyOrder","outputs":[],"stateMutability":"nonpayable","type":"function"},{"inputs":[{"internalType":"uint256","name":"_orderId","type":"uint256"}],"name":"cancelSellOrder","outputs":[],"stateMutability":"nonpayable","type":"function"},{"inputs":[{"internalType":"uint256","name":"_orderId","type":"uint256"}],"name":"claimBuyLimitOrder","outputs":[],"stateMutability":"nonpayable","type":"function"},{"inputs":[{"internalType":"uint256","name":"_orderId","type":"uint256"}],"name":"claimSellLimitOrder","outputs":[],"stateMutability":"nonpayable","type":"function"},{"inputs":[{"internalType":"uint96[]","name":"c_min_asks","type":"uint96[]"},{"internalType":"uint128","name":"_size","type":"uint128"}],"name":"placeAndExecuteMarketBuy","outputs":[],"stateMutability":"nonpayable","type":"function"},{"inputs":[{"internalType":"uint96[]","name":"c_max_bids","type":"uint96[]"},{"internalType":"uint128","name":"_size","type":"uint128"}],"name":"placeAndExecuteMarketSell","outputs":[],"stateMutability":"nonpayable","type":"function"},{"inputs":[{"internalType":"uint96[]","name":"_prices","type":"uint96[]"},{"internalType":"uint128[]","name":"_sizes","type":"uint128[]"}],"name":"placeMultipleBuyOrders","outputs":[],"stateMutability":"nonpayable","type":"function"},{"inputs":[{"internalType":"uint96[]","name":"_prices","type":"uint96[]"},{"internalType":"uint128[]","name":"_sizes","type":"uint128[]"}],"name":"placeMultipleSellOrders","outputs":[],"stateMutability":"nonpayable","type":"function"},{"inputs":[{"internalType":"uint256[]","name":"_orderIds","type":"uint256[]"},{"internalType":"uint96[]","name":"_price","type":"uint96[]"}],"name":"replaceOrders","outputs":[],"stateMutability":"nonpayable","type":"function"},{"inputs":[{"internalType":"uint256","name":"","type":"uint256"}],"name":"s_buyPricePoints","outputs":[{"internalType":"uint128","name":"totalCompletedOrCanceledOrders","type":"uint128"},{"internalType":"uint128","name":"totalOrdersAtPrice","type":"uint128"},{"internalType":"uint128","name":"executableSize","type":"uint128"}],"stateMutability":"view","type":"function"},{"inputs":[],"name":"s_orderIdCounter","outputs":[{"internalType":"uint256","name":"","type":"uint256"}],"stateMutability":"view","type":"function"},{"inputs":[{"internalType":"uint256","name":"","type":"uint256"}],"name":"s_orders","outputs":[{"internalType":"address","name":"ownerAddress","type":"address"},{"internalType":"uint96","name":"price","type":"uint96"},{"internalType":"uint128","name":"size","type":"uint128"},{"internalType":"uint128","name":"acceptableRange","type":"uint128"},{"internalType":"bool","name":"isBuy","type":"bool"}],"stateMutability":"view","type":"function"},{"inputs":[{"internalType":"uint256","name":"","type":"uint256"}],"name":"s_sellPricePoints","outputs":[{"internalType":"uint128","name":"totalCompletedOrCanceledOrders","type":"uint128"},{"internalType":"uint128","name":"totalOrdersAtPrice","type":"uint128"},{"internalType":"uint128","name":"executableSize","type":"uint128"}],"stateMutability":"view","type":"function"}],"evm":{"bytecode":{"linkReferences":{},"object":"6101006040523480156200001257600080fd5b506040516200507838038062005078833981810160405281019062000038919062000167565b838383838373ffffffffffffffffffffffffffffffffffffffff1660808173ffffffffffffffffffffffffffffffffffffffff16815250508173ffffffffffffffffffffffffffffffffffffffff1660a08173ffffffffffffffffffffffffffffffffffffffff16815250508260c081815250508060e081815250505050505050505050620001d9565b600080fd5b600073ffffffffffffffffffffffffffffffffffffffff82169050919050565b6000620000f482620000c7565b9050919050565b6200010681620000e7565b81146200011257600080fd5b50565b6000815190506200012681620000fb565b92915050565b6000819050919050565b62000141816200012c565b81146200014d57600080fd5b50565b600081519050620001618162000136565b92915050565b60008060008060808587031215620001845762000183620000c2565b5b6000620001948782880162000115565b9450506020620001a78782880162000150565b9350506040620001ba8782880162000115565b9250506060620001cd8782880162000150565b91505092959194509250565b60805160a05160c05160e051614df562000283600039600081816107ed0152818161124801528181611e96015281816120f201526133da01526000818161114e015281816116b001528181611f9901528181612cc5015261361d01526000818161077b015281816111fa01528181611e47015281816120ac01526133910152600081816111040152818161166901528181611f5001528181612c5801526135d90152614df56000f3fe608060405234801561001057600080fd5b50600436106101005760003560e01c80635572764311610097578063be5d147f11610066578063be5d147f14610285578063e6d29b51146102a1578063eb2e70c8146102d3578063ece2e87f146102ef57610100565b806355727643146101fd5780637e78e05f14610219578063a6f3c50f14610235578063b722153f1461026957610100565b80632298c350116100d35780632298c3501461018b57806324b291db146101a75780632bf1360e146101c35780634ff57439146101e157610100565b806302e0d258146101055780630e2e2ffe146101215780631778334f146101535780631a46e42a1461016f575b600080fd5b61011f600480360381019061011a9190613b1e565b61030b565b005b61013b60048036038101906101369190613b1e565b6109e9565b60405161014a93929190613b76565b60405180910390f35b61016d60048036038101906101689190613c3e565b610a67565b005b61018960048036038101906101849190613b1e565b61130a565b005b6101a560048036038101906101a09190613c3e565b6117ab565b005b6101c160048036038101906101bc9190613ce2565b61204d565b005b6101cb612212565b6040516101d89190613d31565b60405180910390f35b6101fb60048036038101906101f69190613f5e565b612218565b005b6102176004803603810190610212919061402c565b612321565b005b610233600480360381019061022e9190613b1e565b6127e8565b005b61024f600480360381019061024a9190613b1e565b612e77565b604051610260959493929190614118565b60405180910390f35b610283600480360381019061027e9190613f5e565b612f2a565b005b61029f600480360381019061029a9190613b1e565b613033565b005b6102bb60048036038101906102b69190613b1e565b6134fc565b6040516102ca93929190613b76565b60405180910390f35b6102ed60048036038101906102e89190613ce2565b61357a565b005b6103096004803603810190610304919061431d565b61371a565b005b60008060008381526020019081526020016000209050600073ffffffffffffffffffffffffffffffffffffffff168160000160009054906101000a900473ffffffffffffffffffffffffffffffffffffffff1673ffffffffffffffffffffffffffffffffffffffff16036103b4576040517f08c379a00000000000000000000000000000000000000000000000000000000081526004016103ab906143f2565b60405180910390fd5b8060000160009054906101000a900473ffffffffffffffffffffffffffffffffffffffff1673ffffffffffffffffffffffffffffffffffffffff163373ffffffffffffffffffffffffffffffffffffffff1614610446576040517f08c379a000000000000000000000000000000000000000000000000000000000815260040161043d90614484565b60405180910390fd5b6000600260008360000160149054906101000a90046bffffffffffffffffffffffff166bffffffffffffffffffffffff16815260200190815260200160002090508060000160009054906101000a90046fffffffffffffffffffffffffffffffff168160010160009054906101000a90046fffffffffffffffffffffffffffffffff166104d391906144d3565b6fffffffffffffffffffffffffffffffff168260010160109054906101000a90046fffffffffffffffffffffffffffffffff166fffffffffffffffffffffffffffffffff1610610558576040517f08c379a000000000000000000000000000000000000000000000000000000000815260040161054f90614563565b60405180910390fd5b60008260010160109054906101000a90046fffffffffffffffffffffffffffffffff168260000160009054906101000a90046fffffffffffffffffffffffffffffffff168360010160009054906101000a90046fffffffffffffffffffffffffffffffff166105c791906144d3565b6105d19190614583565b905060008360010160009054906101000a90046fffffffffffffffffffffffffffffffff166fffffffffffffffffffffffffffffffff16826fffffffffffffffffffffffffffffffff16116106265781610648565b8360010160009054906101000a90046fffffffffffffffffffffffffffffffff165b9050808460010160008282829054906101000a90046fffffffffffffffffffffffffffffffff166106799190614583565b92506101000a8154816fffffffffffffffffffffffffffffffff02191690836fffffffffffffffffffffffffffffffff160217905550808360000160008282829054906101000a90046fffffffffffffffffffffffffffffffff166106de91906144d3565b92506101000a8154816fffffffffffffffffffffffffffffffff02191690836fffffffffffffffffffffffffffffffff160217905550808360010160008282829054906101000a90046fffffffffffffffffffffffffffffffff166107439190614583565b92506101000a8154816fffffffffffffffffffffffffffffffff02191690836fffffffffffffffffffffffffffffffff1602179055507f000000000000000000000000000000000000000000000000000000000000000073ffffffffffffffffffffffffffffffffffffffff1663a9059cbb8560000160009054906101000a900473ffffffffffffffffffffffffffffffffffffffff166108916402540be40061088360646108757f0000000000000000000000000000000000000000000000000000000000000000600a61081891906146fa565b6108678d60000160149054906101000a90046bffffffffffffffffffffffff166bffffffffffffffffffffffff168b6fffffffffffffffffffffffffffffffff1661386e90919063ffffffff16565b61386e90919063ffffffff16565b61388490919063ffffffff16565b61388490919063ffffffff16565b6040518363ffffffff1660e01b81526004016108ae929190614745565b6020604051808303816000875af11580156108cd573d6000803e3d6000fd5b505050506040513d601f19601f820116820180604052508101906108f19190614783565b5060008460010160009054906101000a90046fffffffffffffffffffffffffffffffff166fffffffffffffffffffffffffffffffff16036109e257600080868152602001908152602001600020600080820160006101000a81549073ffffffffffffffffffffffffffffffffffffffff02191690556000820160146101000a8154906bffffffffffffffffffffffff02191690556001820160006101000a8154906fffffffffffffffffffffffffffffffff02191690556001820160106101000a8154906fffffffffffffffffffffffffffffffff02191690556002820160006101000a81549060ff021916905550505b5050505050565b60026020528060005260406000206000915090508060000160009054906101000a90046fffffffffffffffffffffffffffffffff16908060000160109054906101000a90046fffffffffffffffffffffffffffffffff16908060010160009054906101000a90046fffffffffffffffffffffffffffffffff16905083565b6000816fffffffffffffffffffffffffffffffff1611610abc576040517f08c379a0000000000000000000000000000000000000000000000000000000008152600401610ab390614822565b60405180910390fd5b6000808484836bffffffffffffffffffffffff16818110610ae057610adf614842565b5b9050602002016020810190610af59190614871565b6bffffffffffffffffffffffff1690506000600160008381526020019081526020016000206040518060600160405290816000820160009054906101000a90046fffffffffffffffffffffffffffffffff166fffffffffffffffffffffffffffffffff166fffffffffffffffffffffffffffffffff1681526020016000820160109054906101000a90046fffffffffffffffffffffffffffffffff166fffffffffffffffffffffffffffffffff166fffffffffffffffffffffffffffffffff1681526020016001820160009054906101000a90046fffffffffffffffffffffffffffffffff166fffffffffffffffffffffffffffffffff166fffffffffffffffffffffffffffffffff168152505090506000816040015182600001518360200151610c209190614583565b610c2a9190614583565b90506000805b826fffffffffffffffffffffffffffffffff16876fffffffffffffffffffffffffffffffff161115610f6557610c8185846fffffffffffffffffffffffffffffffff1661386e90919063ffffffff16565b82610c8c919061489e565b91508284604001818151610ca091906144d3565b9150906fffffffffffffffffffffffffffffffff1690816fffffffffffffffffffffffffffffffff16815250508287610cd99190614583565b9650826fffffffffffffffffffffffffffffffff1681610cf9919061489e565b9050836001600087815260200190815260200160002060008201518160000160006101000a8154816fffffffffffffffffffffffffffffffff02191690836fffffffffffffffffffffffffffffffff16021790555060208201518160000160106101000a8154816fffffffffffffffffffffffffffffffff02191690836fffffffffffffffffffffffffffffffff16021790555060408201518160010160006101000a8154816fffffffffffffffffffffffffffffffff02191690836fffffffffffffffffffffffffffffffff160217905550905050600186610ddc91906148d2565b955088889050866bffffffffffffffffffffffff160315610f65578888876bffffffffffffffffffffffff16818110610e1857610e17614842565b5b9050602002016020810190610e2d9190614871565b6bffffffffffffffffffffffff169450600160008681526020019081526020016000206040518060600160405290816000820160009054906101000a90046fffffffffffffffffffffffffffffffff166fffffffffffffffffffffffffffffffff166fffffffffffffffffffffffffffffffff1681526020016000820160109054906101000a90046fffffffffffffffffffffffffffffffff166fffffffffffffffffffffffffffffffff166fffffffffffffffffffffffffffffffff1681526020016001820160009054906101000a90046fffffffffffffffffffffffffffffffff166fffffffffffffffffffffffffffffffff166fffffffffffffffffffffffffffffffff16815250509350836040015184600001518560200151610f549190614583565b610f5e9190614583565b9250610c30565b6000876fffffffffffffffffffffffffffffffff16118015610f97575088889050866bffffffffffffffffffffffff16105b1561110257610fc185886fffffffffffffffffffffffffffffffff1661386e90919063ffffffff16565b82610fcc919061489e565b91508684604001818151610fe091906144d3565b9150906fffffffffffffffffffffffffffffffff1690816fffffffffffffffffffffffffffffffff1681525050866fffffffffffffffffffffffffffffffff168161102b919061489e565b9050836001600087815260200190815260200160002060008201518160000160006101000a8154816fffffffffffffffffffffffffffffffff02191690836fffffffffffffffffffffffffffffffff16021790555060208201518160000160106101000a8154816fffffffffffffffffffffffffffffffff02191690836fffffffffffffffffffffffffffffffff16021790555060408201518160010160006101000a8154816fffffffffffffffffffffffffffffffff02191690836fffffffffffffffffffffffffffffffff1602179055509050505b7f000000000000000000000000000000000000000000000000000000000000000073ffffffffffffffffffffffffffffffffffffffff166323b872dd33306111966402540be4006111887f0000000000000000000000000000000000000000000000000000000000000000600a61117991906146fa565b8861386e90919063ffffffff16565b61388490919063ffffffff16565b6040518463ffffffff1660e01b81526004016111b493929190614912565b6020604051808303816000875af11580156111d3573d6000803e3d6000fd5b505050506040513d601f19601f820116820180604052508101906111f79190614783565b507f000000000000000000000000000000000000000000000000000000000000000073ffffffffffffffffffffffffffffffffffffffff1663a9059cbb3361129e6402540be40061129060646112827f0000000000000000000000000000000000000000000000000000000000000000600a61127391906146fa565b8a61386e90919063ffffffff16565b61388490919063ffffffff16565b61388490919063ffffffff16565b6040518363ffffffff1660e01b81526004016112bb929190614745565b6020604051808303816000875af11580156112da573d6000803e3d6000fd5b505050506040513d601f19601f820116820180604052508101906112fe9190614783565b50505050505050505050565b60008060008381526020019081526020016000206040518060a00160405290816000820160009054906101000a900473ffffffffffffffffffffffffffffffffffffffff1673ffffffffffffffffffffffffffffffffffffffff1673ffffffffffffffffffffffffffffffffffffffff1681526020016000820160149054906101000a90046bffffffffffffffffffffffff166bffffffffffffffffffffffff166bffffffffffffffffffffffff1681526020016001820160009054906101000a90046fffffffffffffffffffffffffffffffff166fffffffffffffffffffffffffffffffff166fffffffffffffffffffffffffffffffff1681526020016001820160109054906101000a90046fffffffffffffffffffffffffffffffff166fffffffffffffffffffffffffffffffff166fffffffffffffffffffffffffffffffff1681526020016002820160009054906101000a900460ff16151515158152505090508060800151156114b3576040517f08c379a00000000000000000000000000000000000000000000000000000000081526004016114aa90614995565b60405180910390fd5b806000015173ffffffffffffffffffffffffffffffffffffffff163373ffffffffffffffffffffffffffffffffffffffff1614611525576040517f08c379a000000000000000000000000000000000000000000000000000000000815260040161151c90614a27565b60405180910390fd5b80604001516002600083602001516bffffffffffffffffffffffff16815260200190815260200160002060000160008282829054906101000a90046fffffffffffffffffffffffffffffffff1661157c91906144d3565b92506101000a8154816fffffffffffffffffffffffffffffffff02191690836fffffffffffffffffffffffffffffffff160217905550600080838152602001908152602001600020600080820160006101000a81549073ffffffffffffffffffffffffffffffffffffffff02191690556000820160146101000a8154906bffffffffffffffffffffffff02191690556001820160006101000a8154906fffffffffffffffffffffffffffffffff02191690556001820160106101000a8154906fffffffffffffffffffffffffffffffff02191690556002820160006101000a81549060ff021916905550507f000000000000000000000000000000000000000000000000000000000000000073ffffffffffffffffffffffffffffffffffffffff1663a9059cbb82600001516402540be4007f0000000000000000000000000000000000000000000000000000000000000000600a6116db91906146fa565b85604001516fffffffffffffffffffffffffffffffff166116fc9190614a47565b6117069190614ab8565b6040518363ffffffff1660e01b8152600401611723929190614745565b6020604051808303816000875af1158015611742573d6000803e3d6000fd5b505050506040513d601f19601f820116820180604052508101906117669190614783565b507ffea5eb23060199c8b2ad63bcecd92c04cea55cd0ef02c4030d3b20cf718c70ea828260000151600060405161179f93929190614ae9565b60405180910390a15050565b6000816fffffffffffffffffffffffffffffffff1611611800576040517f08c379a00000000000000000000000000000000000000000000000000000000081526004016117f790614822565b60405180910390fd5b6000808484836bffffffffffffffffffffffff1681811061182457611823614842565b5b90506020020160208101906118399190614871565b6bffffffffffffffffffffffff1690506000600260008381526020019081526020016000206040518060600160405290816000820160009054906101000a90046fffffffffffffffffffffffffffffffff166fffffffffffffffffffffffffffffffff166fffffffffffffffffffffffffffffffff1681526020016000820160109054906101000a90046fffffffffffffffffffffffffffffffff166fffffffffffffffffffffffffffffffff166fffffffffffffffffffffffffffffffff1681526020016001820160009054906101000a90046fffffffffffffffffffffffffffffffff166fffffffffffffffffffffffffffffffff166fffffffffffffffffffffffffffffffff1681525050905060008160400151826000015183602001516119649190614583565b61196e9190614583565b90506000805b826fffffffffffffffffffffffffffffffff16876fffffffffffffffffffffffffffffffff1610611ca8576119c485846fffffffffffffffffffffffffffffffff1661386e90919063ffffffff16565b826119cf919061489e565b915082846040018181516119e391906144d3565b9150906fffffffffffffffffffffffffffffffff1690816fffffffffffffffffffffffffffffffff16815250508287611a1c9190614583565b9650826fffffffffffffffffffffffffffffffff1681611a3c919061489e565b9050836002600087815260200190815260200160002060008201518160000160006101000a8154816fffffffffffffffffffffffffffffffff02191690836fffffffffffffffffffffffffffffffff16021790555060208201518160000160106101000a8154816fffffffffffffffffffffffffffffffff02191690836fffffffffffffffffffffffffffffffff16021790555060408201518160010160006101000a8154816fffffffffffffffffffffffffffffffff02191690836fffffffffffffffffffffffffffffffff160217905550905050600186611b1f91906148d2565b955088889050866bffffffffffffffffffffffff160315611ca8578888876bffffffffffffffffffffffff16818110611b5b57611b5a614842565b5b9050602002016020810190611b709190614871565b6bffffffffffffffffffffffff169450600260008681526020019081526020016000206040518060600160405290816000820160009054906101000a90046fffffffffffffffffffffffffffffffff166fffffffffffffffffffffffffffffffff166fffffffffffffffffffffffffffffffff1681526020016000820160109054906101000a90046fffffffffffffffffffffffffffffffff166fffffffffffffffffffffffffffffffff166fffffffffffffffffffffffffffffffff1681526020016001820160009054906101000a90046fffffffffffffffffffffffffffffffff166fffffffffffffffffffffffffffffffff166fffffffffffffffffffffffffffffffff16815250509350836040015184600001518560200151611c979190614583565b611ca19190614583565b9250611974565b6000876fffffffffffffffffffffffffffffffff16118015611cda575088889050866bffffffffffffffffffffffff16105b15611e4557611d0485886fffffffffffffffffffffffffffffffff1661386e90919063ffffffff16565b82611d0f919061489e565b91508684604001818151611d2391906144d3565b9150906fffffffffffffffffffffffffffffffff1690816fffffffffffffffffffffffffffffffff1681525050866fffffffffffffffffffffffffffffffff1681611d6e919061489e565b9050836002600087815260200190815260200160002060008201518160000160006101000a8154816fffffffffffffffffffffffffffffffff02191690836fffffffffffffffffffffffffffffffff16021790555060208201518160000160106101000a8154816fffffffffffffffffffffffffffffffff02191690836fffffffffffffffffffffffffffffffff16021790555060408201518160010160006101000a8154816fffffffffffffffffffffffffffffffff02191690836fffffffffffffffffffffffffffffffff1602179055509050505b7f000000000000000000000000000000000000000000000000000000000000000073ffffffffffffffffffffffffffffffffffffffff166323b872dd3330611eec6402540be400611ede6064611ed07f0000000000000000000000000000000000000000000000000000000000000000600a611ec191906146fa565b8b61386e90919063ffffffff16565b61388490919063ffffffff16565b61388490919063ffffffff16565b6040518463ffffffff1660e01b8152600401611f0a93929190614912565b6020604051808303816000875af1158015611f29573d6000803e3d6000fd5b505050506040513d601f19601f82011682018060405250810190611f4d9190614783565b507f000000000000000000000000000000000000000000000000000000000000000073ffffffffffffffffffffffffffffffffffffffff1663a9059cbb33611fe16402540be400611fd37f0000000000000000000000000000000000000000000000000000000000000000600a611fc491906146fa565b8761386e90919063ffffffff16565b61388490919063ffffffff16565b6040518363ffffffff1660e01b8152600401611ffe929190614745565b6020604051808303816000875af115801561201d573d6000803e3d6000fd5b505050506040513d601f19601f820116820180604052508101906120419190614783565b50505050505050505050565b60006003549050600181612061919061489e565b600381905550600060016000856bffffffffffffffffffffffff168152602001908152602001600020905060006120a88286866001876120a1919061489e565b600161389a565b90507f000000000000000000000000000000000000000000000000000000000000000073ffffffffffffffffffffffffffffffffffffffff166323b872dd33306402540be40060647f0000000000000000000000000000000000000000000000000000000000000000600a61211d91906146fa565b8b6bffffffffffffffffffffffff168b6121379190614b20565b6fffffffffffffffffffffffffffffffff166121539190614a47565b61215d9190614ab8565b6121679190614ab8565b6040518463ffffffff1660e01b815260040161218593929190614912565b6020604051808303816000875af11580156121a4573d6000803e3d6000fd5b505050506040513d601f19601f820116820180604052508101906121c89190614783565b507f3bb89cbf97283fda44cd1b331bd60e5b8bbd1a72c4ae6acafc9b85da0a8ef64f8333878785600160405161220396959493929190614b5d565b60405180910390a15050505050565b60035481565b805182511461225c576040517f08c379a000000000000000000000000000000000000000000000000000000000815260040161225390614c30565b60405180910390fd5b60005b825181101561231c573073ffffffffffffffffffffffffffffffffffffffff1663eb2e70c884838151811061229757612296614842565b5b60200260200101518484815181106122b2576122b1614842565b5b60200260200101516040518363ffffffff1660e01b81526004016122d7929190614c50565b600060405180830381600087803b1580156122f157600080fd5b505af1158015612305573d6000803e3d6000fd5b50505050808061231490614c79565b91505061225f565b505050565b60005b848490508110156127e157600080600087878581811061234757612346614842565b5b90506020020135815260200190815260200160002090508060000160009054906101000a900473ffffffffffffffffffffffffffffffffffffffff1673ffffffffffffffffffffffffffffffffffffffff163373ffffffffffffffffffffffffffffffffffffffff16146123f0576040517f08c379a00000000000000000000000000000000000000000000000000000000081526004016123e790614d33565b60405180910390fd5b60008160020160009054906101000a900460ff16612455576002600086868681811061241f5761241e614842565b5b90506020020160208101906124349190614871565b6bffffffffffffffffffffffff16815260200190815260200160002061249e565b6001600086868681811061246c5761246b614842565b5b90506020020160208101906124819190614871565b6bffffffffffffffffffffffff1681526020019081526020016000205b905060008260020160009054906101000a900460ff166124fa57600260008460000160149054906101000a90046bffffffffffffffffffffffff166bffffffffffffffffffffffff168152602001908152602001600020612538565b600160008460000160149054906101000a90046bffffffffffffffffffffffff166bffffffffffffffffffffffff1681526020019081526020016000205b90508260010160009054906101000a90046fffffffffffffffffffffffffffffffff168160000160008282829054906101000a90046fffffffffffffffffffffffffffffffff1661258991906144d3565b92506101000a8154816fffffffffffffffffffffffffffffffff02191690836fffffffffffffffffffffffffffffffff1602179055508160000160109054906101000a90046fffffffffffffffffffffffffffffffff168360010160106101000a8154816fffffffffffffffffffffffffffffffff02191690836fffffffffffffffffffffffffffffffff16021790555085858581811061262d5761262c614842565b5b90506020020160208101906126429190614871565b8360000160146101000a8154816bffffffffffffffffffffffff02191690836bffffffffffffffffffffffff1602179055508260010160009054906101000a90046fffffffffffffffffffffffffffffffff168260000160108282829054906101000a90046fffffffffffffffffffffffffffffffff166126c391906144d3565b92506101000a8154816fffffffffffffffffffffffffffffffff02191690836fffffffffffffffffffffffffffffffff1602179055507f88c56b5b4ebebb79641522127475a6a394fe9f7f9da5279fcdead7a28d298cab88888681811061272d5761272c614842565b5b905060200201353388888881811061274857612747614842565b5b905060200201602081019061275d9190614871565b8660010160009054906101000a90046fffffffffffffffffffffffffffffffff168760010160109054906101000a90046fffffffffffffffffffffffffffffffff168860020160009054906101000a900460ff166040516127c396959493929190614b5d565b60405180910390a150505080806127d990614c79565b915050612324565b5050505050565b60008060008381526020019081526020016000209050600073ffffffffffffffffffffffffffffffffffffffff168160000160009054906101000a900473ffffffffffffffffffffffffffffffffffffffff1673ffffffffffffffffffffffffffffffffffffffff1603612891576040517f08c379a0000000000000000000000000000000000000000000000000000000008152600401612888906143f2565b60405180910390fd5b8060000160009054906101000a900473ffffffffffffffffffffffffffffffffffffffff1673ffffffffffffffffffffffffffffffffffffffff163373ffffffffffffffffffffffffffffffffffffffff1614612923576040517f08c379a000000000000000000000000000000000000000000000000000000000815260040161291a90614484565b60405180910390fd5b6000600160008360000160149054906101000a90046bffffffffffffffffffffffff166bffffffffffffffffffffffff16815260200190815260200160002090508060000160009054906101000a90046fffffffffffffffffffffffffffffffff168160010160009054906101000a90046fffffffffffffffffffffffffffffffff166129b091906144d3565b6fffffffffffffffffffffffffffffffff168260010160109054906101000a90046fffffffffffffffffffffffffffffffff166fffffffffffffffffffffffffffffffff1610612a35576040517f08c379a0000000000000000000000000000000000000000000000000000000008152600401612a2c90614563565b60405180910390fd5b60008260010160109054906101000a90046fffffffffffffffffffffffffffffffff168260000160009054906101000a90046fffffffffffffffffffffffffffffffff168360010160009054906101000a90046fffffffffffffffffffffffffffffffff16612aa491906144d3565b612aae9190614583565b905060008360010160009054906101000a90046fffffffffffffffffffffffffffffffff166fffffffffffffffffffffffffffffffff16826fffffffffffffffffffffffffffffffff1611612b035781612b25565b8360010160009054906101000a90046fffffffffffffffffffffffffffffffff165b9050808460010160008282829054906101000a90046fffffffffffffffffffffffffffffffff16612b569190614583565b92506101000a8154816fffffffffffffffffffffffffffffffff02191690836fffffffffffffffffffffffffffffffff160217905550808360000160008282829054906101000a90046fffffffffffffffffffffffffffffffff16612bbb91906144d3565b92506101000a8154816fffffffffffffffffffffffffffffffff02191690836fffffffffffffffffffffffffffffffff160217905550808360010160008282829054906101000a90046fffffffffffffffffffffffffffffffff16612c209190614583565b92506101000a8154816fffffffffffffffffffffffffffffffff02191690836fffffffffffffffffffffffffffffffff1602179055507f000000000000000000000000000000000000000000000000000000000000000073ffffffffffffffffffffffffffffffffffffffff1663a9059cbb8560000160009054906101000a900473ffffffffffffffffffffffffffffffffffffffff16612d1f6402540be400612d117f0000000000000000000000000000000000000000000000000000000000000000600a612cf091906146fa565b876fffffffffffffffffffffffffffffffff1661386e90919063ffffffff16565b61388490919063ffffffff16565b6040518363ffffffff1660e01b8152600401612d3c929190614745565b6020604051808303816000875af1158015612d5b573d6000803e3d6000fd5b505050506040513d601f19601f82011682018060405250810190612d7f9190614783565b5060008460010160009054906101000a90046fffffffffffffffffffffffffffffffff166fffffffffffffffffffffffffffffffff1603612e7057600080868152602001908152602001600020600080820160006101000a81549073ffffffffffffffffffffffffffffffffffffffff02191690556000820160146101000a8154906bffffffffffffffffffffffff02191690556001820160006101000a8154906fffffffffffffffffffffffffffffffff02191690556001820160106101000a8154906fffffffffffffffffffffffffffffffff02191690556002820160006101000a81549060ff021916905550505b5050505050565b60006020528060005260406000206000915090508060000160009054906101000a900473ffffffffffffffffffffffffffffffffffffffff16908060000160149054906101000a90046bffffffffffffffffffffffff16908060010160009054906101000a90046fffffffffffffffffffffffffffffffff16908060010160109054906101000a90046fffffffffffffffffffffffffffffffff16908060020160009054906101000a900460ff16905085565b8051825114612f6e576040517f08c379a0000000000000000000000000000000000000000000000000000000008152600401612f6590614c30565b60405180910390fd5b60005b825181101561302e573073ffffffffffffffffffffffffffffffffffffffff166324b291db848381518110612fa957612fa8614842565b5b6020026020010151848481518110612fc457612fc3614842565b5b60200260200101516040518363ffffffff1660e01b8152600401612fe9929190614c50565b600060405180830381600087803b15801561300357600080fd5b505af1158015613017573d6000803e3d6000fd5b50505050808061302690614c79565b915050612f71565b505050565b60008060008381526020019081526020016000206040518060a00160405290816000820160009054906101000a900473ffffffffffffffffffffffffffffffffffffffff1673ffffffffffffffffffffffffffffffffffffffff1673ffffffffffffffffffffffffffffffffffffffff1681526020016000820160149054906101000a90046bffffffffffffffffffffffff166bffffffffffffffffffffffff166bffffffffffffffffffffffff1681526020016001820160009054906101000a90046fffffffffffffffffffffffffffffffff166fffffffffffffffffffffffffffffffff166fffffffffffffffffffffffffffffffff1681526020016001820160109054906101000a90046fffffffffffffffffffffffffffffffff166fffffffffffffffffffffffffffffffff166fffffffffffffffffffffffffffffffff1681526020016002820160009054906101000a900460ff161515151581525050905080608001516131db576040517f08c379a00000000000000000000000000000000000000000000000000000000081526004016131d290614d9f565b60405180910390fd5b806000015173ffffffffffffffffffffffffffffffffffffffff163373ffffffffffffffffffffffffffffffffffffffff161461324d576040517f08c379a000000000000000000000000000000000000000000000000000000000815260040161324490614a27565b60405180910390fd5b80604001516001600083602001516bffffffffffffffffffffffff16815260200190815260200160002060000160008282829054906101000a90046fffffffffffffffffffffffffffffffff166132a491906144d3565b92506101000a8154816fffffffffffffffffffffffffffffffff02191690836fffffffffffffffffffffffffffffffff160217905550600080838152602001908152602001600020600080820160006101000a81549073ffffffffffffffffffffffffffffffffffffffff02191690556000820160146101000a8154906bffffffffffffffffffffffff02191690556001820160006101000a8154906fffffffffffffffffffffffffffffffff02191690556001820160106101000a8154906fffffffffffffffffffffffffffffffff02191690556002820160006101000a81549060ff021916905550507f000000000000000000000000000000000000000000000000000000000000000073ffffffffffffffffffffffffffffffffffffffff1663a9059cbb82600001516402540be40060647f0000000000000000000000000000000000000000000000000000000000000000600a61340591906146fa565b86602001516bffffffffffffffffffffffff1687604001516134279190614b20565b6fffffffffffffffffffffffffffffffff166134439190614a47565b61344d9190614ab8565b6134579190614ab8565b6040518363ffffffff1660e01b8152600401613474929190614745565b6020604051808303816000875af1158015613493573d6000803e3d6000fd5b505050506040513d601f19601f820116820180604052508101906134b79190614783565b507ffea5eb23060199c8b2ad63bcecd92c04cea55cd0ef02c4030d3b20cf718c70ea82826000015160016040516134f093929190614ae9565b60405180910390a15050565b60016020528060005260406000206000915090508060000160009054906101000a90046fffffffffffffffffffffffffffffffff16908060000160109054906101000a90046fffffffffffffffffffffffffffffffff16908060010160009054906101000a90046fffffffffffffffffffffffffffffffff16905083565b6000600354905060018161358e919061489e565b600381905550600060026000856bffffffffffffffffffffffff168152602001908152602001600020905060006135d58286866001876135ce919061489e565b600061389a565b90507f000000000000000000000000000000000000000000000000000000000000000073ffffffffffffffffffffffffffffffffffffffff166323b872dd33306402540be4007f0000000000000000000000000000000000000000000000000000000000000000600a61364891906146fa565b896fffffffffffffffffffffffffffffffff166136659190614a47565b61366f9190614ab8565b6040518463ffffffff1660e01b815260040161368d93929190614912565b6020604051808303816000875af11580156136ac573d6000803e3d6000fd5b505050506040513d601f19601f820116820180604052508101906136d09190614783565b507f3bb89cbf97283fda44cd1b331bd60e5b8bbd1a72c4ae6acafc9b85da0a8ef64f8333878785600060405161370b96959493929190614b5d565b60405180910390a15050505050565b60005b82518110156138695781818151811061373957613738614842565b5b6020026020010151156137d0573073ffffffffffffffffffffffffffffffffffffffff1663be5d147f84838151811061377557613774614842565b5b60200260200101516040518263ffffffff1660e01b81526004016137999190613d31565b600060405180830381600087803b1580156137b357600080fd5b505af11580156137c7573d6000803e3d6000fd5b50505050613856565b3073ffffffffffffffffffffffffffffffffffffffff16631a46e42a8483815181106137ff576137fe614842565b5b60200260200101516040518263ffffffff1660e01b81526004016138239190613d31565b600060405180830381600087803b15801561383d57600080fd5b505af1158015613851573d6000803e3d6000fd5b505050505b808061386190614c79565b91505061371d565b505050565b6000818361387c9190614a47565b905092915050565b600081836138929190614ab8565b905092915050565b6000808660000160109054906101000a90046fffffffffffffffffffffffffffffffff1690506040518060a001604052803373ffffffffffffffffffffffffffffffffffffffff168152602001876bffffffffffffffffffffffff168152602001866fffffffffffffffffffffffffffffffff168152602001826fffffffffffffffffffffffffffffffff16815260200184151581525060008086815260200190815260200160002060008201518160000160006101000a81548173ffffffffffffffffffffffffffffffffffffffff021916908373ffffffffffffffffffffffffffffffffffffffff16021790555060208201518160000160146101000a8154816bffffffffffffffffffffffff02191690836bffffffffffffffffffffffff16021790555060408201518160010160006101000a8154816fffffffffffffffffffffffffffffffff02191690836fffffffffffffffffffffffffffffffff16021790555060608201518160010160106101000a8154816fffffffffffffffffffffffffffffffff02191690836fffffffffffffffffffffffffffffffff16021790555060808201518160020160006101000a81548160ff021916908315150217905550905050848760000160108282829054906101000a90046fffffffffffffffffffffffffffffffff16613a9191906144d3565b92506101000a8154816fffffffffffffffffffffffffffffffff02191690836fffffffffffffffffffffffffffffffff1602179055508091505095945050505050565b6000604051905090565b600080fd5b600080fd5b6000819050919050565b613afb81613ae8565b8114613b0657600080fd5b50565b600081359050613b1881613af2565b92915050565b600060208284031215613b3457613b33613ade565b5b6000613b4284828501613b09565b91505092915050565b60006fffffffffffffffffffffffffffffffff82169050919050565b613b7081613b4b565b82525050565b6000606082019050613b8b6000830186613b67565b613b986020830185613b67565b613ba56040830184613b67565b949350505050565b600080fd5b600080fd5b600080fd5b60008083601f840112613bd257613bd1613bad565b5b8235905067ffffffffffffffff811115613bef57613bee613bb2565b5b602083019150836020820283011115613c0b57613c0a613bb7565b5b9250929050565b613c1b81613b4b565b8114613c2657600080fd5b50565b600081359050613c3881613c12565b92915050565b600080600060408486031215613c5757613c56613ade565b5b600084013567ffffffffffffffff811115613c7557613c74613ae3565b5b613c8186828701613bbc565b93509350506020613c9486828701613c29565b9150509250925092565b60006bffffffffffffffffffffffff82169050919050565b613cbf81613c9e565b8114613cca57600080fd5b50565b600081359050613cdc81613cb6565b92915050565b60008060408385031215613cf957613cf8613ade565b5b6000613d0785828601613ccd565b9250506020613d1885828601613c29565b9150509250929050565b613d2b81613ae8565b82525050565b6000602082019050613d466000830184613d22565b92915050565b6000601f19601f8301169050919050565b7f4e487b7100000000000000000000000000000000000000000000000000000000600052604160045260246000fd5b613d9582613d4c565b810181811067ffffffffffffffff82111715613db457613db3613d5d565b5b80604052505050565b6000613dc7613ad4565b9050613dd38282613d8c565b919050565b600067ffffffffffffffff821115613df357613df2613d5d565b5b602082029050602081019050919050565b6000613e17613e1284613dd8565b613dbd565b90508083825260208201905060208402830185811115613e3a57613e39613bb7565b5b835b81811015613e635780613e4f8882613ccd565b845260208401935050602081019050613e3c565b5050509392505050565b600082601f830112613e8257613e81613bad565b5b8135613e92848260208601613e04565b91505092915050565b600067ffffffffffffffff821115613eb657613eb5613d5d565b5b602082029050602081019050919050565b6000613eda613ed584613e9b565b613dbd565b90508083825260208201905060208402830185811115613efd57613efc613bb7565b5b835b81811015613f265780613f128882613c29565b845260208401935050602081019050613eff565b5050509392505050565b600082601f830112613f4557613f44613bad565b5b8135613f55848260208601613ec7565b91505092915050565b60008060408385031215613f7557613f74613ade565b5b600083013567ffffffffffffffff811115613f9357613f92613ae3565b5b613f9f85828601613e6d565b925050602083013567ffffffffffffffff811115613fc057613fbf613ae3565b5b613fcc85828601613f30565b9150509250929050565b60008083601f840112613fec57613feb613bad565b5b8235905067ffffffffffffffff81111561400957614008613bb2565b5b60208301915083602082028301111561402557614024613bb7565b5b9250929050565b6000806000806040858703121561404657614045613ade565b5b600085013567ffffffffffffffff81111561406457614063613ae3565b5b61407087828801613fd6565b9450945050602085013567ffffffffffffffff81111561409357614092613ae3565b5b61409f87828801613bbc565b925092505092959194509250565b600073ffffffffffffffffffffffffffffffffffffffff82169050919050565b60006140d8826140ad565b9050919050565b6140e8816140cd565b82525050565b6140f781613c9e565b82525050565b60008115159050919050565b614112816140fd565b82525050565b600060a08201905061412d60008301886140df565b61413a60208301876140ee565b6141476040830186613b67565b6141546060830185613b67565b6141616080830184614109565b9695505050505050565b600067ffffffffffffffff82111561418657614185613d5d565b5b602082029050602081019050919050565b60006141aa6141a58461416b565b613dbd565b905080838252602082019050602084028301858111156141cd576141cc613bb7565b5b835b818110156141f657806141e28882613b09565b8452602084019350506020810190506141cf565b5050509392505050565b600082601f83011261421557614214613bad565b5b8135614225848260208601614197565b91505092915050565b600067ffffffffffffffff82111561424957614248613d5d565b5b602082029050602081019050919050565b614263816140fd565b811461426e57600080fd5b50565b6000813590506142808161425a565b92915050565b60006142996142948461422e565b613dbd565b905080838252602082019050602084028301858111156142bc576142bb613bb7565b5b835b818110156142e557806142d18882614271565b8452602084019350506020810190506142be565b5050509392505050565b600082601f83011261430457614303613bad565b5b8135614314848260208601614286565b91505092915050565b6000806040838503121561433457614333613ade565b5b600083013567ffffffffffffffff81111561435257614351613ae3565b5b61435e85828601614200565b925050602083013567ffffffffffffffff81111561437f5761437e613ae3565b5b61438b858286016142ef565b9150509250929050565b600082825260208201905092915050565b7f4f72646572426f6f6b3a206f7264657220646f65736e27742065786973740000600082015250565b60006143dc601e83614395565b91506143e7826143a6565b602082019050919050565b6000602082019050818103600083015261440b816143cf565b9050919050565b7f4f72646572426f6f6b3a206f6e6c79206f72646572206f776e65722063616e2060008201527f636c61696d000000000000000000000000000000000000000000000000000000602082015250565b600061446e602583614395565b915061447982614412565b604082019050919050565b6000602082019050818103600083015261449d81614461565b9050919050565b7f4e487b7100000000000000000000000000000000000000000000000000000000600052601160045260246000fd5b60006144de82613b4b565b91506144e983613b4b565b925082820190506fffffffffffffffffffffffffffffffff811115614511576145106144a4565b5b92915050565b7f4f72646572426f6f6b3a206f72646572206e6f742065786563757461626c6500600082015250565b600061454d601f83614395565b915061455882614517565b602082019050919050565b6000602082019050818103600083015261457c81614540565b9050919050565b600061458e82613b4b565b915061459983613b4b565b925082820390506fffffffffffffffffffffffffffffffff8111156145c1576145c06144a4565b5b92915050565b60008160011c9050919050565b6000808291508390505b600185111561461e578086048111156145fa576145f96144a4565b5b60018516156146095780820291505b8081029050614617856145c7565b94506145de565b94509492505050565b60008261463757600190506146f3565b8161464557600090506146f3565b816001811461465b576002811461466557614694565b60019150506146f3565b60ff841115614677576146766144a4565b5b8360020a91508482111561468e5761468d6144a4565b5b506146f3565b5060208310610133831016604e8410600b84101617156146c95782820a9050838111156146c4576146c36144a4565b5b6146f3565b6146d684848460016145d4565b925090508184048111156146ed576146ec6144a4565b5b81810290505b9392505050565b600061470582613ae8565b915061471083613ae8565b925061473d7fffffffffffffffffffffffffffffffffffffffffffffffffffffffffffffffff8484614627565b905092915050565b600060408201905061475a60008301856140df565b6147676020830184613d22565b9392505050565b60008151905061477d8161425a565b92915050565b60006020828403121561479957614798613ade565b5b60006147a78482850161476e565b91505092915050565b7f4f72646572426f6f6b3a2073697a65206d75737420626520677265617465722060008201527f7468616e20300000000000000000000000000000000000000000000000000000602082015250565b600061480c602683614395565b9150614817826147b0565b604082019050919050565b6000602082019050818103600083015261483b816147ff565b9050919050565b7f4e487b7100000000000000000000000000000000000000000000000000000000600052603260045260246000fd5b60006020828403121561488757614886613ade565b5b600061489584828501613ccd565b91505092915050565b60006148a982613ae8565b91506148b483613ae8565b92508282019050808211156148cc576148cb6144a4565b5b92915050565b60006148dd82613c9e565b91506148e883613c9e565b925082820190506bffffffffffffffffffffffff81111561490c5761490b6144a4565b5b92915050565b600060608201905061492760008301866140df565b61493460208301856140df565b6149416040830184613d22565b949350505050565b7f4f72646572426f6f6b3a2043616e63656c6c696e6720627579206f7264657200600082015250565b600061497f601f83614395565b915061498a82614949565b602082019050919050565b600060208201905081810360008301526149ae81614972565b9050919050565b7f4f72646572426f6f6b3a204f6e6c79206f72646572206f776e65722063616e2060008201527f63616e63656c206f726465720000000000000000000000000000000000000000602082015250565b6000614a11602c83614395565b9150614a1c826149b5565b604082019050919050565b60006020820190508181036000830152614a4081614a04565b9050919050565b6000614a5282613ae8565b9150614a5d83613ae8565b9250828202614a6b81613ae8565b91508282048414831517614a8257614a816144a4565b5b5092915050565b7f4e487b7100000000000000000000000000000000000000000000000000000000600052601260045260246000fd5b6000614ac382613ae8565b9150614ace83613ae8565b925082614ade57614add614a89565b5b828204905092915050565b6000606082019050614afe6000830186613d22565b614b0b60208301856140df565b614b186040830184614109565b949350505050565b6000614b2b82613b4b565b9150614b3683613b4b565b9250828202614b4481613b4b565b9150808214614b5657614b556144a4565b5b5092915050565b600060c082019050614b726000830189613d22565b614b7f60208301886140df565b614b8c60408301876140ee565b614b996060830186613b67565b614ba66080830185613b67565b614bb360a0830184614109565b979650505050505050565b7f4f72646572426f6f6b3a2050726963657320616e642073697a6573206172726160008201527f79206c656e677468206d757374206d6174636800000000000000000000000000602082015250565b6000614c1a603383614395565b9150614c2582614bbe565b604082019050919050565b60006020820190508181036000830152614c4981614c0d565b9050919050565b6000604082019050614c6560008301856140ee565b614c726020830184613b67565b9392505050565b6000614c8482613ae8565b91507fffffffffffffffffffffffffffffffffffffffffffffffffffffffffffffffff8203614cb657614cb56144a4565b5b600182019050919050565b7f4f72646572426f6f6b3a204f6e6c79206f72646572206f776e65722063616e2060008201527f757064617465206f726465720000000000000000000000000000000000000000602082015250565b6000614d1d602c83614395565b9150614d2882614cc1565b604082019050919050565b60006020820190508181036000830152614d4c81614d10565b9050919050565b7f4f72646572426f6f6b3a2043616e63656c6c696e672073656c6c206f72646572600082015250565b6000614d89602083614395565b9150614d9482614d53565b602082019050919050565b60006020820190508181036000830152614db881614d7c565b905091905056fea26469706673582212209dbe741005d25af878360e416a356a596f86f864ebed7c8533557e2ec0020a8364736f6c63430008110033","opcodes":"PUSH2 0x100 PUSH1 0x40 MSTORE CALLVALUE DUP1 ISZERO PUSH3 0x12 JUMPI PUSH1 0x0 DUP1 REVERT JUMPDEST POP PUSH1 0x40 MLOAD PUSH3 0x5078 CODESIZE SUB DUP1 PUSH3 0x5078 DUP4 CODECOPY DUP2 DUP2 ADD PUSH1 0x40 MSTORE DUP2 ADD SWAP1 PUSH3 0x38 SWAP2 SWAP1 PUSH3 0x167 JUMP JUMPDEST DUP4 DUP4 DUP4 DUP4 DUP4 PUSH20 0xFFFFFFFFFFFFFFFFFFFFFFFFFFFFFFFFFFFFFFFF AND PUSH1 0x80 DUP2 PUSH20 0xFFFFFFFFFFFFFFFFFFFFFFFFFFFFFFFFFFFFFFFF AND DUP2 MSTORE POP POP DUP2 PUSH20 0xFFFFFFFFFFFFFFFFFFFFFFFFFFFFFFFFFFFFFFFF AND PUSH1 0xA0 DUP2 PUSH20 0xFFFFFFFFFFFFFFFFFFFFFFFFFFFFFFFFFFFFFFFF AND DUP2 MSTORE POP POP DUP3 PUSH1 0xC0 DUP2 DUP2 MSTORE POP POP DUP1 PUSH1 0xE0 DUP2 DUP2 MSTORE POP POP POP POP POP POP POP POP POP POP PUSH3 0x1D9 JUMP JUMPDEST PUSH1 0x0 DUP1 REVERT JUMPDEST PUSH1 0x0 PUSH20 0xFFFFFFFFFFFFFFFFFFFFFFFFFFFFFFFFFFFFFFFF DUP3 AND SWAP1 POP SWAP2 SWAP1 POP JUMP JUMPDEST PUSH1 0x0 PUSH3 0xF4 DUP3 PUSH3 0xC7 JUMP JUMPDEST SWAP1 POP SWAP2 SWAP1 POP JUMP JUMPDEST PUSH3 0x106 DUP2 PUSH3 0xE7 JUMP JUMPDEST DUP2 EQ PUSH3 0x112 JUMPI PUSH1 0x0 DUP1 REVERT JUMPDEST POP JUMP JUMPDEST PUSH1 0x0 DUP2 MLOAD SWAP1 POP PUSH3 0x126 DUP2 PUSH3 0xFB JUMP JUMPDEST SWAP3 SWAP2 POP POP JUMP JUMPDEST PUSH1 0x0 DUP2 SWAP1 POP SWAP2 SWAP1 POP JUMP JUMPDEST PUSH3 0x141 DUP2 PUSH3 0x12C JUMP JUMPDEST DUP2 EQ PUSH3 0x14D JUMPI PUSH1 0x0 DUP1 REVERT JUMPDEST POP JUMP JUMPDEST PUSH1 0x0 DUP2 MLOAD SWAP1 POP PUSH3 0x161 DUP2 PUSH3 0x136 JUMP JUMPDEST SWAP3 SWAP2 POP POP JUMP JUMPDEST PUSH1 0x0 DUP1 PUSH1 0x0 DUP1 PUSH1 0x80 DUP6 DUP8 SUB SLT ISZERO PUSH3 0x184 JUMPI PUSH3 0x183 PUSH3 0xC2 JUMP JUMPDEST JUMPDEST PUSH1 0x0 PUSH3 0x194 DUP8 DUP3 DUP9 ADD PUSH3 0x115 JUMP JUMPDEST SWAP5 POP POP PUSH1 0x20 PUSH3 0x1A7 DUP8 DUP3 DUP9 ADD PUSH3 0x150 JUMP JUMPDEST SWAP4 POP POP PUSH1 0x40 PUSH3 0x1BA DUP8 DUP3 DUP9 ADD PUSH3 0x115 JUMP JUMPDEST SWAP3 POP POP PUSH1 0x60 PUSH3 0x1CD DUP8 DUP3 DUP9 ADD PUSH3 0x150 JUMP JUMPDEST SWAP2 POP POP SWAP3 SWAP6 SWAP2 SWAP5 POP SWAP3 POP JUMP JUMPDEST PUSH1 0x80 MLOAD PUSH1 0xA0 MLOAD PUSH1 0xC0 MLOAD PUSH1 0xE0 MLOAD PUSH2 0x4DF5 PUSH3 0x283 PUSH1 0x0 CODECOPY PUSH1 0x0 DUP2 DUP2 PUSH2 0x7ED ADD MSTORE DUP2 DUP2 PUSH2 0x1248 ADD MSTORE DUP2 DUP2 PUSH2 0x1E96 ADD MSTORE DUP2 DUP2 PUSH2 0x20F2 ADD MSTORE PUSH2 0x33DA ADD MSTORE PUSH1 0x0 DUP2 DUP2 PUSH2 0x114E ADD MSTORE DUP2 DUP2 PUSH2 0x16B0 ADD MSTORE DUP2 DUP2 PUSH2 0x1F99 ADD MSTORE DUP2 DUP2 PUSH2 0x2CC5 ADD MSTORE PUSH2 0x361D ADD MSTORE PUSH1 0x0 DUP2 DUP2 PUSH2 0x77B ADD MSTORE DUP2 DUP2 PUSH2 0x11FA ADD MSTORE DUP2 DUP2 PUSH2 0x1E47 ADD MSTORE DUP2 DUP2 PUSH2 0x20AC ADD MSTORE PUSH2 0x3391 ADD MSTORE PUSH1 0x0 DUP2 DUP2 PUSH2 0x1104 ADD MSTORE DUP2 DUP2 PUSH2 0x1669 ADD MSTORE DUP2 DUP2 PUSH2 0x1F50 ADD MSTORE DUP2 DUP2 PUSH2 0x2C58 ADD MSTORE PUSH2 0x35D9 ADD MSTORE PUSH2 0x4DF5 PUSH1 0x0 RETURN INVALID PUSH1 0x80 PUSH1 0x40 MSTORE CALLVALUE DUP1 ISZERO PUSH2 0x10 JUMPI PUSH1 0x0 DUP1 REVERT JUMPDEST POP PUSH1 0x4 CALLDATASIZE LT PUSH2 0x100 JUMPI PUSH1 0x0 CALLDATALOAD PUSH1 0xE0 SHR DUP1 PUSH4 0x55727643 GT PUSH2 0x97 JUMPI DUP1 PUSH4 0xBE5D147F GT PUSH2 0x66 JUMPI DUP1 PUSH4 0xBE5D147F EQ PUSH2 0x285 JUMPI DUP1 PUSH4 0xE6D29B51 EQ PUSH2 0x2A1 JUMPI DUP1 PUSH4 0xEB2E70C8 EQ PUSH2 0x2D3 JUMPI DUP1 PUSH4 0xECE2E87F EQ PUSH2 0x2EF JUMPI PUSH2 0x100 JUMP JUMPDEST DUP1 PUSH4 0x55727643 EQ PUSH2 0x1FD JUMPI DUP1 PUSH4 0x7E78E05F EQ PUSH2 0x219 JUMPI DUP1 PUSH4 0xA6F3C50F EQ PUSH2 0x235 JUMPI DUP1 PUSH4 0xB722153F EQ PUSH2 0x269 JUMPI PUSH2 0x100 JUMP JUMPDEST DUP1 PUSH4 0x2298C350 GT PUSH2 0xD3 JUMPI DUP1 PUSH4 0x2298C350 EQ PUSH2 0x18B JUMPI DUP1 PUSH4 0x24B291DB EQ PUSH2 0x1A7 JUMPI DUP1 PUSH4 0x2BF1360E EQ PUSH2 0x1C3 JUMPI DUP1 PUSH4 0x4FF57439 EQ PUSH2 0x1E1 JUMPI PUSH2 0x100 JUMP JUMPDEST DUP1 PUSH4 0x2E0D258 EQ PUSH2 0x105 JUMPI DUP1 PUSH4 0xE2E2FFE EQ PUSH2 0x121 JUMPI DUP1 PUSH4 0x1778334F EQ PUSH2 0x153 JUMPI DUP1 PUSH4 0x1A46E42A EQ PUSH2 0x16F JUMPI JUMPDEST PUSH1 0x0 DUP1 REVERT JUMPDEST PUSH2 0x11F PUSH1 0x4 DUP1 CALLDATASIZE SUB DUP2 ADD SWAP1 PUSH2 0x11A SWAP2 SWAP1 PUSH2 0x3B1E JUMP JUMPDEST PUSH2 0x30B JUMP JUMPDEST STOP JUMPDEST PUSH2 0x13B PUSH1 0x4 DUP1 CALLDATASIZE SUB DUP2 ADD SWAP1 PUSH2 0x136 SWAP2 SWAP1 PUSH2 0x3B1E JUMP JUMPDEST PUSH2 0x9E9 JUMP JUMPDEST PUSH1 0x40 MLOAD PUSH2 0x14A SWAP4 SWAP3 SWAP2 SWAP1 PUSH2 0x3B76 JUMP JUMPDEST PUSH1 0x40 MLOAD DUP1 SWAP2 SUB SWAP1 RETURN JUMPDEST PUSH2 0x16D PUSH1 0x4 DUP1 CALLDATASIZE SUB DUP2 ADD SWAP1 PUSH2 0x168 SWAP2 SWAP1 PUSH2 0x3C3E JUMP JUMPDEST PUSH2 0xA67 JUMP JUMPDEST STOP JUMPDEST PUSH2 0x189 PUSH1 0x4 DUP1 CALLDATASIZE SUB DUP2 ADD SWAP1 PUSH2 0x184 SWAP2 SWAP1 PUSH2 0x3B1E JUMP JUMPDEST PUSH2 0x130A JUMP JUMPDEST STOP JUMPDEST PUSH2 0x1A5 PUSH1 0x4 DUP1 CALLDATASIZE SUB DUP2 ADD SWAP1 PUSH2 0x1A0 SWAP2 SWAP1 PUSH2 0x3C3E JUMP JUMPDEST PUSH2 0x17AB JUMP JUMPDEST STOP JUMPDEST PUSH2 0x1C1 PUSH1 0x4 DUP1 CALLDATASIZE SUB DUP2 ADD SWAP1 PUSH2 0x1BC SWAP2 SWAP1 PUSH2 0x3CE2 JUMP JUMPDEST PUSH2 0x204D JUMP JUMPDEST STOP JUMPDEST PUSH2 0x1CB PUSH2 0x2212 JUMP JUMPDEST PUSH1 0x40 MLOAD PUSH2 0x1D8 SWAP2 SWAP1 PUSH2 0x3D31 JUMP JUMPDEST PUSH1 0x40 MLOAD DUP1 SWAP2 SUB SWAP1 RETURN JUMPDEST PUSH2 0x1FB PUSH1 0x4 DUP1 CALLDATASIZE SUB DUP2 ADD SWAP1 PUSH2 0x1F6 SWAP2 SWAP1 PUSH2 0x3F5E JUMP JUMPDEST PUSH2 0x2218 JUMP JUMPDEST STOP JUMPDEST PUSH2 0x217 PUSH1 0x4 DUP1 CALLDATASIZE SUB DUP2 ADD SWAP1 PUSH2 0x212 SWAP2 SWAP1 PUSH2 0x402C JUMP JUMPDEST PUSH2 0x2321 JUMP JUMPDEST STOP JUMPDEST PUSH2 0x233 PUSH1 0x4 DUP1 CALLDATASIZE SUB DUP2 ADD SWAP1 PUSH2 0x22E SWAP2 SWAP1 PUSH2 0x3B1E JUMP JUMPDEST PUSH2 0x27E8 JUMP JUMPDEST STOP JUMPDEST PUSH2 0x24F PUSH1 0x4 DUP1 CALLDATASIZE SUB DUP2 ADD SWAP1 PUSH2 0x24A SWAP2 SWAP1 PUSH2 0x3B1E JUMP JUMPDEST PUSH2 0x2E77 JUMP JUMPDEST PUSH1 0x40 MLOAD PUSH2 0x260 SWAP6 SWAP5 SWAP4 SWAP3 SWAP2 SWAP1 PUSH2 0x4118 JUMP JUMPDEST PUSH1 0x40 MLOAD DUP1 SWAP2 SUB SWAP1 RETURN JUMPDEST PUSH2 0x283 PUSH1 0x4 DUP1 CALLDATASIZE SUB DUP2 ADD SWAP1 PUSH2 0x27E SWAP2 SWAP1 PUSH2 0x3F5E JUMP JUMPDEST PUSH2 0x2F2A JUMP JUMPDEST STOP JUMPDEST PUSH2 0x29F PUSH1 0x4 DUP1 CALLDATASIZE SUB DUP2 ADD SWAP1 PUSH2 0x29A SWAP2 SWAP1 PUSH2 0x3B1E JUMP JUMPDEST PUSH2 0x3033 JUMP JUMPDEST STOP JUMPDEST PUSH2 0x2BB PUSH1 0x4 DUP1 CALLDATASIZE SUB DUP2 ADD SWAP1 PUSH2 0x2B6 SWAP2 SWAP1 PUSH2 0x3B1E JUMP JUMPDEST PUSH2 0x34FC JUMP JUMPDEST PUSH1 0x40 MLOAD PUSH2 0x2CA SWAP4 SWAP3 SWAP2 SWAP1 PUSH2 0x3B76 JUMP JUMPDEST PUSH1 0x40 MLOAD DUP1 SWAP2 SUB SWAP1 RETURN JUMPDEST PUSH2 0x2ED PUSH1 0x4 DUP1 CALLDATASIZE SUB DUP2 ADD SWAP1 PUSH2 0x2E8 SWAP2 SWAP1 PUSH2 0x3CE2 JUMP JUMPDEST PUSH2 0x357A JUMP JUMPDEST STOP JUMPDEST PUSH2 0x309 PUSH1 0x4 DUP1 CALLDATASIZE SUB DUP2 ADD SWAP1 PUSH2 0x304 SWAP2 SWAP1 PUSH2 0x431D JUMP JUMPDEST PUSH2 0x371A JUMP JUMPDEST STOP JUMPDEST PUSH1 0x0 DUP1 PUSH1 0x0 DUP4 DUP2 MSTORE PUSH1 0x20 ADD SWAP1 DUP2 MSTORE PUSH1 0x20 ADD PUSH1 0x0 KECCAK256 SWAP1 POP PUSH1 0x0 PUSH20 0xFFFFFFFFFFFFFFFFFFFFFFFFFFFFFFFFFFFFFFFF AND DUP2 PUSH1 0x0 ADD PUSH1 0x0 SWAP1 SLOAD SWAP1 PUSH2 0x100 EXP SWAP1 DIV PUSH20 0xFFFFFFFFFFFFFFFFFFFFFFFFFFFFFFFFFFFFFFFF AND PUSH20 0xFFFFFFFFFFFFFFFFFFFFFFFFFFFFFFFFFFFFFFFF AND SUB PUSH2 0x3B4 JUMPI PUSH1 0x40 MLOAD PUSH32 0x8C379A000000000000000000000000000000000000000000000000000000000 DUP2 MSTORE PUSH1 0x4 ADD PUSH2 0x3AB SWAP1 PUSH2 0x43F2 JUMP JUMPDEST PUSH1 0x40 MLOAD DUP1 SWAP2 SUB SWAP1 REVERT JUMPDEST DUP1 PUSH1 0x0 ADD PUSH1 0x0 SWAP1 SLOAD SWAP1 PUSH2 0x100 EXP SWAP1 DIV PUSH20 0xFFFFFFFFFFFFFFFFFFFFFFFFFFFFFFFFFFFFFFFF AND PUSH20 0xFFFFFFFFFFFFFFFFFFFFFFFFFFFFFFFFFFFFFFFF AND CALLER PUSH20 0xFFFFFFFFFFFFFFFFFFFFFFFFFFFFFFFFFFFFFFFF AND EQ PUSH2 0x446 JUMPI PUSH1 0x40 MLOAD PUSH32 0x8C379A000000000000000000000000000000000000000000000000000000000 DUP2 MSTORE PUSH1 0x4 ADD PUSH2 0x43D SWAP1 PUSH2 0x4484 JUMP JUMPDEST PUSH1 0x40 MLOAD DUP1 SWAP2 SUB SWAP1 REVERT JUMPDEST PUSH1 0x0 PUSH1 0x2 PUSH1 0x0 DUP4 PUSH1 0x0 ADD PUSH1 0x14 SWAP1 SLOAD SWAP1 PUSH2 0x100 EXP SWAP1 DIV PUSH12 0xFFFFFFFFFFFFFFFFFFFFFFFF AND PUSH12 0xFFFFFFFFFFFFFFFFFFFFFFFF AND DUP2 MSTORE PUSH1 0x20 ADD SWAP1 DUP2 MSTORE PUSH1 0x20 ADD PUSH1 0x0 KECCAK256 SWAP1 POP DUP1 PUSH1 0x0 ADD PUSH1 0x0 SWAP1 SLOAD SWAP1 PUSH2 0x100 EXP SWAP1 DIV PUSH16 0xFFFFFFFFFFFFFFFFFFFFFFFFFFFFFFFF AND DUP2 PUSH1 0x1 ADD PUSH1 0x0 SWAP1 SLOAD SWAP1 PUSH2 0x100 EXP SWAP1 DIV PUSH16 0xFFFFFFFFFFFFFFFFFFFFFFFFFFFFFFFF AND PUSH2 0x4D3 SWAP2 SWAP1 PUSH2 0x44D3 JUMP JUMPDEST PUSH16 0xFFFFFFFFFFFFFFFFFFFFFFFFFFFFFFFF AND DUP3 PUSH1 0x1 ADD PUSH1 0x10 SWAP1 SLOAD SWAP1 PUSH2 0x100 EXP SWAP1 DIV PUSH16 0xFFFFFFFFFFFFFFFFFFFFFFFFFFFFFFFF AND PUSH16 0xFFFFFFFFFFFFFFFFFFFFFFFFFFFFFFFF AND LT PUSH2 0x558 JUMPI PUSH1 0x40 MLOAD PUSH32 0x8C379A000000000000000000000000000000000000000000000000000000000 DUP2 MSTORE PUSH1 0x4 ADD PUSH2 0x54F SWAP1 PUSH2 0x4563 JUMP JUMPDEST PUSH1 0x40 MLOAD DUP1 SWAP2 SUB SWAP1 REVERT JUMPDEST PUSH1 0x0 DUP3 PUSH1 0x1 ADD PUSH1 0x10 SWAP1 SLOAD SWAP1 PUSH2 0x100 EXP SWAP1 DIV PUSH16 0xFFFFFFFFFFFFFFFFFFFFFFFFFFFFFFFF AND DUP3 PUSH1 0x0 ADD PUSH1 0x0 SWAP1 SLOAD SWAP1 PUSH2 0x100 EXP SWAP1 DIV PUSH16 0xFFFFFFFFFFFFFFFFFFFFFFFFFFFFFFFF AND DUP4 PUSH1 0x1 ADD PUSH1 0x0 SWAP1 SLOAD SWAP1 PUSH2 0x100 EXP SWAP1 DIV PUSH16 0xFFFFFFFFFFFFFFFFFFFFFFFFFFFFFFFF AND PUSH2 0x5C7 SWAP2 SWAP1 PUSH2 0x44D3 JUMP JUMPDEST PUSH2 0x5D1 SWAP2 SWAP1 PUSH2 0x4583 JUMP JUMPDEST SWAP1 POP PUSH1 0x0 DUP4 PUSH1 0x1 ADD PUSH1 0x0 SWAP1 SLOAD SWAP1 PUSH2 0x100 EXP SWAP1 DIV PUSH16 0xFFFFFFFFFFFFFFFFFFFFFFFFFFFFFFFF AND PUSH16 0xFFFFFFFFFFFFFFFFFFFFFFFFFFFFFFFF AND DUP3 PUSH16 0xFFFFFFFFFFFFFFFFFFFFFFFFFFFFFFFF AND GT PUSH2 0x626 JUMPI DUP2 PUSH2 0x648 JUMP JUMPDEST DUP4 PUSH1 0x1 ADD PUSH1 0x0 SWAP1 SLOAD SWAP1 PUSH2 0x100 EXP SWAP1 DIV PUSH16 0xFFFFFFFFFFFFFFFFFFFFFFFFFFFFFFFF AND JUMPDEST SWAP1 POP DUP1 DUP5 PUSH1 0x1 ADD PUSH1 0x0 DUP3 DUP3 DUP3 SWAP1 SLOAD SWAP1 PUSH2 0x100 EXP SWAP1 DIV PUSH16 0xFFFFFFFFFFFFFFFFFFFFFFFFFFFFFFFF AND PUSH2 0x679 SWAP2 SWAP1 PUSH2 0x4583 JUMP JUMPDEST SWAP3 POP PUSH2 0x100 EXP DUP2 SLOAD DUP2 PUSH16 0xFFFFFFFFFFFFFFFFFFFFFFFFFFFFFFFF MUL NOT AND SWAP1 DUP4 PUSH16 0xFFFFFFFFFFFFFFFFFFFFFFFFFFFFFFFF AND MUL OR SWAP1 SSTORE POP DUP1 DUP4 PUSH1 0x0 ADD PUSH1 0x0 DUP3 DUP3 DUP3 SWAP1 SLOAD SWAP1 PUSH2 0x100 EXP SWAP1 DIV PUSH16 0xFFFFFFFFFFFFFFFFFFFFFFFFFFFFFFFF AND PUSH2 0x6DE SWAP2 SWAP1 PUSH2 0x44D3 JUMP JUMPDEST SWAP3 POP PUSH2 0x100 EXP DUP2 SLOAD DUP2 PUSH16 0xFFFFFFFFFFFFFFFFFFFFFFFFFFFFFFFF MUL NOT AND SWAP1 DUP4 PUSH16 0xFFFFFFFFFFFFFFFFFFFFFFFFFFFFFFFF AND MUL OR SWAP1 SSTORE POP DUP1 DUP4 PUSH1 0x1 ADD PUSH1 0x0 DUP3 DUP3 DUP3 SWAP1 SLOAD SWAP1 PUSH2 0x100 EXP SWAP1 DIV PUSH16 0xFFFFFFFFFFFFFFFFFFFFFFFFFFFFFFFF AND PUSH2 0x743 SWAP2 SWAP1 PUSH2 0x4583 JUMP JUMPDEST SWAP3 POP PUSH2 0x100 EXP DUP2 SLOAD DUP2 PUSH16 0xFFFFFFFFFFFFFFFFFFFFFFFFFFFFFFFF MUL NOT AND SWAP1 DUP4 PUSH16 0xFFFFFFFFFFFFFFFFFFFFFFFFFFFFFFFF AND MUL OR SWAP1 SSTORE POP PUSH32 0x0 PUSH20 0xFFFFFFFFFFFFFFFFFFFFFFFFFFFFFFFFFFFFFFFF AND PUSH4 0xA9059CBB DUP6 PUSH1 0x0 ADD PUSH1 0x0 SWAP1 SLOAD SWAP1 PUSH2 0x100 EXP SWAP1 DIV PUSH20 0xFFFFFFFFFFFFFFFFFFFFFFFFFFFFFFFFFFFFFFFF AND PUSH2 0x891 PUSH5 0x2540BE400 PUSH2 0x883 PUSH1 0x64 PUSH2 0x875 PUSH32 0x0 PUSH1 0xA PUSH2 0x818 SWAP2 SWAP1 PUSH2 0x46FA JUMP JUMPDEST PUSH2 0x867 DUP14 PUSH1 0x0 ADD PUSH1 0x14 SWAP1 SLOAD SWAP1 PUSH2 0x100 EXP SWAP1 DIV PUSH12 0xFFFFFFFFFFFFFFFFFFFFFFFF AND PUSH12 0xFFFFFFFFFFFFFFFFFFFFFFFF AND DUP12 PUSH16 0xFFFFFFFFFFFFFFFFFFFFFFFFFFFFFFFF AND PUSH2 0x386E SWAP1 SWAP2 SWAP1 PUSH4 0xFFFFFFFF AND JUMP JUMPDEST PUSH2 0x386E SWAP1 SWAP2 SWAP1 PUSH4 0xFFFFFFFF AND JUMP JUMPDEST PUSH2 0x3884 SWAP1 SWAP2 SWAP1 PUSH4 0xFFFFFFFF AND JUMP JUMPDEST PUSH2 0x3884 SWAP1 SWAP2 SWAP1 PUSH4 0xFFFFFFFF AND JUMP JUMPDEST PUSH1 0x40 MLOAD DUP4 PUSH4 0xFFFFFFFF AND PUSH1 0xE0 SHL DUP2 MSTORE PUSH1 0x4 ADD PUSH2 0x8AE SWAP3 SWAP2 SWAP1 PUSH2 0x4745 JUMP JUMPDEST PUSH1 0x20 PUSH1 0x40 MLOAD DUP1 DUP4 SUB DUP2 PUSH1 0x0 DUP8 GAS CALL ISZERO DUP1 ISZERO PUSH2 0x8CD JUMPI RETURNDATASIZE PUSH1 0x0 DUP1 RETURNDATACOPY RETURNDATASIZE PUSH1 0x0 REVERT JUMPDEST POP POP POP POP PUSH1 0x40 MLOAD RETURNDATASIZE PUSH1 0x1F NOT PUSH1 0x1F DUP3 ADD AND DUP3 ADD DUP1 PUSH1 0x40 MSTORE POP DUP2 ADD SWAP1 PUSH2 0x8F1 SWAP2 SWAP1 PUSH2 0x4783 JUMP JUMPDEST POP PUSH1 0x0 DUP5 PUSH1 0x1 ADD PUSH1 0x0 SWAP1 SLOAD SWAP1 PUSH2 0x100 EXP SWAP1 DIV PUSH16 0xFFFFFFFFFFFFFFFFFFFFFFFFFFFFFFFF AND PUSH16 0xFFFFFFFFFFFFFFFFFFFFFFFFFFFFFFFF AND SUB PUSH2 0x9E2 JUMPI PUSH1 0x0 DUP1 DUP7 DUP2 MSTORE PUSH1 0x20 ADD SWAP1 DUP2 MSTORE PUSH1 0x20 ADD PUSH1 0x0 KECCAK256 PUSH1 0x0 DUP1 DUP3 ADD PUSH1 0x0 PUSH2 0x100 EXP DUP2 SLOAD SWAP1 PUSH20 0xFFFFFFFFFFFFFFFFFFFFFFFFFFFFFFFFFFFFFFFF MUL NOT AND SWAP1 SSTORE PUSH1 0x0 DUP3 ADD PUSH1 0x14 PUSH2 0x100 EXP DUP2 SLOAD SWAP1 PUSH12 0xFFFFFFFFFFFFFFFFFFFFFFFF MUL NOT AND SWAP1 SSTORE PUSH1 0x1 DUP3 ADD PUSH1 0x0 PUSH2 0x100 EXP DUP2 SLOAD SWAP1 PUSH16 0xFFFFFFFFFFFFFFFFFFFFFFFFFFFFFFFF MUL NOT AND SWAP1 SSTORE PUSH1 0x1 DUP3 ADD PUSH1 0x10 PUSH2 0x100 EXP DUP2 SLOAD SWAP1 PUSH16 0xFFFFFFFFFFFFFFFFFFFFFFFFFFFFFFFF MUL NOT AND SWAP1 SSTORE PUSH1 0x2 DUP3 ADD PUSH1 0x0 PUSH2 0x100 EXP DUP2 SLOAD SWAP1 PUSH1 0xFF MUL NOT AND SWAP1 SSTORE POP POP JUMPDEST POP POP POP POP POP JUMP JUMPDEST PUSH1 0x2 PUSH1 0x20 MSTORE DUP1 PUSH1 0x0 MSTORE PUSH1 0x40 PUSH1 0x0 KECCAK256 PUSH1 0x0 SWAP2 POP SWAP1 POP DUP1 PUSH1 0x0 ADD PUSH1 0x0 SWAP1 SLOAD SWAP1 PUSH2 0x100 EXP SWAP1 DIV PUSH16 0xFFFFFFFFFFFFFFFFFFFFFFFFFFFFFFFF AND SWAP1 DUP1 PUSH1 0x0 ADD PUSH1 0x10 SWAP1 SLOAD SWAP1 PUSH2 0x100 EXP SWAP1 DIV PUSH16 0xFFFFFFFFFFFFFFFFFFFFFFFFFFFFFFFF AND SWAP1 DUP1 PUSH1 0x1 ADD PUSH1 0x0 SWAP1 SLOAD SWAP1 PUSH2 0x100 EXP SWAP1 DIV PUSH16 0xFFFFFFFFFFFFFFFFFFFFFFFFFFFFFFFF AND SWAP1 POP DUP4 JUMP JUMPDEST PUSH1 0x0 DUP2 PUSH16 0xFFFFFFFFFFFFFFFFFFFFFFFFFFFFFFFF AND GT PUSH2 0xABC JUMPI PUSH1 0x40 MLOAD PUSH32 0x8C379A000000000000000000000000000000000000000000000000000000000 DUP2 MSTORE PUSH1 0x4 ADD PUSH2 0xAB3 SWAP1 PUSH2 0x4822 JUMP JUMPDEST PUSH1 0x40 MLOAD DUP1 SWAP2 SUB SWAP1 REVERT JUMPDEST PUSH1 0x0 DUP1 DUP5 DUP5 DUP4 PUSH12 0xFFFFFFFFFFFFFFFFFFFFFFFF AND DUP2 DUP2 LT PUSH2 0xAE0 JUMPI PUSH2 0xADF PUSH2 0x4842 JUMP JUMPDEST JUMPDEST SWAP1 POP PUSH1 0x20 MUL ADD PUSH1 0x20 DUP2 ADD SWAP1 PUSH2 0xAF5 SWAP2 SWAP1 PUSH2 0x4871 JUMP JUMPDEST PUSH12 0xFFFFFFFFFFFFFFFFFFFFFFFF AND SWAP1 POP PUSH1 0x0 PUSH1 0x1 PUSH1 0x0 DUP4 DUP2 MSTORE PUSH1 0x20 ADD SWAP1 DUP2 MSTORE PUSH1 0x20 ADD PUSH1 0x0 KECCAK256 PUSH1 0x40 MLOAD DUP1 PUSH1 0x60 ADD PUSH1 0x40 MSTORE SWAP1 DUP2 PUSH1 0x0 DUP3 ADD PUSH1 0x0 SWAP1 SLOAD SWAP1 PUSH2 0x100 EXP SWAP1 DIV PUSH16 0xFFFFFFFFFFFFFFFFFFFFFFFFFFFFFFFF AND PUSH16 0xFFFFFFFFFFFFFFFFFFFFFFFFFFFFFFFF AND PUSH16 0xFFFFFFFFFFFFFFFFFFFFFFFFFFFFFFFF AND DUP2 MSTORE PUSH1 0x20 ADD PUSH1 0x0 DUP3 ADD PUSH1 0x10 SWAP1 SLOAD SWAP1 PUSH2 0x100 EXP SWAP1 DIV PUSH16 0xFFFFFFFFFFFFFFFFFFFFFFFFFFFFFFFF AND PUSH16 0xFFFFFFFFFFFFFFFFFFFFFFFFFFFFFFFF AND PUSH16 0xFFFFFFFFFFFFFFFFFFFFFFFFFFFFFFFF AND DUP2 MSTORE PUSH1 0x20 ADD PUSH1 0x1 DUP3 ADD PUSH1 0x0 SWAP1 SLOAD SWAP1 PUSH2 0x100 EXP SWAP1 DIV PUSH16 0xFFFFFFFFFFFFFFFFFFFFFFFFFFFFFFFF AND PUSH16 0xFFFFFFFFFFFFFFFFFFFFFFFFFFFFFFFF AND PUSH16 0xFFFFFFFFFFFFFFFFFFFFFFFFFFFFFFFF AND DUP2 MSTORE POP POP SWAP1 POP PUSH1 0x0 DUP2 PUSH1 0x40 ADD MLOAD DUP3 PUSH1 0x0 ADD MLOAD DUP4 PUSH1 0x20 ADD MLOAD PUSH2 0xC20 SWAP2 SWAP1 PUSH2 0x4583 JUMP JUMPDEST PUSH2 0xC2A SWAP2 SWAP1 PUSH2 0x4583 JUMP JUMPDEST SWAP1 POP PUSH1 0x0 DUP1 JUMPDEST DUP3 PUSH16 0xFFFFFFFFFFFFFFFFFFFFFFFFFFFFFFFF AND DUP8 PUSH16 0xFFFFFFFFFFFFFFFFFFFFFFFFFFFFFFFF AND GT ISZERO PUSH2 0xF65 JUMPI PUSH2 0xC81 DUP6 DUP5 PUSH16 0xFFFFFFFFFFFFFFFFFFFFFFFFFFFFFFFF AND PUSH2 0x386E SWAP1 SWAP2 SWAP1 PUSH4 0xFFFFFFFF AND JUMP JUMPDEST DUP3 PUSH2 0xC8C SWAP2 SWAP1 PUSH2 0x489E JUMP JUMPDEST SWAP2 POP DUP3 DUP5 PUSH1 0x40 ADD DUP2 DUP2 MLOAD PUSH2 0xCA0 SWAP2 SWAP1 PUSH2 0x44D3 JUMP JUMPDEST SWAP2 POP SWAP1 PUSH16 0xFFFFFFFFFFFFFFFFFFFFFFFFFFFFFFFF AND SWAP1 DUP2 PUSH16 0xFFFFFFFFFFFFFFFFFFFFFFFFFFFFFFFF AND DUP2 MSTORE POP POP DUP3 DUP8 PUSH2 0xCD9 SWAP2 SWAP1 PUSH2 0x4583 JUMP JUMPDEST SWAP7 POP DUP3 PUSH16 0xFFFFFFFFFFFFFFFFFFFFFFFFFFFFFFFF AND DUP2 PUSH2 0xCF9 SWAP2 SWAP1 PUSH2 0x489E JUMP JUMPDEST SWAP1 POP DUP4 PUSH1 0x1 PUSH1 0x0 DUP8 DUP2 MSTORE PUSH1 0x20 ADD SWAP1 DUP2 MSTORE PUSH1 0x20 ADD PUSH1 0x0 KECCAK256 PUSH1 0x0 DUP3 ADD MLOAD DUP2 PUSH1 0x0 ADD PUSH1 0x0 PUSH2 0x100 EXP DUP2 SLOAD DUP2 PUSH16 0xFFFFFFFFFFFFFFFFFFFFFFFFFFFFFFFF MUL NOT AND SWAP1 DUP4 PUSH16 0xFFFFFFFFFFFFFFFFFFFFFFFFFFFFFFFF AND MUL OR SWAP1 SSTORE POP PUSH1 0x20 DUP3 ADD MLOAD DUP2 PUSH1 0x0 ADD PUSH1 0x10 PUSH2 0x100 EXP DUP2 SLOAD DUP2 PUSH16 0xFFFFFFFFFFFFFFFFFFFFFFFFFFFFFFFF MUL NOT AND SWAP1 DUP4 PUSH16 0xFFFFFFFFFFFFFFFFFFFFFFFFFFFFFFFF AND MUL OR SWAP1 SSTORE POP PUSH1 0x40 DUP3 ADD MLOAD DUP2 PUSH1 0x1 ADD PUSH1 0x0 PUSH2 0x100 EXP DUP2 SLOAD DUP2 PUSH16 0xFFFFFFFFFFFFFFFFFFFFFFFFFFFFFFFF MUL NOT AND SWAP1 DUP4 PUSH16 0xFFFFFFFFFFFFFFFFFFFFFFFFFFFFFFFF AND MUL OR SWAP1 SSTORE POP SWAP1 POP POP PUSH1 0x1 DUP7 PUSH2 0xDDC SWAP2 SWAP1 PUSH2 0x48D2 JUMP JUMPDEST SWAP6 POP DUP9 DUP9 SWAP1 POP DUP7 PUSH12 0xFFFFFFFFFFFFFFFFFFFFFFFF AND SUB ISZERO PUSH2 0xF65 JUMPI DUP9 DUP9 DUP8 PUSH12 0xFFFFFFFFFFFFFFFFFFFFFFFF AND DUP2 DUP2 LT PUSH2 0xE18 JUMPI PUSH2 0xE17 PUSH2 0x4842 JUMP JUMPDEST JUMPDEST SWAP1 POP PUSH1 0x20 MUL ADD PUSH1 0x20 DUP2 ADD SWAP1 PUSH2 0xE2D SWAP2 SWAP1 PUSH2 0x4871 JUMP JUMPDEST PUSH12 0xFFFFFFFFFFFFFFFFFFFFFFFF AND SWAP5 POP PUSH1 0x1 PUSH1 0x0 DUP7 DUP2 MSTORE PUSH1 0x20 ADD SWAP1 DUP2 MSTORE PUSH1 0x20 ADD PUSH1 0x0 KECCAK256 PUSH1 0x40 MLOAD DUP1 PUSH1 0x60 ADD PUSH1 0x40 MSTORE SWAP1 DUP2 PUSH1 0x0 DUP3 ADD PUSH1 0x0 SWAP1 SLOAD SWAP1 PUSH2 0x100 EXP SWAP1 DIV PUSH16 0xFFFFFFFFFFFFFFFFFFFFFFFFFFFFFFFF AND PUSH16 0xFFFFFFFFFFFFFFFFFFFFFFFFFFFFFFFF AND PUSH16 0xFFFFFFFFFFFFFFFFFFFFFFFFFFFFFFFF AND DUP2 MSTORE PUSH1 0x20 ADD PUSH1 0x0 DUP3 ADD PUSH1 0x10 SWAP1 SLOAD SWAP1 PUSH2 0x100 EXP SWAP1 DIV PUSH16 0xFFFFFFFFFFFFFFFFFFFFFFFFFFFFFFFF AND PUSH16 0xFFFFFFFFFFFFFFFFFFFFFFFFFFFFFFFF AND PUSH16 0xFFFFFFFFFFFFFFFFFFFFFFFFFFFFFFFF AND DUP2 MSTORE PUSH1 0x20 ADD PUSH1 0x1 DUP3 ADD PUSH1 0x0 SWAP1 SLOAD SWAP1 PUSH2 0x100 EXP SWAP1 DIV PUSH16 0xFFFFFFFFFFFFFFFFFFFFFFFFFFFFFFFF AND PUSH16 0xFFFFFFFFFFFFFFFFFFFFFFFFFFFFFFFF AND PUSH16 0xFFFFFFFFFFFFFFFFFFFFFFFFFFFFFFFF AND DUP2 MSTORE POP POP SWAP4 POP DUP4 PUSH1 0x40 ADD MLOAD DUP5 PUSH1 0x0 ADD MLOAD DUP6 PUSH1 0x20 ADD MLOAD PUSH2 0xF54 SWAP2 SWAP1 PUSH2 0x4583 JUMP JUMPDEST PUSH2 0xF5E SWAP2 SWAP1 PUSH2 0x4583 JUMP JUMPDEST SWAP3 POP PUSH2 0xC30 JUMP JUMPDEST PUSH1 0x0 DUP8 PUSH16 0xFFFFFFFFFFFFFFFFFFFFFFFFFFFFFFFF AND GT DUP1 ISZERO PUSH2 0xF97 JUMPI POP DUP9 DUP9 SWAP1 POP DUP7 PUSH12 0xFFFFFFFFFFFFFFFFFFFFFFFF AND LT JUMPDEST ISZERO PUSH2 0x1102 JUMPI PUSH2 0xFC1 DUP6 DUP9 PUSH16 0xFFFFFFFFFFFFFFFFFFFFFFFFFFFFFFFF AND PUSH2 0x386E SWAP1 SWAP2 SWAP1 PUSH4 0xFFFFFFFF AND JUMP JUMPDEST DUP3 PUSH2 0xFCC SWAP2 SWAP1 PUSH2 0x489E JUMP JUMPDEST SWAP2 POP DUP7 DUP5 PUSH1 0x40 ADD DUP2 DUP2 MLOAD PUSH2 0xFE0 SWAP2 SWAP1 PUSH2 0x44D3 JUMP JUMPDEST SWAP2 POP SWAP1 PUSH16 0xFFFFFFFFFFFFFFFFFFFFFFFFFFFFFFFF AND SWAP1 DUP2 PUSH16 0xFFFFFFFFFFFFFFFFFFFFFFFFFFFFFFFF AND DUP2 MSTORE POP POP DUP7 PUSH16 0xFFFFFFFFFFFFFFFFFFFFFFFFFFFFFFFF AND DUP2 PUSH2 0x102B SWAP2 SWAP1 PUSH2 0x489E JUMP JUMPDEST SWAP1 POP DUP4 PUSH1 0x1 PUSH1 0x0 DUP8 DUP2 MSTORE PUSH1 0x20 ADD SWAP1 DUP2 MSTORE PUSH1 0x20 ADD PUSH1 0x0 KECCAK256 PUSH1 0x0 DUP3 ADD MLOAD DUP2 PUSH1 0x0 ADD PUSH1 0x0 PUSH2 0x100 EXP DUP2 SLOAD DUP2 PUSH16 0xFFFFFFFFFFFFFFFFFFFFFFFFFFFFFFFF MUL NOT AND SWAP1 DUP4 PUSH16 0xFFFFFFFFFFFFFFFFFFFFFFFFFFFFFFFF AND MUL OR SWAP1 SSTORE POP PUSH1 0x20 DUP3 ADD MLOAD DUP2 PUSH1 0x0 ADD PUSH1 0x10 PUSH2 0x100 EXP DUP2 SLOAD DUP2 PUSH16 0xFFFFFFFFFFFFFFFFFFFFFFFFFFFFFFFF MUL NOT AND SWAP1 DUP4 PUSH16 0xFFFFFFFFFFFFFFFFFFFFFFFFFFFFFFFF AND MUL OR SWAP1 SSTORE POP PUSH1 0x40 DUP3 ADD MLOAD DUP2 PUSH1 0x1 ADD PUSH1 0x0 PUSH2 0x100 EXP DUP2 SLOAD DUP2 PUSH16 0xFFFFFFFFFFFFFFFFFFFFFFFFFFFFFFFF MUL NOT AND SWAP1 DUP4 PUSH16 0xFFFFFFFFFFFFFFFFFFFFFFFFFFFFFFFF AND MUL OR SWAP1 SSTORE POP SWAP1 POP POP JUMPDEST PUSH32 0x0 PUSH20 0xFFFFFFFFFFFFFFFFFFFFFFFFFFFFFFFFFFFFFFFF AND PUSH4 0x23B872DD CALLER ADDRESS PUSH2 0x1196 PUSH5 0x2540BE400 PUSH2 0x1188 PUSH32 0x0 PUSH1 0xA PUSH2 0x1179 SWAP2 SWAP1 PUSH2 0x46FA JUMP JUMPDEST DUP9 PUSH2 0x386E SWAP1 SWAP2 SWAP1 PUSH4 0xFFFFFFFF AND JUMP JUMPDEST PUSH2 0x3884 SWAP1 SWAP2 SWAP1 PUSH4 0xFFFFFFFF AND JUMP JUMPDEST PUSH1 0x40 MLOAD DUP5 PUSH4 0xFFFFFFFF AND PUSH1 0xE0 SHL DUP2 MSTORE PUSH1 0x4 ADD PUSH2 0x11B4 SWAP4 SWAP3 SWAP2 SWAP1 PUSH2 0x4912 JUMP JUMPDEST PUSH1 0x20 PUSH1 0x40 MLOAD DUP1 DUP4 SUB DUP2 PUSH1 0x0 DUP8 GAS CALL ISZERO DUP1 ISZERO PUSH2 0x11D3 JUMPI RETURNDATASIZE PUSH1 0x0 DUP1 RETURNDATACOPY RETURNDATASIZE PUSH1 0x0 REVERT JUMPDEST POP POP POP POP PUSH1 0x40 MLOAD RETURNDATASIZE PUSH1 0x1F NOT PUSH1 0x1F DUP3 ADD AND DUP3 ADD DUP1 PUSH1 0x40 MSTORE POP DUP2 ADD SWAP1 PUSH2 0x11F7 SWAP2 SWAP1 PUSH2 0x4783 JUMP JUMPDEST POP PUSH32 0x0 PUSH20 0xFFFFFFFFFFFFFFFFFFFFFFFFFFFFFFFFFFFFFFFF AND PUSH4 0xA9059CBB CALLER PUSH2 0x129E PUSH5 0x2540BE400 PUSH2 0x1290 PUSH1 0x64 PUSH2 0x1282 PUSH32 0x0 PUSH1 0xA PUSH2 0x1273 SWAP2 SWAP1 PUSH2 0x46FA JUMP JUMPDEST DUP11 PUSH2 0x386E SWAP1 SWAP2 SWAP1 PUSH4 0xFFFFFFFF AND JUMP JUMPDEST PUSH2 0x3884 SWAP1 SWAP2 SWAP1 PUSH4 0xFFFFFFFF AND JUMP JUMPDEST PUSH2 0x3884 SWAP1 SWAP2 SWAP1 PUSH4 0xFFFFFFFF AND JUMP JUMPDEST PUSH1 0x40 MLOAD DUP4 PUSH4 0xFFFFFFFF AND PUSH1 0xE0 SHL DUP2 MSTORE PUSH1 0x4 ADD PUSH2 0x12BB SWAP3 SWAP2 SWAP1 PUSH2 0x4745 JUMP JUMPDEST PUSH1 0x20 PUSH1 0x40 MLOAD DUP1 DUP4 SUB DUP2 PUSH1 0x0 DUP8 GAS CALL ISZERO DUP1 ISZERO PUSH2 0x12DA JUMPI RETURNDATASIZE PUSH1 0x0 DUP1 RETURNDATACOPY RETURNDATASIZE PUSH1 0x0 REVERT JUMPDEST POP POP POP POP PUSH1 0x40 MLOAD RETURNDATASIZE PUSH1 0x1F NOT PUSH1 0x1F DUP3 ADD AND DUP3 ADD DUP1 PUSH1 0x40 MSTORE POP DUP2 ADD SWAP1 PUSH2 0x12FE SWAP2 SWAP1 PUSH2 0x4783 JUMP JUMPDEST POP POP POP POP POP POP POP POP POP POP JUMP JUMPDEST PUSH1 0x0 DUP1 PUSH1 0x0 DUP4 DUP2 MSTORE PUSH1 0x20 ADD SWAP1 DUP2 MSTORE PUSH1 0x20 ADD PUSH1 0x0 KECCAK256 PUSH1 0x40 MLOAD DUP1 PUSH1 0xA0 ADD PUSH1 0x40 MSTORE SWAP1 DUP2 PUSH1 0x0 DUP3 ADD PUSH1 0x0 SWAP1 SLOAD SWAP1 PUSH2 0x100 EXP SWAP1 DIV PUSH20 0xFFFFFFFFFFFFFFFFFFFFFFFFFFFFFFFFFFFFFFFF AND PUSH20 0xFFFFFFFFFFFFFFFFFFFFFFFFFFFFFFFFFFFFFFFF AND PUSH20 0xFFFFFFFFFFFFFFFFFFFFFFFFFFFFFFFFFFFFFFFF AND DUP2 MSTORE PUSH1 0x20 ADD PUSH1 0x0 DUP3 ADD PUSH1 0x14 SWAP1 SLOAD SWAP1 PUSH2 0x100 EXP SWAP1 DIV PUSH12 0xFFFFFFFFFFFFFFFFFFFFFFFF AND PUSH12 0xFFFFFFFFFFFFFFFFFFFFFFFF AND PUSH12 0xFFFFFFFFFFFFFFFFFFFFFFFF AND DUP2 MSTORE PUSH1 0x20 ADD PUSH1 0x1 DUP3 ADD PUSH1 0x0 SWAP1 SLOAD SWAP1 PUSH2 0x100 EXP SWAP1 DIV PUSH16 0xFFFFFFFFFFFFFFFFFFFFFFFFFFFFFFFF AND PUSH16 0xFFFFFFFFFFFFFFFFFFFFFFFFFFFFFFFF AND PUSH16 0xFFFFFFFFFFFFFFFFFFFFFFFFFFFFFFFF AND DUP2 MSTORE PUSH1 0x20 ADD PUSH1 0x1 DUP3 ADD PUSH1 0x10 SWAP1 SLOAD SWAP1 PUSH2 0x100 EXP SWAP1 DIV PUSH16 0xFFFFFFFFFFFFFFFFFFFFFFFFFFFFFFFF AND PUSH16 0xFFFFFFFFFFFFFFFFFFFFFFFFFFFFFFFF AND PUSH16 0xFFFFFFFFFFFFFFFFFFFFFFFFFFFFFFFF AND DUP2 MSTORE PUSH1 0x20 ADD PUSH1 0x2 DUP3 ADD PUSH1 0x0 SWAP1 SLOAD SWAP1 PUSH2 0x100 EXP SWAP1 DIV PUSH1 0xFF AND ISZERO ISZERO ISZERO ISZERO DUP2 MSTORE POP POP SWAP1 POP DUP1 PUSH1 0x80 ADD MLOAD ISZERO PUSH2 0x14B3 JUMPI PUSH1 0x40 MLOAD PUSH32 0x8C379A000000000000000000000000000000000000000000000000000000000 DUP2 MSTORE PUSH1 0x4 ADD PUSH2 0x14AA SWAP1 PUSH2 0x4995 JUMP JUMPDEST PUSH1 0x40 MLOAD DUP1 SWAP2 SUB SWAP1 REVERT JUMPDEST DUP1 PUSH1 0x0 ADD MLOAD PUSH20 0xFFFFFFFFFFFFFFFFFFFFFFFFFFFFFFFFFFFFFFFF AND CALLER PUSH20 0xFFFFFFFFFFFFFFFFFFFFFFFFFFFFFFFFFFFFFFFF AND EQ PUSH2 0x1525 JUMPI PUSH1 0x40 MLOAD PUSH32 0x8C379A000000000000000000000000000000000000000000000000000000000 DUP2 MSTORE PUSH1 0x4 ADD PUSH2 0x151C SWAP1 PUSH2 0x4A27 JUMP JUMPDEST PUSH1 0x40 MLOAD DUP1 SWAP2 SUB SWAP1 REVERT JUMPDEST DUP1 PUSH1 0x40 ADD MLOAD PUSH1 0x2 PUSH1 0x0 DUP4 PUSH1 0x20 ADD MLOAD PUSH12 0xFFFFFFFFFFFFFFFFFFFFFFFF AND DUP2 MSTORE PUSH1 0x20 ADD SWAP1 DUP2 MSTORE PUSH1 0x20 ADD PUSH1 0x0 KECCAK256 PUSH1 0x0 ADD PUSH1 0x0 DUP3 DUP3 DUP3 SWAP1 SLOAD SWAP1 PUSH2 0x100 EXP SWAP1 DIV PUSH16 0xFFFFFFFFFFFFFFFFFFFFFFFFFFFFFFFF AND PUSH2 0x157C SWAP2 SWAP1 PUSH2 0x44D3 JUMP JUMPDEST SWAP3 POP PUSH2 0x100 EXP DUP2 SLOAD DUP2 PUSH16 0xFFFFFFFFFFFFFFFFFFFFFFFFFFFFFFFF MUL NOT AND SWAP1 DUP4 PUSH16 0xFFFFFFFFFFFFFFFFFFFFFFFFFFFFFFFF AND MUL OR SWAP1 SSTORE POP PUSH1 0x0 DUP1 DUP4 DUP2 MSTORE PUSH1 0x20 ADD SWAP1 DUP2 MSTORE PUSH1 0x20 ADD PUSH1 0x0 KECCAK256 PUSH1 0x0 DUP1 DUP3 ADD PUSH1 0x0 PUSH2 0x100 EXP DUP2 SLOAD SWAP1 PUSH20 0xFFFFFFFFFFFFFFFFFFFFFFFFFFFFFFFFFFFFFFFF MUL NOT AND SWAP1 SSTORE PUSH1 0x0 DUP3 ADD PUSH1 0x14 PUSH2 0x100 EXP DUP2 SLOAD SWAP1 PUSH12 0xFFFFFFFFFFFFFFFFFFFFFFFF MUL NOT AND SWAP1 SSTORE PUSH1 0x1 DUP3 ADD PUSH1 0x0 PUSH2 0x100 EXP DUP2 SLOAD SWAP1 PUSH16 0xFFFFFFFFFFFFFFFFFFFFFFFFFFFFFFFF MUL NOT AND SWAP1 SSTORE PUSH1 0x1 DUP3 ADD PUSH1 0x10 PUSH2 0x100 EXP DUP2 SLOAD SWAP1 PUSH16 0xFFFFFFFFFFFFFFFFFFFFFFFFFFFFFFFF MUL NOT AND SWAP1 SSTORE PUSH1 0x2 DUP3 ADD PUSH1 0x0 PUSH2 0x100 EXP DUP2 SLOAD SWAP1 PUSH1 0xFF MUL NOT AND SWAP1 SSTORE POP POP PUSH32 0x0 PUSH20 0xFFFFFFFFFFFFFFFFFFFFFFFFFFFFFFFFFFFFFFFF AND PUSH4 0xA9059CBB DUP3 PUSH1 0x0 ADD MLOAD PUSH5 0x2540BE400 PUSH32 0x0 PUSH1 0xA PUSH2 0x16DB SWAP2 SWAP1 PUSH2 0x46FA JUMP JUMPDEST DUP6 PUSH1 0x40 ADD MLOAD PUSH16 0xFFFFFFFFFFFFFFFFFFFFFFFFFFFFFFFF AND PUSH2 0x16FC SWAP2 SWAP1 PUSH2 0x4A47 JUMP JUMPDEST PUSH2 0x1706 SWAP2 SWAP1 PUSH2 0x4AB8 JUMP JUMPDEST PUSH1 0x40 MLOAD DUP4 PUSH4 0xFFFFFFFF AND PUSH1 0xE0 SHL DUP2 MSTORE PUSH1 0x4 ADD PUSH2 0x1723 SWAP3 SWAP2 SWAP1 PUSH2 0x4745 JUMP JUMPDEST PUSH1 0x20 PUSH1 0x40 MLOAD DUP1 DUP4 SUB DUP2 PUSH1 0x0 DUP8 GAS CALL ISZERO DUP1 ISZERO PUSH2 0x1742 JUMPI RETURNDATASIZE PUSH1 0x0 DUP1 RETURNDATACOPY RETURNDATASIZE PUSH1 0x0 REVERT JUMPDEST POP POP POP POP PUSH1 0x40 MLOAD RETURNDATASIZE PUSH1 0x1F NOT PUSH1 0x1F DUP3 ADD AND DUP3 ADD DUP1 PUSH1 0x40 MSTORE POP DUP2 ADD SWAP1 PUSH2 0x1766 SWAP2 SWAP1 PUSH2 0x4783 JUMP JUMPDEST POP PUSH32 0xFEA5EB23060199C8B2AD63BCECD92C04CEA55CD0EF02C4030D3B20CF718C70EA DUP3 DUP3 PUSH1 0x0 ADD MLOAD PUSH1 0x0 PUSH1 0x40 MLOAD PUSH2 0x179F SWAP4 SWAP3 SWAP2 SWAP1 PUSH2 0x4AE9 JUMP JUMPDEST PUSH1 0x40 MLOAD DUP1 SWAP2 SUB SWAP1 LOG1 POP POP JUMP JUMPDEST PUSH1 0x0 DUP2 PUSH16 0xFFFFFFFFFFFFFFFFFFFFFFFFFFFFFFFF AND GT PUSH2 0x1800 JUMPI PUSH1 0x40 MLOAD PUSH32 0x8C379A000000000000000000000000000000000000000000000000000000000 DUP2 MSTORE PUSH1 0x4 ADD PUSH2 0x17F7 SWAP1 PUSH2 0x4822 JUMP JUMPDEST PUSH1 0x40 MLOAD DUP1 SWAP2 SUB SWAP1 REVERT JUMPDEST PUSH1 0x0 DUP1 DUP5 DUP5 DUP4 PUSH12 0xFFFFFFFFFFFFFFFFFFFFFFFF AND DUP2 DUP2 LT PUSH2 0x1824 JUMPI PUSH2 0x1823 PUSH2 0x4842 JUMP JUMPDEST JUMPDEST SWAP1 POP PUSH1 0x20 MUL ADD PUSH1 0x20 DUP2 ADD SWAP1 PUSH2 0x1839 SWAP2 SWAP1 PUSH2 0x4871 JUMP JUMPDEST PUSH12 0xFFFFFFFFFFFFFFFFFFFFFFFF AND SWAP1 POP PUSH1 0x0 PUSH1 0x2 PUSH1 0x0 DUP4 DUP2 MSTORE PUSH1 0x20 ADD SWAP1 DUP2 MSTORE PUSH1 0x20 ADD PUSH1 0x0 KECCAK256 PUSH1 0x40 MLOAD DUP1 PUSH1 0x60 ADD PUSH1 0x40 MSTORE SWAP1 DUP2 PUSH1 0x0 DUP3 ADD PUSH1 0x0 SWAP1 SLOAD SWAP1 PUSH2 0x100 EXP SWAP1 DIV PUSH16 0xFFFFFFFFFFFFFFFFFFFFFFFFFFFFFFFF AND PUSH16 0xFFFFFFFFFFFFFFFFFFFFFFFFFFFFFFFF AND PUSH16 0xFFFFFFFFFFFFFFFFFFFFFFFFFFFFFFFF AND DUP2 MSTORE PUSH1 0x20 ADD PUSH1 0x0 DUP3 ADD PUSH1 0x10 SWAP1 SLOAD SWAP1 PUSH2 0x100 EXP SWAP1 DIV PUSH16 0xFFFFFFFFFFFFFFFFFFFFFFFFFFFFFFFF AND PUSH16 0xFFFFFFFFFFFFFFFFFFFFFFFFFFFFFFFF AND PUSH16 0xFFFFFFFFFFFFFFFFFFFFFFFFFFFFFFFF AND DUP2 MSTORE PUSH1 0x20 ADD PUSH1 0x1 DUP3 ADD PUSH1 0x0 SWAP1 SLOAD SWAP1 PUSH2 0x100 EXP SWAP1 DIV PUSH16 0xFFFFFFFFFFFFFFFFFFFFFFFFFFFFFFFF AND PUSH16 0xFFFFFFFFFFFFFFFFFFFFFFFFFFFFFFFF AND PUSH16 0xFFFFFFFFFFFFFFFFFFFFFFFFFFFFFFFF AND DUP2 MSTORE POP POP SWAP1 POP PUSH1 0x0 DUP2 PUSH1 0x40 ADD MLOAD DUP3 PUSH1 0x0 ADD MLOAD DUP4 PUSH1 0x20 ADD MLOAD PUSH2 0x1964 SWAP2 SWAP1 PUSH2 0x4583 JUMP JUMPDEST PUSH2 0x196E SWAP2 SWAP1 PUSH2 0x4583 JUMP JUMPDEST SWAP1 POP PUSH1 0x0 DUP1 JUMPDEST DUP3 PUSH16 0xFFFFFFFFFFFFFFFFFFFFFFFFFFFFFFFF AND DUP8 PUSH16 0xFFFFFFFFFFFFFFFFFFFFFFFFFFFFFFFF AND LT PUSH2 0x1CA8 JUMPI PUSH2 0x19C4 DUP6 DUP5 PUSH16 0xFFFFFFFFFFFFFFFFFFFFFFFFFFFFFFFF AND PUSH2 0x386E SWAP1 SWAP2 SWAP1 PUSH4 0xFFFFFFFF AND JUMP JUMPDEST DUP3 PUSH2 0x19CF SWAP2 SWAP1 PUSH2 0x489E JUMP JUMPDEST SWAP2 POP DUP3 DUP5 PUSH1 0x40 ADD DUP2 DUP2 MLOAD PUSH2 0x19E3 SWAP2 SWAP1 PUSH2 0x44D3 JUMP JUMPDEST SWAP2 POP SWAP1 PUSH16 0xFFFFFFFFFFFFFFFFFFFFFFFFFFFFFFFF AND SWAP1 DUP2 PUSH16 0xFFFFFFFFFFFFFFFFFFFFFFFFFFFFFFFF AND DUP2 MSTORE POP POP DUP3 DUP8 PUSH2 0x1A1C SWAP2 SWAP1 PUSH2 0x4583 JUMP JUMPDEST SWAP7 POP DUP3 PUSH16 0xFFFFFFFFFFFFFFFFFFFFFFFFFFFFFFFF AND DUP2 PUSH2 0x1A3C SWAP2 SWAP1 PUSH2 0x489E JUMP JUMPDEST SWAP1 POP DUP4 PUSH1 0x2 PUSH1 0x0 DUP8 DUP2 MSTORE PUSH1 0x20 ADD SWAP1 DUP2 MSTORE PUSH1 0x20 ADD PUSH1 0x0 KECCAK256 PUSH1 0x0 DUP3 ADD MLOAD DUP2 PUSH1 0x0 ADD PUSH1 0x0 PUSH2 0x100 EXP DUP2 SLOAD DUP2 PUSH16 0xFFFFFFFFFFFFFFFFFFFFFFFFFFFFFFFF MUL NOT AND SWAP1 DUP4 PUSH16 0xFFFFFFFFFFFFFFFFFFFFFFFFFFFFFFFF AND MUL OR SWAP1 SSTORE POP PUSH1 0x20 DUP3 ADD MLOAD DUP2 PUSH1 0x0 ADD PUSH1 0x10 PUSH2 0x100 EXP DUP2 SLOAD DUP2 PUSH16 0xFFFFFFFFFFFFFFFFFFFFFFFFFFFFFFFF MUL NOT AND SWAP1 DUP4 PUSH16 0xFFFFFFFFFFFFFFFFFFFFFFFFFFFFFFFF AND MUL OR SWAP1 SSTORE POP PUSH1 0x40 DUP3 ADD MLOAD DUP2 PUSH1 0x1 ADD PUSH1 0x0 PUSH2 0x100 EXP DUP2 SLOAD DUP2 PUSH16 0xFFFFFFFFFFFFFFFFFFFFFFFFFFFFFFFF MUL NOT AND SWAP1 DUP4 PUSH16 0xFFFFFFFFFFFFFFFFFFFFFFFFFFFFFFFF AND MUL OR SWAP1 SSTORE POP SWAP1 POP POP PUSH1 0x1 DUP7 PUSH2 0x1B1F SWAP2 SWAP1 PUSH2 0x48D2 JUMP JUMPDEST SWAP6 POP DUP9 DUP9 SWAP1 POP DUP7 PUSH12 0xFFFFFFFFFFFFFFFFFFFFFFFF AND SUB ISZERO PUSH2 0x1CA8 JUMPI DUP9 DUP9 DUP8 PUSH12 0xFFFFFFFFFFFFFFFFFFFFFFFF AND DUP2 DUP2 LT PUSH2 0x1B5B JUMPI PUSH2 0x1B5A PUSH2 0x4842 JUMP JUMPDEST JUMPDEST SWAP1 POP PUSH1 0x20 MUL ADD PUSH1 0x20 DUP2 ADD SWAP1 PUSH2 0x1B70 SWAP2 SWAP1 PUSH2 0x4871 JUMP JUMPDEST PUSH12 0xFFFFFFFFFFFFFFFFFFFFFFFF AND SWAP5 POP PUSH1 0x2 PUSH1 0x0 DUP7 DUP2 MSTORE PUSH1 0x20 ADD SWAP1 DUP2 MSTORE PUSH1 0x20 ADD PUSH1 0x0 KECCAK256 PUSH1 0x40 MLOAD DUP1 PUSH1 0x60 ADD PUSH1 0x40 MSTORE SWAP1 DUP2 PUSH1 0x0 DUP3 ADD PUSH1 0x0 SWAP1 SLOAD SWAP1 PUSH2 0x100 EXP SWAP1 DIV PUSH16 0xFFFFFFFFFFFFFFFFFFFFFFFFFFFFFFFF AND PUSH16 0xFFFFFFFFFFFFFFFFFFFFFFFFFFFFFFFF AND PUSH16 0xFFFFFFFFFFFFFFFFFFFFFFFFFFFFFFFF AND DUP2 MSTORE PUSH1 0x20 ADD PUSH1 0x0 DUP3 ADD PUSH1 0x10 SWAP1 SLOAD SWAP1 PUSH2 0x100 EXP SWAP1 DIV PUSH16 0xFFFFFFFFFFFFFFFFFFFFFFFFFFFFFFFF AND PUSH16 0xFFFFFFFFFFFFFFFFFFFFFFFFFFFFFFFF AND PUSH16 0xFFFFFFFFFFFFFFFFFFFFFFFFFFFFFFFF AND DUP2 MSTORE PUSH1 0x20 ADD PUSH1 0x1 DUP3 ADD PUSH1 0x0 SWAP1 SLOAD SWAP1 PUSH2 0x100 EXP SWAP1 DIV PUSH16 0xFFFFFFFFFFFFFFFFFFFFFFFFFFFFFFFF AND PUSH16 0xFFFFFFFFFFFFFFFFFFFFFFFFFFFFFFFF AND PUSH16 0xFFFFFFFFFFFFFFFFFFFFFFFFFFFFFFFF AND DUP2 MSTORE POP POP SWAP4 POP DUP4 PUSH1 0x40 ADD MLOAD DUP5 PUSH1 0x0 ADD MLOAD DUP6 PUSH1 0x20 ADD MLOAD PUSH2 0x1C97 SWAP2 SWAP1 PUSH2 0x4583 JUMP JUMPDEST PUSH2 0x1CA1 SWAP2 SWAP1 PUSH2 0x4583 JUMP JUMPDEST SWAP3 POP PUSH2 0x1974 JUMP JUMPDEST PUSH1 0x0 DUP8 PUSH16 0xFFFFFFFFFFFFFFFFFFFFFFFFFFFFFFFF AND GT DUP1 ISZERO PUSH2 0x1CDA JUMPI POP DUP9 DUP9 SWAP1 POP DUP7 PUSH12 0xFFFFFFFFFFFFFFFFFFFFFFFF AND LT JUMPDEST ISZERO PUSH2 0x1E45 JUMPI PUSH2 0x1D04 DUP6 DUP9 PUSH16 0xFFFFFFFFFFFFFFFFFFFFFFFFFFFFFFFF AND PUSH2 0x386E SWAP1 SWAP2 SWAP1 PUSH4 0xFFFFFFFF AND JUMP JUMPDEST DUP3 PUSH2 0x1D0F SWAP2 SWAP1 PUSH2 0x489E JUMP JUMPDEST SWAP2 POP DUP7 DUP5 PUSH1 0x40 ADD DUP2 DUP2 MLOAD PUSH2 0x1D23 SWAP2 SWAP1 PUSH2 0x44D3 JUMP JUMPDEST SWAP2 POP SWAP1 PUSH16 0xFFFFFFFFFFFFFFFFFFFFFFFFFFFFFFFF AND SWAP1 DUP2 PUSH16 0xFFFFFFFFFFFFFFFFFFFFFFFFFFFFFFFF AND DUP2 MSTORE POP POP DUP7 PUSH16 0xFFFFFFFFFFFFFFFFFFFFFFFFFFFFFFFF AND DUP2 PUSH2 0x1D6E SWAP2 SWAP1 PUSH2 0x489E JUMP JUMPDEST SWAP1 POP DUP4 PUSH1 0x2 PUSH1 0x0 DUP8 DUP2 MSTORE PUSH1 0x20 ADD SWAP1 DUP2 MSTORE PUSH1 0x20 ADD PUSH1 0x0 KECCAK256 PUSH1 0x0 DUP3 ADD MLOAD DUP2 PUSH1 0x0 ADD PUSH1 0x0 PUSH2 0x100 EXP DUP2 SLOAD DUP2 PUSH16 0xFFFFFFFFFFFFFFFFFFFFFFFFFFFFFFFF MUL NOT AND SWAP1 DUP4 PUSH16 0xFFFFFFFFFFFFFFFFFFFFFFFFFFFFFFFF AND MUL OR SWAP1 SSTORE POP PUSH1 0x20 DUP3 ADD MLOAD DUP2 PUSH1 0x0 ADD PUSH1 0x10 PUSH2 0x100 EXP DUP2 SLOAD DUP2 PUSH16 0xFFFFFFFFFFFFFFFFFFFFFFFFFFFFFFFF MUL NOT AND SWAP1 DUP4 PUSH16 0xFFFFFFFFFFFFFFFFFFFFFFFFFFFFFFFF AND MUL OR SWAP1 SSTORE POP PUSH1 0x40 DUP3 ADD MLOAD DUP2 PUSH1 0x1 ADD PUSH1 0x0 PUSH2 0x100 EXP DUP2 SLOAD DUP2 PUSH16 0xFFFFFFFFFFFFFFFFFFFFFFFFFFFFFFFF MUL NOT AND SWAP1 DUP4 PUSH16 0xFFFFFFFFFFFFFFFFFFFFFFFFFFFFFFFF AND MUL OR SWAP1 SSTORE POP SWAP1 POP POP JUMPDEST PUSH32 0x0 PUSH20 0xFFFFFFFFFFFFFFFFFFFFFFFFFFFFFFFFFFFFFFFF AND PUSH4 0x23B872DD CALLER ADDRESS PUSH2 0x1EEC PUSH5 0x2540BE400 PUSH2 0x1EDE PUSH1 0x64 PUSH2 0x1ED0 PUSH32 0x0 PUSH1 0xA PUSH2 0x1EC1 SWAP2 SWAP1 PUSH2 0x46FA JUMP JUMPDEST DUP12 PUSH2 0x386E SWAP1 SWAP2 SWAP1 PUSH4 0xFFFFFFFF AND JUMP JUMPDEST PUSH2 0x3884 SWAP1 SWAP2 SWAP1 PUSH4 0xFFFFFFFF AND JUMP JUMPDEST PUSH2 0x3884 SWAP1 SWAP2 SWAP1 PUSH4 0xFFFFFFFF AND JUMP JUMPDEST PUSH1 0x40 MLOAD DUP5 PUSH4 0xFFFFFFFF AND PUSH1 0xE0 SHL DUP2 MSTORE PUSH1 0x4 ADD PUSH2 0x1F0A SWAP4 SWAP3 SWAP2 SWAP1 PUSH2 0x4912 JUMP JUMPDEST PUSH1 0x20 PUSH1 0x40 MLOAD DUP1 DUP4 SUB DUP2 PUSH1 0x0 DUP8 GAS CALL ISZERO DUP1 ISZERO PUSH2 0x1F29 JUMPI RETURNDATASIZE PUSH1 0x0 DUP1 RETURNDATACOPY RETURNDATASIZE PUSH1 0x0 REVERT JUMPDEST POP POP POP POP PUSH1 0x40 MLOAD RETURNDATASIZE PUSH1 0x1F NOT PUSH1 0x1F DUP3 ADD AND DUP3 ADD DUP1 PUSH1 0x40 MSTORE POP DUP2 ADD SWAP1 PUSH2 0x1F4D SWAP2 SWAP1 PUSH2 0x4783 JUMP JUMPDEST POP PUSH32 0x0 PUSH20 0xFFFFFFFFFFFFFFFFFFFFFFFFFFFFFFFFFFFFFFFF AND PUSH4 0xA9059CBB CALLER PUSH2 0x1FE1 PUSH5 0x2540BE400 PUSH2 0x1FD3 PUSH32 0x0 PUSH1 0xA PUSH2 0x1FC4 SWAP2 SWAP1 PUSH2 0x46FA JUMP JUMPDEST DUP8 PUSH2 0x386E SWAP1 SWAP2 SWAP1 PUSH4 0xFFFFFFFF AND JUMP JUMPDEST PUSH2 0x3884 SWAP1 SWAP2 SWAP1 PUSH4 0xFFFFFFFF AND JUMP JUMPDEST PUSH1 0x40 MLOAD DUP4 PUSH4 0xFFFFFFFF AND PUSH1 0xE0 SHL DUP2 MSTORE PUSH1 0x4 ADD PUSH2 0x1FFE SWAP3 SWAP2 SWAP1 PUSH2 0x4745 JUMP JUMPDEST PUSH1 0x20 PUSH1 0x40 MLOAD DUP1 DUP4 SUB DUP2 PUSH1 0x0 DUP8 GAS CALL ISZERO DUP1 ISZERO PUSH2 0x201D JUMPI RETURNDATASIZE PUSH1 0x0 DUP1 RETURNDATACOPY RETURNDATASIZE PUSH1 0x0 REVERT JUMPDEST POP POP POP POP PUSH1 0x40 MLOAD RETURNDATASIZE PUSH1 0x1F NOT PUSH1 0x1F DUP3 ADD AND DUP3 ADD DUP1 PUSH1 0x40 MSTORE POP DUP2 ADD SWAP1 PUSH2 0x2041 SWAP2 SWAP1 PUSH2 0x4783 JUMP JUMPDEST POP POP POP POP POP POP POP POP POP POP JUMP JUMPDEST PUSH1 0x0 PUSH1 0x3 SLOAD SWAP1 POP PUSH1 0x1 DUP2 PUSH2 0x2061 SWAP2 SWAP1 PUSH2 0x489E JUMP JUMPDEST PUSH1 0x3 DUP2 SWAP1 SSTORE POP PUSH1 0x0 PUSH1 0x1 PUSH1 0x0 DUP6 PUSH12 0xFFFFFFFFFFFFFFFFFFFFFFFF AND DUP2 MSTORE PUSH1 0x20 ADD SWAP1 DUP2 MSTORE PUSH1 0x20 ADD PUSH1 0x0 KECCAK256 SWAP1 POP PUSH1 0x0 PUSH2 0x20A8 DUP3 DUP7 DUP7 PUSH1 0x1 DUP8 PUSH2 0x20A1 SWAP2 SWAP1 PUSH2 0x489E JUMP JUMPDEST PUSH1 0x1 PUSH2 0x389A JUMP JUMPDEST SWAP1 POP PUSH32 0x0 PUSH20 0xFFFFFFFFFFFFFFFFFFFFFFFFFFFFFFFFFFFFFFFF AND PUSH4 0x23B872DD CALLER ADDRESS PUSH5 0x2540BE400 PUSH1 0x64 PUSH32 0x0 PUSH1 0xA PUSH2 0x211D SWAP2 SWAP1 PUSH2 0x46FA JUMP JUMPDEST DUP12 PUSH12 0xFFFFFFFFFFFFFFFFFFFFFFFF AND DUP12 PUSH2 0x2137 SWAP2 SWAP1 PUSH2 0x4B20 JUMP JUMPDEST PUSH16 0xFFFFFFFFFFFFFFFFFFFFFFFFFFFFFFFF AND PUSH2 0x2153 SWAP2 SWAP1 PUSH2 0x4A47 JUMP JUMPDEST PUSH2 0x215D SWAP2 SWAP1 PUSH2 0x4AB8 JUMP JUMPDEST PUSH2 0x2167 SWAP2 SWAP1 PUSH2 0x4AB8 JUMP JUMPDEST PUSH1 0x40 MLOAD DUP5 PUSH4 0xFFFFFFFF AND PUSH1 0xE0 SHL DUP2 MSTORE PUSH1 0x4 ADD PUSH2 0x2185 SWAP4 SWAP3 SWAP2 SWAP1 PUSH2 0x4912 JUMP JUMPDEST PUSH1 0x20 PUSH1 0x40 MLOAD DUP1 DUP4 SUB DUP2 PUSH1 0x0 DUP8 GAS CALL ISZERO DUP1 ISZERO PUSH2 0x21A4 JUMPI RETURNDATASIZE PUSH1 0x0 DUP1 RETURNDATACOPY RETURNDATASIZE PUSH1 0x0 REVERT JUMPDEST POP POP POP POP PUSH1 0x40 MLOAD RETURNDATASIZE PUSH1 0x1F NOT PUSH1 0x1F DUP3 ADD AND DUP3 ADD DUP1 PUSH1 0x40 MSTORE POP DUP2 ADD SWAP1 PUSH2 0x21C8 SWAP2 SWAP1 PUSH2 0x4783 JUMP JUMPDEST POP PUSH32 0x3BB89CBF97283FDA44CD1B331BD60E5B8BBD1A72C4AE6ACAFC9B85DA0A8EF64F DUP4 CALLER DUP8 DUP8 DUP6 PUSH1 0x1 PUSH1 0x40 MLOAD PUSH2 0x2203 SWAP7 SWAP6 SWAP5 SWAP4 SWAP3 SWAP2 SWAP1 PUSH2 0x4B5D JUMP JUMPDEST PUSH1 0x40 MLOAD DUP1 SWAP2 SUB SWAP1 LOG1 POP POP POP POP POP JUMP JUMPDEST PUSH1 0x3 SLOAD DUP2 JUMP JUMPDEST DUP1 MLOAD DUP3 MLOAD EQ PUSH2 0x225C JUMPI PUSH1 0x40 MLOAD PUSH32 0x8C379A000000000000000000000000000000000000000000000000000000000 DUP2 MSTORE PUSH1 0x4 ADD PUSH2 0x2253 SWAP1 PUSH2 0x4C30 JUMP JUMPDEST PUSH1 0x40 MLOAD DUP1 SWAP2 SUB SWAP1 REVERT JUMPDEST PUSH1 0x0 JUMPDEST DUP3 MLOAD DUP2 LT ISZERO PUSH2 0x231C JUMPI ADDRESS PUSH20 0xFFFFFFFFFFFFFFFFFFFFFFFFFFFFFFFFFFFFFFFF AND PUSH4 0xEB2E70C8 DUP5 DUP4 DUP2 MLOAD DUP2 LT PUSH2 0x2297 JUMPI PUSH2 0x2296 PUSH2 0x4842 JUMP JUMPDEST JUMPDEST PUSH1 0x20 MUL PUSH1 0x20 ADD ADD MLOAD DUP5 DUP5 DUP2 MLOAD DUP2 LT PUSH2 0x22B2 JUMPI PUSH2 0x22B1 PUSH2 0x4842 JUMP JUMPDEST JUMPDEST PUSH1 0x20 MUL PUSH1 0x20 ADD ADD MLOAD PUSH1 0x40 MLOAD DUP4 PUSH4 0xFFFFFFFF AND PUSH1 0xE0 SHL DUP2 MSTORE PUSH1 0x4 ADD PUSH2 0x22D7 SWAP3 SWAP2 SWAP1 PUSH2 0x4C50 JUMP JUMPDEST PUSH1 0x0 PUSH1 0x40 MLOAD DUP1 DUP4 SUB DUP2 PUSH1 0x0 DUP8 DUP1 EXTCODESIZE ISZERO DUP1 ISZERO PUSH2 0x22F1 JUMPI PUSH1 0x0 DUP1 REVERT JUMPDEST POP GAS CALL ISZERO DUP1 ISZERO PUSH2 0x2305 JUMPI RETURNDATASIZE PUSH1 0x0 DUP1 RETURNDATACOPY RETURNDATASIZE PUSH1 0x0 REVERT JUMPDEST POP POP POP POP DUP1 DUP1 PUSH2 0x2314 SWAP1 PUSH2 0x4C79 JUMP JUMPDEST SWAP2 POP POP PUSH2 0x225F JUMP JUMPDEST POP POP POP JUMP JUMPDEST PUSH1 0x0 JUMPDEST DUP5 DUP5 SWAP1 POP DUP2 LT ISZERO PUSH2 0x27E1 JUMPI PUSH1 0x0 DUP1 PUSH1 0x0 DUP8 DUP8 DUP6 DUP2 DUP2 LT PUSH2 0x2347 JUMPI PUSH2 0x2346 PUSH2 0x4842 JUMP JUMPDEST JUMPDEST SWAP1 POP PUSH1 0x20 MUL ADD CALLDATALOAD DUP2 MSTORE PUSH1 0x20 ADD SWAP1 DUP2 MSTORE PUSH1 0x20 ADD PUSH1 0x0 KECCAK256 SWAP1 POP DUP1 PUSH1 0x0 ADD PUSH1 0x0 SWAP1 SLOAD SWAP1 PUSH2 0x100 EXP SWAP1 DIV PUSH20 0xFFFFFFFFFFFFFFFFFFFFFFFFFFFFFFFFFFFFFFFF AND PUSH20 0xFFFFFFFFFFFFFFFFFFFFFFFFFFFFFFFFFFFFFFFF AND CALLER PUSH20 0xFFFFFFFFFFFFFFFFFFFFFFFFFFFFFFFFFFFFFFFF AND EQ PUSH2 0x23F0 JUMPI PUSH1 0x40 MLOAD PUSH32 0x8C379A000000000000000000000000000000000000000000000000000000000 DUP2 MSTORE PUSH1 0x4 ADD PUSH2 0x23E7 SWAP1 PUSH2 0x4D33 JUMP JUMPDEST PUSH1 0x40 MLOAD DUP1 SWAP2 SUB SWAP1 REVERT JUMPDEST PUSH1 0x0 DUP2 PUSH1 0x2 ADD PUSH1 0x0 SWAP1 SLOAD SWAP1 PUSH2 0x100 EXP SWAP1 DIV PUSH1 0xFF AND PUSH2 0x2455 JUMPI PUSH1 0x2 PUSH1 0x0 DUP7 DUP7 DUP7 DUP2 DUP2 LT PUSH2 0x241F JUMPI PUSH2 0x241E PUSH2 0x4842 JUMP JUMPDEST JUMPDEST SWAP1 POP PUSH1 0x20 MUL ADD PUSH1 0x20 DUP2 ADD SWAP1 PUSH2 0x2434 SWAP2 SWAP1 PUSH2 0x4871 JUMP JUMPDEST PUSH12 0xFFFFFFFFFFFFFFFFFFFFFFFF AND DUP2 MSTORE PUSH1 0x20 ADD SWAP1 DUP2 MSTORE PUSH1 0x20 ADD PUSH1 0x0 KECCAK256 PUSH2 0x249E JUMP JUMPDEST PUSH1 0x1 PUSH1 0x0 DUP7 DUP7 DUP7 DUP2 DUP2 LT PUSH2 0x246C JUMPI PUSH2 0x246B PUSH2 0x4842 JUMP JUMPDEST JUMPDEST SWAP1 POP PUSH1 0x20 MUL ADD PUSH1 0x20 DUP2 ADD SWAP1 PUSH2 0x2481 SWAP2 SWAP1 PUSH2 0x4871 JUMP JUMPDEST PUSH12 0xFFFFFFFFFFFFFFFFFFFFFFFF AND DUP2 MSTORE PUSH1 0x20 ADD SWAP1 DUP2 MSTORE PUSH1 0x20 ADD PUSH1 0x0 KECCAK256 JUMPDEST SWAP1 POP PUSH1 0x0 DUP3 PUSH1 0x2 ADD PUSH1 0x0 SWAP1 SLOAD SWAP1 PUSH2 0x100 EXP SWAP1 DIV PUSH1 0xFF AND PUSH2 0x24FA JUMPI PUSH1 0x2 PUSH1 0x0 DUP5 PUSH1 0x0 ADD PUSH1 0x14 SWAP1 SLOAD SWAP1 PUSH2 0x100 EXP SWAP1 DIV PUSH12 0xFFFFFFFFFFFFFFFFFFFFFFFF AND PUSH12 0xFFFFFFFFFFFFFFFFFFFFFFFF AND DUP2 MSTORE PUSH1 0x20 ADD SWAP1 DUP2 MSTORE PUSH1 0x20 ADD PUSH1 0x0 KECCAK256 PUSH2 0x2538 JUMP JUMPDEST PUSH1 0x1 PUSH1 0x0 DUP5 PUSH1 0x0 ADD PUSH1 0x14 SWAP1 SLOAD SWAP1 PUSH2 0x100 EXP SWAP1 DIV PUSH12 0xFFFFFFFFFFFFFFFFFFFFFFFF AND PUSH12 0xFFFFFFFFFFFFFFFFFFFFFFFF AND DUP2 MSTORE PUSH1 0x20 ADD SWAP1 DUP2 MSTORE PUSH1 0x20 ADD PUSH1 0x0 KECCAK256 JUMPDEST SWAP1 POP DUP3 PUSH1 0x1 ADD PUSH1 0x0 SWAP1 SLOAD SWAP1 PUSH2 0x100 EXP SWAP1 DIV PUSH16 0xFFFFFFFFFFFFFFFFFFFFFFFFFFFFFFFF AND DUP2 PUSH1 0x0 ADD PUSH1 0x0 DUP3 DUP3 DUP3 SWAP1 SLOAD SWAP1 PUSH2 0x100 EXP SWAP1 DIV PUSH16 0xFFFFFFFFFFFFFFFFFFFFFFFFFFFFFFFF AND PUSH2 0x2589 SWAP2 SWAP1 PUSH2 0x44D3 JUMP JUMPDEST SWAP3 POP PUSH2 0x100 EXP DUP2 SLOAD DUP2 PUSH16 0xFFFFFFFFFFFFFFFFFFFFFFFFFFFFFFFF MUL NOT AND SWAP1 DUP4 PUSH16 0xFFFFFFFFFFFFFFFFFFFFFFFFFFFFFFFF AND MUL OR SWAP1 SSTORE POP DUP2 PUSH1 0x0 ADD PUSH1 0x10 SWAP1 SLOAD SWAP1 PUSH2 0x100 EXP SWAP1 DIV PUSH16 0xFFFFFFFFFFFFFFFFFFFFFFFFFFFFFFFF AND DUP4 PUSH1 0x1 ADD PUSH1 0x10 PUSH2 0x100 EXP DUP2 SLOAD DUP2 PUSH16 0xFFFFFFFFFFFFFFFFFFFFFFFFFFFFFFFF MUL NOT AND SWAP1 DUP4 PUSH16 0xFFFFFFFFFFFFFFFFFFFFFFFFFFFFFFFF AND MUL OR SWAP1 SSTORE POP DUP6 DUP6 DUP6 DUP2 DUP2 LT PUSH2 0x262D JUMPI PUSH2 0x262C PUSH2 0x4842 JUMP JUMPDEST JUMPDEST SWAP1 POP PUSH1 0x20 MUL ADD PUSH1 0x20 DUP2 ADD SWAP1 PUSH2 0x2642 SWAP2 SWAP1 PUSH2 0x4871 JUMP JUMPDEST DUP4 PUSH1 0x0 ADD PUSH1 0x14 PUSH2 0x100 EXP DUP2 SLOAD DUP2 PUSH12 0xFFFFFFFFFFFFFFFFFFFFFFFF MUL NOT AND SWAP1 DUP4 PUSH12 0xFFFFFFFFFFFFFFFFFFFFFFFF AND MUL OR SWAP1 SSTORE POP DUP3 PUSH1 0x1 ADD PUSH1 0x0 SWAP1 SLOAD SWAP1 PUSH2 0x100 EXP SWAP1 DIV PUSH16 0xFFFFFFFFFFFFFFFFFFFFFFFFFFFFFFFF AND DUP3 PUSH1 0x0 ADD PUSH1 0x10 DUP3 DUP3 DUP3 SWAP1 SLOAD SWAP1 PUSH2 0x100 EXP SWAP1 DIV PUSH16 0xFFFFFFFFFFFFFFFFFFFFFFFFFFFFFFFF AND PUSH2 0x26C3 SWAP2 SWAP1 PUSH2 0x44D3 JUMP JUMPDEST SWAP3 POP PUSH2 0x100 EXP DUP2 SLOAD DUP2 PUSH16 0xFFFFFFFFFFFFFFFFFFFFFFFFFFFFFFFF MUL NOT AND SWAP1 DUP4 PUSH16 0xFFFFFFFFFFFFFFFFFFFFFFFFFFFFFFFF AND MUL OR SWAP1 SSTORE POP PUSH32 0x88C56B5B4EBEBB79641522127475A6A394FE9F7F9DA5279FCDEAD7A28D298CAB DUP9 DUP9 DUP7 DUP2 DUP2 LT PUSH2 0x272D JUMPI PUSH2 0x272C PUSH2 0x4842 JUMP JUMPDEST JUMPDEST SWAP1 POP PUSH1 0x20 MUL ADD CALLDATALOAD CALLER DUP9 DUP9 DUP9 DUP2 DUP2 LT PUSH2 0x2748 JUMPI PUSH2 0x2747 PUSH2 0x4842 JUMP JUMPDEST JUMPDEST SWAP1 POP PUSH1 0x20 MUL ADD PUSH1 0x20 DUP2 ADD SWAP1 PUSH2 0x275D SWAP2 SWAP1 PUSH2 0x4871 JUMP JUMPDEST DUP7 PUSH1 0x1 ADD PUSH1 0x0 SWAP1 SLOAD SWAP1 PUSH2 0x100 EXP SWAP1 DIV PUSH16 0xFFFFFFFFFFFFFFFFFFFFFFFFFFFFFFFF AND DUP8 PUSH1 0x1 ADD PUSH1 0x10 SWAP1 SLOAD SWAP1 PUSH2 0x100 EXP SWAP1 DIV PUSH16 0xFFFFFFFFFFFFFFFFFFFFFFFFFFFFFFFF AND DUP9 PUSH1 0x2 ADD PUSH1 0x0 SWAP1 SLOAD SWAP1 PUSH2 0x100 EXP SWAP1 DIV PUSH1 0xFF AND PUSH1 0x40 MLOAD PUSH2 0x27C3 SWAP7 SWAP6 SWAP5 SWAP4 SWAP3 SWAP2 SWAP1 PUSH2 0x4B5D JUMP JUMPDEST PUSH1 0x40 MLOAD DUP1 SWAP2 SUB SWAP1 LOG1 POP POP POP DUP1 DUP1 PUSH2 0x27D9 SWAP1 PUSH2 0x4C79 JUMP JUMPDEST SWAP2 POP POP PUSH2 0x2324 JUMP JUMPDEST POP POP POP POP POP JUMP JUMPDEST PUSH1 0x0 DUP1 PUSH1 0x0 DUP4 DUP2 MSTORE PUSH1 0x20 ADD SWAP1 DUP2 MSTORE PUSH1 0x20 ADD PUSH1 0x0 KECCAK256 SWAP1 POP PUSH1 0x0 PUSH20 0xFFFFFFFFFFFFFFFFFFFFFFFFFFFFFFFFFFFFFFFF AND DUP2 PUSH1 0x0 ADD PUSH1 0x0 SWAP1 SLOAD SWAP1 PUSH2 0x100 EXP SWAP1 DIV PUSH20 0xFFFFFFFFFFFFFFFFFFFFFFFFFFFFFFFFFFFFFFFF AND PUSH20 0xFFFFFFFFFFFFFFFFFFFFFFFFFFFFFFFFFFFFFFFF AND SUB PUSH2 0x2891 JUMPI PUSH1 0x40 MLOAD PUSH32 0x8C379A000000000000000000000000000000000000000000000000000000000 DUP2 MSTORE PUSH1 0x4 ADD PUSH2 0x2888 SWAP1 PUSH2 0x43F2 JUMP JUMPDEST PUSH1 0x40 MLOAD DUP1 SWAP2 SUB SWAP1 REVERT JUMPDEST DUP1 PUSH1 0x0 ADD PUSH1 0x0 SWAP1 SLOAD SWAP1 PUSH2 0x100 EXP SWAP1 DIV PUSH20 0xFFFFFFFFFFFFFFFFFFFFFFFFFFFFFFFFFFFFFFFF AND PUSH20 0xFFFFFFFFFFFFFFFFFFFFFFFFFFFFFFFFFFFFFFFF AND CALLER PUSH20 0xFFFFFFFFFFFFFFFFFFFFFFFFFFFFFFFFFFFFFFFF AND EQ PUSH2 0x2923 JUMPI PUSH1 0x40 MLOAD PUSH32 0x8C379A000000000000000000000000000000000000000000000000000000000 DUP2 MSTORE PUSH1 0x4 ADD PUSH2 0x291A SWAP1 PUSH2 0x4484 JUMP JUMPDEST PUSH1 0x40 MLOAD DUP1 SWAP2 SUB SWAP1 REVERT JUMPDEST PUSH1 0x0 PUSH1 0x1 PUSH1 0x0 DUP4 PUSH1 0x0 ADD PUSH1 0x14 SWAP1 SLOAD SWAP1 PUSH2 0x100 EXP SWAP1 DIV PUSH12 0xFFFFFFFFFFFFFFFFFFFFFFFF AND PUSH12 0xFFFFFFFFFFFFFFFFFFFFFFFF AND DUP2 MSTORE PUSH1 0x20 ADD SWAP1 DUP2 MSTORE PUSH1 0x20 ADD PUSH1 0x0 KECCAK256 SWAP1 POP DUP1 PUSH1 0x0 ADD PUSH1 0x0 SWAP1 SLOAD SWAP1 PUSH2 0x100 EXP SWAP1 DIV PUSH16 0xFFFFFFFFFFFFFFFFFFFFFFFFFFFFFFFF AND DUP2 PUSH1 0x1 ADD PUSH1 0x0 SWAP1 SLOAD SWAP1 PUSH2 0x100 EXP SWAP1 DIV PUSH16 0xFFFFFFFFFFFFFFFFFFFFFFFFFFFFFFFF AND PUSH2 0x29B0 SWAP2 SWAP1 PUSH2 0x44D3 JUMP JUMPDEST PUSH16 0xFFFFFFFFFFFFFFFFFFFFFFFFFFFFFFFF AND DUP3 PUSH1 0x1 ADD PUSH1 0x10 SWAP1 SLOAD SWAP1 PUSH2 0x100 EXP SWAP1 DIV PUSH16 0xFFFFFFFFFFFFFFFFFFFFFFFFFFFFFFFF AND PUSH16 0xFFFFFFFFFFFFFFFFFFFFFFFFFFFFFFFF AND LT PUSH2 0x2A35 JUMPI PUSH1 0x40 MLOAD PUSH32 0x8C379A000000000000000000000000000000000000000000000000000000000 DUP2 MSTORE PUSH1 0x4 ADD PUSH2 0x2A2C SWAP1 PUSH2 0x4563 JUMP JUMPDEST PUSH1 0x40 MLOAD DUP1 SWAP2 SUB SWAP1 REVERT JUMPDEST PUSH1 0x0 DUP3 PUSH1 0x1 ADD PUSH1 0x10 SWAP1 SLOAD SWAP1 PUSH2 0x100 EXP SWAP1 DIV PUSH16 0xFFFFFFFFFFFFFFFFFFFFFFFFFFFFFFFF AND DUP3 PUSH1 0x0 ADD PUSH1 0x0 SWAP1 SLOAD SWAP1 PUSH2 0x100 EXP SWAP1 DIV PUSH16 0xFFFFFFFFFFFFFFFFFFFFFFFFFFFFFFFF AND DUP4 PUSH1 0x1 ADD PUSH1 0x0 SWAP1 SLOAD SWAP1 PUSH2 0x100 EXP SWAP1 DIV PUSH16 0xFFFFFFFFFFFFFFFFFFFFFFFFFFFFFFFF AND PUSH2 0x2AA4 SWAP2 SWAP1 PUSH2 0x44D3 JUMP JUMPDEST PUSH2 0x2AAE SWAP2 SWAP1 PUSH2 0x4583 JUMP JUMPDEST SWAP1 POP PUSH1 0x0 DUP4 PUSH1 0x1 ADD PUSH1 0x0 SWAP1 SLOAD SWAP1 PUSH2 0x100 EXP SWAP1 DIV PUSH16 0xFFFFFFFFFFFFFFFFFFFFFFFFFFFFFFFF AND PUSH16 0xFFFFFFFFFFFFFFFFFFFFFFFFFFFFFFFF AND DUP3 PUSH16 0xFFFFFFFFFFFFFFFFFFFFFFFFFFFFFFFF AND GT PUSH2 0x2B03 JUMPI DUP2 PUSH2 0x2B25 JUMP JUMPDEST DUP4 PUSH1 0x1 ADD PUSH1 0x0 SWAP1 SLOAD SWAP1 PUSH2 0x100 EXP SWAP1 DIV PUSH16 0xFFFFFFFFFFFFFFFFFFFFFFFFFFFFFFFF AND JUMPDEST SWAP1 POP DUP1 DUP5 PUSH1 0x1 ADD PUSH1 0x0 DUP3 DUP3 DUP3 SWAP1 SLOAD SWAP1 PUSH2 0x100 EXP SWAP1 DIV PUSH16 0xFFFFFFFFFFFFFFFFFFFFFFFFFFFFFFFF AND PUSH2 0x2B56 SWAP2 SWAP1 PUSH2 0x4583 JUMP JUMPDEST SWAP3 POP PUSH2 0x100 EXP DUP2 SLOAD DUP2 PUSH16 0xFFFFFFFFFFFFFFFFFFFFFFFFFFFFFFFF MUL NOT AND SWAP1 DUP4 PUSH16 0xFFFFFFFFFFFFFFFFFFFFFFFFFFFFFFFF AND MUL OR SWAP1 SSTORE POP DUP1 DUP4 PUSH1 0x0 ADD PUSH1 0x0 DUP3 DUP3 DUP3 SWAP1 SLOAD SWAP1 PUSH2 0x100 EXP SWAP1 DIV PUSH16 0xFFFFFFFFFFFFFFFFFFFFFFFFFFFFFFFF AND PUSH2 0x2BBB SWAP2 SWAP1 PUSH2 0x44D3 JUMP JUMPDEST SWAP3 POP PUSH2 0x100 EXP DUP2 SLOAD DUP2 PUSH16 0xFFFFFFFFFFFFFFFFFFFFFFFFFFFFFFFF MUL NOT AND SWAP1 DUP4 PUSH16 0xFFFFFFFFFFFFFFFFFFFFFFFFFFFFFFFF AND MUL OR SWAP1 SSTORE POP DUP1 DUP4 PUSH1 0x1 ADD PUSH1 0x0 DUP3 DUP3 DUP3 SWAP1 SLOAD SWAP1 PUSH2 0x100 EXP SWAP1 DIV PUSH16 0xFFFFFFFFFFFFFFFFFFFFFFFFFFFFFFFF AND PUSH2 0x2C20 SWAP2 SWAP1 PUSH2 0x4583 JUMP JUMPDEST SWAP3 POP PUSH2 0x100 EXP DUP2 SLOAD DUP2 PUSH16 0xFFFFFFFFFFFFFFFFFFFFFFFFFFFFFFFF MUL NOT AND SWAP1 DUP4 PUSH16 0xFFFFFFFFFFFFFFFFFFFFFFFFFFFFFFFF AND MUL OR SWAP1 SSTORE POP PUSH32 0x0 PUSH20 0xFFFFFFFFFFFFFFFFFFFFFFFFFFFFFFFFFFFFFFFF AND PUSH4 0xA9059CBB DUP6 PUSH1 0x0 ADD PUSH1 0x0 SWAP1 SLOAD SWAP1 PUSH2 0x100 EXP SWAP1 DIV PUSH20 0xFFFFFFFFFFFFFFFFFFFFFFFFFFFFFFFFFFFFFFFF AND PUSH2 0x2D1F PUSH5 0x2540BE400 PUSH2 0x2D11 PUSH32 0x0 PUSH1 0xA PUSH2 0x2CF0 SWAP2 SWAP1 PUSH2 0x46FA JUMP JUMPDEST DUP8 PUSH16 0xFFFFFFFFFFFFFFFFFFFFFFFFFFFFFFFF AND PUSH2 0x386E SWAP1 SWAP2 SWAP1 PUSH4 0xFFFFFFFF AND JUMP JUMPDEST PUSH2 0x3884 SWAP1 SWAP2 SWAP1 PUSH4 0xFFFFFFFF AND JUMP JUMPDEST PUSH1 0x40 MLOAD DUP4 PUSH4 0xFFFFFFFF AND PUSH1 0xE0 SHL DUP2 MSTORE PUSH1 0x4 ADD PUSH2 0x2D3C SWAP3 SWAP2 SWAP1 PUSH2 0x4745 JUMP JUMPDEST PUSH1 0x20 PUSH1 0x40 MLOAD DUP1 DUP4 SUB DUP2 PUSH1 0x0 DUP8 GAS CALL ISZERO DUP1 ISZERO PUSH2 0x2D5B JUMPI RETURNDATASIZE PUSH1 0x0 DUP1 RETURNDATACOPY RETURNDATASIZE PUSH1 0x0 REVERT JUMPDEST POP POP POP POP PUSH1 0x40 MLOAD RETURNDATASIZE PUSH1 0x1F NOT PUSH1 0x1F DUP3 ADD AND DUP3 ADD DUP1 PUSH1 0x40 MSTORE POP DUP2 ADD SWAP1 PUSH2 0x2D7F SWAP2 SWAP1 PUSH2 0x4783 JUMP JUMPDEST POP PUSH1 0x0 DUP5 PUSH1 0x1 ADD PUSH1 0x0 SWAP1 SLOAD SWAP1 PUSH2 0x100 EXP SWAP1 DIV PUSH16 0xFFFFFFFFFFFFFFFFFFFFFFFFFFFFFFFF AND PUSH16 0xFFFFFFFFFFFFFFFFFFFFFFFFFFFFFFFF AND SUB PUSH2 0x2E70 JUMPI PUSH1 0x0 DUP1 DUP7 DUP2 MSTORE PUSH1 0x20 ADD SWAP1 DUP2 MSTORE PUSH1 0x20 ADD PUSH1 0x0 KECCAK256 PUSH1 0x0 DUP1 DUP3 ADD PUSH1 0x0 PUSH2 0x100 EXP DUP2 SLOAD SWAP1 PUSH20 0xFFFFFFFFFFFFFFFFFFFFFFFFFFFFFFFFFFFFFFFF MUL NOT AND SWAP1 SSTORE PUSH1 0x0 DUP3 ADD PUSH1 0x14 PUSH2 0x100 EXP DUP2 SLOAD SWAP1 PUSH12 0xFFFFFFFFFFFFFFFFFFFFFFFF MUL NOT AND SWAP1 SSTORE PUSH1 0x1 DUP3 ADD PUSH1 0x0 PUSH2 0x100 EXP DUP2 SLOAD SWAP1 PUSH16 0xFFFFFFFFFFFFFFFFFFFFFFFFFFFFFFFF MUL NOT AND SWAP1 SSTORE PUSH1 0x1 DUP3 ADD PUSH1 0x10 PUSH2 0x100 EXP DUP2 SLOAD SWAP1 PUSH16 0xFFFFFFFFFFFFFFFFFFFFFFFFFFFFFFFF MUL NOT AND SWAP1 SSTORE PUSH1 0x2 DUP3 ADD PUSH1 0x0 PUSH2 0x100 EXP DUP2 SLOAD SWAP1 PUSH1 0xFF MUL NOT AND SWAP1 SSTORE POP POP JUMPDEST POP POP POP POP POP JUMP JUMPDEST PUSH1 0x0 PUSH1 0x20 MSTORE DUP1 PUSH1 0x0 MSTORE PUSH1 0x40 PUSH1 0x0 KECCAK256 PUSH1 0x0 SWAP2 POP SWAP1 POP DUP1 PUSH1 0x0 ADD PUSH1 0x0 SWAP1 SLOAD SWAP1 PUSH2 0x100 EXP SWAP1 DIV PUSH20 0xFFFFFFFFFFFFFFFFFFFFFFFFFFFFFFFFFFFFFFFF AND SWAP1 DUP1 PUSH1 0x0 ADD PUSH1 0x14 SWAP1 SLOAD SWAP1 PUSH2 0x100 EXP SWAP1 DIV PUSH12 0xFFFFFFFFFFFFFFFFFFFFFFFF AND SWAP1 DUP1 PUSH1 0x1 ADD PUSH1 0x0 SWAP1 SLOAD SWAP1 PUSH2 0x100 EXP SWAP1 DIV PUSH16 0xFFFFFFFFFFFFFFFFFFFFFFFFFFFFFFFF AND SWAP1 DUP1 PUSH1 0x1 ADD PUSH1 0x10 SWAP1 SLOAD SWAP1 PUSH2 0x100 EXP SWAP1 DIV PUSH16 0xFFFFFFFFFFFFFFFFFFFFFFFFFFFFFFFF AND SWAP1 DUP1 PUSH1 0x2 ADD PUSH1 0x0 SWAP1 SLOAD SWAP1 PUSH2 0x100 EXP SWAP1 DIV PUSH1 0xFF AND SWAP1 POP DUP6 JUMP JUMPDEST DUP1 MLOAD DUP3 MLOAD EQ PUSH2 0x2F6E JUMPI PUSH1 0x40 MLOAD PUSH32 0x8C379A000000000000000000000000000000000000000000000000000000000 DUP2 MSTORE PUSH1 0x4 ADD PUSH2 0x2F65 SWAP1 PUSH2 0x4C30 JUMP JUMPDEST PUSH1 0x40 MLOAD DUP1 SWAP2 SUB SWAP1 REVERT JUMPDEST PUSH1 0x0 JUMPDEST DUP3 MLOAD DUP2 LT ISZERO PUSH2 0x302E JUMPI ADDRESS PUSH20 0xFFFFFFFFFFFFFFFFFFFFFFFFFFFFFFFFFFFFFFFF AND PUSH4 0x24B291DB DUP5 DUP4 DUP2 MLOAD DUP2 LT PUSH2 0x2FA9 JUMPI PUSH2 0x2FA8 PUSH2 0x4842 JUMP JUMPDEST JUMPDEST PUSH1 0x20 MUL PUSH1 0x20 ADD ADD MLOAD DUP5 DUP5 DUP2 MLOAD DUP2 LT PUSH2 0x2FC4 JUMPI PUSH2 0x2FC3 PUSH2 0x4842 JUMP JUMPDEST JUMPDEST PUSH1 0x20 MUL PUSH1 0x20 ADD ADD MLOAD PUSH1 0x40 MLOAD DUP4 PUSH4 0xFFFFFFFF AND PUSH1 0xE0 SHL DUP2 MSTORE PUSH1 0x4 ADD PUSH2 0x2FE9 SWAP3 SWAP2 SWAP1 PUSH2 0x4C50 JUMP JUMPDEST PUSH1 0x0 PUSH1 0x40 MLOAD DUP1 DUP4 SUB DUP2 PUSH1 0x0 DUP8 DUP1 EXTCODESIZE ISZERO DUP1 ISZERO PUSH2 0x3003 JUMPI PUSH1 0x0 DUP1 REVERT JUMPDEST POP GAS CALL ISZERO DUP1 ISZERO PUSH2 0x3017 JUMPI RETURNDATASIZE PUSH1 0x0 DUP1 RETURNDATACOPY RETURNDATASIZE PUSH1 0x0 REVERT JUMPDEST POP POP POP POP DUP1 DUP1 PUSH2 0x3026 SWAP1 PUSH2 0x4C79 JUMP JUMPDEST SWAP2 POP POP PUSH2 0x2F71 JUMP JUMPDEST POP POP POP JUMP JUMPDEST PUSH1 0x0 DUP1 PUSH1 0x0 DUP4 DUP2 MSTORE PUSH1 0x20 ADD SWAP1 DUP2 MSTORE PUSH1 0x20 ADD PUSH1 0x0 KECCAK256 PUSH1 0x40 MLOAD DUP1 PUSH1 0xA0 ADD PUSH1 0x40 MSTORE SWAP1 DUP2 PUSH1 0x0 DUP3 ADD PUSH1 0x0 SWAP1 SLOAD SWAP1 PUSH2 0x100 EXP SWAP1 DIV PUSH20 0xFFFFFFFFFFFFFFFFFFFFFFFFFFFFFFFFFFFFFFFF AND PUSH20 0xFFFFFFFFFFFFFFFFFFFFFFFFFFFFFFFFFFFFFFFF AND PUSH20 0xFFFFFFFFFFFFFFFFFFFFFFFFFFFFFFFFFFFFFFFF AND DUP2 MSTORE PUSH1 0x20 ADD PUSH1 0x0 DUP3 ADD PUSH1 0x14 SWAP1 SLOAD SWAP1 PUSH2 0x100 EXP SWAP1 DIV PUSH12 0xFFFFFFFFFFFFFFFFFFFFFFFF AND PUSH12 0xFFFFFFFFFFFFFFFFFFFFFFFF AND PUSH12 0xFFFFFFFFFFFFFFFFFFFFFFFF AND DUP2 MSTORE PUSH1 0x20 ADD PUSH1 0x1 DUP3 ADD PUSH1 0x0 SWAP1 SLOAD SWAP1 PUSH2 0x100 EXP SWAP1 DIV PUSH16 0xFFFFFFFFFFFFFFFFFFFFFFFFFFFFFFFF AND PUSH16 0xFFFFFFFFFFFFFFFFFFFFFFFFFFFFFFFF AND PUSH16 0xFFFFFFFFFFFFFFFFFFFFFFFFFFFFFFFF AND DUP2 MSTORE PUSH1 0x20 ADD PUSH1 0x1 DUP3 ADD PUSH1 0x10 SWAP1 SLOAD SWAP1 PUSH2 0x100 EXP SWAP1 DIV PUSH16 0xFFFFFFFFFFFFFFFFFFFFFFFFFFFFFFFF AND PUSH16 0xFFFFFFFFFFFFFFFFFFFFFFFFFFFFFFFF AND PUSH16 0xFFFFFFFFFFFFFFFFFFFFFFFFFFFFFFFF AND DUP2 MSTORE PUSH1 0x20 ADD PUSH1 0x2 DUP3 ADD PUSH1 0x0 SWAP1 SLOAD SWAP1 PUSH2 0x100 EXP SWAP1 DIV PUSH1 0xFF AND ISZERO ISZERO ISZERO ISZERO DUP2 MSTORE POP POP SWAP1 POP DUP1 PUSH1 0x80 ADD MLOAD PUSH2 0x31DB JUMPI PUSH1 0x40 MLOAD PUSH32 0x8C379A000000000000000000000000000000000000000000000000000000000 DUP2 MSTORE PUSH1 0x4 ADD PUSH2 0x31D2 SWAP1 PUSH2 0x4D9F JUMP JUMPDEST PUSH1 0x40 MLOAD DUP1 SWAP2 SUB SWAP1 REVERT JUMPDEST DUP1 PUSH1 0x0 ADD MLOAD PUSH20 0xFFFFFFFFFFFFFFFFFFFFFFFFFFFFFFFFFFFFFFFF AND CALLER PUSH20 0xFFFFFFFFFFFFFFFFFFFFFFFFFFFFFFFFFFFFFFFF AND EQ PUSH2 0x324D JUMPI PUSH1 0x40 MLOAD PUSH32 0x8C379A000000000000000000000000000000000000000000000000000000000 DUP2 MSTORE PUSH1 0x4 ADD PUSH2 0x3244 SWAP1 PUSH2 0x4A27 JUMP JUMPDEST PUSH1 0x40 MLOAD DUP1 SWAP2 SUB SWAP1 REVERT JUMPDEST DUP1 PUSH1 0x40 ADD MLOAD PUSH1 0x1 PUSH1 0x0 DUP4 PUSH1 0x20 ADD MLOAD PUSH12 0xFFFFFFFFFFFFFFFFFFFFFFFF AND DUP2 MSTORE PUSH1 0x20 ADD SWAP1 DUP2 MSTORE PUSH1 0x20 ADD PUSH1 0x0 KECCAK256 PUSH1 0x0 ADD PUSH1 0x0 DUP3 DUP3 DUP3 SWAP1 SLOAD SWAP1 PUSH2 0x100 EXP SWAP1 DIV PUSH16 0xFFFFFFFFFFFFFFFFFFFFFFFFFFFFFFFF AND PUSH2 0x32A4 SWAP2 SWAP1 PUSH2 0x44D3 JUMP JUMPDEST SWAP3 POP PUSH2 0x100 EXP DUP2 SLOAD DUP2 PUSH16 0xFFFFFFFFFFFFFFFFFFFFFFFFFFFFFFFF MUL NOT AND SWAP1 DUP4 PUSH16 0xFFFFFFFFFFFFFFFFFFFFFFFFFFFFFFFF AND MUL OR SWAP1 SSTORE POP PUSH1 0x0 DUP1 DUP4 DUP2 MSTORE PUSH1 0x20 ADD SWAP1 DUP2 MSTORE PUSH1 0x20 ADD PUSH1 0x0 KECCAK256 PUSH1 0x0 DUP1 DUP3 ADD PUSH1 0x0 PUSH2 0x100 EXP DUP2 SLOAD SWAP1 PUSH20 0xFFFFFFFFFFFFFFFFFFFFFFFFFFFFFFFFFFFFFFFF MUL NOT AND SWAP1 SSTORE PUSH1 0x0 DUP3 ADD PUSH1 0x14 PUSH2 0x100 EXP DUP2 SLOAD SWAP1 PUSH12 0xFFFFFFFFFFFFFFFFFFFFFFFF MUL NOT AND SWAP1 SSTORE PUSH1 0x1 DUP3 ADD PUSH1 0x0 PUSH2 0x100 EXP DUP2 SLOAD SWAP1 PUSH16 0xFFFFFFFFFFFFFFFFFFFFFFFFFFFFFFFF MUL NOT AND SWAP1 SSTORE PUSH1 0x1 DUP3 ADD PUSH1 0x10 PUSH2 0x100 EXP DUP2 SLOAD SWAP1 PUSH16 0xFFFFFFFFFFFFFFFFFFFFFFFFFFFFFFFF MUL NOT AND SWAP1 SSTORE PUSH1 0x2 DUP3 ADD PUSH1 0x0 PUSH2 0x100 EXP DUP2 SLOAD SWAP1 PUSH1 0xFF MUL NOT AND SWAP1 SSTORE POP POP PUSH32 0x0 PUSH20 0xFFFFFFFFFFFFFFFFFFFFFFFFFFFFFFFFFFFFFFFF AND PUSH4 0xA9059CBB DUP3 PUSH1 0x0 ADD MLOAD PUSH5 0x2540BE400 PUSH1 0x64 PUSH32 0x0 PUSH1 0xA PUSH2 0x3405 SWAP2 SWAP1 PUSH2 0x46FA JUMP JUMPDEST DUP7 PUSH1 0x20 ADD MLOAD PUSH12 0xFFFFFFFFFFFFFFFFFFFFFFFF AND DUP8 PUSH1 0x40 ADD MLOAD PUSH2 0x3427 SWAP2 SWAP1 PUSH2 0x4B20 JUMP JUMPDEST PUSH16 0xFFFFFFFFFFFFFFFFFFFFFFFFFFFFFFFF AND PUSH2 0x3443 SWAP2 SWAP1 PUSH2 0x4A47 JUMP JUMPDEST PUSH2 0x344D SWAP2 SWAP1 PUSH2 0x4AB8 JUMP JUMPDEST PUSH2 0x3457 SWAP2 SWAP1 PUSH2 0x4AB8 JUMP JUMPDEST PUSH1 0x40 MLOAD DUP4 PUSH4 0xFFFFFFFF AND PUSH1 0xE0 SHL DUP2 MSTORE PUSH1 0x4 ADD PUSH2 0x3474 SWAP3 SWAP2 SWAP1 PUSH2 0x4745 JUMP JUMPDEST PUSH1 0x20 PUSH1 0x40 MLOAD DUP1 DUP4 SUB DUP2 PUSH1 0x0 DUP8 GAS CALL ISZERO DUP1 ISZERO PUSH2 0x3493 JUMPI RETURNDATASIZE PUSH1 0x0 DUP1 RETURNDATACOPY RETURNDATASIZE PUSH1 0x0 REVERT JUMPDEST POP POP POP POP PUSH1 0x40 MLOAD RETURNDATASIZE PUSH1 0x1F NOT PUSH1 0x1F DUP3 ADD AND DUP3 ADD DUP1 PUSH1 0x40 MSTORE POP DUP2 ADD SWAP1 PUSH2 0x34B7 SWAP2 SWAP1 PUSH2 0x4783 JUMP JUMPDEST POP PUSH32 0xFEA5EB23060199C8B2AD63BCECD92C04CEA55CD0EF02C4030D3B20CF718C70EA DUP3 DUP3 PUSH1 0x0 ADD MLOAD PUSH1 0x1 PUSH1 0x40 MLOAD PUSH2 0x34F0 SWAP4 SWAP3 SWAP2 SWAP1 PUSH2 0x4AE9 JUMP JUMPDEST PUSH1 0x40 MLOAD DUP1 SWAP2 SUB SWAP1 LOG1 POP POP JUMP JUMPDEST PUSH1 0x1 PUSH1 0x20 MSTORE DUP1 PUSH1 0x0 MSTORE PUSH1 0x40 PUSH1 0x0 KECCAK256 PUSH1 0x0 SWAP2 POP SWAP1 POP DUP1 PUSH1 0x0 ADD PUSH1 0x0 SWAP1 SLOAD SWAP1 PUSH2 0x100 EXP SWAP1 DIV PUSH16 0xFFFFFFFFFFFFFFFFFFFFFFFFFFFFFFFF AND SWAP1 DUP1 PUSH1 0x0 ADD PUSH1 0x10 SWAP1 SLOAD SWAP1 PUSH2 0x100 EXP SWAP1 DIV PUSH16 0xFFFFFFFFFFFFFFFFFFFFFFFFFFFFFFFF AND SWAP1 DUP1 PUSH1 0x1 ADD PUSH1 0x0 SWAP1 SLOAD SWAP1 PUSH2 0x100 EXP SWAP1 DIV PUSH16 0xFFFFFFFFFFFFFFFFFFFFFFFFFFFFFFFF AND SWAP1 POP DUP4 JUMP JUMPDEST PUSH1 0x0 PUSH1 0x3 SLOAD SWAP1 POP PUSH1 0x1 DUP2 PUSH2 0x358E SWAP2 SWAP1 PUSH2 0x489E JUMP JUMPDEST PUSH1 0x3 DUP2 SWAP1 SSTORE POP PUSH1 0x0 PUSH1 0x2 PUSH1 0x0 DUP6 PUSH12 0xFFFFFFFFFFFFFFFFFFFFFFFF AND DUP2 MSTORE PUSH1 0x20 ADD SWAP1 DUP2 MSTORE PUSH1 0x20 ADD PUSH1 0x0 KECCAK256 SWAP1 POP PUSH1 0x0 PUSH2 0x35D5 DUP3 DUP7 DUP7 PUSH1 0x1 DUP8 PUSH2 0x35CE SWAP2 SWAP1 PUSH2 0x489E JUMP JUMPDEST PUSH1 0x0 PUSH2 0x389A JUMP JUMPDEST SWAP1 POP PUSH32 0x0 PUSH20 0xFFFFFFFFFFFFFFFFFFFFFFFFFFFFFFFFFFFFFFFF AND PUSH4 0x23B872DD CALLER ADDRESS PUSH5 0x2540BE400 PUSH32 0x0 PUSH1 0xA PUSH2 0x3648 SWAP2 SWAP1 PUSH2 0x46FA JUMP JUMPDEST DUP10 PUSH16 0xFFFFFFFFFFFFFFFFFFFFFFFFFFFFFFFF AND PUSH2 0x3665 SWAP2 SWAP1 PUSH2 0x4A47 JUMP JUMPDEST PUSH2 0x366F SWAP2 SWAP1 PUSH2 0x4AB8 JUMP JUMPDEST PUSH1 0x40 MLOAD DUP5 PUSH4 0xFFFFFFFF AND PUSH1 0xE0 SHL DUP2 MSTORE PUSH1 0x4 ADD PUSH2 0x368D SWAP4 SWAP3 SWAP2 SWAP1 PUSH2 0x4912 JUMP JUMPDEST PUSH1 0x20 PUSH1 0x40 MLOAD DUP1 DUP4 SUB DUP2 PUSH1 0x0 DUP8 GAS CALL ISZERO DUP1 ISZERO PUSH2 0x36AC JUMPI RETURNDATASIZE PUSH1 0x0 DUP1 RETURNDATACOPY RETURNDATASIZE PUSH1 0x0 REVERT JUMPDEST POP POP POP POP PUSH1 0x40 MLOAD RETURNDATASIZE PUSH1 0x1F NOT PUSH1 0x1F DUP3 ADD AND DUP3 ADD DUP1 PUSH1 0x40 MSTORE POP DUP2 ADD SWAP1 PUSH2 0x36D0 SWAP2 SWAP1 PUSH2 0x4783 JUMP JUMPDEST POP PUSH32 0x3BB89CBF97283FDA44CD1B331BD60E5B8BBD1A72C4AE6ACAFC9B85DA0A8EF64F DUP4 CALLER DUP8 DUP8 DUP6 PUSH1 0x0 PUSH1 0x40 MLOAD PUSH2 0x370B SWAP7 SWAP6 SWAP5 SWAP4 SWAP3 SWAP2 SWAP1 PUSH2 0x4B5D JUMP JUMPDEST PUSH1 0x40 MLOAD DUP1 SWAP2 SUB SWAP1 LOG1 POP POP POP POP POP JUMP JUMPDEST PUSH1 0x0 JUMPDEST DUP3 MLOAD DUP2 LT ISZERO PUSH2 0x3869 JUMPI DUP2 DUP2 DUP2 MLOAD DUP2 LT PUSH2 0x3739 JUMPI PUSH2 0x3738 PUSH2 0x4842 JUMP JUMPDEST JUMPDEST PUSH1 0x20 MUL PUSH1 0x20 ADD ADD MLOAD ISZERO PUSH2 0x37D0 JUMPI ADDRESS PUSH20 0xFFFFFFFFFFFFFFFFFFFFFFFFFFFFFFFFFFFFFFFF AND PUSH4 0xBE5D147F DUP5 DUP4 DUP2 MLOAD DUP2 LT PUSH2 0x3775 JUMPI PUSH2 0x3774 PUSH2 0x4842 JUMP JUMPDEST JUMPDEST PUSH1 0x20 MUL PUSH1 0x20 ADD ADD MLOAD PUSH1 0x40 MLOAD DUP3 PUSH4 0xFFFFFFFF AND PUSH1 0xE0 SHL DUP2 MSTORE PUSH1 0x4 ADD PUSH2 0x3799 SWAP2 SWAP1 PUSH2 0x3D31 JUMP JUMPDEST PUSH1 0x0 PUSH1 0x40 MLOAD DUP1 DUP4 SUB DUP2 PUSH1 0x0 DUP8 DUP1 EXTCODESIZE ISZERO DUP1 ISZERO PUSH2 0x37B3 JUMPI PUSH1 0x0 DUP1 REVERT JUMPDEST POP GAS CALL ISZERO DUP1 ISZERO PUSH2 0x37C7 JUMPI RETURNDATASIZE PUSH1 0x0 DUP1 RETURNDATACOPY RETURNDATASIZE PUSH1 0x0 REVERT JUMPDEST POP POP POP POP PUSH2 0x3856 JUMP JUMPDEST ADDRESS PUSH20 0xFFFFFFFFFFFFFFFFFFFFFFFFFFFFFFFFFFFFFFFF AND PUSH4 0x1A46E42A DUP5 DUP4 DUP2 MLOAD DUP2 LT PUSH2 0x37FF JUMPI PUSH2 0x37FE PUSH2 0x4842 JUMP JUMPDEST JUMPDEST PUSH1 0x20 MUL PUSH1 0x20 ADD ADD MLOAD PUSH1 0x40 MLOAD DUP3 PUSH4 0xFFFFFFFF AND PUSH1 0xE0 SHL DUP2 MSTORE PUSH1 0x4 ADD PUSH2 0x3823 SWAP2 SWAP1 PUSH2 0x3D31 JUMP JUMPDEST PUSH1 0x0 PUSH1 0x40 MLOAD DUP1 DUP4 SUB DUP2 PUSH1 0x0 DUP8 DUP1 EXTCODESIZE ISZERO DUP1 ISZERO PUSH2 0x383D JUMPI PUSH1 0x0 DUP1 REVERT JUMPDEST POP GAS CALL ISZERO DUP1 ISZERO PUSH2 0x3851 JUMPI RETURNDATASIZE PUSH1 0x0 DUP1 RETURNDATACOPY RETURNDATASIZE PUSH1 0x0 REVERT JUMPDEST POP POP POP POP JUMPDEST DUP1 DUP1 PUSH2 0x3861 SWAP1 PUSH2 0x4C79 JUMP JUMPDEST SWAP2 POP POP PUSH2 0x371D JUMP JUMPDEST POP POP POP JUMP JUMPDEST PUSH1 0x0 DUP2 DUP4 PUSH2 0x387C SWAP2 SWAP1 PUSH2 0x4A47 JUMP JUMPDEST SWAP1 POP SWAP3 SWAP2 POP POP JUMP JUMPDEST PUSH1 0x0 DUP2 DUP4 PUSH2 0x3892 SWAP2 SWAP1 PUSH2 0x4AB8 JUMP JUMPDEST SWAP1 POP SWAP3 SWAP2 POP POP JUMP JUMPDEST PUSH1 0x0 DUP1 DUP7 PUSH1 0x0 ADD PUSH1 0x10 SWAP1 SLOAD SWAP1 PUSH2 0x100 EXP SWAP1 DIV PUSH16 0xFFFFFFFFFFFFFFFFFFFFFFFFFFFFFFFF AND SWAP1 POP PUSH1 0x40 MLOAD DUP1 PUSH1 0xA0 ADD PUSH1 0x40 MSTORE DUP1 CALLER PUSH20 0xFFFFFFFFFFFFFFFFFFFFFFFFFFFFFFFFFFFFFFFF AND DUP2 MSTORE PUSH1 0x20 ADD DUP8 PUSH12 0xFFFFFFFFFFFFFFFFFFFFFFFF AND DUP2 MSTORE PUSH1 0x20 ADD DUP7 PUSH16 0xFFFFFFFFFFFFFFFFFFFFFFFFFFFFFFFF AND DUP2 MSTORE PUSH1 0x20 ADD DUP3 PUSH16 0xFFFFFFFFFFFFFFFFFFFFFFFFFFFFFFFF AND DUP2 MSTORE PUSH1 0x20 ADD DUP5 ISZERO ISZERO DUP2 MSTORE POP PUSH1 0x0 DUP1 DUP7 DUP2 MSTORE PUSH1 0x20 ADD SWAP1 DUP2 MSTORE PUSH1 0x20 ADD PUSH1 0x0 KECCAK256 PUSH1 0x0 DUP3 ADD MLOAD DUP2 PUSH1 0x0 ADD PUSH1 0x0 PUSH2 0x100 EXP DUP2 SLOAD DUP2 PUSH20 0xFFFFFFFFFFFFFFFFFFFFFFFFFFFFFFFFFFFFFFFF MUL NOT AND SWAP1 DUP4 PUSH20 0xFFFFFFFFFFFFFFFFFFFFFFFFFFFFFFFFFFFFFFFF AND MUL OR SWAP1 SSTORE POP PUSH1 0x20 DUP3 ADD MLOAD DUP2 PUSH1 0x0 ADD PUSH1 0x14 PUSH2 0x100 EXP DUP2 SLOAD DUP2 PUSH12 0xFFFFFFFFFFFFFFFFFFFFFFFF MUL NOT AND SWAP1 DUP4 PUSH12 0xFFFFFFFFFFFFFFFFFFFFFFFF AND MUL OR SWAP1 SSTORE POP PUSH1 0x40 DUP3 ADD MLOAD DUP2 PUSH1 0x1 ADD PUSH1 0x0 PUSH2 0x100 EXP DUP2 SLOAD DUP2 PUSH16 0xFFFFFFFFFFFFFFFFFFFFFFFFFFFFFFFF MUL NOT AND SWAP1 DUP4 PUSH16 0xFFFFFFFFFFFFFFFFFFFFFFFFFFFFFFFF AND MUL OR SWAP1 SSTORE POP PUSH1 0x60 DUP3 ADD MLOAD DUP2 PUSH1 0x1 ADD PUSH1 0x10 PUSH2 0x100 EXP DUP2 SLOAD DUP2 PUSH16 0xFFFFFFFFFFFFFFFFFFFFFFFFFFFFFFFF MUL NOT AND SWAP1 DUP4 PUSH16 0xFFFFFFFFFFFFFFFFFFFFFFFFFFFFFFFF AND MUL OR SWAP1 SSTORE POP PUSH1 0x80 DUP3 ADD MLOAD DUP2 PUSH1 0x2 ADD PUSH1 0x0 PUSH2 0x100 EXP DUP2 SLOAD DUP2 PUSH1 0xFF MUL NOT AND SWAP1 DUP4 ISZERO ISZERO MUL OR SWAP1 SSTORE POP SWAP1 POP POP DUP5 DUP8 PUSH1 0x0 ADD PUSH1 0x10 DUP3 DUP3 DUP3 SWAP1 SLOAD SWAP1 PUSH2 0x100 EXP SWAP1 DIV PUSH16 0xFFFFFFFFFFFFFFFFFFFFFFFFFFFFFFFF AND PUSH2 0x3A91 SWAP2 SWAP1 PUSH2 0x44D3 JUMP JUMPDEST SWAP3 POP PUSH2 0x100 EXP DUP2 SLOAD DUP2 PUSH16 0xFFFFFFFFFFFFFFFFFFFFFFFFFFFFFFFF MUL NOT AND SWAP1 DUP4 PUSH16 0xFFFFFFFFFFFFFFFFFFFFFFFFFFFFFFFF AND MUL OR SWAP1 SSTORE POP DUP1 SWAP2 POP POP SWAP6 SWAP5 POP POP POP POP POP JUMP JUMPDEST PUSH1 0x0 PUSH1 0x40 MLOAD SWAP1 POP SWAP1 JUMP JUMPDEST PUSH1 0x0 DUP1 REVERT JUMPDEST PUSH1 0x0 DUP1 REVERT JUMPDEST PUSH1 0x0 DUP2 SWAP1 POP SWAP2 SWAP1 POP JUMP JUMPDEST PUSH2 0x3AFB DUP2 PUSH2 0x3AE8 JUMP JUMPDEST DUP2 EQ PUSH2 0x3B06 JUMPI PUSH1 0x0 DUP1 REVERT JUMPDEST POP JUMP JUMPDEST PUSH1 0x0 DUP2 CALLDATALOAD SWAP1 POP PUSH2 0x3B18 DUP2 PUSH2 0x3AF2 JUMP JUMPDEST SWAP3 SWAP2 POP POP JUMP JUMPDEST PUSH1 0x0 PUSH1 0x20 DUP3 DUP5 SUB SLT ISZERO PUSH2 0x3B34 JUMPI PUSH2 0x3B33 PUSH2 0x3ADE JUMP JUMPDEST JUMPDEST PUSH1 0x0 PUSH2 0x3B42 DUP5 DUP3 DUP6 ADD PUSH2 0x3B09 JUMP JUMPDEST SWAP2 POP POP SWAP3 SWAP2 POP POP JUMP JUMPDEST PUSH1 0x0 PUSH16 0xFFFFFFFFFFFFFFFFFFFFFFFFFFFFFFFF DUP3 AND SWAP1 POP SWAP2 SWAP1 POP JUMP JUMPDEST PUSH2 0x3B70 DUP2 PUSH2 0x3B4B JUMP JUMPDEST DUP3 MSTORE POP POP JUMP JUMPDEST PUSH1 0x0 PUSH1 0x60 DUP3 ADD SWAP1 POP PUSH2 0x3B8B PUSH1 0x0 DUP4 ADD DUP7 PUSH2 0x3B67 JUMP JUMPDEST PUSH2 0x3B98 PUSH1 0x20 DUP4 ADD DUP6 PUSH2 0x3B67 JUMP JUMPDEST PUSH2 0x3BA5 PUSH1 0x40 DUP4 ADD DUP5 PUSH2 0x3B67 JUMP JUMPDEST SWAP5 SWAP4 POP POP POP POP JUMP JUMPDEST PUSH1 0x0 DUP1 REVERT JUMPDEST PUSH1 0x0 DUP1 REVERT JUMPDEST PUSH1 0x0 DUP1 REVERT JUMPDEST PUSH1 0x0 DUP1 DUP4 PUSH1 0x1F DUP5 ADD SLT PUSH2 0x3BD2 JUMPI PUSH2 0x3BD1 PUSH2 0x3BAD JUMP JUMPDEST JUMPDEST DUP3 CALLDATALOAD SWAP1 POP PUSH8 0xFFFFFFFFFFFFFFFF DUP2 GT ISZERO PUSH2 0x3BEF JUMPI PUSH2 0x3BEE PUSH2 0x3BB2 JUMP JUMPDEST JUMPDEST PUSH1 0x20 DUP4 ADD SWAP2 POP DUP4 PUSH1 0x20 DUP3 MUL DUP4 ADD GT ISZERO PUSH2 0x3C0B JUMPI PUSH2 0x3C0A PUSH2 0x3BB7 JUMP JUMPDEST JUMPDEST SWAP3 POP SWAP3 SWAP1 POP JUMP JUMPDEST PUSH2 0x3C1B DUP2 PUSH2 0x3B4B JUMP JUMPDEST DUP2 EQ PUSH2 0x3C26 JUMPI PUSH1 0x0 DUP1 REVERT JUMPDEST POP JUMP JUMPDEST PUSH1 0x0 DUP2 CALLDATALOAD SWAP1 POP PUSH2 0x3C38 DUP2 PUSH2 0x3C12 JUMP JUMPDEST SWAP3 SWAP2 POP POP JUMP JUMPDEST PUSH1 0x0 DUP1 PUSH1 0x0 PUSH1 0x40 DUP5 DUP7 SUB SLT ISZERO PUSH2 0x3C57 JUMPI PUSH2 0x3C56 PUSH2 0x3ADE JUMP JUMPDEST JUMPDEST PUSH1 0x0 DUP5 ADD CALLDATALOAD PUSH8 0xFFFFFFFFFFFFFFFF DUP2 GT ISZERO PUSH2 0x3C75 JUMPI PUSH2 0x3C74 PUSH2 0x3AE3 JUMP JUMPDEST JUMPDEST PUSH2 0x3C81 DUP7 DUP3 DUP8 ADD PUSH2 0x3BBC JUMP JUMPDEST SWAP4 POP SWAP4 POP POP PUSH1 0x20 PUSH2 0x3C94 DUP7 DUP3 DUP8 ADD PUSH2 0x3C29 JUMP JUMPDEST SWAP2 POP POP SWAP3 POP SWAP3 POP SWAP3 JUMP JUMPDEST PUSH1 0x0 PUSH12 0xFFFFFFFFFFFFFFFFFFFFFFFF DUP3 AND SWAP1 POP SWAP2 SWAP1 POP JUMP JUMPDEST PUSH2 0x3CBF DUP2 PUSH2 0x3C9E JUMP JUMPDEST DUP2 EQ PUSH2 0x3CCA JUMPI PUSH1 0x0 DUP1 REVERT JUMPDEST POP JUMP JUMPDEST PUSH1 0x0 DUP2 CALLDATALOAD SWAP1 POP PUSH2 0x3CDC DUP2 PUSH2 0x3CB6 JUMP JUMPDEST SWAP3 SWAP2 POP POP JUMP JUMPDEST PUSH1 0x0 DUP1 PUSH1 0x40 DUP4 DUP6 SUB SLT ISZERO PUSH2 0x3CF9 JUMPI PUSH2 0x3CF8 PUSH2 0x3ADE JUMP JUMPDEST JUMPDEST PUSH1 0x0 PUSH2 0x3D07 DUP6 DUP3 DUP7 ADD PUSH2 0x3CCD JUMP JUMPDEST SWAP3 POP POP PUSH1 0x20 PUSH2 0x3D18 DUP6 DUP3 DUP7 ADD PUSH2 0x3C29 JUMP JUMPDEST SWAP2 POP POP SWAP3 POP SWAP3 SWAP1 POP JUMP JUMPDEST PUSH2 0x3D2B DUP2 PUSH2 0x3AE8 JUMP JUMPDEST DUP3 MSTORE POP POP JUMP JUMPDEST PUSH1 0x0 PUSH1 0x20 DUP3 ADD SWAP1 POP PUSH2 0x3D46 PUSH1 0x0 DUP4 ADD DUP5 PUSH2 0x3D22 JUMP JUMPDEST SWAP3 SWAP2 POP POP JUMP JUMPDEST PUSH1 0x0 PUSH1 0x1F NOT PUSH1 0x1F DUP4 ADD AND SWAP1 POP SWAP2 SWAP1 POP JUMP JUMPDEST PUSH32 0x4E487B7100000000000000000000000000000000000000000000000000000000 PUSH1 0x0 MSTORE PUSH1 0x41 PUSH1 0x4 MSTORE PUSH1 0x24 PUSH1 0x0 REVERT JUMPDEST PUSH2 0x3D95 DUP3 PUSH2 0x3D4C JUMP JUMPDEST DUP2 ADD DUP2 DUP2 LT PUSH8 0xFFFFFFFFFFFFFFFF DUP3 GT OR ISZERO PUSH2 0x3DB4 JUMPI PUSH2 0x3DB3 PUSH2 0x3D5D JUMP JUMPDEST JUMPDEST DUP1 PUSH1 0x40 MSTORE POP POP POP JUMP JUMPDEST PUSH1 0x0 PUSH2 0x3DC7 PUSH2 0x3AD4 JUMP JUMPDEST SWAP1 POP PUSH2 0x3DD3 DUP3 DUP3 PUSH2 0x3D8C JUMP JUMPDEST SWAP2 SWAP1 POP JUMP JUMPDEST PUSH1 0x0 PUSH8 0xFFFFFFFFFFFFFFFF DUP3 GT ISZERO PUSH2 0x3DF3 JUMPI PUSH2 0x3DF2 PUSH2 0x3D5D JUMP JUMPDEST JUMPDEST PUSH1 0x20 DUP3 MUL SWAP1 POP PUSH1 0x20 DUP2 ADD SWAP1 POP SWAP2 SWAP1 POP JUMP JUMPDEST PUSH1 0x0 PUSH2 0x3E17 PUSH2 0x3E12 DUP5 PUSH2 0x3DD8 JUMP JUMPDEST PUSH2 0x3DBD JUMP JUMPDEST SWAP1 POP DUP1 DUP4 DUP3 MSTORE PUSH1 0x20 DUP3 ADD SWAP1 POP PUSH1 0x20 DUP5 MUL DUP4 ADD DUP6 DUP2 GT ISZERO PUSH2 0x3E3A JUMPI PUSH2 0x3E39 PUSH2 0x3BB7 JUMP JUMPDEST JUMPDEST DUP4 JUMPDEST DUP2 DUP2 LT ISZERO PUSH2 0x3E63 JUMPI DUP1 PUSH2 0x3E4F DUP9 DUP3 PUSH2 0x3CCD JUMP JUMPDEST DUP5 MSTORE PUSH1 0x20 DUP5 ADD SWAP4 POP POP PUSH1 0x20 DUP2 ADD SWAP1 POP PUSH2 0x3E3C JUMP JUMPDEST POP POP POP SWAP4 SWAP3 POP POP POP JUMP JUMPDEST PUSH1 0x0 DUP3 PUSH1 0x1F DUP4 ADD SLT PUSH2 0x3E82 JUMPI PUSH2 0x3E81 PUSH2 0x3BAD JUMP JUMPDEST JUMPDEST DUP2 CALLDATALOAD PUSH2 0x3E92 DUP5 DUP3 PUSH1 0x20 DUP7 ADD PUSH2 0x3E04 JUMP JUMPDEST SWAP2 POP POP SWAP3 SWAP2 POP POP JUMP JUMPDEST PUSH1 0x0 PUSH8 0xFFFFFFFFFFFFFFFF DUP3 GT ISZERO PUSH2 0x3EB6 JUMPI PUSH2 0x3EB5 PUSH2 0x3D5D JUMP JUMPDEST JUMPDEST PUSH1 0x20 DUP3 MUL SWAP1 POP PUSH1 0x20 DUP2 ADD SWAP1 POP SWAP2 SWAP1 POP JUMP JUMPDEST PUSH1 0x0 PUSH2 0x3EDA PUSH2 0x3ED5 DUP5 PUSH2 0x3E9B JUMP JUMPDEST PUSH2 0x3DBD JUMP JUMPDEST SWAP1 POP DUP1 DUP4 DUP3 MSTORE PUSH1 0x20 DUP3 ADD SWAP1 POP PUSH1 0x20 DUP5 MUL DUP4 ADD DUP6 DUP2 GT ISZERO PUSH2 0x3EFD JUMPI PUSH2 0x3EFC PUSH2 0x3BB7 JUMP JUMPDEST JUMPDEST DUP4 JUMPDEST DUP2 DUP2 LT ISZERO PUSH2 0x3F26 JUMPI DUP1 PUSH2 0x3F12 DUP9 DUP3 PUSH2 0x3C29 JUMP JUMPDEST DUP5 MSTORE PUSH1 0x20 DUP5 ADD SWAP4 POP POP PUSH1 0x20 DUP2 ADD SWAP1 POP PUSH2 0x3EFF JUMP JUMPDEST POP POP POP SWAP4 SWAP3 POP POP POP JUMP JUMPDEST PUSH1 0x0 DUP3 PUSH1 0x1F DUP4 ADD SLT PUSH2 0x3F45 JUMPI PUSH2 0x3F44 PUSH2 0x3BAD JUMP JUMPDEST JUMPDEST DUP2 CALLDATALOAD PUSH2 0x3F55 DUP5 DUP3 PUSH1 0x20 DUP7 ADD PUSH2 0x3EC7 JUMP JUMPDEST SWAP2 POP POP SWAP3 SWAP2 POP POP JUMP JUMPDEST PUSH1 0x0 DUP1 PUSH1 0x40 DUP4 DUP6 SUB SLT ISZERO PUSH2 0x3F75 JUMPI PUSH2 0x3F74 PUSH2 0x3ADE JUMP JUMPDEST JUMPDEST PUSH1 0x0 DUP4 ADD CALLDATALOAD PUSH8 0xFFFFFFFFFFFFFFFF DUP2 GT ISZERO PUSH2 0x3F93 JUMPI PUSH2 0x3F92 PUSH2 0x3AE3 JUMP JUMPDEST JUMPDEST PUSH2 0x3F9F DUP6 DUP3 DUP7 ADD PUSH2 0x3E6D JUMP JUMPDEST SWAP3 POP POP PUSH1 0x20 DUP4 ADD CALLDATALOAD PUSH8 0xFFFFFFFFFFFFFFFF DUP2 GT ISZERO PUSH2 0x3FC0 JUMPI PUSH2 0x3FBF PUSH2 0x3AE3 JUMP JUMPDEST JUMPDEST PUSH2 0x3FCC DUP6 DUP3 DUP7 ADD PUSH2 0x3F30 JUMP JUMPDEST SWAP2 POP POP SWAP3 POP SWAP3 SWAP1 POP JUMP JUMPDEST PUSH1 0x0 DUP1 DUP4 PUSH1 0x1F DUP5 ADD SLT PUSH2 0x3FEC JUMPI PUSH2 0x3FEB PUSH2 0x3BAD JUMP JUMPDEST JUMPDEST DUP3 CALLDATALOAD SWAP1 POP PUSH8 0xFFFFFFFFFFFFFFFF DUP2 GT ISZERO PUSH2 0x4009 JUMPI PUSH2 0x4008 PUSH2 0x3BB2 JUMP JUMPDEST JUMPDEST PUSH1 0x20 DUP4 ADD SWAP2 POP DUP4 PUSH1 0x20 DUP3 MUL DUP4 ADD GT ISZERO PUSH2 0x4025 JUMPI PUSH2 0x4024 PUSH2 0x3BB7 JUMP JUMPDEST JUMPDEST SWAP3 POP SWAP3 SWAP1 POP JUMP JUMPDEST PUSH1 0x0 DUP1 PUSH1 0x0 DUP1 PUSH1 0x40 DUP6 DUP8 SUB SLT ISZERO PUSH2 0x4046 JUMPI PUSH2 0x4045 PUSH2 0x3ADE JUMP JUMPDEST JUMPDEST PUSH1 0x0 DUP6 ADD CALLDATALOAD PUSH8 0xFFFFFFFFFFFFFFFF DUP2 GT ISZERO PUSH2 0x4064 JUMPI PUSH2 0x4063 PUSH2 0x3AE3 JUMP JUMPDEST JUMPDEST PUSH2 0x4070 DUP8 DUP3 DUP9 ADD PUSH2 0x3FD6 JUMP JUMPDEST SWAP5 POP SWAP5 POP POP PUSH1 0x20 DUP6 ADD CALLDATALOAD PUSH8 0xFFFFFFFFFFFFFFFF DUP2 GT ISZERO PUSH2 0x4093 JUMPI PUSH2 0x4092 PUSH2 0x3AE3 JUMP JUMPDEST JUMPDEST PUSH2 0x409F DUP8 DUP3 DUP9 ADD PUSH2 0x3BBC JUMP JUMPDEST SWAP3 POP SWAP3 POP POP SWAP3 SWAP6 SWAP2 SWAP5 POP SWAP3 POP JUMP JUMPDEST PUSH1 0x0 PUSH20 0xFFFFFFFFFFFFFFFFFFFFFFFFFFFFFFFFFFFFFFFF DUP3 AND SWAP1 POP SWAP2 SWAP1 POP JUMP JUMPDEST PUSH1 0x0 PUSH2 0x40D8 DUP3 PUSH2 0x40AD JUMP JUMPDEST SWAP1 POP SWAP2 SWAP1 POP JUMP JUMPDEST PUSH2 0x40E8 DUP2 PUSH2 0x40CD JUMP JUMPDEST DUP3 MSTORE POP POP JUMP JUMPDEST PUSH2 0x40F7 DUP2 PUSH2 0x3C9E JUMP JUMPDEST DUP3 MSTORE POP POP JUMP JUMPDEST PUSH1 0x0 DUP2 ISZERO ISZERO SWAP1 POP SWAP2 SWAP1 POP JUMP JUMPDEST PUSH2 0x4112 DUP2 PUSH2 0x40FD JUMP JUMPDEST DUP3 MSTORE POP POP JUMP JUMPDEST PUSH1 0x0 PUSH1 0xA0 DUP3 ADD SWAP1 POP PUSH2 0x412D PUSH1 0x0 DUP4 ADD DUP9 PUSH2 0x40DF JUMP JUMPDEST PUSH2 0x413A PUSH1 0x20 DUP4 ADD DUP8 PUSH2 0x40EE JUMP JUMPDEST PUSH2 0x4147 PUSH1 0x40 DUP4 ADD DUP7 PUSH2 0x3B67 JUMP JUMPDEST PUSH2 0x4154 PUSH1 0x60 DUP4 ADD DUP6 PUSH2 0x3B67 JUMP JUMPDEST PUSH2 0x4161 PUSH1 0x80 DUP4 ADD DUP5 PUSH2 0x4109 JUMP JUMPDEST SWAP7 SWAP6 POP POP POP POP POP POP JUMP JUMPDEST PUSH1 0x0 PUSH8 0xFFFFFFFFFFFFFFFF DUP3 GT ISZERO PUSH2 0x4186 JUMPI PUSH2 0x4185 PUSH2 0x3D5D JUMP JUMPDEST JUMPDEST PUSH1 0x20 DUP3 MUL SWAP1 POP PUSH1 0x20 DUP2 ADD SWAP1 POP SWAP2 SWAP1 POP JUMP JUMPDEST PUSH1 0x0 PUSH2 0x41AA PUSH2 0x41A5 DUP5 PUSH2 0x416B JUMP JUMPDEST PUSH2 0x3DBD JUMP JUMPDEST SWAP1 POP DUP1 DUP4 DUP3 MSTORE PUSH1 0x20 DUP3 ADD SWAP1 POP PUSH1 0x20 DUP5 MUL DUP4 ADD DUP6 DUP2 GT ISZERO PUSH2 0x41CD JUMPI PUSH2 0x41CC PUSH2 0x3BB7 JUMP JUMPDEST JUMPDEST DUP4 JUMPDEST DUP2 DUP2 LT ISZERO PUSH2 0x41F6 JUMPI DUP1 PUSH2 0x41E2 DUP9 DUP3 PUSH2 0x3B09 JUMP JUMPDEST DUP5 MSTORE PUSH1 0x20 DUP5 ADD SWAP4 POP POP PUSH1 0x20 DUP2 ADD SWAP1 POP PUSH2 0x41CF JUMP JUMPDEST POP POP POP SWAP4 SWAP3 POP POP POP JUMP JUMPDEST PUSH1 0x0 DUP3 PUSH1 0x1F DUP4 ADD SLT PUSH2 0x4215 JUMPI PUSH2 0x4214 PUSH2 0x3BAD JUMP JUMPDEST JUMPDEST DUP2 CALLDATALOAD PUSH2 0x4225 DUP5 DUP3 PUSH1 0x20 DUP7 ADD PUSH2 0x4197 JUMP JUMPDEST SWAP2 POP POP SWAP3 SWAP2 POP POP JUMP JUMPDEST PUSH1 0x0 PUSH8 0xFFFFFFFFFFFFFFFF DUP3 GT ISZERO PUSH2 0x4249 JUMPI PUSH2 0x4248 PUSH2 0x3D5D JUMP JUMPDEST JUMPDEST PUSH1 0x20 DUP3 MUL SWAP1 POP PUSH1 0x20 DUP2 ADD SWAP1 POP SWAP2 SWAP1 POP JUMP JUMPDEST PUSH2 0x4263 DUP2 PUSH2 0x40FD JUMP JUMPDEST DUP2 EQ PUSH2 0x426E JUMPI PUSH1 0x0 DUP1 REVERT JUMPDEST POP JUMP JUMPDEST PUSH1 0x0 DUP2 CALLDATALOAD SWAP1 POP PUSH2 0x4280 DUP2 PUSH2 0x425A JUMP JUMPDEST SWAP3 SWAP2 POP POP JUMP JUMPDEST PUSH1 0x0 PUSH2 0x4299 PUSH2 0x4294 DUP5 PUSH2 0x422E JUMP JUMPDEST PUSH2 0x3DBD JUMP JUMPDEST SWAP1 POP DUP1 DUP4 DUP3 MSTORE PUSH1 0x20 DUP3 ADD SWAP1 POP PUSH1 0x20 DUP5 MUL DUP4 ADD DUP6 DUP2 GT ISZERO PUSH2 0x42BC JUMPI PUSH2 0x42BB PUSH2 0x3BB7 JUMP JUMPDEST JUMPDEST DUP4 JUMPDEST DUP2 DUP2 LT ISZERO PUSH2 0x42E5 JUMPI DUP1 PUSH2 0x42D1 DUP9 DUP3 PUSH2 0x4271 JUMP JUMPDEST DUP5 MSTORE PUSH1 0x20 DUP5 ADD SWAP4 POP POP PUSH1 0x20 DUP2 ADD SWAP1 POP PUSH2 0x42BE JUMP JUMPDEST POP POP POP SWAP4 SWAP3 POP POP POP JUMP JUMPDEST PUSH1 0x0 DUP3 PUSH1 0x1F DUP4 ADD SLT PUSH2 0x4304 JUMPI PUSH2 0x4303 PUSH2 0x3BAD JUMP JUMPDEST JUMPDEST DUP2 CALLDATALOAD PUSH2 0x4314 DUP5 DUP3 PUSH1 0x20 DUP7 ADD PUSH2 0x4286 JUMP JUMPDEST SWAP2 POP POP SWAP3 SWAP2 POP POP JUMP JUMPDEST PUSH1 0x0 DUP1 PUSH1 0x40 DUP4 DUP6 SUB SLT ISZERO PUSH2 0x4334 JUMPI PUSH2 0x4333 PUSH2 0x3ADE JUMP JUMPDEST JUMPDEST PUSH1 0x0 DUP4 ADD CALLDATALOAD PUSH8 0xFFFFFFFFFFFFFFFF DUP2 GT ISZERO PUSH2 0x4352 JUMPI PUSH2 0x4351 PUSH2 0x3AE3 JUMP JUMPDEST JUMPDEST PUSH2 0x435E DUP6 DUP3 DUP7 ADD PUSH2 0x4200 JUMP JUMPDEST SWAP3 POP POP PUSH1 0x20 DUP4 ADD CALLDATALOAD PUSH8 0xFFFFFFFFFFFFFFFF DUP2 GT ISZERO PUSH2 0x437F JUMPI PUSH2 0x437E PUSH2 0x3AE3 JUMP JUMPDEST JUMPDEST PUSH2 0x438B DUP6 DUP3 DUP7 ADD PUSH2 0x42EF JUMP JUMPDEST SWAP2 POP POP SWAP3 POP SWAP3 SWAP1 POP JUMP JUMPDEST PUSH1 0x0 DUP3 DUP3 MSTORE PUSH1 0x20 DUP3 ADD SWAP1 POP SWAP3 SWAP2 POP POP JUMP JUMPDEST PUSH32 0x4F72646572426F6F6B3A206F7264657220646F65736E27742065786973740000 PUSH1 0x0 DUP3 ADD MSTORE POP JUMP JUMPDEST PUSH1 0x0 PUSH2 0x43DC PUSH1 0x1E DUP4 PUSH2 0x4395 JUMP JUMPDEST SWAP2 POP PUSH2 0x43E7 DUP3 PUSH2 0x43A6 JUMP JUMPDEST PUSH1 0x20 DUP3 ADD SWAP1 POP SWAP2 SWAP1 POP JUMP JUMPDEST PUSH1 0x0 PUSH1 0x20 DUP3 ADD SWAP1 POP DUP2 DUP2 SUB PUSH1 0x0 DUP4 ADD MSTORE PUSH2 0x440B DUP2 PUSH2 0x43CF JUMP JUMPDEST SWAP1 POP SWAP2 SWAP1 POP JUMP JUMPDEST PUSH32 0x4F72646572426F6F6B3A206F6E6C79206F72646572206F776E65722063616E20 PUSH1 0x0 DUP3 ADD MSTORE PUSH32 0x636C61696D000000000000000000000000000000000000000000000000000000 PUSH1 0x20 DUP3 ADD MSTORE POP JUMP JUMPDEST PUSH1 0x0 PUSH2 0x446E PUSH1 0x25 DUP4 PUSH2 0x4395 JUMP JUMPDEST SWAP2 POP PUSH2 0x4479 DUP3 PUSH2 0x4412 JUMP JUMPDEST PUSH1 0x40 DUP3 ADD SWAP1 POP SWAP2 SWAP1 POP JUMP JUMPDEST PUSH1 0x0 PUSH1 0x20 DUP3 ADD SWAP1 POP DUP2 DUP2 SUB PUSH1 0x0 DUP4 ADD MSTORE PUSH2 0x449D DUP2 PUSH2 0x4461 JUMP JUMPDEST SWAP1 POP SWAP2 SWAP1 POP JUMP JUMPDEST PUSH32 0x4E487B7100000000000000000000000000000000000000000000000000000000 PUSH1 0x0 MSTORE PUSH1 0x11 PUSH1 0x4 MSTORE PUSH1 0x24 PUSH1 0x0 REVERT JUMPDEST PUSH1 0x0 PUSH2 0x44DE DUP3 PUSH2 0x3B4B JUMP JUMPDEST SWAP2 POP PUSH2 0x44E9 DUP4 PUSH2 0x3B4B JUMP JUMPDEST SWAP3 POP DUP3 DUP3 ADD SWAP1 POP PUSH16 0xFFFFFFFFFFFFFFFFFFFFFFFFFFFFFFFF DUP2 GT ISZERO PUSH2 0x4511 JUMPI PUSH2 0x4510 PUSH2 0x44A4 JUMP JUMPDEST JUMPDEST SWAP3 SWAP2 POP POP JUMP JUMPDEST PUSH32 0x4F72646572426F6F6B3A206F72646572206E6F742065786563757461626C6500 PUSH1 0x0 DUP3 ADD MSTORE POP JUMP JUMPDEST PUSH1 0x0 PUSH2 0x454D PUSH1 0x1F DUP4 PUSH2 0x4395 JUMP JUMPDEST SWAP2 POP PUSH2 0x4558 DUP3 PUSH2 0x4517 JUMP JUMPDEST PUSH1 0x20 DUP3 ADD SWAP1 POP SWAP2 SWAP1 POP JUMP JUMPDEST PUSH1 0x0 PUSH1 0x20 DUP3 ADD SWAP1 POP DUP2 DUP2 SUB PUSH1 0x0 DUP4 ADD MSTORE PUSH2 0x457C DUP2 PUSH2 0x4540 JUMP JUMPDEST SWAP1 POP SWAP2 SWAP1 POP JUMP JUMPDEST PUSH1 0x0 PUSH2 0x458E DUP3 PUSH2 0x3B4B JUMP JUMPDEST SWAP2 POP PUSH2 0x4599 DUP4 PUSH2 0x3B4B JUMP JUMPDEST SWAP3 POP DUP3 DUP3 SUB SWAP1 POP PUSH16 0xFFFFFFFFFFFFFFFFFFFFFFFFFFFFFFFF DUP2 GT ISZERO PUSH2 0x45C1 JUMPI PUSH2 0x45C0 PUSH2 0x44A4 JUMP JUMPDEST JUMPDEST SWAP3 SWAP2 POP POP JUMP JUMPDEST PUSH1 0x0 DUP2 PUSH1 0x1 SHR SWAP1 POP SWAP2 SWAP1 POP JUMP JUMPDEST PUSH1 0x0 DUP1 DUP3 SWAP2 POP DUP4 SWAP1 POP JUMPDEST PUSH1 0x1 DUP6 GT ISZERO PUSH2 0x461E JUMPI DUP1 DUP7 DIV DUP2 GT ISZERO PUSH2 0x45FA JUMPI PUSH2 0x45F9 PUSH2 0x44A4 JUMP JUMPDEST JUMPDEST PUSH1 0x1 DUP6 AND ISZERO PUSH2 0x4609 JUMPI DUP1 DUP3 MUL SWAP2 POP JUMPDEST DUP1 DUP2 MUL SWAP1 POP PUSH2 0x4617 DUP6 PUSH2 0x45C7 JUMP JUMPDEST SWAP5 POP PUSH2 0x45DE JUMP JUMPDEST SWAP5 POP SWAP5 SWAP3 POP POP POP JUMP JUMPDEST PUSH1 0x0 DUP3 PUSH2 0x4637 JUMPI PUSH1 0x1 SWAP1 POP PUSH2 0x46F3 JUMP JUMPDEST DUP2 PUSH2 0x4645 JUMPI PUSH1 0x0 SWAP1 POP PUSH2 0x46F3 JUMP JUMPDEST DUP2 PUSH1 0x1 DUP2 EQ PUSH2 0x465B JUMPI PUSH1 0x2 DUP2 EQ PUSH2 0x4665 JUMPI PUSH2 0x4694 JUMP JUMPDEST PUSH1 0x1 SWAP2 POP POP PUSH2 0x46F3 JUMP JUMPDEST PUSH1 0xFF DUP5 GT ISZERO PUSH2 0x4677 JUMPI PUSH2 0x4676 PUSH2 0x44A4 JUMP JUMPDEST JUMPDEST DUP4 PUSH1 0x2 EXP SWAP2 POP DUP5 DUP3 GT ISZERO PUSH2 0x468E JUMPI PUSH2 0x468D PUSH2 0x44A4 JUMP JUMPDEST JUMPDEST POP PUSH2 0x46F3 JUMP JUMPDEST POP PUSH1 0x20 DUP4 LT PUSH2 0x133 DUP4 LT AND PUSH1 0x4E DUP5 LT PUSH1 0xB DUP5 LT AND OR ISZERO PUSH2 0x46C9 JUMPI DUP3 DUP3 EXP SWAP1 POP DUP4 DUP2 GT ISZERO PUSH2 0x46C4 JUMPI PUSH2 0x46C3 PUSH2 0x44A4 JUMP JUMPDEST JUMPDEST PUSH2 0x46F3 JUMP JUMPDEST PUSH2 0x46D6 DUP5 DUP5 DUP5 PUSH1 0x1 PUSH2 0x45D4 JUMP JUMPDEST SWAP3 POP SWAP1 POP DUP2 DUP5 DIV DUP2 GT ISZERO PUSH2 0x46ED JUMPI PUSH2 0x46EC PUSH2 0x44A4 JUMP JUMPDEST JUMPDEST DUP2 DUP2 MUL SWAP1 POP JUMPDEST SWAP4 SWAP3 POP POP POP JUMP JUMPDEST PUSH1 0x0 PUSH2 0x4705 DUP3 PUSH2 0x3AE8 JUMP JUMPDEST SWAP2 POP PUSH2 0x4710 DUP4 PUSH2 0x3AE8 JUMP JUMPDEST SWAP3 POP PUSH2 0x473D PUSH32 0xFFFFFFFFFFFFFFFFFFFFFFFFFFFFFFFFFFFFFFFFFFFFFFFFFFFFFFFFFFFFFFFF DUP5 DUP5 PUSH2 0x4627 JUMP JUMPDEST SWAP1 POP SWAP3 SWAP2 POP POP JUMP JUMPDEST PUSH1 0x0 PUSH1 0x40 DUP3 ADD SWAP1 POP PUSH2 0x475A PUSH1 0x0 DUP4 ADD DUP6 PUSH2 0x40DF JUMP JUMPDEST PUSH2 0x4767 PUSH1 0x20 DUP4 ADD DUP5 PUSH2 0x3D22 JUMP JUMPDEST SWAP4 SWAP3 POP POP POP JUMP JUMPDEST PUSH1 0x0 DUP2 MLOAD SWAP1 POP PUSH2 0x477D DUP2 PUSH2 0x425A JUMP JUMPDEST SWAP3 SWAP2 POP POP JUMP JUMPDEST PUSH1 0x0 PUSH1 0x20 DUP3 DUP5 SUB SLT ISZERO PUSH2 0x4799 JUMPI PUSH2 0x4798 PUSH2 0x3ADE JUMP JUMPDEST JUMPDEST PUSH1 0x0 PUSH2 0x47A7 DUP5 DUP3 DUP6 ADD PUSH2 0x476E JUMP JUMPDEST SWAP2 POP POP SWAP3 SWAP2 POP POP JUMP JUMPDEST PUSH32 0x4F72646572426F6F6B3A2073697A65206D757374206265206772656174657220 PUSH1 0x0 DUP3 ADD MSTORE PUSH32 0x7468616E20300000000000000000000000000000000000000000000000000000 PUSH1 0x20 DUP3 ADD MSTORE POP JUMP JUMPDEST PUSH1 0x0 PUSH2 0x480C PUSH1 0x26 DUP4 PUSH2 0x4395 JUMP JUMPDEST SWAP2 POP PUSH2 0x4817 DUP3 PUSH2 0x47B0 JUMP JUMPDEST PUSH1 0x40 DUP3 ADD SWAP1 POP SWAP2 SWAP1 POP JUMP JUMPDEST PUSH1 0x0 PUSH1 0x20 DUP3 ADD SWAP1 POP DUP2 DUP2 SUB PUSH1 0x0 DUP4 ADD MSTORE PUSH2 0x483B DUP2 PUSH2 0x47FF JUMP JUMPDEST SWAP1 POP SWAP2 SWAP1 POP JUMP JUMPDEST PUSH32 0x4E487B7100000000000000000000000000000000000000000000000000000000 PUSH1 0x0 MSTORE PUSH1 0x32 PUSH1 0x4 MSTORE PUSH1 0x24 PUSH1 0x0 REVERT JUMPDEST PUSH1 0x0 PUSH1 0x20 DUP3 DUP5 SUB SLT ISZERO PUSH2 0x4887 JUMPI PUSH2 0x4886 PUSH2 0x3ADE JUMP JUMPDEST JUMPDEST PUSH1 0x0 PUSH2 0x4895 DUP5 DUP3 DUP6 ADD PUSH2 0x3CCD JUMP JUMPDEST SWAP2 POP POP SWAP3 SWAP2 POP POP JUMP JUMPDEST PUSH1 0x0 PUSH2 0x48A9 DUP3 PUSH2 0x3AE8 JUMP JUMPDEST SWAP2 POP PUSH2 0x48B4 DUP4 PUSH2 0x3AE8 JUMP JUMPDEST SWAP3 POP DUP3 DUP3 ADD SWAP1 POP DUP1 DUP3 GT ISZERO PUSH2 0x48CC JUMPI PUSH2 0x48CB PUSH2 0x44A4 JUMP JUMPDEST JUMPDEST SWAP3 SWAP2 POP POP JUMP JUMPDEST PUSH1 0x0 PUSH2 0x48DD DUP3 PUSH2 0x3C9E JUMP JUMPDEST SWAP2 POP PUSH2 0x48E8 DUP4 PUSH2 0x3C9E JUMP JUMPDEST SWAP3 POP DUP3 DUP3 ADD SWAP1 POP PUSH12 0xFFFFFFFFFFFFFFFFFFFFFFFF DUP2 GT ISZERO PUSH2 0x490C JUMPI PUSH2 0x490B PUSH2 0x44A4 JUMP JUMPDEST JUMPDEST SWAP3 SWAP2 POP POP JUMP JUMPDEST PUSH1 0x0 PUSH1 0x60 DUP3 ADD SWAP1 POP PUSH2 0x4927 PUSH1 0x0 DUP4 ADD DUP7 PUSH2 0x40DF JUMP JUMPDEST PUSH2 0x4934 PUSH1 0x20 DUP4 ADD DUP6 PUSH2 0x40DF JUMP JUMPDEST PUSH2 0x4941 PUSH1 0x40 DUP4 ADD DUP5 PUSH2 0x3D22 JUMP JUMPDEST SWAP5 SWAP4 POP POP POP POP JUMP JUMPDEST PUSH32 0x4F72646572426F6F6B3A2043616E63656C6C696E6720627579206F7264657200 PUSH1 0x0 DUP3 ADD MSTORE POP JUMP JUMPDEST PUSH1 0x0 PUSH2 0x497F PUSH1 0x1F DUP4 PUSH2 0x4395 JUMP JUMPDEST SWAP2 POP PUSH2 0x498A DUP3 PUSH2 0x4949 JUMP JUMPDEST PUSH1 0x20 DUP3 ADD SWAP1 POP SWAP2 SWAP1 POP JUMP JUMPDEST PUSH1 0x0 PUSH1 0x20 DUP3 ADD SWAP1 POP DUP2 DUP2 SUB PUSH1 0x0 DUP4 ADD MSTORE PUSH2 0x49AE DUP2 PUSH2 0x4972 JUMP JUMPDEST SWAP1 POP SWAP2 SWAP1 POP JUMP JUMPDEST PUSH32 0x4F72646572426F6F6B3A204F6E6C79206F72646572206F776E65722063616E20 PUSH1 0x0 DUP3 ADD MSTORE PUSH32 0x63616E63656C206F726465720000000000000000000000000000000000000000 PUSH1 0x20 DUP3 ADD MSTORE POP JUMP JUMPDEST PUSH1 0x0 PUSH2 0x4A11 PUSH1 0x2C DUP4 PUSH2 0x4395 JUMP JUMPDEST SWAP2 POP PUSH2 0x4A1C DUP3 PUSH2 0x49B5 JUMP JUMPDEST PUSH1 0x40 DUP3 ADD SWAP1 POP SWAP2 SWAP1 POP JUMP JUMPDEST PUSH1 0x0 PUSH1 0x20 DUP3 ADD SWAP1 POP DUP2 DUP2 SUB PUSH1 0x0 DUP4 ADD MSTORE PUSH2 0x4A40 DUP2 PUSH2 0x4A04 JUMP JUMPDEST SWAP1 POP SWAP2 SWAP1 POP JUMP JUMPDEST PUSH1 0x0 PUSH2 0x4A52 DUP3 PUSH2 0x3AE8 JUMP JUMPDEST SWAP2 POP PUSH2 0x4A5D DUP4 PUSH2 0x3AE8 JUMP JUMPDEST SWAP3 POP DUP3 DUP3 MUL PUSH2 0x4A6B DUP2 PUSH2 0x3AE8 JUMP JUMPDEST SWAP2 POP DUP3 DUP3 DIV DUP5 EQ DUP4 ISZERO OR PUSH2 0x4A82 JUMPI PUSH2 0x4A81 PUSH2 0x44A4 JUMP JUMPDEST JUMPDEST POP SWAP3 SWAP2 POP POP JUMP JUMPDEST PUSH32 0x4E487B7100000000000000000000000000000000000000000000000000000000 PUSH1 0x0 MSTORE PUSH1 0x12 PUSH1 0x4 MSTORE PUSH1 0x24 PUSH1 0x0 REVERT JUMPDEST PUSH1 0x0 PUSH2 0x4AC3 DUP3 PUSH2 0x3AE8 JUMP JUMPDEST SWAP2 POP PUSH2 0x4ACE DUP4 PUSH2 0x3AE8 JUMP JUMPDEST SWAP3 POP DUP3 PUSH2 0x4ADE JUMPI PUSH2 0x4ADD PUSH2 0x4A89 JUMP JUMPDEST JUMPDEST DUP3 DUP3 DIV SWAP1 POP SWAP3 SWAP2 POP POP JUMP JUMPDEST PUSH1 0x0 PUSH1 0x60 DUP3 ADD SWAP1 POP PUSH2 0x4AFE PUSH1 0x0 DUP4 ADD DUP7 PUSH2 0x3D22 JUMP JUMPDEST PUSH2 0x4B0B PUSH1 0x20 DUP4 ADD DUP6 PUSH2 0x40DF JUMP JUMPDEST PUSH2 0x4B18 PUSH1 0x40 DUP4 ADD DUP5 PUSH2 0x4109 JUMP JUMPDEST SWAP5 SWAP4 POP POP POP POP JUMP JUMPDEST PUSH1 0x0 PUSH2 0x4B2B DUP3 PUSH2 0x3B4B JUMP JUMPDEST SWAP2 POP PUSH2 0x4B36 DUP4 PUSH2 0x3B4B JUMP JUMPDEST SWAP3 POP DUP3 DUP3 MUL PUSH2 0x4B44 DUP2 PUSH2 0x3B4B JUMP JUMPDEST SWAP2 POP DUP1 DUP3 EQ PUSH2 0x4B56 JUMPI PUSH2 0x4B55 PUSH2 0x44A4 JUMP JUMPDEST JUMPDEST POP SWAP3 SWAP2 POP POP JUMP JUMPDEST PUSH1 0x0 PUSH1 0xC0 DUP3 ADD SWAP1 POP PUSH2 0x4B72 PUSH1 0x0 DUP4 ADD DUP10 PUSH2 0x3D22 JUMP JUMPDEST PUSH2 0x4B7F PUSH1 0x20 DUP4 ADD DUP9 PUSH2 0x40DF JUMP JUMPDEST PUSH2 0x4B8C PUSH1 0x40 DUP4 ADD DUP8 PUSH2 0x40EE JUMP JUMPDEST PUSH2 0x4B99 PUSH1 0x60 DUP4 ADD DUP7 PUSH2 0x3B67 JUMP JUMPDEST PUSH2 0x4BA6 PUSH1 0x80 DUP4 ADD DUP6 PUSH2 0x3B67 JUMP JUMPDEST PUSH2 0x4BB3 PUSH1 0xA0 DUP4 ADD DUP5 PUSH2 0x4109 JUMP JUMPDEST SWAP8 SWAP7 POP POP POP POP POP POP POP JUMP JUMPDEST PUSH32 0x4F72646572426F6F6B3A2050726963657320616E642073697A65732061727261 PUSH1 0x0 DUP3 ADD MSTORE PUSH32 0x79206C656E677468206D757374206D6174636800000000000000000000000000 PUSH1 0x20 DUP3 ADD MSTORE POP JUMP JUMPDEST PUSH1 0x0 PUSH2 0x4C1A PUSH1 0x33 DUP4 PUSH2 0x4395 JUMP JUMPDEST SWAP2 POP PUSH2 0x4C25 DUP3 PUSH2 0x4BBE JUMP JUMPDEST PUSH1 0x40 DUP3 ADD SWAP1 POP SWAP2 SWAP1 POP JUMP JUMPDEST PUSH1 0x0 PUSH1 0x20 DUP3 ADD SWAP1 POP DUP2 DUP2 SUB PUSH1 0x0 DUP4 ADD MSTORE PUSH2 0x4C49 DUP2 PUSH2 0x4C0D JUMP JUMPDEST SWAP1 POP SWAP2 SWAP1 POP JUMP JUMPDEST PUSH1 0x0 PUSH1 0x40 DUP3 ADD SWAP1 POP PUSH2 0x4C65 PUSH1 0x0 DUP4 ADD DUP6 PUSH2 0x40EE JUMP JUMPDEST PUSH2 0x4C72 PUSH1 0x20 DUP4 ADD DUP5 PUSH2 0x3B67 JUMP JUMPDEST SWAP4 SWAP3 POP POP POP JUMP JUMPDEST PUSH1 0x0 PUSH2 0x4C84 DUP3 PUSH2 0x3AE8 JUMP JUMPDEST SWAP2 POP PUSH32 0xFFFFFFFFFFFFFFFFFFFFFFFFFFFFFFFFFFFFFFFFFFFFFFFFFFFFFFFFFFFFFFFF DUP3 SUB PUSH2 0x4CB6 JUMPI PUSH2 0x4CB5 PUSH2 0x44A4 JUMP JUMPDEST JUMPDEST PUSH1 0x1 DUP3 ADD SWAP1 POP SWAP2 SWAP1 POP JUMP JUMPDEST PUSH32 0x4F72646572426F6F6B3A204F6E6C79206F72646572206F776E65722063616E20 PUSH1 0x0 DUP3 ADD MSTORE PUSH32 0x757064617465206F726465720000000000000000000000000000000000000000 PUSH1 0x20 DUP3 ADD MSTORE POP JUMP JUMPDEST PUSH1 0x0 PUSH2 0x4D1D PUSH1 0x2C DUP4 PUSH2 0x4395 JUMP JUMPDEST SWAP2 POP PUSH2 0x4D28 DUP3 PUSH2 0x4CC1 JUMP JUMPDEST PUSH1 0x40 DUP3 ADD SWAP1 POP SWAP2 SWAP1 POP JUMP JUMPDEST PUSH1 0x0 PUSH1 0x20 DUP3 ADD SWAP1 POP DUP2 DUP2 SUB PUSH1 0x0 DUP4 ADD MSTORE PUSH2 0x4D4C DUP2 PUSH2 0x4D10 JUMP JUMPDEST SWAP1 POP SWAP2 SWAP1 POP JUMP JUMPDEST PUSH32 0x4F72646572426F6F6B3A2043616E63656C6C696E672073656C6C206F72646572 PUSH1 0x0 DUP3 ADD MSTORE POP JUMP JUMPDEST PUSH1 0x0 PUSH2 0x4D89 PUSH1 0x20 DUP4 PUSH2 0x4395 JUMP JUMPDEST SWAP2 POP PUSH2 0x4D94 DUP3 PUSH2 0x4D53 JUMP JUMPDEST PUSH1 0x20 DUP3 ADD SWAP1 POP SWAP2 SWAP1 POP JUMP JUMPDEST PUSH1 0x0 PUSH1 0x20 DUP3 ADD SWAP1 POP DUP2 DUP2 SUB PUSH1 0x0 DUP4 ADD MSTORE PUSH2 0x4DB8 DUP2 PUSH2 0x4D7C JUMP JUMPDEST SWAP1 POP SWAP2 SWAP1 POP JUMP INVALID LOG2 PUSH5 0x6970667358 0x22 SLT KECCAK256 SWAP14 0xBE PUSH21 0x1005D25AF878360E416A356A596F86F864EBED7C85 CALLER SSTORE PUSH31 0x2EC0020A8364736F6C63430008110033000000000000000000000000000000 "},"methodIdentifiers":{"addBuyOrder(uint96,uint128)":"24b291db","addSellOrder(uint96,uint128)":"eb2e70c8","batchCancelOrders(uint256[],bool[])":"ece2e87f","cancelBuyOrder(uint256)":"be5d147f","cancelSellOrder(uint256)":"1a46e42a","claimBuyLimitOrder(uint256)":"7e78e05f","claimSellLimitOrder(uint256)":"02e0d258","placeAndExecuteMarketBuy(uint96[],uint128)":"2298c350","placeAndExecuteMarketSell(uint96[],uint128)":"1778334f","placeMultipleBuyOrders(uint96[],uint128[])":"b722153f","placeMultipleSellOrders(uint96[],uint128[])":"4ff57439","replaceOrders(uint256[],uint96[])":"55727643","s_buyPricePoints(uint256)":"e6d29b51","s_orderIdCounter()":"2bf1360e","s_orders(uint256)":"a6f3c50f","s_sellPricePoints(uint256)":"0e2e2ffe"}}}}}