{
  "_format": "hh-sol-artifact-1",
  "contractName": "PositionManager",
  "sourceName": "contracts/PositionManager.sol",
  "abi": [
    {
      "inputs": [
        {
          "internalType": "address",
          "name": "_marginAccount",
          "type": "address"
        },
        {
          "internalType": "address",
          "name": "_pythAddress",
          "type": "address"
        }
      ],
      "stateMutability": "nonpayable",
      "type": "constructor"
    },
    {
      "inputs": [],
      "name": "_onlyGov",
      "outputs": [],
      "stateMutability": "view",
      "type": "function"
    },
    {
      "inputs": [
        {
          "internalType": "int256",
          "name": "_bid",
          "type": "int256"
        },
        {
          "internalType": "int256",
          "name": "_ask",
          "type": "int256"
        },
        {
          "internalType": "int256",
          "name": "_indexPrice",
          "type": "int256"
        },
        {
          "internalType": "address",
          "name": "_indexToken",
          "type": "address"
        }
      ],
      "name": "_updateFundingRate",
      "outputs": [],
      "stateMutability": "nonpayable",
      "type": "function"
    },
    {
      "inputs": [
        {
          "internalType": "address",
          "name": "_orderBook",
          "type": "address"
        },
        {
          "internalType": "address",
          "name": "_indexToken",
          "type": "address"
        }
      ],
      "name": "addOrderBook",
      "outputs": [],
      "stateMutability": "nonpayable",
      "type": "function"
    },
    {
      "inputs": [
        {
          "internalType": "bytes32",
          "name": "_id",
          "type": "bytes32"
        },
        {
          "internalType": "address",
          "name": "_indexToken",
          "type": "address"
        }
      ],
      "name": "addPythOracle",
      "outputs": [],
      "stateMutability": "nonpayable",
      "type": "function"
    },
    {
      "inputs": [
        {
          "internalType": "address",
          "name": "_user",
          "type": "address"
        },
        {
          "internalType": "address",
          "name": "_indexToken",
          "type": "address"
        },
        {
          "internalType": "uint256",
          "name": "_size",
          "type": "uint256"
        },
        {
          "internalType": "uint256",
          "name": "_priceToPay",
          "type": "uint256"
        }
      ],
      "name": "decreasePosition",
      "outputs": [],
      "stateMutability": "nonpayable",
      "type": "function"
    },
    {
      "inputs": [
        {
          "internalType": "address",
          "name": "user",
          "type": "address"
        },
        {
          "internalType": "address",
          "name": "token",
          "type": "address"
        }
      ],
      "name": "getPositionKey",
      "outputs": [
        {
          "internalType": "bytes32",
          "name": "",
          "type": "bytes32"
        }
      ],
      "stateMutability": "pure",
      "type": "function"
    },
    {
      "inputs": [],
      "name": "gov",
      "outputs": [
        {
          "internalType": "address",
          "name": "",
          "type": "address"
        }
      ],
      "stateMutability": "view",
      "type": "function"
    },
    {
      "inputs": [
        {
          "internalType": "address",
          "name": "_user",
          "type": "address"
        },
        {
          "internalType": "address",
          "name": "_indexToken",
          "type": "address"
        },
        {
          "internalType": "uint256",
          "name": "_size",
          "type": "uint256"
        },
        {
          "internalType": "uint256",
          "name": "_priceToPay",
          "type": "uint256"
        }
      ],
      "name": "increasePosition",
      "outputs": [],
      "stateMutability": "nonpayable",
      "type": "function"
    },
    {
      "inputs": [
        {
          "internalType": "address",
          "name": "_user",
          "type": "address"
        },
        {
          "internalType": "address",
          "name": "_indexToken",
          "type": "address"
        }
      ],
      "name": "liquidatePosition",
      "outputs": [],
      "stateMutability": "nonpayable",
      "type": "function"
    },
    {
      "inputs": [],
      "name": "marginAccount",
      "outputs": [
        {
          "internalType": "address",
          "name": "",
          "type": "address"
        }
      ],
      "stateMutability": "view",
      "type": "function"
    },
    {
      "inputs": [
        {
          "internalType": "address",
          "name": "_user",
          "type": "address"
        },
        {
          "internalType": "address",
          "name": "_indexToken",
          "type": "address"
        }
      ],
      "name": "positionValue",
      "outputs": [
        {
          "internalType": "int256",
          "name": "",
          "type": "int256"
        }
      ],
      "stateMutability": "view",
      "type": "function"
    },
    {
      "inputs": [
        {
          "internalType": "address",
          "name": "",
          "type": "address"
        }
      ],
      "name": "s_cumulativeFundingRates",
      "outputs": [
        {
          "internalType": "int256",
          "name": "",
          "type": "int256"
        }
      ],
      "stateMutability": "view",
      "type": "function"
    },
    {
      "inputs": [
        {
          "internalType": "address",
          "name": "",
          "type": "address"
        }
      ],
      "name": "s_lastFundingTimes",
      "outputs": [
        {
          "internalType": "uint256",
          "name": "",
          "type": "uint256"
        }
      ],
      "stateMutability": "view",
      "type": "function"
    },
    {
      "inputs": [
        {
          "internalType": "address",
          "name": "",
          "type": "address"
        }
      ],
      "name": "s_oracles",
      "outputs": [
        {
          "internalType": "address",
          "name": "",
          "type": "address"
        }
      ],
      "stateMutability": "view",
      "type": "function"
    },
    {
      "inputs": [
        {
          "internalType": "bytes32",
          "name": "",
          "type": "bytes32"
        }
      ],
      "name": "s_positions",
      "outputs": [
        {
          "internalType": "int256",
          "name": "size",
          "type": "int256"
        },
        {
          "internalType": "int256",
          "name": "entryFundingRate",
          "type": "int256"
        },
        {
          "internalType": "int256",
          "name": "amountToPay",
          "type": "int256"
        }
      ],
      "stateMutability": "view",
      "type": "function"
    },
    {
      "inputs": [
        {
          "internalType": "address",
          "name": "",
          "type": "address"
        }
      ],
      "name": "s_pythOracleIds",
      "outputs": [
        {
          "internalType": "bytes32",
          "name": "",
          "type": "bytes32"
        }
      ],
      "stateMutability": "view",
      "type": "function"
    },
    {
      "inputs": [
        {
          "internalType": "address",
          "name": "_marginAccount",
          "type": "address"
        }
      ],
      "name": "setMarginAccount",
      "outputs": [],
      "stateMutability": "nonpayable",
      "type": "function"
    },
    {
      "inputs": [
        {
          "internalType": "address",
          "name": "_indexToken",
          "type": "address"
        }
      ],
      "name": "updateFundingRate",
      "outputs": [],
      "stateMutability": "nonpayable",
      "type": "function"
    },
    {
      "inputs": [
        {
          "internalType": "bytes32",
          "name": "_positionKey",
          "type": "bytes32"
        },
        {
          "internalType": "address",
          "name": "_indexToken",
          "type": "address"
        },
        {
          "internalType": "int256",
          "name": "_userMargin",
          "type": "int256"
        },
        {
          "internalType": "int256",
          "name": "_size",
          "type": "int256"
        }
      ],
      "name": "validateMargin",
      "outputs": [],
      "stateMutability": "view",
      "type": "function"
    }
  ],
  "bytecode": "0x60806040523480156200001157600080fd5b50604051620021ce380380620021ce83398181016040528101906200003791906200016b565b81600760006101000a81548173ffffffffffffffffffffffffffffffffffffffff021916908373ffffffffffffffffffffffffffffffffffffffff16021790555080600860006101000a81548173ffffffffffffffffffffffffffffffffffffffff021916908373ffffffffffffffffffffffffffffffffffffffff160217905550336000806101000a81548173ffffffffffffffffffffffffffffffffffffffff021916908373ffffffffffffffffffffffffffffffffffffffff1602179055505050620001b2565b600080fd5b600073ffffffffffffffffffffffffffffffffffffffff82169050919050565b6000620001338262000106565b9050919050565b620001458162000126565b81146200015157600080fd5b50565b60008151905062000165816200013a565b92915050565b6000806040838503121562000185576200018462000101565b5b6000620001958582860162000154565b9250506020620001a88582860162000154565b9150509250929050565b61200c80620001c26000396000f3fe608060405234801561001057600080fd5b50600436106101215760003560e01c806382526d0f116100ad578063bedf3b5411610071578063bedf3b54146102f0578063c202250b14610320578063e16167151461033c578063f742269d1461036c578063f9c51f271461038a57610121565b806382526d0f1461024c5780638a09c8901461027e5780638de917ab1461029a578063abb2361e146102ca578063b0c1d316146102e657610121565b80632715d1cc116100f45780632715d1cc146101ac57806336351365146101c857806341d9a056146101f8578063586e848f146102145780635a723de01461023057610121565b8063083d2bdb1461012657806312d43a51146101425780631552b29a1461016057806319ab149c1461017c575b600080fd5b610140600480360381019061013b9190611552565b6103ba565b005b61014a610600565b60405161015791906115c8565b60405180910390f35b61017a60048036038101906101759190611619565b610624565b005b61019660048036038101906101919190611659565b610674565b6040516101a3919061169f565b60405180910390f35b6101c660048036038101906101c191906116e6565b61068c565b005b6101e260048036038101906101dd919061174d565b610712565b6040516101ef919061179c565b60405180910390f35b610212600480360381019061020d919061174d565b610745565b005b61022e6004803603810190610229919061174d565b6107cf565b005b61024a60048036038101906102459190611659565b610b70565b005b610266600480360381019061026191906117b7565b610d4d565b604051610275939291906117e4565b60405180910390f35b6102986004803603810190610293919061181b565b610d77565b005b6102b460048036038101906102af9190611659565b610f84565b6040516102c19190611891565b60405180910390f35b6102e460048036038101906102df9190611552565b610f9c565b005b6102ee61119d565b005b61030a60048036038101906103059190611659565b61122d565b604051610317919061179c565b60405180910390f35b61033a60048036038101906103359190611659565b611245565b005b61035660048036038101906103519190611659565b611291565b60405161036391906115c8565b60405180910390f35b6103746112c4565b60405161038191906115c8565b60405180910390f35b6103a4600480360381019061039f919061174d565b6112ea565b6040516103b1919061169f565b60405180910390f35b60006103c68585610712565b9050600060016000838152602001908152602001600020604051806060016040529081600082015481526020016001820154815260200160028201548152505090506000600260008773ffffffffffffffffffffffffffffffffffffffff1673ffffffffffffffffffffffffffffffffffffffff16815260200190815260200160002054905060008083600001511461046e5782602001518261046991906118db565b610471565b60005b90506000600760009054906101000a900473ffffffffffffffffffffffffffffffffffffffff1673ffffffffffffffffffffffffffffffffffffffff16633601ce3c8a8a612710866104c3919061191e565b6040518463ffffffff1660e01b81526004016104e193929190611996565b6020604051808303816000875af1158015610500573d6000803e3d6000fd5b505050506040513d601f19601f8201168201806040525081019061052491906119e2565b9050828460200181815250506105498589612710846105439190611a3e565b8a610d77565b868460000181815161055b91906118db565b91508181525050858460400181815161057491906118db565b9150818152505060008460000151036105bf576001600086815260200190815260200160002060008082016000905560018201600090556002820160009055505050505050506105fa565b836001600087815260200190815260200160002060008201518160000155602082015181600101556040820151816002015590505050505050505b50505050565b60008054906101000a900473ffffffffffffffffffffffffffffffffffffffff1681565b61062c61119d565b81600560008373ffffffffffffffffffffffffffffffffffffffff1673ffffffffffffffffffffffffffffffffffffffff168152602001908152602001600020819055505050565b60026020528060005260406000206000915090505481565b60008285136106a65783836106a191906118db565b6106b3565b82856106b291906118db565b5b905080600260008473ffffffffffffffffffffffffffffffffffffffff1673ffffffffffffffffffffffffffffffffffffffff16815260200190815260200160002060008282546107049190611aa8565b925050819055505050505050565b60008282604051602001610727929190611b34565b60405160208183030381529060405280519060200120905092915050565b61074d61119d565b81600660008373ffffffffffffffffffffffffffffffffffffffff1673ffffffffffffffffffffffffffffffffffffffff16815260200190815260200160002060006101000a81548173ffffffffffffffffffffffffffffffffffffffff021916908373ffffffffffffffffffffffffffffffffffffffff1602179055505050565b60006107db8383610712565b9050600060016000838152602001908152602001600020604051806060016040529081600082015481526020016001820154815260200160028201548152505090506000600260008573ffffffffffffffffffffffffffffffffffffffff1673ffffffffffffffffffffffffffffffffffffffff16815260200190815260200160002054905060008260000151036108a8576040517f08c379a000000000000000000000000000000000000000000000000000000000815260040161089f90611bbd565b60405180910390fd5b60008260200151826108ba91906118db565b90506000600760009054906101000a900473ffffffffffffffffffffffffffffffffffffffff1673ffffffffffffffffffffffffffffffffffffffff16633601ce3c88886127108661090c919061191e565b6040518463ffffffff1660e01b815260040161092a93929190611996565b6020604051808303816000875af1158015610949573d6000803e3d6000fd5b505050506040513d601f19601f8201168201806040525081019061096d91906119e2565b90506000600860009054906101000a900473ffffffffffffffffffffffffffffffffffffffff1673ffffffffffffffffffffffffffffffffffffffff166331d98b3f600560008a73ffffffffffffffffffffffffffffffffffffffff1673ffffffffffffffffffffffffffffffffffffffff168152602001908152602001600020546040518263ffffffff1660e01b8152600401610a0b919061179c565b608060405180830381865afa158015610a28573d6000803e3d6000fd5b505050506040513d601f19601f82011682018060405250810190610a4c9190611d98565b90506000816000015160070b905060008660400151620f42406402540be400848a60000151610a7b919061191e565b610a859190611a3e565b610a8f9190611a3e565b610a9991906118db565b905060008112610ade576040517f08c379a0000000000000000000000000000000000000000000000000000000008152600401610ad590611e11565b60405180910390fd5b6032620f42406402540be400848a60000151610afa919061191e565b610b049190611a3e565b610b0e9190611a3e565b610b189190611a3e565b8185610b249190611aa8565b12610b64576040517f08c379a0000000000000000000000000000000000000000000000000000000008152600401610b5b90611e11565b60405180910390fd5b50505050505050505050565b42610bc5610e10600360008573ffffffffffffffffffffffffffffffffffffffff1673ffffffffffffffffffffffffffffffffffffffff1681526020019081526020016000205461146d90919063ffffffff16565b11610d4a57610bf3610e10610be5610e104261148390919063ffffffff16565b61149990919063ffffffff16565b600360008373ffffffffffffffffffffffffffffffffffffffff1673ffffffffffffffffffffffffffffffffffffffff168152602001908152602001600020819055506000600860009054906101000a900473ffffffffffffffffffffffffffffffffffffffff1673ffffffffffffffffffffffffffffffffffffffff166331d98b3f600560008573ffffffffffffffffffffffffffffffffffffffff1673ffffffffffffffffffffffffffffffffffffffff168152602001908152602001600020546040518263ffffffff1660e01b8152600401610cd2919061179c565b608060405180830381865afa158015610cef573d6000803e3d6000fd5b505050506040513d601f19601f82011682018060405250810190610d139190611d98565b90506000816000015160070b905060008060008091509150610d458282620f424086610d3f9190611a3e565b8861068c565b505050505b50565b60016020528060005260406000206000915090508060000154908060010154908060020154905083565b600060016000868152602001908152602001600020604051806060016040529081600082015481526020016001820154815260200160028201548152505090506000600860009054906101000a900473ffffffffffffffffffffffffffffffffffffffff1673ffffffffffffffffffffffffffffffffffffffff166331d98b3f600560008873ffffffffffffffffffffffffffffffffffffffff1673ffffffffffffffffffffffffffffffffffffffff168152602001908152602001600020546040518263ffffffff1660e01b8152600401610e53919061179c565b608060405180830381865afa158015610e70573d6000803e3d6000fd5b505050506040513d601f19601f82011682018060405250810190610e949190611d98565b90506000816000015160070b905060008360400151620f42406402540be400848760000151610ec3919061191e565b610ecd9190611a3e565b610ed79190611a3e565b610ee191906118db565b90506000858560000151610ef59190611aa8565b9050620f42406402540be4008483610f0d919061191e565b610f179190611a3e565b610f219190611a3e565b60328389610f2f9190611aa8565b610f39919061191e565b13610f79576040517f08c379a0000000000000000000000000000000000000000000000000000000008152600401610f7090611ea3565b60405180910390fd5b505050505050505050565b60036020528060005260406000206000915090505481565b6000610fa88585610712565b9050600060016000838152602001908152602001600020604051806060016040529081600082015481526020016001820154815260200160028201548152505090506000600260008773ffffffffffffffffffffffffffffffffffffffff1673ffffffffffffffffffffffffffffffffffffffff1681526020019081526020016000205490506000808360000151146110505782602001518261104b91906118db565b611053565b60005b90506000600760009054906101000a900473ffffffffffffffffffffffffffffffffffffffff1673ffffffffffffffffffffffffffffffffffffffff16633601ce3c8a8a612710866110a5919061191e565b6040518463ffffffff1660e01b81526004016110c393929190611996565b6020604051808303816000875af11580156110e2573d6000803e3d6000fd5b505050506040513d601f19601f8201168201806040525081019061110691906119e2565b90508284602001818152505061112b8589612710846111259190611a3e565b8a610d77565b868460000181815161113d9190611aa8565b9150818152505085846040018181516111569190611aa8565b915081815250508360016000878152602001908152602001600020600082015181600001556020820151816001015560408201518160020155905050505050505050505050565b60008054906101000a900473ffffffffffffffffffffffffffffffffffffffff1673ffffffffffffffffffffffffffffffffffffffff163373ffffffffffffffffffffffffffffffffffffffff161461122b576040517f08c379a000000000000000000000000000000000000000000000000000000000815260040161122290611f0f565b60405180910390fd5b565b60056020528060005260406000206000915090505481565b61124d61119d565b80600760006101000a81548173ffffffffffffffffffffffffffffffffffffffff021916908373ffffffffffffffffffffffffffffffffffffffff16021790555050565b60046020528060005260406000206000915054906101000a900473ffffffffffffffffffffffffffffffffffffffff1681565b600760009054906101000a900473ffffffffffffffffffffffffffffffffffffffff1681565b6000806112f78484610712565b9050600060016000838152602001908152602001600020604051806060016040529081600082015481526020016001820154815260200160028201548152505090506000600860009054906101000a900473ffffffffffffffffffffffffffffffffffffffff1673ffffffffffffffffffffffffffffffffffffffff166331d98b3f600560008873ffffffffffffffffffffffffffffffffffffffff1673ffffffffffffffffffffffffffffffffffffffff168152602001908152602001600020546040518263ffffffff1660e01b81526004016113d5919061179c565b608060405180830381865afa1580156113f2573d6000803e3d6000fd5b505050506040513d601f19601f820116820180604052508101906114169190611d98565b90506000816000015160070b90508260400151620f42406402540be400838660000151611443919061191e565b61144d9190611a3e565b6114579190611a3e565b61146191906118db565b94505050505092915050565b6000818361147b9190611f2f565b905092915050565b600081836114919190611f63565b905092915050565b600081836114a79190611f94565b905092915050565b6000604051905090565b600080fd5b600073ffffffffffffffffffffffffffffffffffffffff82169050919050565b60006114e9826114be565b9050919050565b6114f9816114de565b811461150457600080fd5b50565b600081359050611516816114f0565b92915050565b6000819050919050565b61152f8161151c565b811461153a57600080fd5b50565b60008135905061154c81611526565b92915050565b6000806000806080858703121561156c5761156b6114b9565b5b600061157a87828801611507565b945050602061158b87828801611507565b935050604061159c8782880161153d565b92505060606115ad8782880161153d565b91505092959194509250565b6115c2816114de565b82525050565b60006020820190506115dd60008301846115b9565b92915050565b6000819050919050565b6115f6816115e3565b811461160157600080fd5b50565b600081359050611613816115ed565b92915050565b600080604083850312156116305761162f6114b9565b5b600061163e85828601611604565b925050602061164f85828601611507565b9150509250929050565b60006020828403121561166f5761166e6114b9565b5b600061167d84828501611507565b91505092915050565b6000819050919050565b61169981611686565b82525050565b60006020820190506116b46000830184611690565b92915050565b6116c381611686565b81146116ce57600080fd5b50565b6000813590506116e0816116ba565b92915050565b60008060008060808587031215611700576116ff6114b9565b5b600061170e878288016116d1565b945050602061171f878288016116d1565b9350506040611730878288016116d1565b925050606061174187828801611507565b91505092959194509250565b60008060408385031215611764576117636114b9565b5b600061177285828601611507565b925050602061178385828601611507565b9150509250929050565b611796816115e3565b82525050565b60006020820190506117b1600083018461178d565b92915050565b6000602082840312156117cd576117cc6114b9565b5b60006117db84828501611604565b91505092915050565b60006060820190506117f96000830186611690565b6118066020830185611690565b6118136040830184611690565b949350505050565b60008060008060808587031215611835576118346114b9565b5b600061184387828801611604565b945050602061185487828801611507565b9350506040611865878288016116d1565b9250506060611876878288016116d1565b91505092959194509250565b61188b8161151c565b82525050565b60006020820190506118a66000830184611882565b92915050565b7f4e487b7100000000000000000000000000000000000000000000000000000000600052601160045260246000fd5b60006118e682611686565b91506118f183611686565b9250828203905081811260008412168282136000851215161715611918576119176118ac565b5b92915050565b600061192982611686565b915061193483611686565b925082820261194281611686565b91507f8000000000000000000000000000000000000000000000000000000000000000841460008412161561197a576119796118ac565b5b828205841483151761198f5761198e6118ac565b5b5092915050565b60006060820190506119ab60008301866115b9565b6119b860208301856115b9565b6119c56040830184611690565b949350505050565b6000815190506119dc81611526565b92915050565b6000602082840312156119f8576119f76114b9565b5b6000611a06848285016119cd565b91505092915050565b7f4e487b7100000000000000000000000000000000000000000000000000000000600052601260045260246000fd5b6000611a4982611686565b9150611a5483611686565b925082611a6457611a63611a0f565b5b600160000383147f800000000000000000000000000000000000000000000000000000000000000083141615611a9d57611a9c6118ac565b5b828205905092915050565b6000611ab382611686565b9150611abe83611686565b925082820190508281121560008312168382126000841215161715611ae657611ae56118ac565b5b92915050565b60008160601b9050919050565b6000611b0482611aec565b9050919050565b6000611b1682611af9565b9050919050565b611b2e611b29826114de565b611b0b565b82525050565b6000611b408285611b1d565b601482019150611b508284611b1d565b6014820191508190509392505050565b600082825260208201905092915050565b7f506f736974696f6e20646f6573206e6f74206578697374000000000000000000600082015250565b6000611ba7601783611b60565b9150611bb282611b71565b602082019050919050565b60006020820190508181036000830152611bd681611b9a565b9050919050565b600080fd5b6000601f19601f8301169050919050565b7f4e487b7100000000000000000000000000000000000000000000000000000000600052604160045260246000fd5b611c2b82611be2565b810181811067ffffffffffffffff82111715611c4a57611c49611bf3565b5b80604052505050565b6000611c5d6114af565b9050611c698282611c22565b919050565b60008160070b9050919050565b611c8481611c6e565b8114611c8f57600080fd5b50565b600081519050611ca181611c7b565b92915050565b600067ffffffffffffffff82169050919050565b611cc481611ca7565b8114611ccf57600080fd5b50565b600081519050611ce181611cbb565b92915050565b60008160030b9050919050565b611cfd81611ce7565b8114611d0857600080fd5b50565b600081519050611d1a81611cf4565b92915050565b600060808284031215611d3657611d35611bdd565b5b611d406080611c53565b90506000611d5084828501611c92565b6000830152506020611d6484828501611cd2565b6020830152506040611d7884828501611d0b565b6040830152506060611d8c848285016119cd565b60608301525092915050565b600060808284031215611dae57611dad6114b9565b5b6000611dbc84828501611d20565b91505092915050565b7f506f736974696f6e206973206e6f74206c6971756964617461626c6500000000600082015250565b6000611dfb601c83611b60565b9150611e0682611dc5565b602082019050919050565b60006020820190508181036000830152611e2a81611dee565b9050919050565b7f696e73756666696369616e74206d617267696e20746f2063726561746520706f60008201527f736974696f6e0000000000000000000000000000000000000000000000000000602082015250565b6000611e8d602683611b60565b9150611e9882611e31565b604082019050919050565b60006020820190508181036000830152611ebc81611e80565b9050919050565b7f6f6e6c7920676f762063616e2063616c6c20746869732066756e6374696f6e00600082015250565b6000611ef9601f83611b60565b9150611f0482611ec3565b602082019050919050565b60006020820190508181036000830152611f2881611eec565b9050919050565b6000611f3a8261151c565b9150611f458361151c565b9250828201905080821115611f5d57611f5c6118ac565b5b92915050565b6000611f6e8261151c565b9150611f798361151c565b925082611f8957611f88611a0f565b5b828204905092915050565b6000611f9f8261151c565b9150611faa8361151c565b9250828202611fb88161151c565b91508282048414831517611fcf57611fce6118ac565b5b509291505056fea264697066735822122002527593b8aafdfe95063b628c61c3737f1a8f7bf1338a8b311bbf169395e4f864736f6c63430008110033",
  "linkReferences": {},
  "deployedLinkReferences": {}
}