{
  "_format": "hh-sol-artifact-1",
  "contractName": "CranklessOrderBook",
  "sourceName": "contracts/CranklessOrderBook.sol",
  "abi": [
    {
      "inputs": [
        {
          "internalType": "address",
          "name": "_tokenAAddress",
          "type": "address"
        },
        {
          "internalType": "uint256",
          "name": "_tokenADecimals",
          "type": "uint256"
        },
        {
          "internalType": "address",
          "name": "_tokenBAddress",
          "type": "address"
        },
        {
          "internalType": "uint256",
          "name": "_tokenBDecimals",
          "type": "uint256"
        }
      ],
      "stateMutability": "nonpayable",
      "type": "constructor"
    },
    {
      "inputs": [
        {
          "internalType": "uint96",
          "name": "_price",
          "type": "uint96"
        },
        {
          "internalType": "uint256",
          "name": "size",
          "type": "uint256"
        }
      ],
      "name": "addBuyOrder",
      "outputs": [],
      "stateMutability": "nonpayable",
      "type": "function"
    },
    {
      "inputs": [
        {
          "internalType": "uint96",
          "name": "_price",
          "type": "uint96"
        },
        {
          "internalType": "uint256",
          "name": "size",
          "type": "uint256"
        }
      ],
      "name": "addSellOrder",
      "outputs": [],
      "stateMutability": "nonpayable",
      "type": "function"
    },
    {
      "inputs": [
        {
          "internalType": "uint256",
          "name": "_orderId",
          "type": "uint256"
        }
      ],
      "name": "cancelBuyOrder",
      "outputs": [],
      "stateMutability": "nonpayable",
      "type": "function"
    },
    {
      "inputs": [
        {
          "internalType": "uint256",
          "name": "_orderId",
          "type": "uint256"
        }
      ],
      "name": "cancelSellOrder",
      "outputs": [],
      "stateMutability": "nonpayable",
      "type": "function"
    },
    {
      "inputs": [
        {
          "internalType": "uint96[]",
          "name": "c_order_ids",
          "type": "uint96[]"
        },
        {
          "internalType": "uint256",
          "name": "_size",
          "type": "uint256"
        }
      ],
      "name": "placeAndExecuteMarketBuy",
      "outputs": [],
      "stateMutability": "nonpayable",
      "type": "function"
    },
    {
      "inputs": [
        {
          "internalType": "uint96[]",
          "name": "c_order_ids",
          "type": "uint96[]"
        },
        {
          "internalType": "uint256",
          "name": "_size",
          "type": "uint256"
        }
      ],
      "name": "placeAndExecuteMarketSell",
      "outputs": [],
      "stateMutability": "nonpayable",
      "type": "function"
    },
    {
      "inputs": [
        {
          "internalType": "uint256",
          "name": "",
          "type": "uint256"
        }
      ],
      "name": "s_buyPricePoints",
      "outputs": [
        {
          "internalType": "uint256",
          "name": "totalCompletedOrCanceledOrders",
          "type": "uint256"
        },
        {
          "internalType": "uint256",
          "name": "totalOrdersAtPrice",
          "type": "uint256"
        },
        {
          "internalType": "uint256",
          "name": "executableSize",
          "type": "uint256"
        }
      ],
      "stateMutability": "view",
      "type": "function"
    },
    {
      "inputs": [],
      "name": "s_orderIdCounter",
      "outputs": [
        {
          "internalType": "uint256",
          "name": "",
          "type": "uint256"
        }
      ],
      "stateMutability": "view",
      "type": "function"
    },
    {
      "inputs": [
        {
          "internalType": "uint256",
          "name": "",
          "type": "uint256"
        }
      ],
      "name": "s_orders",
      "outputs": [
        {
          "internalType": "address",
          "name": "ownerAddress",
          "type": "address"
        },
        {
          "internalType": "uint96",
          "name": "price",
          "type": "uint96"
        },
        {
          "internalType": "uint256",
          "name": "size",
          "type": "uint256"
        },
        {
          "internalType": "uint256",
          "name": "acceptableRange",
          "type": "uint256"
        }
      ],
      "stateMutability": "view",
      "type": "function"
    },
    {
      "inputs": [
        {
          "internalType": "uint256",
          "name": "",
          "type": "uint256"
        }
      ],
      "name": "s_sellPricePoints",
      "outputs": [
        {
          "internalType": "uint256",
          "name": "totalCompletedOrCanceledOrders",
          "type": "uint256"
        },
        {
          "internalType": "uint256",
          "name": "totalOrdersAtPrice",
          "type": "uint256"
        },
        {
          "internalType": "uint256",
          "name": "executableSize",
          "type": "uint256"
        }
      ],
      "stateMutability": "view",
      "type": "function"
    }
  ],
  "bytecode": "0x6101006040523480156200001257600080fd5b50604051620029cc380380620029cc833981810160405281019062000038919062000167565b838383838373ffffffffffffffffffffffffffffffffffffffff1660808173ffffffffffffffffffffffffffffffffffffffff16815250508173ffffffffffffffffffffffffffffffffffffffff1660a08173ffffffffffffffffffffffffffffffffffffffff16815250508260c081815250508060e081815250505050505050505050620001d9565b600080fd5b600073ffffffffffffffffffffffffffffffffffffffff82169050919050565b6000620000f482620000c7565b9050919050565b6200010681620000e7565b81146200011257600080fd5b50565b6000815190506200012681620000fb565b92915050565b6000819050919050565b62000141816200012c565b81146200014d57600080fd5b50565b600081519050620001618162000136565b92915050565b60008060008060808587031215620001845762000183620000c2565b5b6000620001948782880162000115565b9450506020620001a78782880162000150565b9350506040620001ba8782880162000115565b9250506060620001cd8782880162000150565b91505092959194509250565b60805160a05160c05160e0516127506200027c600039600081816105bb0152818161094401528181611b820152611f170152600081816104620152818161121b015281816115520152818161194a0152611d0f01526000818161056c015281816108f201528181610c3a01528181610fd40152611b34015260008181610415015281816111d201528181611504015281816118fc0152611cc501526127506000f3fe608060405234801561001057600080fd5b506004361061009e5760003560e01c8063be5d147f11610066578063be5d147f1461015e578063db225c481461017a578063dfc67a3f14610196578063e6d29b51146101b2578063f2ea2ef6146101e45761009e565b80630e2e2ffe146100a35780631a46e42a146100d557806325df67c7146100f15780632bf1360e1461010d578063a6f3c50f1461012b575b600080fd5b6100bd60048036038101906100b89190611fc7565b610200565b6040516100cc93929190612003565b60405180910390f35b6100ef60048036038101906100ea9190611fc7565b61022a565b005b61010b6004803603810190610106919061207e565b610513565b005b610115610699565b60405161012291906120be565b60405180910390f35b61014560048036038101906101409190611fc7565b61069f565b6040516101559493929190612129565b60405180910390f35b61017860048036038101906101739190611fc7565b610707565b005b610194600480360381019061018f91906121d3565b610a27565b005b6101b060048036038101906101ab91906121d3565b6112cd565b005b6101cc60048036038101906101c79190611fc7565b611c42565b6040516101db93929190612003565b60405180910390f35b6101fe60048036038101906101f9919061207e565b611c6c565b005b60026020528060005260406000206000915090508060000154908060010154908060020154905083565b60008060008381526020019081526020016000206040518060800160405290816000820160009054906101000a900473ffffffffffffffffffffffffffffffffffffffff1673ffffffffffffffffffffffffffffffffffffffff1673ffffffffffffffffffffffffffffffffffffffff1681526020016000820160149054906101000a90046bffffffffffffffffffffffff166bffffffffffffffffffffffff166bffffffffffffffffffffffff168152602001600182015481526020016002820154815250509050806000015173ffffffffffffffffffffffffffffffffffffffff163373ffffffffffffffffffffffffffffffffffffffff1614610365576040517f08c379a000000000000000000000000000000000000000000000000000000000815260040161035c906122b6565b60405180910390fd5b80604001516002600083602001516bffffffffffffffffffffffff16815260200190815260200160002060000160008282546103a19190612305565b92505081905550600080838152602001908152602001600020600080820160006101000a81549073ffffffffffffffffffffffffffffffffffffffff02191690556000820160146101000a8154906bffffffffffffffffffffffff02191690556001820160009055600282016000905550507f000000000000000000000000000000000000000000000000000000000000000073ffffffffffffffffffffffffffffffffffffffff1663a9059cbb82600001516104ae6402540be4006104a07f0000000000000000000000000000000000000000000000000000000000000000600a61048d919061246c565b8760400151611dbf90919063ffffffff16565b611dd590919063ffffffff16565b6040518363ffffffff1660e01b81526004016104cb9291906124b7565b6020604051808303816000875af11580156104ea573d6000803e3d6000fd5b505050506040513d601f19601f8201168201806040525081019061050e9190612518565b505050565b600060035490506001816105279190612305565b600381905550600060016000856bffffffffffffffffffffffff168152602001908152602001600020905061056a8185856001866105659190612305565b611deb565b7f000000000000000000000000000000000000000000000000000000000000000073ffffffffffffffffffffffffffffffffffffffff166323b872dd33306106316402540be40061062360646106157f0000000000000000000000000000000000000000000000000000000000000000600a6105e6919061246c565b6106078e6bffffffffffffffffffffffff168e611dbf90919063ffffffff16565b611dbf90919063ffffffff16565b611dd590919063ffffffff16565b611dd590919063ffffffff16565b6040518463ffffffff1660e01b815260040161064f93929190612545565b6020604051808303816000875af115801561066e573d6000803e3d6000fd5b505050506040513d601f19601f820116820180604052508101906106929190612518565b5050505050565b60035481565b60006020528060005260406000206000915090508060000160009054906101000a900473ffffffffffffffffffffffffffffffffffffffff16908060000160149054906101000a90046bffffffffffffffffffffffff16908060010154908060020154905084565b60008060008381526020019081526020016000206040518060800160405290816000820160009054906101000a900473ffffffffffffffffffffffffffffffffffffffff1673ffffffffffffffffffffffffffffffffffffffff1673ffffffffffffffffffffffffffffffffffffffff1681526020016000820160149054906101000a90046bffffffffffffffffffffffff166bffffffffffffffffffffffff166bffffffffffffffffffffffff168152602001600182015481526020016002820154815250509050806000015173ffffffffffffffffffffffffffffffffffffffff163373ffffffffffffffffffffffffffffffffffffffff1614610842576040517f08c379a0000000000000000000000000000000000000000000000000000000008152600401610839906122b6565b60405180910390fd5b80604001516001600083602001516bffffffffffffffffffffffff168152602001908152602001600020600001600082825461087e9190612305565b92505081905550600080838152602001908152602001600020600080820160006101000a81549073ffffffffffffffffffffffffffffffffffffffff02191690556000820160146101000a8154906bffffffffffffffffffffffff02191690556001820160009055600282016000905550507f000000000000000000000000000000000000000000000000000000000000000073ffffffffffffffffffffffffffffffffffffffff1663a9059cbb82600001516109c26402540be4006109b460646109a67f0000000000000000000000000000000000000000000000000000000000000000600a61096f919061246c565b6109988a602001516bffffffffffffffffffffffff168b60400151611dbf90919063ffffffff16565b611dbf90919063ffffffff16565b611dd590919063ffffffff16565b611dd590919063ffffffff16565b6040518363ffffffff1660e01b81526004016109df9291906124b7565b6020604051808303816000875af11580156109fe573d6000803e3d6000fd5b505050506040513d601f19601f82011682018060405250810190610a229190612518565b505050565b600080806000868685818110610a4057610a3f61257c565b5b9050602002016020810190610a5591906125ab565b6bffffffffffffffffffffffff1681526020019081526020016000206040518060800160405290816000820160009054906101000a900473ffffffffffffffffffffffffffffffffffffffff1673ffffffffffffffffffffffffffffffffffffffff1673ffffffffffffffffffffffffffffffffffffffff1681526020016000820160149054906101000a90046bffffffffffffffffffffffff166bffffffffffffffffffffffff166bffffffffffffffffffffffff16815260200160018201548152602001600282015481525050905060006001600083602001516bffffffffffffffffffffffff168152602001908152602001600020604051806060016040529081600082015481526020016001820154815260200160028201548152505090506000816000015183606001511115610bc5576040517f08c379a0000000000000000000000000000000000000000000000000000000008152600401610bbc90612624565b60405180910390fd5b5b826040015185118015610bdb57508686905084105b15610f9457826040015181610bf09190612305565b9050826040015185610c029190612644565b9450826040015182600001818151610c1a9190612305565b91508181525050600083602001516bffffffffffffffffffffffff1690507f000000000000000000000000000000000000000000000000000000000000000073ffffffffffffffffffffffffffffffffffffffff166323b872dd338660000151610c9a886040015189602001516bffffffffffffffffffffffff16611f02565b6040518463ffffffff1660e01b8152600401610cb893929190612545565b6020604051808303816000875af1158015610cd7573d6000803e3d6000fd5b505050506040513d601f19601f82011682018060405250810190610cfb9190612518565b506000846040018181525050836000808a8a89818110610d1e57610d1d61257c565b5b9050602002016020810190610d3391906125ab565b6bffffffffffffffffffffffff16815260200190815260200160002060008201518160000160006101000a81548173ffffffffffffffffffffffffffffffffffffffff021916908373ffffffffffffffffffffffffffffffffffffffff16021790555060208201518160000160146101000a8154816bffffffffffffffffffffffff02191690836bffffffffffffffffffffffff1602179055506040820151816001015560608201518160020155905050600185610df19190612305565b9450600080898988818110610e0957610e0861257c565b5b9050602002016020810190610e1e91906125ab565b6bffffffffffffffffffffffff1681526020019081526020016000206040518060800160405290816000820160009054906101000a900473ffffffffffffffffffffffffffffffffffffffff1673ffffffffffffffffffffffffffffffffffffffff1673ffffffffffffffffffffffffffffffffffffffff1681526020016000820160149054906101000a90046bffffffffffffffffffffffff166bffffffffffffffffffffffff166bffffffffffffffffffffffff16815260200160018201548152602001600282015481525050935083602001516bffffffffffffffffffffffff168114610f8e5782600160008381526020019081526020016000206000820151816000015560208201518160010155604082015181600201559050506001600085602001516bffffffffffffffffffffffff168152602001908152602001600020604051806060016040529081600082015481526020016001820154815260200160028201548152505092505b50610bc6565b600085118015610fa657508686905084105b156111d0578482600001818151610fbd9190612305565b915081815250508481610fd09190612305565b90507f000000000000000000000000000000000000000000000000000000000000000073ffffffffffffffffffffffffffffffffffffffff166323b872dd3385600001516110308988602001516bffffffffffffffffffffffff16611f02565b6040518463ffffffff1660e01b815260040161104e93929190612545565b6020604051808303816000875af115801561106d573d6000803e3d6000fd5b505050506040513d601f19601f820116820180604052508101906110919190612518565b5084836040018181516110a49190612644565b91508181525050826000808989888181106110c2576110c161257c565b5b90506020020160208101906110d791906125ab565b6bffffffffffffffffffffffff16815260200190815260200160002060008201518160000160006101000a81548173ffffffffffffffffffffffffffffffffffffffff021916908373ffffffffffffffffffffffffffffffffffffffff16021790555060208201518160000160146101000a8154816bffffffffffffffffffffffff02191690836bffffffffffffffffffffffff1602179055506040820151816001015560608201518160020155905050816001600085602001516bffffffffffffffffffffffff1681526020019081526020016000206000820151816000015560208201518160010155604082015181600201559050505b7f000000000000000000000000000000000000000000000000000000000000000073ffffffffffffffffffffffffffffffffffffffff1663a9059cbb336112636402540be4006112557f0000000000000000000000000000000000000000000000000000000000000000600a611246919061246c565b87611dbf90919063ffffffff16565b611dd590919063ffffffff16565b6040518363ffffffff1660e01b81526004016112809291906124b7565b6020604051808303816000875af115801561129f573d6000803e3d6000fd5b505050506040513d601f19601f820116820180604052508101906112c39190612518565b5050505050505050565b6000808060008686858181106112e6576112e561257c565b5b90506020020160208101906112fb91906125ab565b6bffffffffffffffffffffffff1681526020019081526020016000206040518060800160405290816000820160009054906101000a900473ffffffffffffffffffffffffffffffffffffffff1673ffffffffffffffffffffffffffffffffffffffff1673ffffffffffffffffffffffffffffffffffffffff1681526020016000820160149054906101000a90046bffffffffffffffffffffffff166bffffffffffffffffffffffff166bffffffffffffffffffffffff16815260200160018201548152602001600282015481525050905060006002600083602001516bffffffffffffffffffffffff16815260200190815260200160002060405180606001604052908160008201548152602001600182015481526020016002820154815250509050600081600001518360600151111561146b576040517f08c379a000000000000000000000000000000000000000000000000000000000815260040161146290612624565b60405180910390fd5b5b82604001518511801561148157508686905084105b15611898576114af83602001516bffffffffffffffffffffffff168460400151611dbf90919063ffffffff16565b816114ba9190612305565b90508260400151856114cc9190612644565b94508260400151826000018181516114e49190612305565b91508181525050600083602001516bffffffffffffffffffffffff1690507f000000000000000000000000000000000000000000000000000000000000000073ffffffffffffffffffffffffffffffffffffffff166323b872dd33866000015161159e6402540be4006115907f0000000000000000000000000000000000000000000000000000000000000000600a61157d919061246c565b8b60400151611dbf90919063ffffffff16565b611dd590919063ffffffff16565b6040518463ffffffff1660e01b81526004016115bc93929190612545565b6020604051808303816000875af11580156115db573d6000803e3d6000fd5b505050506040513d601f19601f820116820180604052508101906115ff9190612518565b506000846040018181525050836000808a8a898181106116225761162161257c565b5b905060200201602081019061163791906125ab565b6bffffffffffffffffffffffff16815260200190815260200160002060008201518160000160006101000a81548173ffffffffffffffffffffffffffffffffffffffff021916908373ffffffffffffffffffffffffffffffffffffffff16021790555060208201518160000160146101000a8154816bffffffffffffffffffffffff02191690836bffffffffffffffffffffffff16021790555060408201518160010155606082015181600201559050506001856116f59190612305565b945060008089898881811061170d5761170c61257c565b5b905060200201602081019061172291906125ab565b6bffffffffffffffffffffffff1681526020019081526020016000206040518060800160405290816000820160009054906101000a900473ffffffffffffffffffffffffffffffffffffffff1673ffffffffffffffffffffffffffffffffffffffff1673ffffffffffffffffffffffffffffffffffffffff1681526020016000820160149054906101000a90046bffffffffffffffffffffffff166bffffffffffffffffffffffff166bffffffffffffffffffffffff16815260200160018201548152602001600282015481525050935083602001516bffffffffffffffffffffffff1681146118925782600160008381526020019081526020016000206000820151816000015560208201518160010155604082015181600201559050506001600085602001516bffffffffffffffffffffffff168152602001908152602001600020604051806060016040529081600082015481526020016001820154815260200160028201548152505092505b5061146c565b6000851180156118aa57508686905084105b15611b325784826000018181516118c19190612305565b915081815250506118ed83602001516bffffffffffffffffffffffff1686611dbf90919063ffffffff16565b816118f89190612305565b90507f000000000000000000000000000000000000000000000000000000000000000073ffffffffffffffffffffffffffffffffffffffff166323b872dd3385600001516119926402540be4006119847f0000000000000000000000000000000000000000000000000000000000000000600a611975919061246c565b8c611dbf90919063ffffffff16565b611dd590919063ffffffff16565b6040518463ffffffff1660e01b81526004016119b093929190612545565b6020604051808303816000875af11580156119cf573d6000803e3d6000fd5b505050506040513d601f19601f820116820180604052508101906119f39190612518565b508483604001818151611a069190612644565b9150818152505082600080898988818110611a2457611a2361257c565b5b9050602002016020810190611a3991906125ab565b6bffffffffffffffffffffffff16815260200190815260200160002060008201518160000160006101000a81548173ffffffffffffffffffffffffffffffffffffffff021916908373ffffffffffffffffffffffffffffffffffffffff16021790555060208201518160000160146101000a8154816bffffffffffffffffffffffff02191690836bffffffffffffffffffffffff1602179055506040820151816001015560608201518160020155905050816001600085602001516bffffffffffffffffffffffff1681526020019081526020016000206000820151816000015560208201518160010155604082015181600201559050505b7f000000000000000000000000000000000000000000000000000000000000000073ffffffffffffffffffffffffffffffffffffffff1663a9059cbb33611bd86402540be400611bca6064611bbc7f0000000000000000000000000000000000000000000000000000000000000000600a611bad919061246c565b89611dbf90919063ffffffff16565b611dd590919063ffffffff16565b611dd590919063ffffffff16565b6040518363ffffffff1660e01b8152600401611bf59291906124b7565b6020604051808303816000875af1158015611c14573d6000803e3d6000fd5b505050506040513d601f19601f82011682018060405250810190611c389190612518565b5050505050505050565b60016020528060005260406000206000915090508060000154908060010154908060020154905083565b60006003549050600181611c809190612305565b600381905550600060026000856bffffffffffffffffffffffff1681526020019081526020016000209050611cc3818585600186611cbe9190612305565b611deb565b7f000000000000000000000000000000000000000000000000000000000000000073ffffffffffffffffffffffffffffffffffffffff166323b872dd3330611d576402540be400611d497f0000000000000000000000000000000000000000000000000000000000000000600a611d3a919061246c565b8a611dbf90919063ffffffff16565b611dd590919063ffffffff16565b6040518463ffffffff1660e01b8152600401611d7593929190612545565b6020604051808303816000875af1158015611d94573d6000803e3d6000fd5b505050506040513d601f19601f82011682018060405250810190611db89190612518565b5050505050565b60008183611dcd9190612678565b905092915050565b60008183611de391906126e9565b905092915050565b60008460010154905060405180608001604052803373ffffffffffffffffffffffffffffffffffffffff168152602001856bffffffffffffffffffffffff1681526020018481526020018281525060008084815260200190815260200160002060008201518160000160006101000a81548173ffffffffffffffffffffffffffffffffffffffff021916908373ffffffffffffffffffffffffffffffffffffffff16021790555060208201518160000160146101000a8154816bffffffffffffffffffffffff02191690836bffffffffffffffffffffffff160217905550604082015181600101556060820151816002015590505082856001016000828254611ef49190612305565b925050819055505050505050565b6000611f7f6402540be400611f716064611f637f0000000000000000000000000000000000000000000000000000000000000000600a611f42919061246c565b611f55888a611dbf90919063ffffffff16565b611dbf90919063ffffffff16565b611dd590919063ffffffff16565b611dd590919063ffffffff16565b905092915050565b600080fd5b600080fd5b6000819050919050565b611fa481611f91565b8114611faf57600080fd5b50565b600081359050611fc181611f9b565b92915050565b600060208284031215611fdd57611fdc611f87565b5b6000611feb84828501611fb2565b91505092915050565b611ffd81611f91565b82525050565b60006060820190506120186000830186611ff4565b6120256020830185611ff4565b6120326040830184611ff4565b949350505050565b60006bffffffffffffffffffffffff82169050919050565b61205b8161203a565b811461206657600080fd5b50565b60008135905061207881612052565b92915050565b6000806040838503121561209557612094611f87565b5b60006120a385828601612069565b92505060206120b485828601611fb2565b9150509250929050565b60006020820190506120d36000830184611ff4565b92915050565b600073ffffffffffffffffffffffffffffffffffffffff82169050919050565b6000612104826120d9565b9050919050565b612114816120f9565b82525050565b6121238161203a565b82525050565b600060808201905061213e600083018761210b565b61214b602083018661211a565b6121586040830185611ff4565b6121656060830184611ff4565b95945050505050565b600080fd5b600080fd5b600080fd5b60008083601f8401126121935761219261216e565b5b8235905067ffffffffffffffff8111156121b0576121af612173565b5b6020830191508360208202830111156121cc576121cb612178565b5b9250929050565b6000806000604084860312156121ec576121eb611f87565b5b600084013567ffffffffffffffff81111561220a57612209611f8c565b5b6122168682870161217d565b9350935050602061222986828701611fb2565b9150509250925092565b600082825260208201905092915050565b7f4f72646572426f6f6b3a204f6e6c79206f72646572206f776e65722063616e2060008201527f63616e63656c206f726465720000000000000000000000000000000000000000602082015250565b60006122a0602c83612233565b91506122ab82612244565b604082019050919050565b600060208201905081810360008301526122cf81612293565b9050919050565b7f4e487b7100000000000000000000000000000000000000000000000000000000600052601160045260246000fd5b600061231082611f91565b915061231b83611f91565b9250828201905080821115612333576123326122d6565b5b92915050565b60008160011c9050919050565b6000808291508390505b60018511156123905780860481111561236c5761236b6122d6565b5b600185161561237b5780820291505b808102905061238985612339565b9450612350565b94509492505050565b6000826123a95760019050612465565b816123b75760009050612465565b81600181146123cd57600281146123d757612406565b6001915050612465565b60ff8411156123e9576123e86122d6565b5b8360020a915084821115612400576123ff6122d6565b5b50612465565b5060208310610133831016604e8410600b841016171561243b5782820a905083811115612436576124356122d6565b5b612465565b6124488484846001612346565b9250905081840481111561245f5761245e6122d6565b5b81810290505b9392505050565b600061247782611f91565b915061248283611f91565b92506124af7fffffffffffffffffffffffffffffffffffffffffffffffffffffffffffffffff8484612399565b905092915050565b60006040820190506124cc600083018561210b565b6124d96020830184611ff4565b9392505050565b60008115159050919050565b6124f5816124e0565b811461250057600080fd5b50565b600081519050612512816124ec565b92915050565b60006020828403121561252e5761252d611f87565b5b600061253c84828501612503565b91505092915050565b600060608201905061255a600083018661210b565b612567602083018561210b565b6125746040830184611ff4565b949350505050565b7f4e487b7100000000000000000000000000000000000000000000000000000000600052603260045260246000fd5b6000602082840312156125c1576125c0611f87565b5b60006125cf84828501612069565b91505092915050565b7f4f72646572426f6f6b3a206f72646572206e6f742065786563757461626c6500600082015250565b600061260e601f83612233565b9150612619826125d8565b602082019050919050565b6000602082019050818103600083015261263d81612601565b9050919050565b600061264f82611f91565b915061265a83611f91565b9250828203905081811115612672576126716122d6565b5b92915050565b600061268382611f91565b915061268e83611f91565b925082820261269c81611f91565b915082820484148315176126b3576126b26122d6565b5b5092915050565b7f4e487b7100000000000000000000000000000000000000000000000000000000600052601260045260246000fd5b60006126f482611f91565b91506126ff83611f91565b92508261270f5761270e6126ba565b5b82820490509291505056fea26469706673582212203fa1b83c4bc3a830265fb04601b798cab879478a1b779389f8495cd4c535f54e64736f6c63430008110033",
  "linkReferences": {},
  "deployedLinkReferences": {}
}