{
  "_format": "hh-sol-artifact-1",
  "contractName": "CranklessOrderBook",
  "sourceName": "contracts/CranklessOrderBook.sol",
  "abi": [
    {
      "inputs": [
        {
          "internalType": "address",
          "name": "_tokenAAddress",
          "type": "address"
        },
        {
          "internalType": "uint256",
          "name": "_tokenADecimals",
          "type": "uint256"
        },
        {
          "internalType": "address",
          "name": "_tokenBAddress",
          "type": "address"
        },
        {
          "internalType": "uint256",
          "name": "_tokenBDecimals",
          "type": "uint256"
        }
      ],
      "stateMutability": "nonpayable",
      "type": "constructor"
    },
    {
      "inputs": [
        {
          "internalType": "uint96",
          "name": "_price",
          "type": "uint96"
        },
        {
          "internalType": "uint128",
          "name": "size",
          "type": "uint128"
        }
      ],
      "name": "addBuyOrder",
      "outputs": [],
      "stateMutability": "nonpayable",
      "type": "function"
    },
    {
      "inputs": [
        {
          "internalType": "uint96",
          "name": "_price",
          "type": "uint96"
        },
        {
          "internalType": "uint128",
          "name": "size",
          "type": "uint128"
        }
      ],
      "name": "addSellOrder",
      "outputs": [],
      "stateMutability": "nonpayable",
      "type": "function"
    },
    {
      "inputs": [
        {
          "internalType": "uint256[]",
          "name": "_orderIds",
          "type": "uint256[]"
        },
        {
          "internalType": "bool[]",
          "name": "_isBuy",
          "type": "bool[]"
        }
      ],
      "name": "batchCancelOrders",
      "outputs": [],
      "stateMutability": "nonpayable",
      "type": "function"
    },
    {
      "inputs": [
        {
          "internalType": "uint256",
          "name": "_orderId",
          "type": "uint256"
        }
      ],
      "name": "cancelBuyOrder",
      "outputs": [],
      "stateMutability": "nonpayable",
      "type": "function"
    },
    {
      "inputs": [
        {
          "internalType": "uint256",
          "name": "_orderId",
          "type": "uint256"
        }
      ],
      "name": "cancelSellOrder",
      "outputs": [],
      "stateMutability": "nonpayable",
      "type": "function"
    },
    {
      "inputs": [
        {
          "internalType": "uint96[]",
          "name": "c_order_ids",
          "type": "uint96[]"
        },
        {
          "internalType": "uint128",
          "name": "_size",
          "type": "uint128"
        },
        {
          "internalType": "uint96",
          "name": "_price",
          "type": "uint96"
        }
      ],
      "name": "placeAggressivelimitBuy",
      "outputs": [],
      "stateMutability": "nonpayable",
      "type": "function"
    },
    {
      "inputs": [
        {
          "internalType": "uint96[]",
          "name": "c_order_ids",
          "type": "uint96[]"
        },
        {
          "internalType": "uint128",
          "name": "_size",
          "type": "uint128"
        },
        {
          "internalType": "uint96",
          "name": "_price",
          "type": "uint96"
        }
      ],
      "name": "placeAggressivelimitSell",
      "outputs": [],
      "stateMutability": "nonpayable",
      "type": "function"
    },
    {
      "inputs": [
        {
          "internalType": "uint96[]",
          "name": "c_order_ids",
          "type": "uint96[]"
        },
        {
          "internalType": "uint128",
          "name": "_size",
          "type": "uint128"
        },
        {
          "internalType": "bool",
          "name": "_isFillOrKill",
          "type": "bool"
        }
      ],
      "name": "placeAndExecuteMarketBuy",
      "outputs": [
        {
          "internalType": "uint128",
          "name": "",
          "type": "uint128"
        }
      ],
      "stateMutability": "nonpayable",
      "type": "function"
    },
    {
      "inputs": [
        {
          "internalType": "uint96[]",
          "name": "c_order_ids",
          "type": "uint96[]"
        },
        {
          "internalType": "uint128",
          "name": "_size",
          "type": "uint128"
        },
        {
          "internalType": "bool",
          "name": "_isFillOrKill",
          "type": "bool"
        }
      ],
      "name": "placeAndExecuteMarketSell",
      "outputs": [
        {
          "internalType": "uint128",
          "name": "",
          "type": "uint128"
        }
      ],
      "stateMutability": "nonpayable",
      "type": "function"
    },
    {
      "inputs": [
        {
          "internalType": "uint96[]",
          "name": "_prices",
          "type": "uint96[]"
        },
        {
          "internalType": "uint128[]",
          "name": "_sizes",
          "type": "uint128[]"
        }
      ],
      "name": "placeMultipleBuyOrders",
      "outputs": [],
      "stateMutability": "nonpayable",
      "type": "function"
    },
    {
      "inputs": [
        {
          "internalType": "uint96[]",
          "name": "_prices",
          "type": "uint96[]"
        },
        {
          "internalType": "uint128[]",
          "name": "_sizes",
          "type": "uint128[]"
        }
      ],
      "name": "placeMultipleSellOrders",
      "outputs": [],
      "stateMutability": "nonpayable",
      "type": "function"
    },
    {
      "inputs": [
        {
          "internalType": "uint256[]",
          "name": "_orderIds",
          "type": "uint256[]"
        },
        {
          "internalType": "bool[]",
          "name": "_isBuy",
          "type": "bool[]"
        },
        {
          "internalType": "uint96[]",
          "name": "_price",
          "type": "uint96[]"
        }
      ],
      "name": "replaceOrders",
      "outputs": [],
      "stateMutability": "nonpayable",
      "type": "function"
    },
    {
      "inputs": [
        {
          "internalType": "uint256",
          "name": "",
          "type": "uint256"
        }
      ],
      "name": "s_buyPricePoints",
      "outputs": [
        {
          "internalType": "uint128",
          "name": "totalCompletedOrCanceledOrders",
          "type": "uint128"
        },
        {
          "internalType": "uint128",
          "name": "totalOrdersAtPrice",
          "type": "uint128"
        },
        {
          "internalType": "uint128",
          "name": "executableSize",
          "type": "uint128"
        }
      ],
      "stateMutability": "view",
      "type": "function"
    },
    {
      "inputs": [],
      "name": "s_orderIdCounter",
      "outputs": [
        {
          "internalType": "uint256",
          "name": "",
          "type": "uint256"
        }
      ],
      "stateMutability": "view",
      "type": "function"
    },
    {
      "inputs": [
        {
          "internalType": "uint256",
          "name": "",
          "type": "uint256"
        }
      ],
      "name": "s_orders",
      "outputs": [
        {
          "internalType": "address",
          "name": "ownerAddress",
          "type": "address"
        },
        {
          "internalType": "uint96",
          "name": "price",
          "type": "uint96"
        },
        {
          "internalType": "uint128",
          "name": "size",
          "type": "uint128"
        },
        {
          "internalType": "uint128",
          "name": "acceptableRange",
          "type": "uint128"
        }
      ],
      "stateMutability": "view",
      "type": "function"
    },
    {
      "inputs": [
        {
          "internalType": "uint256",
          "name": "",
          "type": "uint256"
        }
      ],
      "name": "s_sellPricePoints",
      "outputs": [
        {
          "internalType": "uint128",
          "name": "totalCompletedOrCanceledOrders",
          "type": "uint128"
        },
        {
          "internalType": "uint128",
          "name": "totalOrdersAtPrice",
          "type": "uint128"
        },
        {
          "internalType": "uint128",
          "name": "executableSize",
          "type": "uint128"
        }
      ],
      "stateMutability": "view",
      "type": "function"
    }
  ],
  "bytecode": "0x6101006040523480156200001257600080fd5b5060405162004e0838038062004e08833981810160405281019062000038919062000167565b838383838373ffffffffffffffffffffffffffffffffffffffff1660808173ffffffffffffffffffffffffffffffffffffffff16815250508173ffffffffffffffffffffffffffffffffffffffff1660a08173ffffffffffffffffffffffffffffffffffffffff16815250508260c081815250508060e081815250505050505050505050620001d9565b600080fd5b600073ffffffffffffffffffffffffffffffffffffffff82169050919050565b6000620000f482620000c7565b9050919050565b6200010681620000e7565b81146200011257600080fd5b50565b6000815190506200012681620000fb565b92915050565b6000819050919050565b62000141816200012c565b81146200014d57600080fd5b50565b600081519050620001618162000136565b92915050565b60008060008060808587031215620001845762000183620000c2565b5b6000620001948782880162000115565b9450506020620001a78782880162000150565b9350506040620001ba8782880162000115565b9250506060620001cd8782880162000150565b91505092959194509250565b60805160a05160c05160e051614b8c6200027c600039600081816118030152818161289f01528181612f3101526136d90152600081816112c7015281816116a901528181611e2d015281816124db01526134bf01526000818161088401528181610ee9015281816117bd0152818161285a0152612ee80152600081816112840152818161166201528181611de501528181612493015261347b0152614b8c6000f3fe608060405234801561001057600080fd5b50600436106101005760003560e01c80637af7b82a11610097578063e5d0516c11610066578063e5d0516c146102ac578063e6d29b51146102c8578063eb2e70c8146102fa578063ece2e87f1461031657610100565b80637af7b82a14610225578063a6f3c50f14610241578063b722153f14610274578063be5d147f1461029057610100565b806324b291db116100d357806324b291db1461019f5780632bf1360e146101bb5780634ff57439146101d9578063615fd6b6146101f557610100565b80630ab86eaa146101055780630e2e2ffe1461012157806316683ef8146101535780631a46e42a14610183575b600080fd5b61011f600480360381019061011a9190613a46565b610332565b005b61013b60048036038101906101369190613af0565b61042d565b60405161014a93929190613b2c565b60405180910390f35b61016d60048036038101906101689190613b9b565b6104ab565b60405161017a9190613c0f565b60405180910390f35b61019d60048036038101906101989190613af0565b611377565b005b6101b960048036038101906101b49190613c2a565b611764565b005b6101c36118e0565b6040516101d09190613c79565b60405180910390f35b6101f360048036038101906101ee9190613ea6565b6118e6565b005b61020f600480360381019061020a9190613b9b565b6119ef565b60405161021c9190613c0f565b60405180910390f35b61023f600480360381019061023a9190613a46565b612959565b005b61025b60048036038101906102569190613af0565b612a54565b60405161026b9493929190613f6e565b60405180910390f35b61028e60048036038101906102899190613ea6565b612af4565b005b6102aa60048036038101906102a59190613af0565b612bfd565b005b6102c660048036038101906102c1919061405f565b613013565b005b6102e260048036038101906102dd9190613af0565b6133a4565b6040516102f193929190613b2c565b60405180910390f35b610314600480360381019061030f9190613c2a565b613422565b005b610330600480360381019061032b9190614299565b613579565b005b60003073ffffffffffffffffffffffffffffffffffffffff1663615fd6b686868660006040518563ffffffff1660e01b815260040161037494939291906143e3565b6020604051808303816000875af1158015610393573d6000803e3d6000fd5b505050506040513d601f19601f820116820180604052508101906103b79190614438565b90503073ffffffffffffffffffffffffffffffffffffffff1663eb2e70c883836040518363ffffffff1660e01b81526004016103f4929190614465565b600060405180830381600087803b15801561040e57600080fd5b505af1158015610422573d6000803e3d6000fd5b505050505050505050565b60026020528060005260406000206000915090508060000160009054906101000a90046fffffffffffffffffffffffffffffffff16908060000160109054906101000a90046fffffffffffffffffffffffffffffffff16908060010160009054906101000a90046fffffffffffffffffffffffffffffffff16905083565b6000806000905060008060008888858181106104ca576104c961448e565b5b90506020020160208101906104df91906144bd565b6bffffffffffffffffffffffff1681526020019081526020016000206040518060800160405290816000820160009054906101000a900473ffffffffffffffffffffffffffffffffffffffff1673ffffffffffffffffffffffffffffffffffffffff1673ffffffffffffffffffffffffffffffffffffffff1681526020016000820160149054906101000a90046bffffffffffffffffffffffff166bffffffffffffffffffffffff166bffffffffffffffffffffffff1681526020016001820160009054906101000a90046fffffffffffffffffffffffffffffffff166fffffffffffffffffffffffffffffffff166fffffffffffffffffffffffffffffffff1681526020016001820160109054906101000a90046fffffffffffffffffffffffffffffffff166fffffffffffffffffffffffffffffffff166fffffffffffffffffffffffffffffffff1681525050905060006001600083602001516bffffffffffffffffffffffff1681526020019081526020016000206040518060600160405290816000820160009054906101000a90046fffffffffffffffffffffffffffffffff166fffffffffffffffffffffffffffffffff166fffffffffffffffffffffffffffffffff1681526020016000820160109054906101000a90046fffffffffffffffffffffffffffffffff166fffffffffffffffffffffffffffffffff166fffffffffffffffffffffffffffffffff1681526020016001820160009054906101000a90046fffffffffffffffffffffffffffffffff166fffffffffffffffffffffffffffffffff166fffffffffffffffffffffffffffffffff16815250509050600081600001516fffffffffffffffffffffffffffffffff1683606001516fffffffffffffffffffffffffffffffff1611156107b3576040517f08c379a00000000000000000000000000000000000000000000000000000000081526004016107aa90614547565b60405180910390fd5b5b82604001516fffffffffffffffffffffffffffffffff16876fffffffffffffffffffffffffffffffff161180156107ed57508888905084105b15610e5f5782604001516fffffffffffffffffffffffffffffffff16816108149190614596565b905082604001518761082691906145ca565b965082604001518260000181815161083e919061460e565b9150906fffffffffffffffffffffffffffffffff1690816fffffffffffffffffffffffffffffffff1681525050600083602001516bffffffffffffffffffffffff1690507f000000000000000000000000000000000000000000000000000000000000000073ffffffffffffffffffffffffffffffffffffffff166323b872dd3386600001516108f688604001516fffffffffffffffffffffffffffffffff1689602001516bffffffffffffffffffffffff166136cd565b6040518463ffffffff1660e01b815260040161091493929190614652565b6020604051808303816000875af1158015610933573d6000803e3d6000fd5b505050506040513d601f19601f82011682018060405250810190610957919061469e565b50600084604001906fffffffffffffffffffffffffffffffff1690816fffffffffffffffffffffffffffffffff1681525050836000808c8c898181106109a05761099f61448e565b5b90506020020160208101906109b591906144bd565b6bffffffffffffffffffffffff16815260200190815260200160002060008201518160000160006101000a81548173ffffffffffffffffffffffffffffffffffffffff021916908373ffffffffffffffffffffffffffffffffffffffff16021790555060208201518160000160146101000a8154816bffffffffffffffffffffffff02191690836bffffffffffffffffffffffff16021790555060408201518160010160006101000a8154816fffffffffffffffffffffffffffffffff02191690836fffffffffffffffffffffffffffffffff16021790555060608201518160010160106101000a8154816fffffffffffffffffffffffffffffffff02191690836fffffffffffffffffffffffffffffffff160217905550905050600185610add9190614596565b94506000808b8b88818110610af557610af461448e565b5b9050602002016020810190610b0a91906144bd565b6bffffffffffffffffffffffff1681526020019081526020016000206040518060800160405290816000820160009054906101000a900473ffffffffffffffffffffffffffffffffffffffff1673ffffffffffffffffffffffffffffffffffffffff1673ffffffffffffffffffffffffffffffffffffffff1681526020016000820160149054906101000a90046bffffffffffffffffffffffff166bffffffffffffffffffffffff166bffffffffffffffffffffffff1681526020016001820160009054906101000a90046fffffffffffffffffffffffffffffffff166fffffffffffffffffffffffffffffffff166fffffffffffffffffffffffffffffffff1681526020016001820160109054906101000a90046fffffffffffffffffffffffffffffffff166fffffffffffffffffffffffffffffffff166fffffffffffffffffffffffffffffffff1681525050935083602001516bffffffffffffffffffffffff168114610e5957826001600083815260200190815260200160002060008201518160000160006101000a8154816fffffffffffffffffffffffffffffffff02191690836fffffffffffffffffffffffffffffffff16021790555060208201518160000160106101000a8154816fffffffffffffffffffffffffffffffff02191690836fffffffffffffffffffffffffffffffff16021790555060408201518160010160006101000a8154816fffffffffffffffffffffffffffffffff02191690836fffffffffffffffffffffffffffffffff1602179055509050506001600085602001516bffffffffffffffffffffffff1681526020019081526020016000206040518060600160405290816000820160009054906101000a90046fffffffffffffffffffffffffffffffff166fffffffffffffffffffffffffffffffff166fffffffffffffffffffffffffffffffff1681526020016000820160109054906101000a90046fffffffffffffffffffffffffffffffff166fffffffffffffffffffffffffffffffff166fffffffffffffffffffffffffffffffff1681526020016001820160009054906101000a90046fffffffffffffffffffffffffffffffff166fffffffffffffffffffffffffffffffff166fffffffffffffffffffffffffffffffff168152505092505b506107b4565b6000876fffffffffffffffffffffffffffffffff16118015610e8357508888905084105b15611226578682600001818151610e9a919061460e565b9150906fffffffffffffffffffffffffffffffff1690816fffffffffffffffffffffffffffffffff1681525050866fffffffffffffffffffffffffffffffff1681610ee59190614596565b90507f000000000000000000000000000000000000000000000000000000000000000073ffffffffffffffffffffffffffffffffffffffff166323b872dd338560000151610f578b6fffffffffffffffffffffffffffffffff1688602001516bffffffffffffffffffffffff166136cd565b6040518463ffffffff1660e01b8152600401610f7593929190614652565b6020604051808303816000875af1158015610f94573d6000803e3d6000fd5b505050506040513d601f19601f82011682018060405250810190610fb8919061469e565b508683604001818151610fcb91906145ca565b9150906fffffffffffffffffffffffffffffffff1690816fffffffffffffffffffffffffffffffff1681525050826000808b8b8881811061100f5761100e61448e565b5b905060200201602081019061102491906144bd565b6bffffffffffffffffffffffff16815260200190815260200160002060008201518160000160006101000a81548173ffffffffffffffffffffffffffffffffffffffff021916908373ffffffffffffffffffffffffffffffffffffffff16021790555060208201518160000160146101000a8154816bffffffffffffffffffffffff02191690836bffffffffffffffffffffffff16021790555060408201518160010160006101000a8154816fffffffffffffffffffffffffffffffff02191690836fffffffffffffffffffffffffffffffff16021790555060608201518160010160106101000a8154816fffffffffffffffffffffffffffffffff02191690836fffffffffffffffffffffffffffffffff160217905550905050816001600085602001516bffffffffffffffffffffffff16815260200190815260200160002060008201518160000160006101000a8154816fffffffffffffffffffffffffffffffff02191690836fffffffffffffffffffffffffffffffff16021790555060208201518160000160106101000a8154816fffffffffffffffffffffffffffffffff02191690836fffffffffffffffffffffffffffffffff16021790555060408201518160010160006101000a8154816fffffffffffffffffffffffffffffffff02191690836fffffffffffffffffffffffffffffffff1602179055509050505b8515611282576000876fffffffffffffffffffffffffffffffff1614611281576040517f08c379a000000000000000000000000000000000000000000000000000000000815260040161127890614717565b60405180910390fd5b5b7f000000000000000000000000000000000000000000000000000000000000000073ffffffffffffffffffffffffffffffffffffffff1663a9059cbb336402540be4007f0000000000000000000000000000000000000000000000000000000000000000600a6112f2919061486a565b856112fd91906148b5565b6113079190614926565b6040518363ffffffff1660e01b8152600401611324929190614957565b6020604051808303816000875af1158015611343573d6000803e3d6000fd5b505050506040513d601f19601f82011682018060405250810190611367919061469e565b5086945050505050949350505050565b60008060008381526020019081526020016000206040518060800160405290816000820160009054906101000a900473ffffffffffffffffffffffffffffffffffffffff1673ffffffffffffffffffffffffffffffffffffffff1673ffffffffffffffffffffffffffffffffffffffff1681526020016000820160149054906101000a90046bffffffffffffffffffffffff166bffffffffffffffffffffffff166bffffffffffffffffffffffff1681526020016001820160009054906101000a90046fffffffffffffffffffffffffffffffff166fffffffffffffffffffffffffffffffff166fffffffffffffffffffffffffffffffff1681526020016001820160109054906101000a90046fffffffffffffffffffffffffffffffff166fffffffffffffffffffffffffffffffff166fffffffffffffffffffffffffffffffff16815250509050806000015173ffffffffffffffffffffffffffffffffffffffff163373ffffffffffffffffffffffffffffffffffffffff1614611532576040517f08c379a0000000000000000000000000000000000000000000000000000000008152600401611529906149f2565b60405180910390fd5b80604001516002600083602001516bffffffffffffffffffffffff16815260200190815260200160002060000160008282829054906101000a90046fffffffffffffffffffffffffffffffff16611589919061460e565b92506101000a8154816fffffffffffffffffffffffffffffffff02191690836fffffffffffffffffffffffffffffffff160217905550600080838152602001908152602001600020600080820160006101000a81549073ffffffffffffffffffffffffffffffffffffffff02191690556000820160146101000a8154906bffffffffffffffffffffffff02191690556001820160006101000a8154906fffffffffffffffffffffffffffffffff02191690556001820160106101000a8154906fffffffffffffffffffffffffffffffff021916905550507f000000000000000000000000000000000000000000000000000000000000000073ffffffffffffffffffffffffffffffffffffffff1663a9059cbb82600001516402540be4007f0000000000000000000000000000000000000000000000000000000000000000600a6116d4919061486a565b85604001516fffffffffffffffffffffffffffffffff166116f591906148b5565b6116ff9190614926565b6040518363ffffffff1660e01b815260040161171c929190614957565b6020604051808303816000875af115801561173b573d6000803e3d6000fd5b505050506040513d601f19601f8201168201806040525081019061175f919061469e565b505050565b600060035490506001816117789190614596565b600381905550600060016000856bffffffffffffffffffffffff16815260200190815260200160002090506117bb8185856001866117b69190614596565b613736565b7f000000000000000000000000000000000000000000000000000000000000000073ffffffffffffffffffffffffffffffffffffffff166323b872dd33306402540be40060647f0000000000000000000000000000000000000000000000000000000000000000600a61182e919061486a565b8a6bffffffffffffffffffffffff168a6118489190614a12565b6fffffffffffffffffffffffffffffffff1661186491906148b5565b61186e9190614926565b6118789190614926565b6040518463ffffffff1660e01b815260040161189693929190614652565b6020604051808303816000875af11580156118b5573d6000803e3d6000fd5b505050506040513d601f19601f820116820180604052508101906118d9919061469e565b5050505050565b60035481565b805182511461192a576040517f08c379a000000000000000000000000000000000000000000000000000000000815260040161192190614ac1565b60405180910390fd5b60005b82518110156119ea573073ffffffffffffffffffffffffffffffffffffffff1663eb2e70c88483815181106119655761196461448e565b5b60200260200101518484815181106119805761197f61448e565b5b60200260200101516040518363ffffffff1660e01b81526004016119a5929190614465565b600060405180830381600087803b1580156119bf57600080fd5b505af11580156119d3573d6000803e3d6000fd5b5050505080806119e290614ae1565b91505061192d565b505050565b600080600090506000806000888885818110611a0e57611a0d61448e565b5b9050602002016020810190611a2391906144bd565b6bffffffffffffffffffffffff1681526020019081526020016000206040518060800160405290816000820160009054906101000a900473ffffffffffffffffffffffffffffffffffffffff1673ffffffffffffffffffffffffffffffffffffffff1673ffffffffffffffffffffffffffffffffffffffff1681526020016000820160149054906101000a90046bffffffffffffffffffffffff166bffffffffffffffffffffffff166bffffffffffffffffffffffff1681526020016001820160009054906101000a90046fffffffffffffffffffffffffffffffff166fffffffffffffffffffffffffffffffff166fffffffffffffffffffffffffffffffff1681526020016001820160109054906101000a90046fffffffffffffffffffffffffffffffff166fffffffffffffffffffffffffffffffff166fffffffffffffffffffffffffffffffff1681525050905060006002600083602001516bffffffffffffffffffffffff1681526020019081526020016000206040518060600160405290816000820160009054906101000a90046fffffffffffffffffffffffffffffffff166fffffffffffffffffffffffffffffffff166fffffffffffffffffffffffffffffffff1681526020016000820160109054906101000a90046fffffffffffffffffffffffffffffffff166fffffffffffffffffffffffffffffffff166fffffffffffffffffffffffffffffffff1681526020016001820160009054906101000a90046fffffffffffffffffffffffffffffffff166fffffffffffffffffffffffffffffffff166fffffffffffffffffffffffffffffffff16815250509050600081600001516fffffffffffffffffffffffffffffffff1683606001516fffffffffffffffffffffffffffffffff161115611cf7576040517f08c379a0000000000000000000000000000000000000000000000000000000008152600401611cee90614547565b60405180910390fd5b5b82604001516fffffffffffffffffffffffffffffffff16876fffffffffffffffffffffffffffffffff16118015611d3157508888905084105b156123ec5782602001516bffffffffffffffffffffffff168360400151611d589190614a12565b6fffffffffffffffffffffffffffffffff1681611d759190614596565b9050826040015187611d8791906145ca565b9650826040015182600001818151611d9f919061460e565b9150906fffffffffffffffffffffffffffffffff1690816fffffffffffffffffffffffffffffffff1681525050600083602001516bffffffffffffffffffffffff1690507f000000000000000000000000000000000000000000000000000000000000000073ffffffffffffffffffffffffffffffffffffffff166323b872dd3386600001516402540be4007f0000000000000000000000000000000000000000000000000000000000000000600a611e58919061486a565b89604001516fffffffffffffffffffffffffffffffff16611e7991906148b5565b611e839190614926565b6040518463ffffffff1660e01b8152600401611ea193929190614652565b6020604051808303816000875af1158015611ec0573d6000803e3d6000fd5b505050506040513d601f19601f82011682018060405250810190611ee4919061469e565b50600084604001906fffffffffffffffffffffffffffffffff1690816fffffffffffffffffffffffffffffffff1681525050836000808c8c89818110611f2d57611f2c61448e565b5b9050602002016020810190611f4291906144bd565b6bffffffffffffffffffffffff16815260200190815260200160002060008201518160000160006101000a81548173ffffffffffffffffffffffffffffffffffffffff021916908373ffffffffffffffffffffffffffffffffffffffff16021790555060208201518160000160146101000a8154816bffffffffffffffffffffffff02191690836bffffffffffffffffffffffff16021790555060408201518160010160006101000a8154816fffffffffffffffffffffffffffffffff02191690836fffffffffffffffffffffffffffffffff16021790555060608201518160010160106101000a8154816fffffffffffffffffffffffffffffffff02191690836fffffffffffffffffffffffffffffffff16021790555090505060018561206a9190614596565b94506000808b8b888181106120825761208161448e565b5b905060200201602081019061209791906144bd565b6bffffffffffffffffffffffff1681526020019081526020016000206040518060800160405290816000820160009054906101000a900473ffffffffffffffffffffffffffffffffffffffff1673ffffffffffffffffffffffffffffffffffffffff1673ffffffffffffffffffffffffffffffffffffffff1681526020016000820160149054906101000a90046bffffffffffffffffffffffff166bffffffffffffffffffffffff166bffffffffffffffffffffffff1681526020016001820160009054906101000a90046fffffffffffffffffffffffffffffffff166fffffffffffffffffffffffffffffffff166fffffffffffffffffffffffffffffffff1681526020016001820160109054906101000a90046fffffffffffffffffffffffffffffffff166fffffffffffffffffffffffffffffffff166fffffffffffffffffffffffffffffffff1681525050935083602001516bffffffffffffffffffffffff1681146123e657826002600083815260200190815260200160002060008201518160000160006101000a8154816fffffffffffffffffffffffffffffffff02191690836fffffffffffffffffffffffffffffffff16021790555060208201518160000160106101000a8154816fffffffffffffffffffffffffffffffff02191690836fffffffffffffffffffffffffffffffff16021790555060408201518160010160006101000a8154816fffffffffffffffffffffffffffffffff02191690836fffffffffffffffffffffffffffffffff1602179055509050506002600085602001516bffffffffffffffffffffffff1681526020019081526020016000206040518060600160405290816000820160009054906101000a90046fffffffffffffffffffffffffffffffff166fffffffffffffffffffffffffffffffff166fffffffffffffffffffffffffffffffff1681526020016000820160109054906101000a90046fffffffffffffffffffffffffffffffff166fffffffffffffffffffffffffffffffff166fffffffffffffffffffffffffffffffff1681526020016001820160009054906101000a90046fffffffffffffffffffffffffffffffff166fffffffffffffffffffffffffffffffff166fffffffffffffffffffffffffffffffff168152505092505b50611cf8565b6000876fffffffffffffffffffffffffffffffff1611801561241057508888905084105b156127fc578682600001818151612427919061460e565b9150906fffffffffffffffffffffffffffffffff1690816fffffffffffffffffffffffffffffffff168152505082602001516bffffffffffffffffffffffff16876124729190614a12565b6fffffffffffffffffffffffffffffffff168161248f9190614596565b90507f000000000000000000000000000000000000000000000000000000000000000073ffffffffffffffffffffffffffffffffffffffff166323b872dd3385600001516402540be4007f0000000000000000000000000000000000000000000000000000000000000000600a612506919061486a565b8c6fffffffffffffffffffffffffffffffff1661252391906148b5565b61252d9190614926565b6040518463ffffffff1660e01b815260040161254b93929190614652565b6020604051808303816000875af115801561256a573d6000803e3d6000fd5b505050506040513d601f19601f8201168201806040525081019061258e919061469e565b5086836040018181516125a191906145ca565b9150906fffffffffffffffffffffffffffffffff1690816fffffffffffffffffffffffffffffffff1681525050826000808b8b888181106125e5576125e461448e565b5b90506020020160208101906125fa91906144bd565b6bffffffffffffffffffffffff16815260200190815260200160002060008201518160000160006101000a81548173ffffffffffffffffffffffffffffffffffffffff021916908373ffffffffffffffffffffffffffffffffffffffff16021790555060208201518160000160146101000a8154816bffffffffffffffffffffffff02191690836bffffffffffffffffffffffff16021790555060408201518160010160006101000a8154816fffffffffffffffffffffffffffffffff02191690836fffffffffffffffffffffffffffffffff16021790555060608201518160010160106101000a8154816fffffffffffffffffffffffffffffffff02191690836fffffffffffffffffffffffffffffffff160217905550905050816002600085602001516bffffffffffffffffffffffff16815260200190815260200160002060008201518160000160006101000a8154816fffffffffffffffffffffffffffffffff02191690836fffffffffffffffffffffffffffffffff16021790555060208201518160000160106101000a8154816fffffffffffffffffffffffffffffffff02191690836fffffffffffffffffffffffffffffffff16021790555060408201518160010160006101000a8154816fffffffffffffffffffffffffffffffff02191690836fffffffffffffffffffffffffffffffff1602179055509050505b8515612858576000876fffffffffffffffffffffffffffffffff1614612857576040517f08c379a000000000000000000000000000000000000000000000000000000000815260040161284e90614717565b60405180910390fd5b5b7f000000000000000000000000000000000000000000000000000000000000000073ffffffffffffffffffffffffffffffffffffffff1663a9059cbb336402540be40060647f0000000000000000000000000000000000000000000000000000000000000000600a6128ca919061486a565b866128d591906148b5565b6128df9190614926565b6128e99190614926565b6040518363ffffffff1660e01b8152600401612906929190614957565b6020604051808303816000875af1158015612925573d6000803e3d6000fd5b505050506040513d601f19601f82011682018060405250810190612949919061469e565b5086945050505050949350505050565b60003073ffffffffffffffffffffffffffffffffffffffff166316683ef886868660006040518563ffffffff1660e01b815260040161299b94939291906143e3565b6020604051808303816000875af11580156129ba573d6000803e3d6000fd5b505050506040513d601f19601f820116820180604052508101906129de9190614438565b90503073ffffffffffffffffffffffffffffffffffffffff166324b291db83836040518363ffffffff1660e01b8152600401612a1b929190614465565b600060405180830381600087803b158015612a3557600080fd5b505af1158015612a49573d6000803e3d6000fd5b505050505050505050565b60006020528060005260406000206000915090508060000160009054906101000a900473ffffffffffffffffffffffffffffffffffffffff16908060000160149054906101000a90046bffffffffffffffffffffffff16908060010160009054906101000a90046fffffffffffffffffffffffffffffffff16908060010160109054906101000a90046fffffffffffffffffffffffffffffffff16905084565b8051825114612b38576040517f08c379a0000000000000000000000000000000000000000000000000000000008152600401612b2f90614ac1565b60405180910390fd5b60005b8251811015612bf8573073ffffffffffffffffffffffffffffffffffffffff166324b291db848381518110612b7357612b7261448e565b5b6020026020010151848481518110612b8e57612b8d61448e565b5b60200260200101516040518363ffffffff1660e01b8152600401612bb3929190614465565b600060405180830381600087803b158015612bcd57600080fd5b505af1158015612be1573d6000803e3d6000fd5b505050508080612bf090614ae1565b915050612b3b565b505050565b60008060008381526020019081526020016000206040518060800160405290816000820160009054906101000a900473ffffffffffffffffffffffffffffffffffffffff1673ffffffffffffffffffffffffffffffffffffffff1673ffffffffffffffffffffffffffffffffffffffff1681526020016000820160149054906101000a90046bffffffffffffffffffffffff166bffffffffffffffffffffffff166bffffffffffffffffffffffff1681526020016001820160009054906101000a90046fffffffffffffffffffffffffffffffff166fffffffffffffffffffffffffffffffff166fffffffffffffffffffffffffffffffff1681526020016001820160109054906101000a90046fffffffffffffffffffffffffffffffff166fffffffffffffffffffffffffffffffff166fffffffffffffffffffffffffffffffff16815250509050806000015173ffffffffffffffffffffffffffffffffffffffff163373ffffffffffffffffffffffffffffffffffffffff1614612db8576040517f08c379a0000000000000000000000000000000000000000000000000000000008152600401612daf906149f2565b60405180910390fd5b80604001516001600083602001516bffffffffffffffffffffffff16815260200190815260200160002060000160008282829054906101000a90046fffffffffffffffffffffffffffffffff16612e0f919061460e565b92506101000a8154816fffffffffffffffffffffffffffffffff02191690836fffffffffffffffffffffffffffffffff160217905550600080838152602001908152602001600020600080820160006101000a81549073ffffffffffffffffffffffffffffffffffffffff02191690556000820160146101000a8154906bffffffffffffffffffffffff02191690556001820160006101000a8154906fffffffffffffffffffffffffffffffff02191690556001820160106101000a8154906fffffffffffffffffffffffffffffffff021916905550507f000000000000000000000000000000000000000000000000000000000000000073ffffffffffffffffffffffffffffffffffffffff1663a9059cbb82600001516402540be40060647f0000000000000000000000000000000000000000000000000000000000000000600a612f5c919061486a565b86602001516bffffffffffffffffffffffff168760400151612f7e9190614a12565b6fffffffffffffffffffffffffffffffff16612f9a91906148b5565b612fa49190614926565b612fae9190614926565b6040518363ffffffff1660e01b8152600401612fcb929190614957565b6020604051808303816000875af1158015612fea573d6000803e3d6000fd5b505050506040513d601f19601f8201168201806040525081019061300e919061469e565b505050565b60005b8686905081101561339b5760008060008989858181106130395761303861448e565b5b905060200201358152602001908152602001600020905060008686848181106130655761306461448e565b5b905060200201602081019061307a9190614b29565b6130cb57600260008686868181106130955761309461448e565b5b90506020020160208101906130aa91906144bd565b6bffffffffffffffffffffffff168152602001908152602001600020613114565b600160008686868181106130e2576130e161448e565b5b90506020020160208101906130f791906144bd565b6bffffffffffffffffffffffff1681526020019081526020016000205b9050600087878581811061312b5761312a61448e565b5b90506020020160208101906131409190614b29565b61318657600260008460000160149054906101000a90046bffffffffffffffffffffffff166bffffffffffffffffffffffff1681526020019081526020016000206131c4565b600160008460000160149054906101000a90046bffffffffffffffffffffffff166bffffffffffffffffffffffff1681526020019081526020016000205b90508260010160009054906101000a90046fffffffffffffffffffffffffffffffff168160000160008282829054906101000a90046fffffffffffffffffffffffffffffffff16613215919061460e565b92506101000a8154816fffffffffffffffffffffffffffffffff02191690836fffffffffffffffffffffffffffffffff1602179055508160000160109054906101000a90046fffffffffffffffffffffffffffffffff168360010160106101000a8154816fffffffffffffffffffffffffffffffff02191690836fffffffffffffffffffffffffffffffff1602179055508585858181106132b9576132b861448e565b5b90506020020160208101906132ce91906144bd565b8360000160146101000a8154816bffffffffffffffffffffffff02191690836bffffffffffffffffffffffff1602179055508260010160009054906101000a90046fffffffffffffffffffffffffffffffff168260000160108282829054906101000a90046fffffffffffffffffffffffffffffffff1661334f919061460e565b92506101000a8154816fffffffffffffffffffffffffffffffff02191690836fffffffffffffffffffffffffffffffff160217905550505050808061339390614ae1565b915050613016565b50505050505050565b60016020528060005260406000206000915090508060000160009054906101000a90046fffffffffffffffffffffffffffffffff16908060000160109054906101000a90046fffffffffffffffffffffffffffffffff16908060010160009054906101000a90046fffffffffffffffffffffffffffffffff16905083565b600060035490506001816134369190614596565b600381905550600060026000856bffffffffffffffffffffffff16815260200190815260200160002090506134798185856001866134749190614596565b613736565b7f000000000000000000000000000000000000000000000000000000000000000073ffffffffffffffffffffffffffffffffffffffff166323b872dd33306402540be4007f0000000000000000000000000000000000000000000000000000000000000000600a6134ea919061486a565b886fffffffffffffffffffffffffffffffff1661350791906148b5565b6135119190614926565b6040518463ffffffff1660e01b815260040161352f93929190614652565b6020604051808303816000875af115801561354e573d6000803e3d6000fd5b505050506040513d601f19601f82011682018060405250810190613572919061469e565b5050505050565b60005b82518110156136c8578181815181106135985761359761448e565b5b60200260200101511561362f573073ffffffffffffffffffffffffffffffffffffffff1663be5d147f8483815181106135d4576135d361448e565b5b60200260200101516040518263ffffffff1660e01b81526004016135f89190613c79565b600060405180830381600087803b15801561361257600080fd5b505af1158015613626573d6000803e3d6000fd5b505050506136b5565b3073ffffffffffffffffffffffffffffffffffffffff16631a46e42a84838151811061365e5761365d61448e565b5b60200260200101516040518263ffffffff1660e01b81526004016136829190613c79565b600060405180830381600087803b15801561369c57600080fd5b505af11580156136b0573d6000803e3d6000fd5b505050505b80806136c090614ae1565b91505061357c565b505050565b60006402540be40060647f0000000000000000000000000000000000000000000000000000000000000000600a613704919061486a565b848661371091906148b5565b61371a91906148b5565b6137249190614926565b61372e9190614926565b905092915050565b60008460000160109054906101000a90046fffffffffffffffffffffffffffffffff16905060405180608001604052803373ffffffffffffffffffffffffffffffffffffffff168152602001856bffffffffffffffffffffffff168152602001846fffffffffffffffffffffffffffffffff168152602001826fffffffffffffffffffffffffffffffff1681525060008084815260200190815260200160002060008201518160000160006101000a81548173ffffffffffffffffffffffffffffffffffffffff021916908373ffffffffffffffffffffffffffffffffffffffff16021790555060208201518160000160146101000a8154816bffffffffffffffffffffffff02191690836bffffffffffffffffffffffff16021790555060408201518160010160006101000a8154816fffffffffffffffffffffffffffffffff02191690836fffffffffffffffffffffffffffffffff16021790555060608201518160010160106101000a8154816fffffffffffffffffffffffffffffffff02191690836fffffffffffffffffffffffffffffffff160217905550905050828560000160108282829054906101000a90046fffffffffffffffffffffffffffffffff16613904919061460e565b92506101000a8154816fffffffffffffffffffffffffffffffff02191690836fffffffffffffffffffffffffffffffff1602179055505050505050565b6000604051905090565b600080fd5b600080fd5b600080fd5b600080fd5b600080fd5b60008083601f84011261397a57613979613955565b5b8235905067ffffffffffffffff8111156139975761399661395a565b5b6020830191508360208202830111156139b3576139b261395f565b5b9250929050565b60006fffffffffffffffffffffffffffffffff82169050919050565b6139df816139ba565b81146139ea57600080fd5b50565b6000813590506139fc816139d6565b92915050565b60006bffffffffffffffffffffffff82169050919050565b613a2381613a02565b8114613a2e57600080fd5b50565b600081359050613a4081613a1a565b92915050565b60008060008060608587031215613a6057613a5f61394b565b5b600085013567ffffffffffffffff811115613a7e57613a7d613950565b5b613a8a87828801613964565b94509450506020613a9d878288016139ed565b9250506040613aae87828801613a31565b91505092959194509250565b6000819050919050565b613acd81613aba565b8114613ad857600080fd5b50565b600081359050613aea81613ac4565b92915050565b600060208284031215613b0657613b0561394b565b5b6000613b1484828501613adb565b91505092915050565b613b26816139ba565b82525050565b6000606082019050613b416000830186613b1d565b613b4e6020830185613b1d565b613b5b6040830184613b1d565b949350505050565b60008115159050919050565b613b7881613b63565b8114613b8357600080fd5b50565b600081359050613b9581613b6f565b92915050565b60008060008060608587031215613bb557613bb461394b565b5b600085013567ffffffffffffffff811115613bd357613bd2613950565b5b613bdf87828801613964565b94509450506020613bf2878288016139ed565b9250506040613c0387828801613b86565b91505092959194509250565b6000602082019050613c246000830184613b1d565b92915050565b60008060408385031215613c4157613c4061394b565b5b6000613c4f85828601613a31565b9250506020613c60858286016139ed565b9150509250929050565b613c7381613aba565b82525050565b6000602082019050613c8e6000830184613c6a565b92915050565b6000601f19601f8301169050919050565b7f4e487b7100000000000000000000000000000000000000000000000000000000600052604160045260246000fd5b613cdd82613c94565b810181811067ffffffffffffffff82111715613cfc57613cfb613ca5565b5b80604052505050565b6000613d0f613941565b9050613d1b8282613cd4565b919050565b600067ffffffffffffffff821115613d3b57613d3a613ca5565b5b602082029050602081019050919050565b6000613d5f613d5a84613d20565b613d05565b90508083825260208201905060208402830185811115613d8257613d8161395f565b5b835b81811015613dab5780613d978882613a31565b845260208401935050602081019050613d84565b5050509392505050565b600082601f830112613dca57613dc9613955565b5b8135613dda848260208601613d4c565b91505092915050565b600067ffffffffffffffff821115613dfe57613dfd613ca5565b5b602082029050602081019050919050565b6000613e22613e1d84613de3565b613d05565b90508083825260208201905060208402830185811115613e4557613e4461395f565b5b835b81811015613e6e5780613e5a88826139ed565b845260208401935050602081019050613e47565b5050509392505050565b600082601f830112613e8d57613e8c613955565b5b8135613e9d848260208601613e0f565b91505092915050565b60008060408385031215613ebd57613ebc61394b565b5b600083013567ffffffffffffffff811115613edb57613eda613950565b5b613ee785828601613db5565b925050602083013567ffffffffffffffff811115613f0857613f07613950565b5b613f1485828601613e78565b9150509250929050565b600073ffffffffffffffffffffffffffffffffffffffff82169050919050565b6000613f4982613f1e565b9050919050565b613f5981613f3e565b82525050565b613f6881613a02565b82525050565b6000608082019050613f836000830187613f50565b613f906020830186613f5f565b613f9d6040830185613b1d565b613faa6060830184613b1d565b95945050505050565b60008083601f840112613fc957613fc8613955565b5b8235905067ffffffffffffffff811115613fe657613fe561395a565b5b6020830191508360208202830111156140025761400161395f565b5b9250929050565b60008083601f84011261401f5761401e613955565b5b8235905067ffffffffffffffff81111561403c5761403b61395a565b5b6020830191508360208202830111156140585761405761395f565b5b9250929050565b6000806000806000806060878903121561407c5761407b61394b565b5b600087013567ffffffffffffffff81111561409a57614099613950565b5b6140a689828a01613fb3565b9650965050602087013567ffffffffffffffff8111156140c9576140c8613950565b5b6140d589828a01614009565b9450945050604087013567ffffffffffffffff8111156140f8576140f7613950565b5b61410489828a01613964565b92509250509295509295509295565b600067ffffffffffffffff82111561412e5761412d613ca5565b5b602082029050602081019050919050565b600061415261414d84614113565b613d05565b905080838252602082019050602084028301858111156141755761417461395f565b5b835b8181101561419e578061418a8882613adb565b845260208401935050602081019050614177565b5050509392505050565b600082601f8301126141bd576141bc613955565b5b81356141cd84826020860161413f565b91505092915050565b600067ffffffffffffffff8211156141f1576141f0613ca5565b5b602082029050602081019050919050565b6000614215614210846141d6565b613d05565b905080838252602082019050602084028301858111156142385761423761395f565b5b835b81811015614261578061424d8882613b86565b84526020840193505060208101905061423a565b5050509392505050565b600082601f8301126142805761427f613955565b5b8135614290848260208601614202565b91505092915050565b600080604083850312156142b0576142af61394b565b5b600083013567ffffffffffffffff8111156142ce576142cd613950565b5b6142da858286016141a8565b925050602083013567ffffffffffffffff8111156142fb576142fa613950565b5b6143078582860161426b565b9150509250929050565b600082825260208201905092915050565b6000819050919050565b61433581613a02565b82525050565b6000614347838361432c565b60208301905092915050565b60006143626020840184613a31565b905092915050565b6000602082019050919050565b60006143838385614311565b935061438e82614322565b8060005b858110156143c7576143a48284614353565b6143ae888261433b565b97506143b98361436a565b925050600181019050614392565b5085925050509392505050565b6143dd81613b63565b82525050565b600060608201905081810360008301526143fe818688614377565b905061440d6020830185613b1d565b61441a60408301846143d4565b95945050505050565b600081519050614432816139d6565b92915050565b60006020828403121561444e5761444d61394b565b5b600061445c84828501614423565b91505092915050565b600060408201905061447a6000830185613f5f565b6144876020830184613b1d565b9392505050565b7f4e487b7100000000000000000000000000000000000000000000000000000000600052603260045260246000fd5b6000602082840312156144d3576144d261394b565b5b60006144e184828501613a31565b91505092915050565b600082825260208201905092915050565b7f4f72646572426f6f6b3a206f72646572206e6f742065786563757461626c6500600082015250565b6000614531601f836144ea565b915061453c826144fb565b602082019050919050565b6000602082019050818103600083015261456081614524565b9050919050565b7f4e487b7100000000000000000000000000000000000000000000000000000000600052601160045260246000fd5b60006145a182613aba565b91506145ac83613aba565b92508282019050808211156145c4576145c3614567565b5b92915050565b60006145d5826139ba565b91506145e0836139ba565b925082820390506fffffffffffffffffffffffffffffffff81111561460857614607614567565b5b92915050565b6000614619826139ba565b9150614624836139ba565b925082820190506fffffffffffffffffffffffffffffffff81111561464c5761464b614567565b5b92915050565b60006060820190506146676000830186613f50565b6146746020830185613f50565b6146816040830184613c6a565b949350505050565b60008151905061469881613b6f565b92915050565b6000602082840312156146b4576146b361394b565b5b60006146c284828501614689565b91505092915050565b7f696e73756666696369656e7420766f6c756d65206f6e20626f6f6b0000000000600082015250565b6000614701601b836144ea565b915061470c826146cb565b602082019050919050565b60006020820190508181036000830152614730816146f4565b9050919050565b60008160011c9050919050565b6000808291508390505b600185111561478e5780860481111561476a57614769614567565b5b60018516156147795780820291505b808102905061478785614737565b945061474e565b94509492505050565b6000826147a75760019050614863565b816147b55760009050614863565b81600181146147cb57600281146147d557614804565b6001915050614863565b60ff8411156147e7576147e6614567565b5b8360020a9150848211156147fe576147fd614567565b5b50614863565b5060208310610133831016604e8410600b84101617156148395782820a90508381111561483457614833614567565b5b614863565b6148468484846001614744565b9250905081840481111561485d5761485c614567565b5b81810290505b9392505050565b600061487582613aba565b915061488083613aba565b92506148ad7fffffffffffffffffffffffffffffffffffffffffffffffffffffffffffffffff8484614797565b905092915050565b60006148c082613aba565b91506148cb83613aba565b92508282026148d981613aba565b915082820484148315176148f0576148ef614567565b5b5092915050565b7f4e487b7100000000000000000000000000000000000000000000000000000000600052601260045260246000fd5b600061493182613aba565b915061493c83613aba565b92508261494c5761494b6148f7565b5b828204905092915050565b600060408201905061496c6000830185613f50565b6149796020830184613c6a565b9392505050565b7f4f72646572426f6f6b3a204f6e6c79206f72646572206f776e65722063616e2060008201527f63616e63656c206f726465720000000000000000000000000000000000000000602082015250565b60006149dc602c836144ea565b91506149e782614980565b604082019050919050565b60006020820190508181036000830152614a0b816149cf565b9050919050565b6000614a1d826139ba565b9150614a28836139ba565b9250828202614a36816139ba565b9150808214614a4857614a47614567565b5b5092915050565b7f4f72646572426f6f6b3a2050726963657320616e642073697a6573206172726160008201527f79206c656e677468206d757374206d6174636800000000000000000000000000602082015250565b6000614aab6033836144ea565b9150614ab682614a4f565b604082019050919050565b60006020820190508181036000830152614ada81614a9e565b9050919050565b6000614aec82613aba565b91507fffffffffffffffffffffffffffffffffffffffffffffffffffffffffffffffff8203614b1e57614b1d614567565b5b600182019050919050565b600060208284031215614b3f57614b3e61394b565b5b6000614b4d84828501613b86565b9150509291505056fea26469706673582212208d378a98945d696b7ef7ddfd65c572590d69552df144ef1ad57fa1b8785194d164736f6c63430008110033",
  "linkReferences": {},
  "deployedLinkReferences": {}
}